:020000040800F2
:1000000040340120550200085D0200085F0200082C
:100010006102000863020008650200080000000099
:100020000000000000000000000000009D0100082A
:100030006902000800000000F1010008A90E000894
:100040006F0200086F0200086F0200086F020008CC
:100050006F0200086F020008210400086F02000808
:10006000550400088D040008B10400086F02000860
:100070006F0200086F0200086F0200086F0200089C
:100080006F0200086F0200086F0200086F0200088C
:100090006F0200086F0200086F0200086F0200087C
:1000A000450F00086F0200086F0200086F02000889
:1000B000750F0008A10F00086F0200086F0200080A
:1000C0006F0200086F0200086F0200086F0200084C
:1000D0006F020008291000086F020008A91000082C
:1000E0006F0200086F0200086F0200086F0200082C
:1000F0006F0200086F0200086F0200086F0200081C
:100100006F0200086F0200086F0200086F0200080B
:100110006F0200086F0200086F0200086F020008FB
:100120006F0200086F0200086F0200086F020008EB
:100130006F0200086F0200086F0200086F020008DB
:100140006F0200086F0200086F0200086F020008CB
:100150006F0200086F0200086F0200086F020008BB
:100160006F0200086F0200086F0200086F020008AB
:100170006F0200086F0200086F0200086F0200089B
:100180006F0200086F020008DFF80CD000F0ECF8F6
:1001900000480047C12C0008403401202A4B196850
:1001A0000868B0E8F04F80F30988BFF36F8F4FF015
:1001B000000080F3118870470000000006480068C6
:1001C000006880F3088862B661B6BFF34F8FBFF353
:1001D0006F8F00DF00BF00BF08ED00E0DFF80C000C
:1001E000016841F470010160704700BF88ED00E0D4
:1001F000EFF30980BFF36F8F134B1A681EF0100FD7
:1002000008BF20ED108A20E9F04F106008B44FF0CD
:10021000500080F31188BFF34F8FBFF36F8F06F04C
:1002200073F94FF0000080F3118808BC1968086862
:10023000B0E8F04F1EF0100F08BFB0EC108A80F34A
:100240000988BFF36F8F704704010020EFF305802A
:10025000704700000648804706480047FEE7FEE773
:10026000FEE7FEE7FEE7FEE7FEE7FEE7FEE7FEE766
:10027000DD0E00088901000840EA01039B0703D056
:1002800009E008C9121F08C0042AFAD203E011F8D5
:10029000013B00F8013B521EF9D27047D2B201E097
:1002A00000F8012B491EFBD270470022F6E710B57B
:1002B00013460A4604461946FFF7F0FF204610BDD4
:1002C00030B505462A460B4612F8010B13F8014BD0
:1002D00008B1A042F8D01CB1002802D06D1CF1E793
:1002E000284630BD421C10F8011B0029FBD1801AA2
:1002F0007047034611F8012B00F8012B002AF9D1B1
:10030000184670472DE9F05F0546002092469B464F
:1003100088460646814640241BE02846414647461B
:10032000224600F042F853465A46C01A914110D373
:1003300011461846224600F029F82D1A67EB0108ED
:100340004F4622460120002100F020F817EB00095B
:100350004E41201EA4F10104DFDC484631462A4606
:100360004346BDE8F09F0000064C074D06E0E068FC
:1003700040F0010394E8070098471034AC42F6D3EC
:10038000FFF706FF3C7D00085C7D0008202A04DBA7
:10039000203A00FA02F1002070479140C2F1200398
:1003A00020FA03F3194390407047202A04DB203AD7
:1003B00021FA02F00021704721FA02F3D040C2F185
:1003C0002002914008431946704770B58C1810F808
:1003D000015B15F0070301D110F8013B2A1106D18A
:1003E00010F8012B03E010F8016B01F8016B5B1EA4
:1003F000F9D12B0705D40023521E0DD401F8013B7F
:10040000FAE710F8013BCB1A921C03E013F8015BEA
:1004100001F8015B521EF9D5A142D8D3002070BD6E
:1004200010B500BF5021EFF3118081F31188BFF3A5
:100430004F8FBFF36F8F00BF0446012000F050F8CC
:10044000012801D100F046F800BF84F3118800BFF5
:1004500010BD000010B5042000F042F801280DD1B5
:1004600007480068C0430749C1F8A4024FF4FA7175
:10047000054800F0D7FD042000F02CF810BD000066
:10048000A4824242008042420004004010B508208D
:1004900000F026F8012807D14FF44871034800F016
:1004A000C1FD082000F016F810BD00000004004057
:1004B00010B5102000F014F8012807D140F2DE3109
:1004C000034800F0AFFD102000F004F810BD00005C
:1004D000000400400149086070470000143C0140DE
:1004E00001460020034A12680A400AB1012000E0D8
:1004F00000207047143C014001490860704700002B
:100500000C3C024070B504460A460026092502B993
:1005100009E0012A01D1160205E0022A01D11602E2
:1005200001E04FF4407600F09FF80546092D28D1F0
:100530001548006820F440701349086008460068B8
:10054000304308600846006820F0F800086008465C
:10055000006844F0020108430B490860084600683F
:1005600040F48030086000F07FF8054606480068D7
:1005700020F00200044908600846006820F0F800F6
:100580000860284670BD0000103C02400920134955
:10059000096801F48031B1F5803F01D101201CE0F0
:1005A0000E49096801F0100109B1062015E00B4958
:1005B000096801F4807109B102200EE00749096859
:1005C00001F0EF0109B1072007E00449096801F0D3
:1005D000020109B1082000E0092070470C3C0240EC
:1005E0000348006840F0004001490860704700007F
:1005F000103C024030B502460C46092500F034F8A4
:100600000546092D19D10E48006820F440700C49A8
:1006100008600846006840F40070086008460068FA
:1006200040F001000860146000F01EF80546044820
:10063000006820F0010002490860284630BD000033
:10064000103C02400548006800F0004028B1044812
:1006500002490C390860034808607047103C0240AA
:1006600023016745AB89EFCD08B509200090FFF75E
:100670008DFF009002E0FFF789FF00909DF80000D9
:100680000128F8D09DF8000008BDF0B50A46002109
:100690000023002400BF3DE0012505FA01F31568A1
:1006A00005EA03049C4234D105684F000326BE408E
:1006B000B543056015794E00B540066835430560C1
:1006C0001579012D02D01579022D16D185684F00BC
:1006D0000326BE40B543856055794E00B540866817
:1006E00035438560456801268E40B54345604568C1
:1006F00096798E40B6B235434560C5684F000326F3
:10070000BE40B543C560D5794E00B540C668354397
:10071000C560491C1029BFD3F0BDF0B500230024EB
:100720004D07ED0E02FA05F3CE1000F1200555F845
:1007300026504E07F70E0F26BE40B543CF1000F1EE
:10074000200646F82750CE1000F1200555F8265017
:1007500045EA0304CE1000F1200545F82640F0BD1F
:100760000246002013690B400BB1012000E000207D
:1007700070474183704701837047000010B54FF404
:1007800000710E48FFF7F7FF4FF480710B48FFF739
:10079000F2FF052001F03EFF4FF400710748FFF71C
:1007A000E8FF052001F036FF4FF480710348FFF7A2
:1007B000E0FF052001F02EFF10BD00000004024004
:1007C00010B54FF480710E48FFF7D3FF4FF400715E
:1007D0000B48FFF7CEFF052001F01CFF4FF480719E
:1007E0000748FFF7C8FF052001F014FF4FF4007120
:1007F0000348FFF7C0FF052001F00CFF10BD00000B
:100800000004024010B54FF400711048FFF7B3FF29
:1008100000F08EFA022001F0FDFE4FF480710B48CB
:10082000FFF7A9FF022001F0F5FE0848103000682C
:10083000C0F340244FF480710448FFF79AFF00F0A2
:1008400081FA022001F0E6FE204610BD00040240BD
:1008500070B50446002521E004F0800028B14FF473
:1008600000711148FFF787FF04E04FF400710E4854
:10087000FFF77FFF4FF480710B48FFF77CFF0520E7
:1008800001F0C8FE4FF480710748FFF772FF0520A2
:1008900001F0C0FE6006040E681CC5B2082DDBDB4B
:1008A000FFF7B0FF70BD00000004024070B50021EA
:1008B00000230F22C4781CB3174C246804F4E064AE
:1008C000C4F5E064C4F30721C1F10404E3B20A41B2
:1008D00044789C40E1B28478144021430C07210EF7
:1008E0000E4C05786155047804F01F050124AC40D6
:1008F00005786D11AD0005F1E025C5F8004109E06E
:10090000047804F01F050124AC40054D06787611EB
:1009100045F8264070BD00000CED00E000E400E06A
:1009200080E100E002490143024A11607047000083
:100930000000FA050CED00E010B50446FFF71EFFBD
:1009400006480078FFF784FF0020FFF781FF20466C
:10095000FFF77EFFFFF734FF10BD0000840000208A
:1009600010B50446FFF70AFF06480078FFF770FF4E
:100970004020FFF76DFF2046FFF76AFFFFF720FFDB
:1009800010BD00008400002010B5142000F038F8DD
:10099000044604F0030018B90321142000F07AF88B
:1009A00010BD7CB5044600210D2000F007F993200E
:1009B00020702020607001A823460222214600906A
:1009C0000C2000F074F808B101207CBD2078882844
:1009D00007D0002503E0605D6055681CC5B2042D9A
:1009E000F9DB0020F1E770B505460C46284600F01B
:1009F00007F820EA04063146284600F0DFF870BD0B
:100A000070B5044680210A48FFF7B3FE7E2101EA53
:100A1000440141F0800000F09FF9002000F09CF9B3
:100A2000054680210248FFF7A6FE284670BD00005B
:100A3000000C02407CB505460C4607210D2000F055
:100A4000BDF8257001A823460122214600900C2004
:100A500000F02DF808B101207CBD9DF8040010289D
:100A600001D00220F8E70020F6E7000010B54FF4AF
:100A700000610748FFF77DFE0A2003F06BFC4FF48E
:100A800000610348FFF777FE0A2003F063FC10BD06
:100A90000008024070B505460C462846FFF7B0FF37
:100AA00040EA04063146284600F088F870BD2DE97A
:100AB000FC5F0546894692469B46002001900090C7
:100AC0000C2D03D17720019030200090019840F048
:100AD0008001022000F072F880210420FFF783FFDC
:100AE0000021012000F06AF880210A20FFF7D2FFE0
:100AF000002406E019F80410092000F05FF8601CDB
:100B0000C4B25445F6DB2946012000F057F80C2DFD
:100B100003D180210D20FFF7BDFF4FF4FA6600BF1F
:100B20000420FFF76DFF0446701E86B236B104F054
:100B3000010018B9009820400028F1D080210D2034
:100B4000FFF751FF16B90120BDE8FC9F0420FFF715
:100B500057FF00F0010008B10220F5E70420FFF77D
:100B60004FFF00F0010030BB0A20FFF749FF0446A9
:100B70000C20FFF745FF00F00708B8F1000F06D082
:100B8000601E08EBC000C1B20C98017003E0E006E3
:100B9000010E0C98017004B90124102C00DD102402
:100BA000002706E00920FFF72BFF0BF80700781C51
:100BB000C7B2A742F6DB0020C6E7000070B50446C6
:100BC0000D4680210748FFF7D4FD7E2101EA44004D
:100BD00000F0C2F8284600F0BFF880210148FFF776
:100BE000CAFD70BD000C024029B1064A12680243DA
:100BF000044B1A6004E0034A12688243014B1A60F6
:100C0000704700003038024029B1064A126802439A
:100C1000044B1A6004E0034A12688243014B1A60D5
:100C2000704700004038024029B1064A126802436A
:100C3000044B1A6004E0034A12688243014B1A60B5
:100C40007047000044380240F0B500210022002423
:100C5000022500260223324F3F6807F00C0121B124
:100C6000042905D0082937D105E02E4F076036E06A
:100C70002D4F076033E02A4F3F1F3F68C7F3805670
:100C8000274F3F1F3F6807F03F036EB1264FB7FB6A
:100C9000F3F7DFF88CC0ACF1040CDCF800C0CCF347
:100CA000881C07FB0CF40CE01E4FB7FBF3F7DFF8D2
:100CB00070C0ACF1040CDCF800C0CCF3881C07FB5E
:100CC0000CF4174F3F1F3F68C7F301477F1C7D009F
:100CD000B4FBF5F7076002E0124F076000BF00BFEA
:100CE0000F4F3F6807F0F0010909104F7A5C076861
:100CF000D74047600A4F3F6807F4E051890A0B4F1D
:100D00007A5C4768D7408760054F3F6807F46041C9
:100D1000490B064F7A5C4768D740C760F0BD0000BA
:100D2000083802400024F40000127A005401002028
:100D30000348006820F44020014908607047000023
:100D4000000402400348006840F480200149086024
:100D5000704700000004024070B50446002525E0FD
:100D600004F0800020B140211248FFF704FD03E0A9
:100D700040211048FFF7FDFC03F0E6FB40210E4840
:100D8000FFF7F9FC03F0E0FB6006040E4FF48071FE
:100D90000848FFF7E5FC08B144F00104402106488B
:100DA000FFF7E7FC03F0D0FB681CC5B2082DD7DBCA
:100DB000204670BD00080240000C02400CB5002027
:100DC000019000903448006840F480303249086057
:100DD00000BF3148006800F4003000900198401CCA
:100DE0000190009818B90198B0F5A04FF1D12A48A8
:100DF000006800F4003010B10120009001E00020F4
:100E000000900098012846D123484030006840F007
:100E100080502149403108602048006840F440403B
:100E20001E4908601C48083000681B4908310860EA
:100E30000846006840F4004008600846006840F436
:100E4000A05008601648091F0860081F006840F09D
:100E50008070091F086000BF0F48006800F0007034
:100E60000028F9D040F205700E4908600A480830A1
:100E7000006820F00300084908310860084600684F
:100E800040F00200086000BF03480830006800F02E
:100E90000C000828F8D10CBD00380240007000405A
:100EA00008544007003C024010B500BF502080F3BA
:100EB0001188BFF34F8FBFF36F8F00BF06F0CAF9E1
:100EC00018B14FF080500449086000BF002080F343
:100ED000118800BF10BD000004ED00E010B51548FA
:100EE000006840F47000134908601348006840F03F
:100EF00001001149086000200F49083108600E48C0
:100F000000680E4908400C4908600D48091D08603A
:100F1000081F006820F48020091F0860002006498F
:100F20000C310860FFF74AFF4FF00060014980393B
:100F3000086010BD88ED00E000380240FFFFF6FEBB
:100F40001030002410B50121074800F05AF801289C
:100F500009D106480068C0430549C1F8B80201211B
:100F6000014800F03FF810BD00400140B802424285
:100F70000000424210B50121880700F042F8012824
:100F800009D105480068C0430449C1F8A402012101
:100F9000880700F027F810BDA48242420080424238
:100FA00010B501210B4800F02CF8012810D10A4897
:100FB000006828B909480068C0430949C1F8A4027B
:100FC0000021044800F011F80121024800F00AF85D
:100FD00010BD00000004004008024242A4824242C8
:100FE00000804242CA430282704721B1028842F027
:100FF0000102028004E002884FF6FE731A4002806C
:10100000704730B50246002000230024158A05EA07
:101010000103958905EA010413B10CB1012000E038
:10102000002030BD4163704770B500BF5021EFF321
:10103000118081F31188BFF34F8FBFF36F8F00BF13
:10104000044640F22551144800F09AF801281DD1B9
:10105000114800F04FF9C1B210480578681C0F4ADA
:1010600010700F48415510460078401E0C49085C2E
:101070002A2803D0104600783F2802D301200949CE
:10108000087040F22551044800F052F800BF84F384
:10109000118800BF70BD0000001001408C000020CE
:1010A000C40100208D00002070B500BF5021EFF377
:1010B000118081F31188BFF34F8FBFF36F8F00BF93
:1010C000054640F22551164800F05AF8012821D172
:1010D000134800F00FF9C4B2124800783F2813D229
:1010E00010490878411C0F4A11700F490C542A2CE2
:1010F00007D00D2C05D00A2C03D0104600783E28CE
:1011000002D301200949087040F22551044800F03B
:101110000FF800BF00BF85F3118800BF70BD00004D
:10112000004800408E000020040200208F000020B4
:1011300010B50022002340F66A14A14200D100BF7E
:101140000A1201249440A3B2DC43048010BD21B1F3
:10115000828942F40052828104E082894DF6FF7355
:101160001A408281704702460020B1F5007F00D10D
:1011700000BF13880B400BB1012000E00020704736
:1011800070B50246002400230025002040F66A16B0
:10119000B14200D100BFC1F3421501F01F03012687
:1011A00006FA03F3012D02D19689334006E0022DA1
:1011B00002D1168A334001E0968A33400C12012690
:1011C00006FA04F41688344013B10CB1012000E093
:1011D000002070BDF0B50346002400260025002045
:1011E00040F66A17B94200D100BF1846C1F3421455
:1011F00001F01F06012707FA06F5012C01D10C307A
:1012000004E0022C01D1103000E014301AB107685C
:101210002F43076002E00768AF430760F0BD00009E
:101220002DE9FF4705460E460024A14600BFA04613
:10123000B08900B100BF2C8A24F44054F0880443E4
:101240002C82AC8941F20C608443B0883189084318
:10125000718908430443AC81AC8A24F44074B0899A
:101260000443AC826846FFF7EFFC2048854202D079
:101270001F48854202D1DDF80C9001E0DDF80890AE
:10128000A88900F4004040B109EBC90000EB091047
:1012900031684900B0FBF1F707E009EBC90000EB4A
:1012A000091031688900B0FBF1F76420B7FBF0F05A
:1012B00004012009642101FB1078A88900F4004092
:1012C00040B1322000EBC800B0FBF1F000F00700A5
:1012D000044308E0322000EB08106421B0FBF1F079
:1012E00000F00F0004432C81BDE8FF87001001408F
:1012F0000014014001468888C0F308007047C1F31C
:1013000008028280704700000FB4054B10B503A996
:10131000044A029800F040F810BC5DF814FB00008D
:10132000112A0008D80000200FB41CB50A46521E2E
:10133000CDE9000207A9054B6A46069800F02CF893
:10134000009A002111701CBC5DF814FBFB1700080B
:101350000FB4084B10B504A902AA039800F01CF8BA
:10136000044602A9002000F053FA204610BC5DF8A4
:1013700014FB00001118000802E008C8121F08C181
:10138000002AFAD170477047002001E001C1121F06
:10139000002AFBD1704700002DE9FF4F8DB00F46AA
:1013A0000546002606E025280BD0DDE90F12904700
:1013B0006D1C761C28780028F5D111B03046BDE8A8
:1013C000F08F0024A246A1460122EC4900E004432C
:1013D00015F8013F203B02FA03F00842F7D12878C4
:1013E0002A2810D06FF02F022878A0F130010929A7
:1013F00014D80AEB8A0102EB410144F0020400EB2D
:10140000010A6D1CF0E701CF5FEA000A03D544F43E
:101410000054CAF1000A44F002046D1C28782E28FA
:1014200017D115F8010F44F004042A280ED06FF0EC
:101430002F022878A0F1300109290AD809EB890187
:1014400002EB410100EB01096D1CF2E757F8049B28
:101450006D1C28786C280FD006DC4C2817D0682823
:101460000DD06A2814D104E0742810D07A280FD146
:101470000DE044F400140AE044F4801401E044F464
:1014800040146978814202D104F580146D1C6D1CF2
:101490002A786E2A1FD00CDC632A31D004DC002AA3
:1014A0008BD0582A11D1A3E0642A68D0692A0CD1C4
:1014B00065E0732A2ED004DC6F2A73D0702A04D121
:1014C0009BE0752A6FD0782A6ED01046DDE90F12A6
:1014D0009047761C50E1C4F30250022806D003283E
:1014E00009D0042801CF09D0066045E101CFF117EA
:1014F000C0E9006140E101CF06803DE106703BE1BB
:1015000017F8040B8DF8000000208DF80100EB4661
:10151000012003E057F804BB4FF0FF3061074FF0A4
:10152000000102D40DE008F10101884649450FDAB7
:101530008045F8DB1BF808100029F4D108E008F119
:10154000010188468142FADB1BF808100029F6D118
:10155000DDE90F23AAEB08008146214600F036F9A9
:10156000304400EB080604E0DDE90F121BF8010B24
:101570009047B8F10108F7D221464846F7E00A2122
:10158000C4F302534FF0000B0891022B04D001CF9B
:10159000C117032B09D00AE0FF1D27F00707F7E862
:1015A000020108E032E01FE020E000B2C117042B86
:1015B00001D140B2C117031E71F1000307DA4FF0E9
:1015C000000CD0EB0C006CEB01012D2302E0230595
:1015D00004D52B238DF82430012303E0E30701D049
:1015E0002023F7E7984658E00A2110E010210EE08A
:1015F00010204FF0000B08900CE010214FF0000B72
:1016000044F004044FF00809089103E008214FF06A
:10161000000B0891C4F30253022B04D001CF002128
:10162000032B06D006E0FF1D27F00707F7E80201AD
:1016300003E080B2042B00D1C0B24FF000082307B2
:101640002BD5702A07D0DDF820C08CF0100C5CEA96
:101650000B0C05D00EE040238DF82430012308E068
:1016600050EA010306D030238DF824308DF8252070
:1016700002239846DDF820C08CF0080C5CEA0B0CC5
:101680000BD150EA010301D1630706D530238DF851
:1016900024304FF00108A9F10109582A04D038A2DA
:1016A0000B9208AA0A920BE03AA2F9E75B46089A65
:1016B000FEF728FE0B9B9B5C0A9A521E0A9213703F
:1016C00050EA0102F2D10A98ADEB000000F1200BC4
:1016D000600702D524F4803401E04FF00109D945B8
:1016E00002DDA9EB0B0000E0002000EB0B01414400
:1016F0000890AAEB010AE00306D4DDE90F23214696
:10170000504600F063F806444FF0000908E009A9CC
:1017100011F80900DDE90F12904709F10109761C63
:10172000C145F4DBE0030CD5DDE90F23214650462B
:1017300000F04CF8064404E0DDE90F123020904739
:10174000761C0899481E08900029F5DC08E00A98E4
:101750000A990078491C0A91DDE90F129047761C1E
:10176000BBF10001ABF1010BF1DC21465046DDE994
:101770000F2300F019F806446D1C1BE60928010030
:1017800030313233343536373839616263646566F7
:1017900000000000303132333435363738394142B9
:1017A00043444546000000002DE9F0410446002571
:1017B0001E461746880404D405E039462020B04769
:1017C0006D1C641EF9D52846BDE8F0812DE9F04175
:1017D000044600251E469046C80301D5302700E088
:1017E0002027880404D505E041463846B0476D1CE3
:1017F000641EF9D52846BDE8F0814A68002A06D063
:101800000A68531C0B6010704868401E486070479F
:101810000A68531C0B601070704700001CB504462A
:1018200064A0FFF771FD002204210A2005F0DBF916
:101830006749086000220121102005F0D4F96549AC
:10184000086000220121102005F0CDF962490860EE
:1018500000220821052005F0C6F960490860002231
:101860000221052005F0BFF95D4908600022012131
:10187000102005F0B8F95B490860012005F0A2F9D5
:1018800059490860012005F09DF958490860012078
:1018900005F098F95649086004F080F9554803218D
:1018A00000234FF40072CDE9001053A1554805F014
:1018B0008BFC5548032100234FF40072CDE9001042
:1018C00052A1544805F080FC534804210023CA016A
:1018D000CDE9001051A1534805F076FC524805218E
:1018E00000234FF40072CDE9001050A1524805F0DA
:1018F0006BFC5248022100230A02CDE9001050A1DE
:10190000524805F061FC5248032100234FF4007255
:10191000CDE900104FA1524805F056FC5148032173
:1019200000234FF48072CDE900104FA1514805F01B
:101930004BFC5148032100234FF40072CDE9001005
:101940004EA1524805F040FC5148052100234FF4B8
:101950000072CDE900104FA1514805F035FC04F0AC
:1019600047F900235A1E19461F48006805F068F918
:10197000E0B101F015FB4BA20021084601F0B8FBD5
:101980004CA20221002001F0B3FB4DA20421002053
:1019900001F0AEFB4DA20621002001F0A9FB0023BF
:1019A0001A4619461048006805F078FA002004F03D
:1019B00073FB1CBD6170705F7461736B5F696E69EE
:1019C000742072756E6E696E67210D0A000000004A
:1019D000280000202C0000203000002034000020CF
:1019E000380000203C00002040000020440000207F
:1019F000480000200400002046696E67657254614B
:101A0000736B0000154800080800002050776454EC
:101A100061736B00595D00080C0000204B65795420
:101A200061736B00BD500008100000204B65794DBC
:101A3000656E755461736B00A148000814000020A6
:101A40004F6C65645461736B000000004D5A0008D0
:101A500018000020526669645461736B0000000036
:101A6000D95E00081C00002055617274436D6454F7
:101A700061736B009565000820000020556E6C6F47
:101A8000636B457865635461736B0000A96500085A
:101A9000240000204D616E6167655461736B000026
:101AA000B951000853797374656D2052656164798A
:101AB00021000000312D556E6C6F636B000000003B
:101AC000322D4D616E6167650000000050726573D4
:101AD000732031206F7220320000000000B587B003
:101AE00018A207CA8DE8070000235A1E1946184895
:101AF000006805F0A5F8012804D016A0FFF704FC43
:101B000007B000BD0C21684600F022FD0C22C82160
:101B100003A800F035FC0C2806DB9DF8150018B969
:101B200016A0FFF7F1FB04E09DF815101DA0FFF7CC
:101B3000EBFB00231A4619460548006805F0AEF98C
:101B400000BFDDE7EF01FFFFFFFF0100030D001104
:101B5000440000205B46696E6765725D20436C65DA
:101B600061723A206661696C656420746F206765F4
:101B700074206D757465780D0A0000005B46696E0F
:101B80006765725D20416C6C2066696E6765727076
:101B900072696E747320636C6561726564210D0AED
:101BA000000000005B46696E6765725D20436C65EE
:101BB0006172206661696C3A20636F64653D3078BC
:101BC000253032580D0A000030B589B0044623A3F1
:101BD0000FCB01AD0FC5002500235A1E194623481F
:101BE000006805F02DF8012805D021A0FFF78CFB37
:101BF000002009B030BD200A8DF80F00E0B28DF84A
:101C000010009DF80F0013309DF810100844C0B26A
:101C10008DF812000F2101A800F09AFC0C224FF45D
:101C20007A7105A800F0ACFB0C2808DB9DF81D00BC
:101C300028B9214616A0FFF767FB012504E09DF8AF
:101C40001D101CA0FFF760FB00231A461946074829
:101C5000006805F023F92846CBE70000EF01FFFFFD
:101C6000FFFF0100050C01000000000044000020FF
:101C70005B44656C6574655D204661696C656420D4
:101C8000746F20676574206D75746578210D0A0086
:101C90005B44656C6574655D2046696E676572209E
:101CA00049443D25642064656C65746564210D0AB2
:101CB000000000005B44656C6574655D20466169E9
:101CC0006C2120636F64653D3078253032580D0AF1
:101CD00000000000F0B59BB00546202113A8FEF7D8
:101CE000E4FA97A207CA10AB07C398A1D1E9002371
:101CF000D1E90201CDE90C23CDE90E0197A191E8CC
:101D00000D00C96808AC0DC40B9198A207CA05ABB9
:101D100007C399A30FCB01AC0FC4002700260023F3
:101D20005A1E19469848006804F08AFF012805D019
:101D300096A0FFF7E9FA00201BB0F0BD01209B49F7
:101D40000870280A8DF80F00E8B28DF810009DF891
:101D50000F000E309DF810100844C0B28DF812002C
:101D6000294693A0FFF7D0FA002631E0C82004F0FE
:101D700065F90C2110A800F0EBFB0C224FF47A71EE
:101D800013A800F0FDFA04461CB997A0FFF7BCFAAF
:101D9000CAE00C2C03DB9DF8550000B919E00C2CAF
:101DA00010DB9DF8550002280CD13046711C8EB214
:101DB0000A2190FBF1F201FB120010B996A0FFF787
:101DC000A3FA05E09DF855109CA0FFF79DFAABE043
:101DD000CCE700BFA3A0FFF797FA4FF47A7004F0A6
:101DE0002DF9AAA0FFF790FA0D210CA800F0B0FB86
:101DF0000C224FF47A7113A800F0C2FA04460A2CA0
:101E000002DB9DF8550028B19DF85510AAA0FFF7F8
:101E10007BFA89E0B2A0FFF777FA002631E0C8200C
:101E200004F00CF90C2110A800F092FB0C224FF4E6
:101E30007A7113A800F0A4FA04461CB9B4A0FFF705
:101E400063FA71E00C2C03DB9DF8550000B919E032
:101E50000C2C10DB9DF8550002280CD13046711C6B
:101E60008EB20A2190FBF1F201FB120010B9B1A071
:101E7000FFF74AFA05E09DF85510B8A0FFF744FABD
:101E800052E0CCE700BFBFA0FFF73EFA0D2108A843
:101E900000F05EFB0C224FF47A7113A800F070FA88
:101EA00004460A2C02DB9DF8550028B19DF8551018
:101EB000C0A0FFF729FA37E0C8A0FFF725FA0C21E8
:101EC00005A800F045FB0C224FF4FA6113A800F0BE
:101ED00057FA04460A2C02DB9DF8550028B19DF8FC
:101EE0005510C9A0FFF710FA1EE0D1A0FFF70CFAB9
:101EF0000F2101A800F02CFB0C224FF47A7113A8DB
:101F000000F03EFA04460A2C02DB9DF8550028B189
:101F10009DF85510CFA0FFF7F7F905E02946D6A0A8
:101F2000FFF7F2F9012700BF0020204908700023C5
:101F30001A4619461448006804F0B0FF3846FBE61C
:101F4000EF01FFFFFFFF010003010005EF01FFFFAD
:101F5000FFFF01000402010008000000EF01FFFF85
:101F6000FFFF01000402020009000000EF01FFFF73
:101F7000FFFF010003050009EF01FFFFFFFF010064
:101F80000606010000000000440000205B456E7260
:101F90006F6C6C5D204661696C656420746F2067AE
:101FA0006574206D75746578210D0A008600002027
:101FB0005B456E726F6C6C5D2049443D2564202D3D
:101FC000205374657020312F343A20506C61636562
:101FD0002066696E676572206F6E2073656E736F21
:101FE000722E2E2E0D0A00005B456E726F6C6C5DBA
:101FF00020476574496D616765313A206E6F2072C4
:102000006573706F6E73652066726F6D206D6F649F
:10201000756C65210D0A00005B456E726F6C6C5D1E
:102020002057616974696E6720666F722066696EF9
:102030006765722E2E2E0D0A000000005B456E7241
:102040006F6C6C5D20476574496D61676531206612
:1020500061696C3A20636F64653D30782530325891
:102060000D0A00005B456E726F6C6C5D20537465E9
:10207000702031204F4B202D2052656D6F766520EA
:1020800066696E6765722E2E2E0D0A005B456E72B4
:102090006F6C6C5D205374657020322F343A20478A
:1020A000656E65726174696E672074656D706C61D0
:1020B00074652E2E2E0D0A005B456E726F6C6C5D82
:1020C0002047656E4368617231206661696C3A2011
:1020D000636F64653D3078253032580D0A0000008A
:1020E0005B456E726F6C6C5D20537465702032209E
:1020F0004F4B202D20506C6163652066696E6765CB
:102100007220616761696E2E2E2E0D0A000000009C
:102110005B456E726F6C6C5D20476574496D6167DD
:1021200065323A206E6F20726573706F6E73652131
:102130000D0A00005B456E726F6C6C5D2057616923
:1021400074696E6720666F722066696E67657220BB
:10215000616761696E2E2E2E0D0A00005B456E725E
:102160006F6C6C5D20476574496D616765322066F0
:1021700061696C3A20636F64653D30782530325870
:102180000D0A00005B456E726F6C6C5D20537465C8
:10219000702033204F4B202D2047656E657261748F
:1021A000696E672074656D706C61746520322E2EC7
:1021B0002E0D0A005B456E726F6C6C5D2047656E7C
:1021C0004368617232206661696C3A20636F6465AE
:1021D0003D3078253032580D0A0000005B456E72A4
:1021E0006F6C6C5D205374657020342F343A204D31
:1021F000657267696E672074656D706C6174657374
:102200002E2E2E0D0A0000005B456E726F6C6C5D09
:10221000205265674D6F64656C206661696C3A2079
:10222000636F64653D3078253032580D0A00000038
:102230005B456E726F6C6C5D2053746F72696E6774
:102240002066696E6765727072696E742E2E2E0D2F
:102250000A0000005B456E726F6C6C5D2053746FFA
:102260007265206661696C3A20636F64653D307801
:10227000253032580D0A00005B456E726F6C6C5D44
:102280002053554343455353212046696E67657279
:102290002049443D256420656E726F6C6C65642135
:1022A0000D0A000000B587B000200390049005904F
:1022B000069018A207CA8DE8070000235A1E194687
:1022C0001748006804F0BCFC0C21684600F040F997
:1022D0000C224FF47A7103A800F052F860B911A0F3
:1022E000FFF712F800231A4619460D48006804F05B
:1022F000D5FD002007B000BD9DF8151012A0FFF716
:1023000003F800231A4619460548006804F0C6FD84
:102310000120EFE7EF01FFFFFFFF01000326002A86
:10232000440000205B41533630385D2048616E64C4
:102330007368616B653A206E6F20726573706F6EA3
:1023400073650D0A000000005B41533630385D2094
:1023500048616E647368616B65204F4B2120636F29
:102360006E6669726D5F636F64653D3078253032EB
:10237000580D0A0010B5C82000F01CF910BD00006F
:10238000F8B505460E4617460024002000900DE0E3
:1023900020211948FEF7E7FE012803D11648FEF771
:1023A000A9FF00E006E00098401C00900098B0F5FE
:1023B0007A7FEDD300BF0020009013E020210E486B
:1023C000FEF7D1FE01280AD10B48FEF793FFC2B2F7
:1023D0002046611C8CB22A54BC4200DB09E0009804
:1023E000401C009040F2712070430099B1EB401FF7
:1023F000E4D300BFE0B2F8BD0044004070B594B033
:1024000005463CA2D2E900109268CDE90A02099182
:102410003BA30FCB05AC0FC414223DA16846FDF7CA
:102420002BFF00260023642219463E48006804F072
:1024300007FC012802D0002014B070BD01263A48E4
:10244000007800B144E00C2109A800F081F80C22CA
:102450004FF4FA710CA8FFF793FF04460A2C02DB35
:102460009DF8390000B133E00D2105A800F070F8A7
:102470000C224FF4FA710CA8FFF782FF04460A2CD5
:1024800002DB9DF8390000B122E01121684600F01E
:102490005FF810224FF4FA710CA8FFF771FF0446A1
:1024A0000A2C02DB9DF8390000B111E09DF83B00D9
:1024B0009DF83A1040EA012028809DF83F009DF8E1
:1024C0003E3040EA0322298818A0FEF71DFF00BF16
:1024D000012E06D100231A4619461248006804F05E
:1024E000DDFC0C2C04DB9DF8390008B90120A3E7C2
:1024F0000020A1E7EF01FFFFFFFF0100030100053E
:10250000EF01FFFFFFFF01000402010008000000CF
:10251000EF01FFFFFFFF0100080401000003E700D7
:10252000F800000044000020860000205B46696E31
:102530006765725D204D61746368212049443D25C3
:10254000642073636F72653D25640D0A000000000E
:1025500070B505460E4600240CE000BF80210A48F5
:10256000FEF701FE0028F9D0295D0748FEF7C7FEF7
:10257000601C84B2B442F0DB00BF40210248FEF789
:10258000F2FD0028F9D070BD004400404FF0E0207B
:10259000006920F004004FF0E02108616FF07F40F7
:1025A0004861002088610846006940F00100086128
:1025B000704700002DE9F047074600264FF0E02065
:1025C000D0F81490124800684FF47A71B0FBF1F023
:1025D00000FB07F84FF0E020856903F08DFF11E064
:1025E0004FF0E0208469AC420CD0AC4202D2281BF0
:1025F000064403E0A9EB040028440644254646456A
:1026000000D300E0ECE700BF04F078FFBDE8F087FE
:10261000640100202DE9F047074600264FF0E02036
:10262000D0F81490124800681249B0FBF1F000FB9A
:1026300007F84FF0E020856903F05EFF11E04FF0EE
:10264000E0208469AC420CD0AC4202D2281B064484
:1026500003E0A9EB0400284406442546464500D380
:1026600000E0ECE700BF04F049FFBDE8F0870000A0
:102670006401002040420F0010B504460B4890F85A
:102680004900052801DB002010BD084890F84910DA
:10269000343040F82140343890F84900401C034958
:1026A00081F8490000F07CF90120EDE77801002075
:1026B00010B50446114890F84800052801DB0020B9
:1026C00010BD2046FDF70EFE082801D90020F7E7CF
:1026D0000A4991F8481001EBC1020849091D501838
:1026E0002146FDF706FE054890F84800401C0349C6
:1026F00081F8480000F054F90120E1E7780100205A
:1027000070B50546154890F84900A84201DC002044
:1027100070BD2C4608E011483430611C50F821107F
:1027200040F82410601CC4B20C4890F84900401EC8
:10273000A042F0DC0022094890F84900401E0749F9
:10274000343141F82020054890F84900401E3439C2
:1027500081F8490000F024F90120D9E77801002030
:1027600070B50546194890F84800A84201DC0020E1
:1027700070BD2C460CE0621C02EBC203134A121D12
:10278000991804EBC4039818FDF7B3FD601CC4B29C
:102790000E4890F84800401EA042ECDC0B4890F830
:1027A0004800401E00EBC0010848001D08440021FD
:1027B000016041600172054890F84800401E0349DD
:1027C00081F8480000F0ECF80120D1E77801002002
:1027D0000146094890F84900052801DD00207047AE
:1027E000054890F84900884204DD0348343050F829
:1027F0002100F4E70020F2E778010020054890F876
:102800004900052801DD00207047024890F8490082
:10281000FAE700007801002001460A4890F84800D5
:10282000052801DD00207047064890F848008842DE
:1028300005DD01EBC1020348001D1044F3E7002051
:10284000F1E7000078010020054890F848000528CD
:1028500001DD00207047024890F84800FAE70000C8
:10286000780100202DE9F0474A4E37460024A14662
:102870004FF0010848493068884240D196F8490035
:10288000052803DC96F84800052801DD4FF0000814
:10289000B8F1000F12D0002509E005EBC501301D8D
:1028A000405CFF2801D14FF00008681CC5B296F8C3
:1028B0004800A84202DDB8F1000FEED1B8F1000FD8
:1028C00005D04C2231463548FDF7D6FC60E04C215E
:1028D0003248FDF7EAFC304830490860002081F8B2
:1028E000480081F849007C68601C28B124B1084682
:1028F0004463012081F8490000F052F848E04C217F
:102900002648FDF7D2FC244824490860002081F8BD
:10291000480081F849003868401C002838D000245D
:10292000A1463C68601C48B144B11B48844205D0B4
:1029300008464463012081F849008146B9F1000F3F
:102940000AD17C68601C38B134B11448446301205A
:10295000124981F849008146B9F1000F16D10025CE
:1029600011E057F82540601C58B154B10A48844220
:1029700007D00A4844630120084981F8490081468C
:1029800003E0681CC5B2102DEBDB00BF00F008F8B7
:10299000BDE8F08700000E080100FECA78010020A3
:1029A0002DE9F041FDF74EFEF320FDF7A5FD0221D4
:1029B0005820FDF7A7FD094D094E1327002406E016
:1029C00055F8241006EB8400FDF714FE641CBC428D
:1029D000F6D3FDF705FEBDE8F08100007801002088
:1029E00000000E0810B50446074890F8490018B9D1
:1029F0002046FFF741FE03E003484463FFF7D0FFA2
:102A00000248046010BD000078010020880000200A
:102A100070B504460D4600BF80210548FEF7A3FBB4
:102A20000128F9D1A1B20248FEF769FC204670BD29
:102A30000010014010B50020044908603220FFF763
:102A4000B9FD01200249C1F8A40210BDA48242428E
:102A50000080424210B500200A4908700A490870F7
:102A60000A48006818B10948006803F029FC0848C2
:102A7000006818B10648006803F022FC05A0FEF7C4
:102A800043FC10BD4C0000204D000020040000203D
:102A9000080000205B4B6579626F6172645D204DB8
:102AA0006F6465206465616374697661746564212F
:102AB0000D0A000010B50120094908700948006896
:102AC00018B10848006803F0A5FC0748006818B171
:102AD0000548006803F09EFC04A0FEF715FC10BD3D
:102AE0004C00002004000020080000205B4B6579AA
:102AF000626F6172645D204D6F646520616374690B
:102B00007661746564210D0A000000001CB5012186
:102B10005720FEF769F801208DF8040000208DF899
:102B2000060002208DF805008020009069461F48AD
:102B3000FDF7ABFD4FF40040009069461C48FDF7DF
:102B4000A4FD4FF42070009069461A48FDF79DFDE2
:102B500000208DF8040001208DF80700402000902F
:102B600069461248FDF791FD4020009069461248E1
:102B7000FDF78BFD4FF48070009069460F48FDF71C
:102B800084FD1020009069460C48FDF77EFD8021F1
:102B90000648FDF7F0FD4FF400410548FDF7EBFD59
:102BA0004FF420710348FDF7E6FD1CBD0004024010
:102BB00000180240000802400010024000000240DD
:102BC0007FB5154B0FCB8DE80F0000241FE020468A
:102BD00001F088FC002517E0284601F05DFC90B963
:102BE0000F20FFF7E7FC284601F056FC58B900BF5C
:102BF000284601F051FC0028FAD0684600EB84001A
:102C0000405D04B070BD6D1C042DE5DB641C042C1C
:102C1000DDDB0020F5E70000CC7C000825480068DB
:102C200040F03000234908602348006820F4701009
:102C3000214908600846006840F4A0100860081D9B
:102C4000006820F4C060091D0860081D006820F4B9
:102C50007010091D0860081D006820F47010091D1F
:102C6000086015481430006840F4C06012491431FF
:102C700008601248006820F070501049086008464B
:102C8000006840F0A05008600846406820F4C0404A
:102C900048600846806820F0705088600846C06828
:102CA00020F07050C8600846406940F4C040486158
:102CB000704700003038024000140240001002400B
:102CC0001CB54FF44070FDF72DFEFFF75FFCFFF7DA
:102CD000A5FFFFF71BFF00F07FF901F04BFBFFF7AB
:102CE00049FBFFF7BFFD4FF4E13001F03BFC4FF42F
:102CF000614001F0A5FC4FF4E13001F001FD2DA091
:102D0000FEF702FB3348017833A0FEF7FDFA38A046
:102D1000FEF7FAFAFFF772FD064631463BA0FEF7D2
:102D2000F3FA002409E0E0B2FFF752FD064632460E
:102D300021463BA0FEF7E8FA641CFFF75FFDA042C6
:102D4000F1DCFFF781FD064631463AA0FEF7DCFADA
:102D5000002409E0E0B2FFF75FFD06463246214657
:102D60003AA0FEF7D1FA641CFFF76EFDA042F1DC39
:102D70003A4D3BA0FEF7C8FA002407E055F824209E
:102D800005EB84013CA0FEF7BFFA641C0A2CF5DBBE
:102D90003FA0FEF7B9FA4548052100234FF4007221
:102DA000CDE9001042A1464804F00EFA03F0E8FA1B
:102DB00000BFFEE7536D61727420446F6F72204C48
:102DC0006F636B2053797374656D205374617274F3
:102DD000210A00008500002052433532322056651A
:102DE0007273696F6E3A203078253032580D0A00C0
:102DF0003D3D3D20466C61736820496E69742044F6
:102E000065627567203D3D3D0D0A000043617264B7
:102E100020636F756E743A2025640D0A000000006F
:102E20002020436172645B25645D3A202530385868
:102E30000D0A000050617373776F726420636F75C1
:102E40006E743A2025640D0A00000000202050779F
:102E5000645B25645D3A2025730D0A0000000E08AE
:102E600052617720466C61736820636F6E74656E83
:102E7000743A0D0A0000000020205B3078253038BD
:102E8000585D3A203078253038580D0A000000008F
:102E90003D3D3D3D3D3D3D3D3D3D3D3D3D3D3D3D62
:102EA0003D3D3D3D3D3D3D3D0D0A00000000002003
:102EB0006170705F7461736B5F696E6974000000AC
:102EC0001D18000810B500200E4908700E49087042
:102ED0000E48006818B10D48006803F0F1F90C487D
:102EE000006818B10A48006803F0EAF90948006868
:102EF00018B10848006803F0E3F907A0FEF704FAE8
:102F000010BD00004F0000205000002004000020F1
:102F100008000020180000205B4D616E6167655D50
:102F2000204D6F64652064656163746976617465C2
:102F300064210D0A0000000010B501200D49087041
:102F40000D48006818B10C48006803F063FA0B489C
:102F5000006818B10948006803F05CFA0848006886
:102F600018B10748006803F055FA06A0FEF7CCF93F
:102F700010BD00004F0000200400002008000020C9
:102F8000180000205B4D616E6167655D204D6F64C8
:102F90006520616374697661746564210D0A0000BF
:102FA00070B5002415E004F1B001C8B2FDF7C4FC0F
:102FB0000020FDF7C1FC1020FDF7BEFC002504E059
:102FC0000020FDF7CDFC681CC5B2802DF8DB601C2D
:102FD000C4B2082CE7DB70BD1CB501210220FDF74F
:102FE00003FE01208DF804008DF806008DF807001F
:102FF00002208DF805004FF4407000906946354876
:10300000FDF743FB4FF400713248FDF7B4FB4FF47A
:1030100080713048FDF7AFFB3220FFF7CBFA782004
:1030200000F05AF87A2000F057F8AE20FDF784FC43
:103030000A20FFF7BFFAD520FDF77EFC8020FDF7C0
:103040007BFCA820FDF778FC3F20FDF775FCD32022
:10305000FDF772FC0020FDF76FFC4020FDF76CFCD3
:103060008D20FDF769FC1420FDF766FC2020FDF79C
:1030700063FC0220FDF760FCA120FDF75DFCC82089
:10308000FDF75AFCDA20FDF757FC1220FDF754FC3F
:103090008120FDF751FCCF20FDF74EFCD920FDF734
:1030A0004BFCF120FDF748FCDB20FDF745FC402000
:1030B000FDF742FCA420FDF73FFCA620FDF73CFCF9
:1030C000AF20FDF739FC6420FFF774FAFFF768FFC3
:1030D0001CBD00000004024010B50446FDF74EFB85
:1030E0002046FDF7B5FBFDF76BFB012010BD00008E
:1030F0002DE9F04104468846174640E03E78202EF0
:1031000001DB7E2E00DD2026A6F12000C6B208F1EC
:10311000B001C8B2FDF710FC04F00F00FDF70CFC85
:10312000102101EB2410FDF707FC002507E01649EC
:1031300001EB0611485DFDF713FC681CC5B2082DB4
:10314000F5DB08F1B101C8B2FDF7F6FB04F00F00A2
:10315000FDF7F2FB102101EB2410FDF7EDFB082534
:1031600007E0094901EB0611485DFDF7F9FB681C12
:10317000C5B2102DF5DB04F10800C4B27F1C38780D
:103180000028BBD1BDE8F081DC76000830B591B0F5
:103190003048007800285BD0002404E02E48005D11
:1031A00001A90855641C2D480078844201D23F2CA7
:1031B000F4D3002001A9085540212748FDF775F8F0
:1031C0000020264908702349087001A924A0FEF7B1
:1031D0009BF801AD002434E001A8005D2A2807D047
:1031E00001A8005D0D2803D001A8005D0A2827D1A1
:1031F000002001A908552878F8B11CA12846FDF740
:103200005FF878B11BA0FEF77FF800201D49086029
:103210000420009000230A2269461B48006803F03E
:103220003DFE0AE019A12846FDF74AF828B119A089
:10323000FEF76AF801201349086001A82044451CE4
:10324000641C402C03D201A8005D0028C4D100BF3B
:1032500011B030BD8F000020040200208E0000203D
:103260005B576946695D2025730D0A00756E6C6FAA
:10327000636B00005769466920556E6C6F636B2164
:103280000D0A0000A4824242280000206C6F636B8C
:103290000000000057694669204C6F636B210D0ADE
:1032A0000000000038B59C480078002874D09BA12D
:1032B0009C48FDF705F818B19BA0FEF725F820E122
:1032C0009DA19848FCF7FCFF78B19DA0FEF71CF883
:1032D0000020A24908600420009000230A226946C9
:1032E0009F48006803F0DAFD0BE19EA18D48FCF7D2
:1032F000E7FF30B19DA0FEF707F80120974908606D
:10330000FFE0A1A18748FCF7DBFF18B1A1A0FDF702
:10331000FBFFF6E0A7A18348FCF7D2FFB8B1814CD0
:10332000641D002505E014F8012B28466D1CA349F7
:103330000A54207820B120782A2801D01F2DF2DBF2
:1033400000209E4948559EA0FDF7DEFFD9E0A1A1CF
:103350007448FCF7B5FFB8B1724C641D002505E058
:1033600014F8012B28466D1C9C490A54207820B182
:1033700020782A2801D01F2DF2DB002097494855DC
:1033800097A0FDF7C1FFBCE09AA16648FCF798FF43
:1033900098B1644CE41C04E0BCE0207801F00AFA27
:1033A000641C207810B120782A28F6D10D2001F075
:1033B00001FA0A2001F0FEF9A3E08FA15948FCF7B9
:1033C0007FFFA0B18FA0FDF79FFF95A001F002FA4B
:1033D0004FF4FA6002F032FE92A001F0FBF94FF4D4
:1033E000FA6002F02BFE91A0FDF78EFF89E094A118
:1033F0004C48FCF765FF10B103F032FA81E092A16E
:103400004848FCF75DFF28B191A0FDF77DFFFEF76E
:1034100049FF76E096A14348FCF752FF48B197A0D8
:10342000FDF772FF9CA001F05FF9A0A0FDF76CFF13
:1034300067E0A5A13B48FCF743FF80B1A5480068C1
:1034400018B9A5A0FDF760FF5BE0A2480068FFF790
:10345000C9FAA0480168ABA0FDF756FF51E0B0A142
:103460003048FCF72DFF60B1B048006828B1AF4884
:103470000168AFA0FDF748FF43E0B2A0FDF744FFAD
:103480003FE0B5A12748FCF71BFF58B30125254CA9
:1034900000E0641C207828B120783028F9DB2078FF
:1034A0003928F6DC2078302814DB2078392811DC24
:1034B000002507E02078303805EB850100EB41005E
:1034C00085B2641C2078302802DB20783928F1DDB1
:1034D00005B901252946A2A0FDF716FF2846FEF7EB
:1034E000F9FB0EE0A8A10F48FCF7EAFE28B1AAA05C
:1034F000FDF70AFFFEF7F2FA03E00A49AEA0FDF776
:1035000003FF40210748FCF7D0FE0020B0490870B7
:103510000149087038BD00008D0000207465737487
:1035200000000000C40100207465737420636F6D97
:103530006D616E64210A0000756E6C6F636B000034
:10354000426C7565746F6F746820556E6C6F636B39
:103550002053756363657373210A0000A48242429D
:10356000280000206C6F636B00000000426C7565E2
:10357000746F6F7468204C6F636B20537563636561
:103580007373210A0000000073796E635F66696ED1
:103590006765720053796E63696E672066696E674E
:1035A00065727072696E747320746F204150502E72
:1035B0002E2E0A0073736964200000009000002022
:1035C000576946692053534944207365743A20254E
:1035D000730D0A007061737320000000B0000020BA
:1035E000576946692050617373207365743A2025CA
:1035F000730D0A0061742000776966695F746573F2
:10360000740000005769466920746573743A20732A
:10361000656E64696E672041542E2E2E0D0A0000DF
:103620002B2B2B0041540D0A0000000057694669FE
:10363000207465737420646F6E652E0D0A0000009F
:10364000776966690000000066696E676572000050
:1036500054657374696E672066696E67657270720F
:10366000696E74206D6F64756C652E2E2E0A0000D5
:1036700075617274325F6563686F00005B5541521B
:1036800054325D2054657374696E67206563686F9A
:103690002E2E2E0D0A00000048656C6C6F2066729D
:1036A0006F6D205541525432210D0A005B55415235
:1036B00054325D204563686F207465737420646FB5
:1036C0006E652E0D0A000000736176655F6361729E
:1036D00064000000800000204E6F2063617264204F
:1036E0007363616E6E656420796574212053636134
:1036F0006E206120636172642066697273742E0D9E
:103700000A0000004361726420253038582073613C
:1037100076656420746F20466C617368210D0A0021
:1037200073686F775F636172640000008800002037
:10373000536176656420636172643A20253038589D
:103740000D0A00004E6F206361726420736176651C
:10375000642E0D0A00000000656E726F6C6C000034
:10376000537461727420656E726F6C6C696E672041
:1037700066696E6765727072696E742049443D2592
:10378000642E2E2E0A000000636C6561725F66690C
:103790006E67657200000000436C656172696E6758
:1037A00020616C6C2066696E6765727072696E74F8
:1037B000732E2E2E0A000000756E6B6E6F772063DD
:1037C0006F6D6D616E64203D2025730A000000005E
:1037D0008C0000202DE9F04105460E461C48076884
:1037E0001C480068001D01F000F850B91948006835
:1037F00090F82C1001208840174909688143164829
:103800000160681C38B936B112480168091D1348B7
:1038100001F0C6FC1AE07C190E4800684460BC4206
:1038200007D20C480168091D0D48006801F09EFC94
:103830000CE008480168091D0A48006801F096FC80
:1038400009480068844201D207480460BDE8F0815D
:1038500018010020040100201C010020003001207C
:103860000C010020080100203401002010B504469E
:1038700002F094F924480068401C2349086023485A
:10388000006840B9214804600846006801280DD14D
:1038900000F0ECF90AE01E48006838B91B480068DF
:1038A000C06AE16A884201D8184804601948006873
:1038B000401C1849086008460068206494F82C10E1
:1038C0000120884014490968084313490860E16AE7
:1038D00001EB8101114A02EB8100211D01F060FC26
:1038E00002F086F90A48006868B108480068C06AB2
:1038F000E16A884207D24FF0805009490860BFF35F
:103900004F8FBFF36F8F10BD140100200401002002
:1039100020010020300100201C010020842E012005
:1039200004ED00E010B502F039F910480068D0B994
:103930000F4801F00BFC0F4801F008FC0C480E4941
:1039400008600C480D49086000220C210A2003F091
:103950004AF9064908600846006820B108A10348F2
:10396000006802F07DFA02F043F910BD4801002022
:1039700014300120283001204001002044010020A3
:10398000546D72510000000070B523E002F0B4FDE8
:103990001348006808B9012000E00020054603F044
:1039A000ADFDBDB902F0FAF80D48C068C468201D2D
:1039B00000F01BFF0B480068401E0A4908600A48D7
:1039C0000068401E0849086002F012F9204600F025
:1039D00060F800BF044800680028D7D170BD00001F
:1039E000EC2F0120140100201001002070B50446C6
:1039F0000D46206C70B1216CE0680844E06061689D
:103A0000E068884201D32068E0602846226CE168C3
:103A1000FCF732FC70BD2DE9F04104460F46154617
:103A20004FF00008A66B206C40B9206860BB60684E
:103A300003F0B4FC80460020606025E07DB9394683
:103A4000226CA068FCF718FC216CA0680844A060F8
:103A5000D4E90110884217D32068A06014E03946E9
:103A6000226CE068FCF708FC216CE068401AE0601A
:103A70002168E068884203D2216C6068401AE060E7
:103A8000022D01D106B1761E701CA0634046BDE830
:103A9000F08110B50446206B02F0C8F8204602F011
:103AA000C5F810BD0146084A126812680AB9012219
:103AB00000E000220A600A6822B9034A1268D2684C
:103AC000106800E0002070474001002030B54FF43E
:103AD0009633174800F007042CB1C01D20F00700F2
:103AE000134C041B1B1B0246124C22600024114D78
:103AF0006C60D018083820F007000F4C20600024BC
:103B00000D4D2D686C600C4D2D682C601146441ACB
:103B10004C60094C24680C60084D4C682C60084DC2
:103B20004C682C604FF00044064D2C6030BD000006
:103B300044020020E0000020E8000020F000002007
:103B4000EC000020F400002000BFFFF71DFF064836
:103B500000680128F9D94FF0805004490860BFF38C
:103B60004F8FBFF36F8FF0E7842E012004ED00E04C
:103B700010B504464CB1002060602060E060002376
:103B80001A461946204603F089F910BD2DE9F04187
:103B900006460D4617469846069C0DB9246000E07F
:103BA0002760E66325640121204603F02BF984F8A1
:103BB0004C80BDE8F0812DE9F05F82460F469046CB
:103BC0009B460A9E0C9C4FEA8801A522206BFCF7BD
:103BD00065FBA8F10100216B01EB800929F00709C1
:103BE00009F0070008B9012000E0002050B900BF2B
:103BF000502080F31188BFF34F8FBFF36F8F00BF4A
:103C000000BFFEE7002507E0795D04F1340041556F
:103C1000785D00B902E06D1C0A2DF5D300BF0021CC
:103C20003D2001550F2E00D30E26E662A66400202B
:103C3000E064201D01F097FA04F1180001F093FAF6
:103C40002461C6F10F00A06164620020206584F841
:103C500054005A465146484600F066FB20600B98D7
:103C600008B10B980460BDE8F09F000010B5002477
:103C700007E004EB84010F4A02EB810001F066FAD1
:103C8000641C0F2CF5D30C4801F060FA0B4801F0CE
:103C90005DFA0B4801F05AFA0A4801F057FA0A484F
:103CA00001F054FA044809490860044808490860CA
:103CB00010BD0000842E0120B02F0120C42F012050
:103CC000D82F0120EC2F0120003001200801002016
:103CD0000C01002010B50146164800E0006803689A
:103CE0008B42FBD30246436813448B4204D14368A2
:103CF0004C682344436001460A464B6813440468F9
:103D0000A34211D10C4C03682468A34208D04B682D
:103D10000468646823444B6003681B680B6005E01B
:103D2000054B1B680B6001E003680B60884200D004
:103D3000016010BDE0000020E80000202DE9F04106
:103D400004460D4616461F464FF000086560246184
:103D5000B5420CD8F01BA169884202D34FF001088C
:103D600011E0211D0948006801F000FA0BE0BE4295
:103D700004D2BD4202D34FF0010804E0211D0448E3
:103D8000006801F0F3F94046BDE8F08144010020ED
:103D90004001002070B5054601F000FFA86B08B98E
:103DA000012400E0002401F023FF204670BD70B51F
:103DB000054601F0F3FEA86BE96B884201D10124AE
:103DC00000E0002401F014FF204670BDF8B5054660
:103DD0000F4616480068C068C468201D00F005FD45
:103DE000E06901281DD1A06941192B463A462046B9
:103DF000FFF7A4FFA8B1002003462A460146009021
:103E0000204603F029FC064656B900BF502080F337
:103E10001188BFF34F8FBFF36F8F00BF00BFFEE766
:103E200000BF2046616A8847F8BD000040010020BD
:103E300070B586B06AE00398002867DB059C60696E
:103E400008B9012000E0002010B9201D00F0CDFCD1
:103E500002A800F0BDF8054603980A2854D2DFE80E
:103E600000F009050731334F0608323400BF00BFA8
:103E700000BF00BF0498A269811803462A46204665
:103E8000FFF75CFFE8B12046616A8847E0690128D6
:103E900017D1002000900498A16942180023194608
:103EA000204603F0D9FB064656B900BF502080F3E8
:103EB0001188BFF34F8FBFF36F8F00BF00BFFEE7C6
:103EC00000BF22E000BF20E000BF0498A061A0690D
:103ED00008B1012000E0002050B900BF502080F35D
:103EE0001188BFF34F8FBFF36F8F00BF00BFFEE796
:103EF000A06941192B462A462046FFF71FFF04E020
:103F0000204601F093FE00E000BF00BF00231A46E8
:103F100003A90448006802F093FE00288BD106B084
:103F200070BD000048010020F8B505460C4602F0BF
:103F3000E3FA684600F04CF80646009820BB44B906
:103F4000B54206D803F0DAFA31462846FFF73EFFBD
:103F50001CE03CB10E480068006808B9012000E090
:103F600000200446A91B22460A48006801F08EFF83
:103F700003F0C4FA50B94FF0805007490860BFF30E
:103F80004F8FBFF36F8F01E003F0B8FAF8BD000068
:103F9000440100204801002004ED00E00A490968BE
:103FA000096809B9012100E0002121B14FF0FF317A
:103FB000064A116006E004490968C968C868034AEE
:103FC00041681160704700000801002034010020A2
:103FD00070B5044603F038F9054607480068854285
:103FE00004D200F00BF80120206001E000202060E6
:103FF00001480560284670BD500100202DE9F843B6
:1040000032E024480068C068056822480068C0683B
:10401000C468201D00F0E9FB2046616A8847E0691A
:10402000012821D1A0694619AE4207D966602461F2
:10403000211D1848006801F099F815E0002003469A
:104040002A4601460090204603F006FB074657B972
:1040500000BF502080F31188BFF34F8FBFF36F8FE5
:1040600000BF00BFFEE700BF0A480068006808B94B
:10407000012000E000200028C3D00648D0F80080CE
:1040800005480068034908600348C0F80080BDE89F
:10409000F883000040010020440100200E48006821
:1040A000401C08B9012000E0002050B900BF50209A
:1040B00080F31188BFF34F8FBFF36F8F00BF00BF36
:1040C000FEE700BF502080F31188BFF34F8FBFF38E
:1040D0006F8F00BF00BFFEE7F800002010B502465A
:1040E0000020114652B900BF502383F31188BFF35B
:1040F0004F8FBFF36F8F00BF00BFFEE70B4C4B69C4
:10410000A34201D1012300E0002373B1084C8B6A64
:10411000A34201D1012300E0002333B98B6A0BB91C
:10412000012300E0002303B1012010BD0030012075
:10413000D82F012008B500BF6846FFF7B3FC04463E
:1041400020460099FFF7F0FEFFF772FEF4E770B526
:10415000044601F023FD94F9455010E0606A08B967
:10416000012000E0002038B904F1240003F07AF9BE
:1041700018B102F00BF800E003E0681E45B2002D14
:10418000ECDC00BFFF2084F8450001F031FD01F0B8
:1041900005FD94F9445010E0206908B9012000E0C1
:1041A000002048B904F1100003F05CF908B101F0F7
:1041B000EDFF681E45B200E001E0002DECDC00BF21
:1041C000FF2084F8440001F013FD70BD2DE9F0419B
:1041D00004464FF0000802F08FF94648006808B91D
:1041E000FFF774FC44480068204000286BD1D4B12C
:1041F000083404F00700B0B104F00700C0F1080073
:10420000044404F0070008B9012000E0002050B980
:1042100000BF502080F31188BFF34F8FBFF36F8F23
:1042200000BF00BFFEE7002C4DD034480068844238
:1042300049D8334E3046056801E02E462D6868683F
:10424000A04202D228680028F7D12A480068854297
:1042500039D0306800F10808286830606868001BB1
:10426000102819D92F1907F0070008B9012000E01C
:10427000002050B900BF502080F31188BFF34F8F4A
:10428000BFF36F8F00BF00BFFEE76868001B786058
:104290006C603846FFF71EFD184968680968081AFF
:1042A000164908600846006816490968884203D222
:1042B00012480068134908600F4968680968084394
:1042C00068600020286003F019F908F0070008B9B9
:1042D000012000E0002050B900BF502080F3118879
:1042E000BFF34F8FBFF36F8F00BF00BFFEE74046A5
:1042F000BDE8F081E8000020F4000020EC00002080
:10430000E0000020F00000200648006830B10549B8
:10431000096801F14C00C96C491C01600148006842
:104320007047000004010020001F4FF080730360FD
:10433000001F21F001030360001F054B03601438C8
:104340000260001F6FF00203036020387047000016
:104350009D40000808B50021009102E00099491C29
:10436000009100EB4001C1EBC011009AB2EB811F3C
:10437000F4D308BD1CB501210C20FCF735FC01204D
:104380008DF8040000208DF8060001208DF807004C
:1043900003208DF805004020009069462A48FCF76C
:1043A00074F9C020009069462848FCF76EF94FF474
:1043B0000060009069462448FCF767F900208DF8FA
:1043C000040001208DF8070003208DF805004FF44C
:1043D0008070009069461C48FCF757F980211B4803
:1043E000FCF7C9F940211848FCF7C5F940211748E6
:1043F000FCF7BFF94FF400611348FCF7BCF9322019
:10440000FFF7A8FFFCF732FB8D212A20FCF7D6FB33
:104410003E212B20FCF7D2FB1E212D20FCF7CEFBEA
:1044200000212C20FCF7CAFB40211520FCF7C6FB1D
:104430003D211120FCF7C2FBFCF7A6FA3720FCF760
:10444000DFFA034908701CBD00080240000C02405E
:10445000850000203EB5044669462620FCF7EAFAAE
:1044600005460DB100203EBD01A8FCF79AFA0546AD
:104470000DB10020F7E79DF8040000069DF8051037
:1044800040EA01409DF8061040EA01209DF807101F
:10449000084320600120E6E710B5044624B9402116
:1044A0000D48FCF75DF910BD012C04D140210B48EB
:1044B000FCF756F9F7E7022C04D1E1010848FCF7B4
:1044C0004FF9F0E7032C04D110210548FCF748F917
:1044D000E9E70120E7E70000000402400010024085
:1044E0000000024010B5044680211448FCF743F94F
:1044F0004FF400411248FCF73EF94FF42071114887
:10450000FCF739F924B980210C48FCF732F914E0A2
:10451000012C04D1E1030A48FCF72BF90DE0022C31
:1045200004D180210748FCF724F906E0032C04D1CC
:104530004FF400710348FCF71CF910BD0004024061
:10454000001802400008024008B50020009004E076
:10455000BDF80000401C80B20090BDF80000322879
:10456000F6DB08BD10B588B0044601214120FCF7F8
:104570003BFB01211020FCF757FB01208DF81C00AC
:1045800000208DF81E004FF48070069000208DF8FA
:104590001F0002208DF81D0006A92648FCF775F8BB
:1045A00002208DF81C0000208DF81E004FF4C06022
:1045B000069000208DF81F0002208DF81D0006A92E
:1045C0001D48FCF762F8072209211B48FCF7A5F8F3
:1045D00007220A211848FCF7A0F802940020ADF841
:1045E0000C00ADF81000ADF80E000C20ADF8120074
:1045F0000020ADF8140002A91048FCF711FE0122BA
:1046000040F225510D48FCF7E5FD25208DF804000A
:1046100001208DF8050002208DF8060001208DF89C
:10462000070001A8FCF742F901210448FCF78FFDBF
:1046300008B010BD00180240000002400010014008
:1046400010B586B0044601210846FCF7CDFA0121D9
:104650004804FCF7D9FA02208DF8140000208DF8E8
:1046600016000C20049001208DF8170002208DF810
:10467000150004A91248FCF708F807220221104887
:10468000FCF74BF8072203210D48FCF746F800948D
:104690000020ADF80400ADF80800ADF806000C20CD
:1046A000ADF80A000020ADF80C0069460548FCF79B
:1046B000B7FD01210348FCF74AFD06B010BD00001C
:1046C000000002400044004010B5044600BF8021B5
:1046D0000448FCF748FD0128F9D121460148FCF7C0
:1046E0000EFE10BD0044004010B5044603E014F86F
:1046F000010BFFF7E9FF20780028F8D110BD00007A
:1047000010B588B0044601210220FCF76DFA0121A2
:104710008804FCF779FA02208DF81C0000208DF83F
:104720001E004FF44060069000208DF81F0002200C
:104730008DF81D0006A91D48FBF7A7FF07220A21D7
:104740001A48FBF7EAFF07220B211848FBF7E5FFA1
:1047500002940020ADF80C00ADF81000ADF80E008A
:104760000C20ADF812000020ADF8140002A910488A
:10477000FCF756FD012240F225510D48FCF72AFDB9
:1047800027208DF8040008208DF8050002208DF800
:10479000060001208DF8070001A8FCF787F8012129
:1047A0000348FCF7D4FC08B010BD00000004024030
:1047B0000048004010B5044600BF80210448FCF7C3
:1047C000D2FC0128F9D121460148FCF798FD10BD23
:1047D0000048004010B5044603E014F8010BFFF751
:1047E000E9FF20780028F8D110BD01460A69D1E917
:1047F00001309860D1E9010358605068884201D1C6
:1048000088685060002008611068401E10601068C1
:10481000704700001CB5002001900120009000BFEF
:104820001448007810B91448007818B1002001F03D
:10483000F1FDF5E701A8FDF7E1FDB0B1BDF8041009
:104840000EA0FCF761FD00230A22694611480068AA
:1048500002F024FB0020104908604FF4FA60FDF7D5
:10486000A9FE01200D49C1F8A4024FF4FA7001F02D
:10487000E5FBD5E74C0000204F00002046696E673D
:10488000657220556E6C6F636B212049443A202578
:10489000640D0A0028000020A482424200804242A7
:1048A00088B000BF00240025002600BF00235A1E48
:1048B00007A9FE48006802F0C3F9012871D106B1CA
:1048C000F4E7FB48007800B1F0E7032C00DB02249A
:1048D000FEF7B0F89DF81C002A282BD10024FEF723
:1048E000B9F8FEF7EFFA00BF00235A1E1946F14847
:1048F000006802F0A5F9E0B1FEF752FBEEA200213C
:104900000846FEF7F5FBF0A202210020FEF7F0FBBF
:10491000F0A204210020FEF7EBFBF1A2062100200B
:10492000FEF7E6FB00231A461946E248006802F04B
:10493000B5FABBE7062C62D2DFE814F0060062008D
:1049400095027D037E037F039DF81C00312829D149
:1049500000BF012400235A1E1946D648006802F001
:104960006FF900284BD0FEF71BFBE1A2002108469F
:10497000FEF7BEFBE2A202210020FEF7B9FBE3A294
:1049800004210020FEF7B4FBE3A206210020FEF77D
:10499000AFFB00231A461946C648006802F07EFAAB
:1049A0002DE053E39DF81C00322828D100BF0224DB
:1049B000FEF7C2FA00235A1E1946BE48006802F0EC
:1049C0003FF9E0B1FEF7ECFAD7A200210846FEF766
:1049D0008FFBCBA202210020FEF78AFBCBA2042191
:1049E0000020FEF785FBCCA206210020FEF780FB0D
:1049F00000231A461946AF48006802F04FFA24E334
:104A00009DF81C0031287DD10126FEF753F80020C7
:104A10008DF8140042F21070069000235A1E05A96A
:104A2000C548006802F03AFA00235A1E1946A14808
:104A3000006802F005F9B8B1FEF7B2FABFA2002192
:104A40000846FEF755FBC1A202210020FEF750FBED
:104A5000C2A206210020FEF74BFB00231A4619468E
:104A60009448006802F01AFA002342F6E06204A9B2
:104A7000BD48006802F0E4F8012842D10023821EFC
:104A800019468C48006802F0DBF8002839D0FEF7A0
:104A900087FA9DF8110080B1B4A202210020FEF730
:104AA00027FB0020B44908604FF4FA6001F0C6FA11
:104AB0000120B249C1F8A40208E0B1A202210020FD
:104AC000FEF716FB4FF47A7001F0B8FA7AA20021D3
:104AD0000846FEF70DFB7CA202210020FEF708FB32
:104AE0007CA204210020FEF703FB7DA2062100200A
:104AF000FEF7FEFA00231A4619466E48006802F0D7
:104B0000CDF900E004E00024FDF7A4FF0026A9E1B0
:104B10009DF81C0032287DD10126FDF7CBFF012036
:104B20008DF8140042F21070069000235A1E05A959
:104B30008148006802F0B2F900235A1E19465D4808
:104B4000006802F07DF8B8B1FEF72AFA8EA20021C3
:104B50000846FEF7CDFA90A202210020FEF7C8FA1F
:104B600091A206210020FEF7C3FA00231A46194637
:104B70005048006802F092F9002342F6E06204A96E
:104B80007948006802F05CF8012842D10023821EB7
:104B900019464848006802F053F8002839D0FEF75B
:104BA000FFF99DF8110080B170A202210020FEF7EC
:104BB0009FFA0020704908604FF4FA6001F03EFA55
:104BC00001206E49C1F8A40208E06DA20221002074
:104BD000FEF78EFA4FF47A7001F030FA36A2002117
:104BE0000846FEF785FA38A202210020FEF780FA77
:104BF00038A204210020FEF77BFA39A2062100200A
:104C0000FEF776FA00231A4619462A48006802F091
:104C100045F900E004E00024FDF71CFF002621E137
:104C20009DF81C003328FAD10126FDF743FF02202E
:104C30008DF8140042F21070069000235A1E05A948
:104C40003D48006802F02AF900235A1E1946194807
:104C5000006801F0F5FFB8B1FEF7A2F956A20021F5
:104C60000846FEF745FA57A202210020FEF740FA57
:104C70003AA206210020FEF73BFA00231A46194605
:104C80000C48006802F00AF9002342F6E06204A929
:104C90003548006801F0D4FF012805D10023821EA9
:104CA00019460448006895E0D8E000003000002074
:104CB000500000204000002053797374656D20522D
:104CC0006561647921000000312D556E6C6F636B56
:104CD00000000000322D4D616E616765000000002C
:104CE00050726573732031206F7220320000000013
:104CF000556E6C6F636B204D6F64653A0000000069
:104D0000312E46696E67657200000000322E5061D8
:104D10007373776F72640000332E52464944202A21
:104D20002D4261636B0000004D616E616765204D2F
:104D30006F64653A000000003400002046696E6729
:104D4000657220556E6C6F636B000000506C616380
:104D5000652066696E6765722E2E2E002A20746F9C
:104D60002063616E63656C00380000205355434337
:104D70004553532100000000A48242420080424279
:104D80004641494C4544210050617373776F72640A
:104D900020556E6C6F636B00496E70757420706186
:104DA0007373776F72643A00232D4F4B202A2D4383
:104DB000616E63656C0000005246494420556E6C7C
:104DC0006F636B005363616E20636172642E2E2EDD
:104DD0000000000001F034FF00283FD0FEF7E0F8AB
:104DE0009DF8110088B1AFF27C0202210020FEF78D
:104DF0007FF90020964908604FF4FA6001F01EF92F
:104E000001209449C1F8A40209E0AFF28C0202210A
:104E10000020FEF76DF94FF47A7001F00FF9AFF250
:104E2000681200210846FEF763F9AFF2641202210E
:104E30000020FEF75DF9AFF2641204210020FEF7B6
:104E400057F9AFF2641206210020FEF751F9002352
:104E50001A4619468048006802F020F80024FDF741
:104E6000F9FD0026F1E09DF81C0031283DD1032416
:104E700000BF0120794908704020079000235A1E86
:104E800007A97748006802F009F83120079000234D
:104E90005A1E07A97248006802F000F800235A1E43
:104EA00019466D48006801F0CBFE00281CD0FEF7C3
:104EB00077F86CA200210846FEF71AF96DA20221CC
:104EC0000020FEF715F96DA204210020FEF710F96D
:104ED0006DA206210020FEF70BF900231A461946A1
:104EE0005D48006801F0DAFFA4E09DF81C0032285C
:104EF0004CD1042400BFFDF7A7FC0546012057490B
:104F000008704020079000235A1E07A954480068E3
:104F100001F0C4FF3220079000235A1E07A9504811
:104F2000006801F0BBFF00235A1E19464A4800687A
:104F300001F086FE00287DD0FEF732F854A2002151
:104F40000846FEF7D5F8002D09DD0020FDF764FCCA
:104F500007463A4602210020FEF7CAF804E04FA2B5
:104F600002210020FEF7C4F844A204210020FEF72D
:104F7000BFF845A206210020FEF7BAF800231A4622
:104F800019463548006801F089FF53E09DF81C0080
:104F900033284FD1052400BFFDF730FC0546012022
:104FA0002E4908704020079000235A1E07A92C485C
:104FB000006801F073FF3320079000235A1E07A9F1
:104FC0002748006801F06AFF00235A1E194622484C
:104FD000006801F035FE68B3FDF7E2FF31A2002161
:104FE0000846FEF785F8002D0EDD0020FDF7F0FBEA
:104FF00007463A462FA101A8FCF7AAF901AA022107
:105000000020FEF775F804E024A202210020FEF73C
:105010006FF81AA204210020FEF76AF81AA20621EE
:105020000020FEF765F800231A4619460A48006872
:1050300001F034FF09E000BF00BF00235A1E07A99A
:105040000748006801F02AFF00BF00BF2EE40000FF
:10505000A4824242008042424000002050000020D2
:105060003C00002046696E676572204D616E616785
:10507000653A000053656C3A20300000312D4465DC
:105080006C20322D416464002A2D4261636B000064
:10509000507764204D616E6167653A00456D7074AC
:1050A0007900000052464944204D616E6167653ABF
:1050B00000000000253038580000000008B500BF8F
:1050C000FDF77EFD00909DF80000F8B119480078CA
:1050D00090B11948007838B100230A226946174870
:1050E000006801F0DBFE20E000230A226946144834
:1050F000006801F0D3FE18E01248007838B10023B0
:105100000A2269461048006801F0C8FE0DE000233D
:105110000A2269460C48006801F0C0FE00230A22FA
:1051200069460748006801F0B9FE642000F086FF78
:10513000C6E700004F000020500000203C00002087
:10514000300000204C0000202C00002000F108015D
:1051500041604FF0FF31816000F10801C1600161E1
:1051600000210160704700210161704710B50246BF
:105170000B685C1C0CB9106907E002F1080000E044
:105180004068446824689C42FAD944684C604C6882
:10519000A160886041600A611468641C146010BDDD
:1051A00042684A6093688B609368596091600861B7
:1051B00003685B1C0360704794B04FF00008002543
:1051C000032414210EA8FBF770F800274FF0000904
:1051D00000200D9000BF00235A1E13A9F748006855
:1051E00001F02EFD012875D19DF84C00402819D101
:1051F0000023642213A9F148006801F021FD012871
:105200000FD19DF84C00312804D0322804D0332827
:1052100006D103E0032403E0042401E0052400BFD9
:1052200000BFD8E7FDF706FC9DF84C002A287DD189
:10523000B9F1000F7BD04FF00009002714210EA810
:10524000FBF733F800235A1E1946DD48006801F0C9
:10525000F7FC00286CD0FDF7A3FE032C14D1D9A2D3
:1052600000210846FDF744FFDAA202210020FDF7E5
:105270003FFFDAA204210020FDF73AFFDAA206215F
:105280000020FDF735FF50E0042C24D1FDF7DCFAB7
:105290000546D7A200210846FDF72AFF002D09DDAB
:1052A0000020FDF7B9FA8246524602210020FDF7A0
:1052B0001FFF04E0D1A202210020FDF719FFC7A2C1
:1052C00004210020FDF714FFC7A206210020FDF7EE
:1052D0000FFF2AE070E3052C27D1FDF78FFA054672
:1052E000C8A200210846FDF703FF002D0EDD0020B7
:1052F000FDF76EFA82465246C6A101A8FCF728F8CF
:1053000001AA02210020FDF7F3FE04E0BBA2022166
:105310000020FDF7EDFEB1A204210020FDF7E8FE1C
:10532000B1A206210020FDF7E3FE02E03AE008E02A
:1053300037E000231A461946A148006801F0AEFD87
:105340002FE04FF00009002714210EA8FAF7ADFF57
:10535000B8460020B14908700023421E19469848FB
:10536000006801F06DFCE0B1FDF71AFEACA200216F
:105370000846FDF7BDFEAEA202210020FDF7B8FEF3
:10538000AEA204210020FDF7B3FEAFA2062100204B
:10539000FDF7AEFE00231A4619468948006801F061
:1053A0007DFD18E7B9F1000F7BD0042C7AD19DF870
:1053B0004C00232858D100200EA9C855042F31DBFA
:1053C0000EA8FDF775F9B0B100235A1E19467C48A6
:1053D000006801F035FC20B3FDF7E2FD9EA202213A
:1053E0000020FDF785FE00231A4619467448006820
:1053F00001F054FD2CE000235A1E19467048006845
:1054000001F01EFC68B1FDF7CBFD95A20221002042
:10541000FDF76EFE00231A4619466948006801F040
:105420003DFD15E000235A1E19466548006801F04D
:1054300007FC68B1FDF7B4FD8BA202210020FDF747
:1054400057FE00231A4619465D48006801F026FD04
:105450004FF47A7000F0F2FD4FF00009002714219C
:105460000EA8FAF722FF26E29DF84C003028FADB5E
:105470009DF84C003928F6DC102FF4DA9DF84C200A
:105480003846791CCFB20EA90A5400235A1E194679
:105490004B48006801F0D4FB0028E4D0FDF780FD04
:1054A00001E03DE116E073A200210846FDF720FE71
:1054B0000EAA02210020FDF71BFE71A2042100208C
:1054C000FDF716FE00231A4619463D48006801F014
:1054D000E5FCF0E1052C70D100200D90002341F295
:1054E000883219466A48006801F0AAFB01285DD19C
:1054F0000DA8FEF7AFFFD8B30D98FDF7BDF800B3C8
:1055000000235A1E19462E48006801F099FB70B31B
:10551000FDF746FD5FA200210846FDF7E9FD3DA12C
:105520000AA80D9AFBF714FF0AAA02210020FDF732
:10553000DFFD00231A4619462148006801F0AEFC41
:105540002DE000235A1E19461D48006801F078FB23
:1055500068B1FDF725FD42A202210020FDF7C8FD3C
:1055600000231A4619461648006801F097FC16E019
:10557000FFE700235A1E19461148006801F060FB3E
:1055800068B1FDF70DFD46A202210020FDF7B0FD38
:1055900000231A4619460A48006801F07FFC0023E0
:1055A0001A4619463A48006801F078FC4FF47A70C0
:1055B00000F044FD4FF000097DE177E03C00002061
:1055C0004000002046696E676572204D616E61671C
:1055D000653A000053656C3A20300000312D446577
:1055E0006C20322D416464002A2D4261636B0000FF
:1055F000507764204D616E6167653A00456D707447
:105600007900000052464944204D616E6167653A59
:105610000000000025303858000000005000002035
:105620004D616E616765204D6F64653A0000000052
:10563000312E46696E67657200000000322E50619F
:105640007373776F72640000332E52464944202AE8
:105650002D4261636B000000536176656421000098
:1056600046756C6C21000000546F6F2053686F7298
:1056700074210000496E707574205057443A000040
:105680005072657373202320746F207361766500F8
:1056900048000020436172642053617665642100F4
:1056A0004E6F20436172642100000000032C36D14C
:1056B0004046FCF70FFBB0B100235A1E1946C44800
:1056C000006801F0BDFA20B3FDF76AFCC1A2022117
:1056D0000020FDF70DFD00231A461946BC4800685E
:1056E00001F0DCFB15E000235A1E1946B84800689B
:1056F00001F0A6FA68B1FDF753FCB9A2022100201F
:10570000FDF7F6FC00231A461946B148006801F07F
:10571000C5FB4FF47A7000F091FC4FF00009CAE02D
:10572000032C04D0042C04D0052C0AD105E00A2552
:1057300007E0FDF789F8054603E0FDF75FF8054649
:1057400000BF00BF9DF84C00312859D1002DE6DD87
:1057500000235A1E19469E48006801F071FA68B18C
:10576000FDF71EFCA2A200210846FDF7C1FC0023A4
:105770001A4619469648006801F090FB002341F252
:10578000883209A99E48006801F05AFA0128C6D15A
:105790009DF8240031282ED1032C04D0042C06D0EF
:1057A000052C0CD107E04046FCF70EFA07E0404616
:1057B000FCF7D6FF03E04046FCF7A2FF00BF00BFA6
:1057C000681E404501DC4FF0000800235A1E1946B0
:1057D0007F48006801F034FA68B1FDF7E1FB89A267
:1057E00002210020FDF784FC00231A461946784860
:1057F000006801F053FB4FF4FA7000F01FFC5AE010
:105800009DF84C00322839D14FF0010900235A1E6F
:1058100019466F48006801F013FA70B3FDF7C0FB3A
:10582000032C04D0042C08D0052C1ED117E078A23C
:1058300000210846FDF75CFC17E0AFF2C81200211A
:105840000846FDF755FC69A202210020FDF750FC37
:10585000AFF2D41204210020FDF74AFC05E070A24B
:1058600000210846FDF744FC00BF00BF00231A4694
:1058700019465748006801F011FB1CE09DF84C00E8
:10588000312818DB9DF84C00392814DC9DF84C00B9
:105890003138C6B2032C03D10A2E0CDAB0460AE026
:1058A000042C03D1AE4206DAB04604E0052C02D146
:1058B000AE4200DAB046B9F1000F7DD100235A1E86
:1058C00019464348006801F0BBF900287ED0FDF777
:1058D00067FB032C04D0042C1FD0052C6ED140E0B4
:1058E000AFF2203200210846FDF702FC424650A1EB
:1058F00004A8FBF72DFD04AA02210020FDF7F8FB08
:10590000AFF2283204210020FDF7F2FBAFF228327B
:1059100006210020FDF7ECFB50E047A200210846DD
:10592000FDF7E6FB002D09DD4046FCF775FF8246DA
:10593000524602210020FDF7DBFB05E0AFF24432C6
:1059400002210020FDF7D4FBAFF2703204210020C9
:10595000FDF7CEFBAFF2703206210020FDF7C8FB49
:105960002CE0AFF2603200210846FDF7C1FB002DAC
:105970000FDD4046FCF72CFF82465246AFF26C31F9
:1059800001A8FBF7E5FC01AA02210020FDF7B0FB0E
:1059900005E0AFF2983202210020FDF7A9FBAFF23B
:1059A000C43204210020FDF7A3FBAFF2C43206216C
:1059B0000020FDF79DFB00E008E000BF00BF0023D2
:1059C0001A4619460248006801F068FA03E400002C
:1059D00040000020456E726F6C6C204F4B21000020
:1059E000456E726F6C6C204661696C21000000008E
:1059F00044656C6574653F20313D59657300000056
:105A00003C00002044656C65746564210000000062
:105A1000506C6163652066696E6765722E2E2E007C
:105A20005363616E20636172642E2E2E00000000AD
:105A300053656C3A2025640050617373776F72640C
:105A4000204D616E6167653A0000000008B500BF37
:105A500000235A1E69463548006801F0F1F8012814
:105A600062D13348007810B93248007800B1EFE7CE
:105A700000235A1E19463048006801F0E1F800285A
:105A800052D0FDF78DFA0098012805D12BA20021F4
:105A90000846FDF72DFB10E00098022805D12AA248
:105AA00000210846FDF724FB07E00098032804D1F5
:105AB00029A200210846FDF71BFB00231A461946C0
:105AC0001D48006801F0EAF94FF4FA6000F0B6FAF8
:105AD00017480078002827D11648007820BB0023FB
