:020000040800F2
:10000000A0330120550200085D0200085F020008CD
:100010006102000863020008650200080000000099
:100020000000000000000000000000009D0100082A
:100030006902000800000000F1010008310E00080C
:100040006F0200086F0200086F0200086F020008CC
:100050006F0200086F020008AB0300086F0200087F
:10006000DD03000815040008390400086F020008C9
:100070006F0200086F0200086F0200086F0200089C
:100080006F0200086F0200086F0200086F0200088C
:100090006F0200086F0200086F0200086F0200087C
:1000A000CD0E00086F0200086F0200086F02000802
:1000B000FD0E0008290F00086F0200086F020008FB
:1000C0006F0200086F0200086F0200086F0200084C
:1000D0006F020008B10F00086F020008311000081D
:1000E0006F0200086F0200086F0200086F0200082C
:1000F0006F0200086F0200086F0200086F0200081C
:100100006F0200086F0200086F0200086F0200080B
:100110006F0200086F0200086F0200086F020008FB
:100120006F0200086F0200086F0200086F020008EB
:100130006F0200086F0200086F0200086F020008DB
:100140006F0200086F0200086F0200086F020008CB
:100150006F0200086F0200086F0200086F020008BB
:100160006F0200086F0200086F0200086F020008AB
:100170006F0200086F0200086F0200086F0200089B
:100180006F0200086F020008DFF80CD000F0DCF806
:1001900000480047ED250008A03301202A4B1968CC
:1001A0000868B0E8F04F80F30988BFF36F8F4FF015
:1001B000000080F3118870470000000006480068C6
:1001C000006880F3088862B661B6BFF34F8FBFF353
:1001D0006F8F00DF00BF00BF08ED00E0DFF80C000C
:1001E000016841F470010160704700BF88ED00E0D4
:1001F000EFF30980BFF36F8F134B1A681EF0100FD7
:1002000008BF20ED108A20E9F04F106008B44FF0CD
:10021000500080F31188BFF34F8FBFF36F8F04F04E
:100220001BFB4FF0000080F3118808BC19680868B8
:10023000B0E8F04F1EF0100F08BFB0EC108A80F34A
:100240000988BFF36F8F7047B4000020EFF305807B
:10025000704700000648804706480047FEE7FEE773
:10026000FEE7FEE7FEE7FEE7FEE7FEE7FEE7FEE766
:10027000650E00088901000840EA01039B0703D0CE
:1002800009E008C9121F08C0042AFAD203E011F8D5
:10029000013B00F8013B521EF9D27047D2B201E097
:1002A00000F8012B491EFBD270470022F6E710B57B
:1002B00013460A4604461946FFF7F0FF204610BDD4
:1002C00030B505462A460B4612F8010B13F8014BD0
:1002D00008B1A042F8D01CB1002802D06D1CF1E793
:1002E000284630BD2DE9F05F0546002092469B462A
:1002F00088460646814640241BE02846414647463C
:10030000224600F042F853465A46C01A914110D393
:1003100011461846224600F029F82D1A67EB01080D
:100320004F4622460120002100F020F817EB00097B
:100330004E41201EA4F10104DFDC484631462A4626
:100340004346BDE8F09F0000064C074D06E0E0681C
:1003500040F0010394E8070098471034AC42F6D30C
:10036000FFF716FF8C5D0008AC5D0008202A04DB57
:10037000203A00FA02F1002070479140C2F12003B8
:1003800020FA03F3194390407047202A04DB203AF7
:1003900021FA02F00021704721FA02F3D040C2F1A5
:1003A0002002914008431946704710B500BF502104
:1003B000EFF3118081F31188BFF34F8FBFF36F8F7D
:1003C00000BF0446012000F04FF8012801D100F0E1
:1003D00045F800BF84F3118800BF10BD10B504209C
:1003E00000F042F801280DD107480068C0430749D2
:1003F000C1F8A4024FF4FA71054800F0D7FD0420BB
:1004000000F02CF810BD0000A4824242008042425D
:100410000004004010B5082000F026F8012807D19C
:100420004FF44871034800F0C1FD082000F016F8B1
:1004300010BD00000004004010B5102000F014F8BA
:10044000012807D140F2DE31034800F0AFFD102053
:1004500000F004F810BD00000004004001490860ED
:1004600070470000143C014001460020034A126816
:100470000A400AB1012000E000207047143C01400E
:1004800001490860704700000C3C024070B504460A
:100490000A460026092502B909E0012A01D11602FF
:1004A00005E0022A01D1160201E04FF4407600F087
:1004B0009FF80546092D28D11548006820F44070A2
:1004C0001349086008460068304308600846006821
:1004D00020F0F80008600846006844F00201084374
:1004E0000B4908600846006840F48030086000F05E
:1004F0007FF805460648006820F0020004490860BD
:100500000846006820F0F8000860284670BD00002A
:10051000103C024009201349096801F48031B1F50B
:10052000803F01D101201CE00E49096801F0100153
:1005300009B1062015E00B49096801F4807109B181
:1005400002200EE00749096801F0EF0109B1072018
:1005500007E00449096801F0020109B1082000E040
:10056000092070470C3C02400348006840F00040FE
:100570000149086070470000103C024030B5024657
:100580000C46092500F034F80546092D19D10E480E
:10059000006820F440700C4908600846006840F488
:1005A000007008600846006840F0010008601460B0
:1005B00000F01EF805460448006820F001000249DA
:1005C0000860284630BD0000103C02400548006825
:1005D00000F0004028B1044802490C390860034883
:1005E00008607047103C024023016745AB89EFCD9E
:1005F00008B509200090FFF78DFF009002E0FFF79B
:1006000089FF00909DF800000128F8D09DF80000B7
:1006100008BDF0B50A4600210023002400BF3DE0DC
:10062000012505FA01F3156805EA03049C4234D15B
:1006300005684F000326BE40B543056015794E009E
:10064000B5400668354305601579012D02D015794E
:10065000022D16D185684F000326BE40B543856044
:1006600055794E00B540866835438560456801265A
:100670008E40B5434560456896798E40B6B23543A5
:100680004560C5684F000326BE40B543C560D579B7
:100690004E00B540C6683543C560491C1029BFD31C
:1006A000F0BDF0B5002300244D07ED0E02FA05F36E
:1006B000CE1000F1200555F826504E07F70E0F26F4
:1006C000BE40B543CF1000F1200646F82750CE10AB
:1006D00000F1200555F8265045EA0304CE1000F13C
:1006E000200545F82640F0BD0246002013690B4066
:1006F0000BB1012000E00020704741837047018367
:100700007047000010B54FF400710E48FFF7F7FF77
:100710004FF480710B48FFF7F2FF052001F010FE47
:100720004FF400710748FFF7E8FF052001F008FECD
:100730004FF480710348FFF7E0FF052001F000FE51
:1007400010BD00000004024010B54FF480710E4847
:10075000FFF7D3FF4FF400710B48FFF7CEFF0520E2
:1007600001F0EEFD4FF480710748FFF7C8FF052048
:1007700001F0E6FD4FF400710348FFF7C0FF0520CC
:1007800001F0DEFD10BD00000004024010B54FF482
:1007900000711048FFF7B3FF00F08EFA022001F05D
:1007A000CFFD4FF480710B48FFF7A9FF022001F045
:1007B000C7FD084810300068C0F340244FF4807132
:1007C0000448FFF79AFF00F081FA022001F0B8FD1B
:1007D000204610BD0004024070B50446002521E00B
:1007E00004F0800028B14FF400711148FFF787FF33
:1007F00004E04FF400710E48FFF77FFF4FF4807163
:100800000B48FFF77CFF052001F09AFD4FF4807143
:100810000748FFF772FF052001F092FD6006040E05
:10082000681CC5B2082DDBDBFFF7B0FF70BD000010
:100830000004024070B5002100230F22C4781CB3CD
:10084000174C246804F4E064C4F5E064C4F30721A1
:10085000C1F10404E3B20A4144789C40E1B28478D7
:10086000144021430C07210E0E4C05786155047885
:1008700004F01F050124AC4005786D11AD0005F1B1
:10088000E025C5F8004109E0047804F01F050124C3
:10089000AC40054D0678761145F8264070BD000045
:1008A0000CED00E000E400E080E100E002490143DB
:1008B000024A1160704700000000FA050CED00E0EC
:1008C00010B50446FFF71EFF06480078FFF784FFC7
:1008D0000020FFF781FF2046FFF77EFFFFF734FF80
:1008E00010BD00003400002010B50446FFF70AFFD9
:1008F00006480078FFF770FF4020FFF76DFF2046A5
:10090000FFF76AFFFFF720FF10BD00003400002052
:1009100010B5142000F038F8044604F0030018B9AC
:100920000321142000F07AF810BD7CB504460021A4
:100930000D2000F007F9932020702020607001A89E
:1009400023460222214600900C2000F074F808B1E2
:1009500001207CBD2078882807D0002503E0605D59
:100960006055681CC5B2042DF9DB0020F1E770B5B5
:1009700005460C46284600F007F820EA04063146F2
:10098000284600F0DFF870BD70B5044680210A48A3
:10099000FFF7B3FE7E2101EA440141F0800000F040
:1009A0009FF9002000F09CF9054680210248FFF7DE
:1009B000A6FE284670BD0000000C02407CB505462E
:1009C0000C4607210D2000F0BDF8257001A8234634
:1009D0000122214600900C2000F02DF808B10120E2
:1009E0007CBD9DF80400102801D00220F8E700200B
:1009F000F6E7000010B54FF400610748FFF77DFEF1
:100A00000A2003F007F84FF400610348FFF777FE70
:100A10000A2002F0FFFF10BD0008024070B5054635
:100A20000C462846FFF7B0FF40EA04063146284648
:100A300000F088F870BD2DE9FC5F054689469246B6
:100A40009B460020019000900C2D03D1772001904F
:100A500030200090019840F08001022000F072F8F0
:100A600080210420FFF783FF0021012000F06AF8B5
:100A700080210A20FFF7D2FF002406E019F80410B5
:100A8000092000F05FF8601CC4B25445F6DB29462B
:100A9000012000F057F80C2D03D180210D20FFF725
:100AA000BDFF4FF4FA6600BF0420FFF76DFF044658
:100AB000701E86B236B104F0010018B900982040CB
:100AC0000028F1D080210D20FFF751FF16B9012039
:100AD000BDE8FC9F0420FFF757FF00F0010008B1BC
:100AE0000220F5E70420FFF74FFF00F0010030BBC4
:100AF0000A20FFF749FF04460C20FFF745FF00F0EE
:100B00000708B8F1000F06D0601E08EBC000C1B2A4
:100B10000C98017003E0E006010E0C98017004B916
:100B20000124102C00DD1024002706E00920FFF727
:100B30002BFF0BF80700781CC7B2A742F6DB00209A
:100B4000C6E7000070B504460D4680210748FFF750
:100B5000D4FD7E2101EA440000F0C2F8284600F0EE
:100B6000BFF880210148FFF7CAFD70BD000C0240AC
:100B700029B1064A12680243044B1A6004E0034A92
:100B800012688243014B1A607047000030380240FF
:100B900029B1064A12680243044B1A6004E0034A72
:100BA00012688243014B1A607047000040380240CF
:100BB00029B1064A12680243044B1A6004E0034A52
:100BC00012688243014B1A607047000044380240AB
:100BD000F0B5002100220024022500260223324F16
:100BE0003F6807F00C0121B1042905D0082937D14D
:100BF00005E02E4F076036E02D4F076033E02A4FA7
:100C00003F1F3F68C7F38056274F3F1F3F6807F0DD
:100C10003F036EB1264FB7FBF3F7DFF88CC0ACF1A2
:100C2000040CDCF800C0CCF3881C07FB0CF40CE0CF
:100C30001E4FB7FBF3F7DFF870C0ACF1040CDCF823
:100C400000C0CCF3881C07FB0CF4174F3F1F3F6814
:100C5000C7F301477F1C7D00B4FBF5F7076002E096
:100C6000124F076000BF00BF0F4F3F6807F0F00151
:100C70000909104F7A5C0768D74047600A4F3F6800
:100C800007F4E051890A0B4F7A5C4768D7408760C8
:100C9000054F3F6807F46041490B064F7A5C47688F
:100CA000D740C760F0BD0000083802400024F400BF
:100CB00000127A00040100200348006820F440205C
:100CC00001490860704700000004024003480068C2
:100CD00040F4802001490860704700000004024091
:100CE00070B50446002525E004F0800020B14021C5
:100CF0001248FFF704FD03E040211048FFF7FDFC18
:100D000002F082FF40210E48FFF7F9FC02F07CFF61
:100D10006006040E4FF480710848FFF7E5FC08B147
:100D200044F0010440210648FFF7E7FC02F06CFFA5
:100D3000681CC5B2082DD7DB204670BD00080240F4
:100D4000000C02400CB5002001900090344800686F
:100D500040F480303249086000BF3148006800F438
:100D6000003000900198401C0190009818B901983B
:100D7000B0F5A04FF1D12A48006800F4003010B15E
:100D80000120009001E0002000900098012846D149
:100D900023484030006840F08050214940310860CD
:100DA0002048006840F440401E4908601C48083054
:100DB00000681B49083108600846006840F400409C
:100DC00008600846006840F4A05008601648091FF3
:100DD0000860081F006840F08070091F086000BFAD
:100DE0000F48006800F000700028F9D040F205704C
:100DF0000E4908600A480830006820F003000849DE
:100E0000083108600846006840F00200086000BF32
:100E100003480830006800F00C000828F8D10CBD29
:100E2000003802400070004008544007003C024077
:100E300010B500BF502080F31188BFF34F8FBFF370
:100E40006F8F00BF04F052FA18B14FF08050044980
:100E5000086000BF002080F3118800BF10BD0000B3
:100E600004ED00E010B51548006840F47000134927
:100E700008601348006840F0010011490860002034
:100E80000F49083108600E4800680E4908400C49B7
:100E900008600D48091D0860081F006820F48020C4
:100EA000091F0860002006490C310860FFF74AFF5F
:100EB0004FF0006001498039086010BD88ED00E006
:100EC00000380240FFFFF6FE1030002410B501216B
:100ED000074800F05AF8012809D106480068C043C5
:100EE0000549C1F8B8020121014800F03FF810BDE2
:100EF00000400140B80242420000424210B50121C8
:100F0000880700F042F8012809D105480068C0436D
:100F10000449C1F8A4020121880700F027F810BD98
:100F2000A48242420080424210B501210B4800F0E9
:100F30002CF8012810D10A48006828B9094800682F
:100F4000C0430949C1F8A4020021044800F011F887
:100F50000121024800F00AF810BD00000004004022
:100F600008024242A482424200804242CA430282B4
:100F7000704721B1028842F00102028004E0028839
:100F80004FF6FE731A400280704730B502460020CB
:100F900000230024158A05EA0103958905EA010466
:100FA00013B10CB1012000E0002030BD4163704757
:100FB00070B500BF5021EFF3118081F31188BFF3AA
:100FC0004F8FBFF36F8F00BF044640F22551144886
:100FD00000F09AF801281DD1114800F04FF9C1B274
:100FE00010480578681C0F4A10700F48415510468C
:100FF0000078401E0C49085C2A2803D0104600786F
:101000003F2802D301200949087040F225510448C5
:1010100000F052F800BF84F3118800BF70BD0000DB
:10102000001001403C000020280100203D0000206D
:1010300070B500BF5021EFF3118081F31188BFF329
:101040004F8FBFF36F8F00BF054640F22551164802
:1010500000F05AF8012821D1134800F00FF9C4B26A
:10106000124800783F2813D210490878411C0F4AD3
:1010700011700F490C542A2C07D00D2C05D00A2CC6
:1010800003D0104600783E2802D301200949087099
:1010900040F22551044800F00FF800BF00BF85F36F
:1010A000118800BF70BD0000004800403E000020D5
:1010B000680100203F00002010B50022002340F608
:1010C0006A14A14200D100BF0A1201249440A3B2C5
:1010D000DC43048010BD21B1828942F40052828138
:1010E00004E082894DF6FF731A4082817047024600
:1010F0000020B1F5007F00D100BF13880B400BB179
:10110000012000E00020704770B502460024002353
:101110000025002040F66A16B14200D100BFC1F39D
:10112000421501F01F03012606FA03F3012D02D137
:101130009689334006E0022D02D1168A334001E041
:10114000968A33400C12012606FA04F416883440BD
:1011500013B10CB1012000E0002070BDF0B50346D2
:10116000002400260025002040F66A17B94200D16D
:1011700000BF1846C1F3421401F01F06012707FA09
:1011800006F5012C01D10C3004E0022C01D1103005
:1011900000E014301AB107682F43076002E00768C7
:1011A000AF430760F0BD00002DE9FF4705460E463E
:1011B0000024A14600BFA046B08900B100BF2C8A20
:1011C00024F44054F08804432C82AC8941F20C6032
:1011D0008443B08831890843718908430443AC8152
:1011E000AC8A24F44074B0890443AC826846FFF7AB
:1011F000EFFC2048854202D01F48854202D1DDF82D
:101200000C9001E0DDF80890A88900F4004040B19E
:1012100009EBC90000EB091031684900B0FBF1F798
:1012200007E009EBC90000EB091031688900B0FB49
:10123000F1F76420B7FBF0F004012009642101FB01
:101240001078A88900F4004040B1322000EBC800BB
:10125000B0FBF1F000F00700044308E0322000EB9F
:1012600008106421B0FBF1F000F00F0004432C8162
:10127000BDE8FF8700100140001401400146888846
:10128000C0F308007047C1F3080282807047000075
:101290000FB4054B10B503A9044A029800F02CF8CE
:1012A00010BC5DF814FB0000152400088800002025
:1012B0000FB41CB50A46521ECDE9000207A9054B22
:1012C0006A46069800F018F8009A002111701CBCBC
:1012D0005DF814FB5B17000802E008C8121F08C184
:1012E000002AFAD170477047002001E001C1121FA7
:1012F000002AFBD1704700002DE9FF4F8DB00F464B
:101300000546002606E025280BD0DDE90F129047A0
:101310006D1C761C28780028F5D111B03046BDE848
:10132000F08F0024A246A1460122EC4900E00443CC
:1013300015F8013F203B02FA03F00842F7D1287864
:101340002A2810D06FF02F022878A0F13001092947
:1013500014D80AEB8A0102EB410144F0020400EBCD
:10136000010A6D1CF0E701CF5FEA000A03D544F4DF
:101370000054CAF1000A44F002046D1C28782E289B
:1013800017D115F8010F44F004042A280ED06FF08D
:101390002F022878A0F1300109290AD809EB890128
:1013A00002EB410100EB01096D1CF2E757F8049BC9
:1013B0006D1C28786C280FD006DC4C2817D06828C4
:1013C0000DD06A2814D104E0742810D07A280FD1E7
:1013D0000DE044F400140AE044F4801401E044F405
:1013E00040146978814202D104F580146D1C6D1C93
:1013F0002A786E2A1FD00CDC632A31D004DC002A44
:101400008BD0582A11D1A3E0642A68D0692A0CD164
:1014100065E0732A2ED004DC6F2A73D0702A04D1C1
:101420009BE0752A6FD0782A6ED01046DDE90F1246
:101430009047761C50E1C4F30250022806D00328DE
:1014400009D0042801CF09D0066045E101CFF1178A
:10145000C0E9006140E101CF06803DE106703BE15B
:1014600017F8040B8DF8000000208DF80100EB4602
:10147000012003E057F804BB4FF0FF3061074FF045
:10148000000102D40DE008F10101884649450FDA58
:101490008045F8DB1BF808100029F4D108E008F1BA
:1014A000010188468142FADB1BF808100029F6D1B9
:1014B000DDE90F23AAEB08008146214600F036F94A
:1014C000304400EB080604E0DDE90F121BF8010BC5
:1014D0009047B8F10108F7D221464846F7E00A21C3
:1014E000C4F302534FF0000B0891022B04D001CF3C
:1014F000C117032B09D00AE0FF1D27F00707F7E803
:10150000020108E032E01FE020E000B2C117042B26
:1015100001D140B2C117031E71F1000307DA4FF089
:10152000000CD0EB0C006CEB01012D2302E0230535
:1015300004D52B238DF82430012303E0E30701D0E9
:101540002023F7E7984658E00A2110E010210EE02A
:1015500010204FF0000B08900CE010214FF0000B12
:1015600044F004044FF00809089103E008214FF00B
:10157000000B0891C4F30253022B04D001CF0021C9
:10158000032B06D006E0FF1D27F00707F7E802014E
:1015900003E080B2042B00D1C0B24FF00008230753
:1015A0002BD5702A07D0DDF820C08CF0100C5CEA37
:1015B0000B0C05D00EE040238DF82430012308E009
:1015C00050EA010306D030238DF824308DF8252011
:1015D00002239846DDF820C08CF0080C5CEA0B0C66
:1015E0000BD150EA010301D1630706D530238DF8F2
:1015F00024304FF00108A9F10109582A04D038A27B
:101600000B9208AA0A920BE03AA2F9E75B46089A05
:10161000FEF768FE0B9B9B5C0A9A521E0A9213709F
:1016200050EA0102F2D10A98ADEB000000F1200B64
:10163000600702D524F4803401E04FF00109D94558
:1016400002DDA9EB0B0000E0002000EB0B014144A0
:101650000890AAEB010AE00306D4DDE90F23214636
:10166000504600F063F806444FF0000908E009A96D
:1016700011F80900DDE90F12904709F10109761C04
:10168000C145F4DBE0030CD5DDE90F2321465046CC
:1016900000F04CF8064404E0DDE90F1230209047DA
:1016A000761C0899481E08900029F5DC08E00A9885
:1016B0000A990078491C0A91DDE90F129047761CBF
:1016C000BBF10001ABF1010BF1DC21465046DDE935
:1016D0000F2300F019F806446D1C1BE609280100D1
:1016E0003031323334353637383961626364656698
:1016F000000000003031323334353637383941425A
:1017000043444546000000002DE9F0410446002511
:101710001E461746880404D405E039462020B04709
:101720006D1C641EF9D52846BDE8F0812DE9F04115
:10173000044600251E469046C80301D5302700E028
:101740002027880404D505E041463846B0476D1C83
:10175000641EF9D52846BDE8F0814A68002A06D003
:101760000A68531C0B6010704868401E4860704740
:101770001CB504463CA0FFF78BFD002204210A2083
:1017800003F07DFA3F49086000220121102003F098
:1017900076FA3D490860012003F060FA3B49086091
:1017A000012003F05BFA3A49086002F093FC3948E3
:1017B000032100234FF40072CDE9001036A139480F
:1017C00003F04EFD3848032100234FF40072CDE9A9
:1017D000001036A1374803F043FD374804210023A9
:1017E000CA01CDE9001035A1364803F039FD36486D
:1017F000022100230A02CDE9001034A1364803F08B
:101800002FFD3648032100234FF40072CDE900106C
:1018100033A1364803F024FD3548032100234FF45B
:101820008072CDE9001033A1354803F019FD02F0B4
:101830007BFC00235A1E19461448006803F04CFA3A
:1018400068B100F039FF2FA20021084600F0DCFF4C
:1018500000231A4619460D48006803F06BFB002070
:1018600002F07CFE1CBD00006170705F7461736BE0
:101870005F696E69742072756E6E696E67210D0AFC
:10188000000000001C000020200000202400002098
:10189000280000200400002046696E6765725461CC
:1018A000736B0000D53E0008080000205077645498
:1018B00061736B00914200080C0000204B65795465
:1018C00061736B00453F0008100000204F6C656499
:1018D0005461736B00000000DD3F0008140000201D
:1018E000526669645461736B00000000E5430008B0
:1018F0001800002055617274436D645461736B006D
:10190000E54800085761697420556E6C6F636B2E53
:101910002E2E000000B587B018A207CA8DE8070078
:1019200000235A1E19461848006803F0D5F901280B
:1019300004D016A0FFF7ACFC07B000BD0C21684630
:1019400000F09CFC0C22C82103A800F0AFFB0C287F
:1019500006DB9DF8150018B916A0FFF799FC04E006
:101960009DF815101DA0FFF793FC00231A46194699
:101970000548006803F0DEFA00BFDDE7EF01FFFF76
:10198000FFFF0100030D0011280000205B46696E77
:101990006765725D20436C6561723A206661696CAF
:1019A000656420746F20676574206D757465780DAB
:1019B0000A0000005B46696E6765725D20416C6CD1
:1019C0002066696E6765727072696E747320636CED
:1019D0006561726564210D0A000000005B46696E56
:1019E0006765725D20436C656172206661696C3A5F
:1019F00020636F64653D3078253032580D0A000051
:101A0000F0B59BB00546202113A8FEF74EFC97A227
:101A100007CA10AB07C398A1D1E90023D1E902019D
:101A2000CDE90C23CDE90E0197A191E80D00C9681D
:101A300008AC0DC40B9198A207CA05AB07C399A3C4
:101A40000FCB01AC0FC40027002600235A1E1946F5
:101A50009848006803F040F9012805D096A0FFF7E8
:101A600017FC00201BB0F0BD01209B490870280A1C
:101A70008DF80F00E8B28DF810009DF80F000E30C1
:101A80009DF810100844C0B28DF81200294693A0AA
:101A9000FFF7FEFB002631E0C82002F031FD0C21EB
:101AA00010A800F0EBFB0C224FF47A7113A800F0A1
:101AB000FDFA04461CB997A0FFF7EAFBCAE00C2C1C
:101AC00003DB9DF8550000B919E00C2C10DB9DF8E4
:101AD000550002280CD13046711C8EB20A2190FBB1
:101AE000F1F201FB120010B996A0FFF7D1FB05E05F
:101AF0009DF855109CA0FFF7CBFBABE0CCE700BFF7
:101B0000A3A0FFF7C5FB4FF47A7002F0F9FCAAA07E
:101B1000FFF7BEFB0D210CA800F0B0FB0C224FF428
:101B20007A7113A800F0C2FA04460A2C02DB9DF871
:101B3000550028B19DF85510AAA0FFF7A9FB89E030
:101B4000B2A0FFF7A5FB002631E0C82002F0D8FCC8
:101B50000C2110A800F092FB0C224FF47A7113A80C
:101B600000F0A4FA04461CB9B4A0FFF791FB71E0A1
:101B70000C2C03DB9DF8550000B919E00C2C10DB90
:101B80009DF8550002280CD13046711C8EB20A21F6
:101B900090FBF1F201FB120010B9B1A0FFF778FB46
:101BA00005E09DF85510B8A0FFF772FB52E0CCE7B6
:101BB00000BFBFA0FFF76CFB0D2108A800F05EFB83
:101BC0000C224FF47A7113A800F070FA04460A2C24
:101BD00002DB9DF8550028B19DF85510C0A0FFF715
:101BE00057FB37E0C8A0FFF753FB0C2105A800F016
:101BF00045FB0C224FF4FA6113A800F057FA044693
:101C00000A2C02DB9DF8550028B19DF85510C9A09B
:101C1000FFF73EFB1EE0D1A0FFF73AFB0F2101A822
:101C200000F02CFB0C224FF47A7113A800F03EFA5E
:101C300004460A2C02DB9DF8550028B19DF855108A
:101C4000CFA0FFF725FB05E02946D6A0FFF720FB34
:101C5000012700BF00202049087000231A461946BA
:101C60001448006803F066F93846FBE6EF01FFFF11
:101C7000FFFF010003010005EF01FFFFFFFF01006F
:101C80000402010008000000EF01FFFFFFFF010058
:101C90000402020009000000EF01FFFFFFFF010046
:101CA00003050009EF01FFFFFFFF01000606010029
:101CB00000000000280000205B456E726F6C6C5DB8
:101CC000204661696C656420746F20676574206DBF
:101CD00075746578210D0A00360000205B456E7230
:101CE0006F6C6C5D2049443D2564202D2053746544
:101CF0007020312F343A20506C6163652066696E24
:101D0000676572206F6E2073656E736F722E2E2E54
:101D10000D0A00005B456E726F6C6C5D2047657448
:101D2000496D616765313A206E6F20726573706F1F
:101D30006E73652066726F6D206D6F64756C6521C2
:101D40000D0A00005B456E726F6C6C5D2057616917
:101D500074696E6720666F722066696E6765722EA1
:101D60002E2E0D0A000000005B456E726F6C6C5DDC
:101D700020476574496D61676531206661696C3A19
:101D800020636F64653D3078253032580D0A0000BD
:101D90005B456E726F6C6C5D2053746570203120F2
:101DA0004F4B202D2052656D6F76652066696E67FA
:101DB00065722E2E2E0D0A005B456E726F6C6C5D87
:101DC000205374657020322F343A2047656E657257
:101DD0006174696E672074656D706C6174652E2E18
:101DE0002E0D0A005B456E726F6C6C5D2047656E50
:101DF0004368617231206661696C3A20636F646583
:101E00003D3078253032580D0A0000005B456E7277
:101E10006F6C6C5D20537465702032204F4B202D09
:101E200020506C6163652066696E6765722061672A
:101E300061696E2E2E2E0D0A000000005B456E7249
:101E40006F6C6C5D20476574496D616765323A203F
:101E50006E6F20726573706F6E7365210D0A0000DE
:101E60005B456E726F6C6C5D2057616974696E675B
:101E700020666F722066696E6765722061676169AE
:101E80006E2E2E2E0D0A00005B456E726F6C6C5D1F
:101E900020476574496D61676532206661696C3AF7
:101EA00020636F64653D3078253032580D0A00009C
:101EB0005B456E726F6C6C5D2053746570203320CF
:101EC0004F4B202D2047656E65726174696E6720E7
:101ED00074656D706C61746520322E2E2E0D0A00B3
:101EE0005B456E726F6C6C5D2047656E4368617216
:101EF00032206661696C3A20636F64653D307825F5
:101F00003032580D0A0000005B456E726F6C6C5DDC
:101F1000205374657020342F343A204D6572676900
:101F20006E672074656D706C617465732E2E2E0D56
:101F30000A0000005B456E726F6C6C5D2052656735
:101F40004D6F64656C206661696C3A20636F6465EF
:101F50003D3078253032580D0A0000005B456E7226
:101F60006F6C6C5D2053746F72696E672066696E6A
:101F70006765727072696E742E2E2E0D0A00000055
:101F80005B456E726F6C6C5D2053746F726520667A
:101F900061696C3A20636F64653D30782530325852
:101FA0000D0A00005B456E726F6C6C5D20535543EB
:101FB00043455353212046696E6765722049443D6D
:101FC000256420656E726F6C6C6564210D0A0000DB
:101FD00000B587B00020039004900590069018A2E9
:101FE00007CA8DE8070000235A1E194617480068E3
:101FF00002F072FE0C21684600F040F90C224FF40A
:102000007A7103A800F052F860B911A0FFF740F907
:1020100000231A4619460D48006802F08BFF002085
:1020200007B000BD9DF8151012A0FFF731F900238D
:102030001A4619460548006802F07CFF0120EFE7C8
:10204000EF01FFFFFFFF01000326002A2800002008
:102050005B41533630385D2048616E647368616B54
:10206000653A206E6F20726573706F6E73650D0A2E
:10207000000000005B41533630385D2048616E64DB
:102080007368616B65204F4B2120636F6E666972C8
:102090006D5F636F64653D3078253032580D0A00FE
:1020A00010B5C82000F01CF910BD0000F8B50546B9
:1020B0000E4617460024002000900DE0202119480C
:1020C000FFF715F8012803D11648FFF7D7F800E00D
:1020D00006E00098401C00900098B0F57A7FEDD3A0
:1020E00000BF0020009013E020210E48FEF7FFFF04
:1020F00001280AD10B48FFF7C1F8C2B22046611C83
:102100008CB22A54BC4200DB09E00098401C0090CD
:1021100040F2712070430099B1EB401FE4D300BF3F
:10212000E0B2F8BD0044004070B594B005463CA252
:10213000D2E900109268CDE90A0209913BA30FCBC6
:1021400005AC0FC414223DA16846FEF795F80026A1
:102150000023642219463E48006802F0BDFD0128B4
:1021600002D0002014B070BD01263A48007800B1BA
:1021700044E00C2109A800F081F80C224FF4FA7118
:102180000CA8FFF793FF04460A2C02DB9DF83900E8
:1021900000B133E00D2105A800F070F80C224FF4D7
:1021A000FA710CA8FFF782FF04460A2C02DB9DF8A7
:1021B000390000B122E01121684600F05FF81022DA
:1021C0004FF4FA710CA8FFF771FF04460A2C02DBEA
:1021D0009DF8390000B111E09DF83B009DF83A10E0
:1021E00040EA012028809DF83F009DF83E3040EAFB
:1021F0000322298818A0FFF74BF800BF012E06D153
:1022000000231A4619461248006802F093FE0C2C6F
:1022100004DB9DF8390008B90120A3E70020A1E7FD
:10222000EF01FFFFFFFF010003010005EF01FFFFCA
:10223000FFFF01000402010008000000EF01FFFFA2
:10224000FFFF0100080401000003E700F8000000A0
:1022500028000020360000205B46696E6765725DCD
:10226000204D61746368212049443D2564207363D7
:102270006F72653D25640D0A0000000070B50546CB
:102280000E4600240CE000BF80210A48FEF72FFF15
:102290000028F9D0295D0748FEF7F5FF601C84B2DD
:1022A000B442F0DB00BF40210248FEF720FF0028C7
:1022B000F9D070BD004400404FF0E020006920F0EC
:1022C00004004FF0E02108616FF07F40486100207A
:1022D00088610846006940F001000861704700000D
:1022E0002DE9F047074600264FF0E020D0F8149083
:1022F000124800684FF47A71B0FBF1F000FB07F868
:102300004FF0E020856902F09FFA11E04FF0E020E5
:102310008469AC420CD0AC4202D2281B064403E0D4
:10232000A9EB0400284406442546464500D300E0B6
:10233000ECE700BF03F02EF9BDE8F08714010020A0
:102340002DE9F047074600264FF0E020D0F8149022
:10235000124800681249B0FBF1F000FB07F84FF09B
:10236000E020856902F070FA11E04FF0E020846906
:10237000AC420CD0AC4202D2281B064403E0A9EBCD
:102380000400284406442546464500D300E0ECE717
:1023900000BF03F0FFF8BDE8F08700001401002043
:1023A00040420F000448054A0168914202D1044AA4
:1023B000416811607047000000000E080100FECA6D
:1023C00038000020014800687047000038000020F5
:1023D0001CB50446FEF7FAF8F320FEF751F8022187
:1023E0005820FEF753F808480090019407480099D8
:1023F000FEF7C4F80548001D0199FEF7BFF8FEF787
:10240000B3F8034804601CBD0100FECA00000E08BA
:102410003800002070B504460D4600BF80210548F5
:10242000FEF765FE0128F9D1A1B20248FEF72BFFA5
:10243000204670BD001001401CB501215720FEF759
:1024400097FB01208DF8040000208DF80600022083
:102450008DF805008020009069461F48FEF7D9F8E6
:102460004FF40040009069461C48FEF7D2F84FF444
:102470002070009069461A48FEF7CBF800208DF8CE
:10248000040001208DF807004020009069461248A2
:10249000FEF7BFF84020009069461248FEF7B9F8F1
:1024A0004FF48070009069460F48FEF7B2F8102094
:1024B000009069460C48FEF7ACF880210648FEF70C
:1024C0001EF94FF400410548FEF719F94FF4207149
:1024D0000348FEF714F91CBD000402400018024036
:1024E0000008024000100240000002407FB5154B7A
:1024F0000FCB8DE80F0000241FE0204601F052FBB7
:10250000002517E0284601F027FB90B90F20FFF7C0
:10251000E7FE284601F020FB58B900BF284601F02D
:102520001BFB0028FAD0684600EB8400405D04B035
:1025300070BD6D1C042DE5DB641C042CDDDB00206C
:10254000F5E700006C5D00082548006840F03000A9
:10255000234908602348006820F47010214908606E
:102560000846006840F4A0100860081D006820F4C8
:10257000C060091D0860081D006820F47010091D66
:102580000860081D006820F47010091D08601548D7
:102590001430006840F4C0601249143108601248D9
:1025A000006820F07050104908600846006840F04C
:1025B000A05008600846406820F4C04048600846C3
:1025C000806820F0705088600846C06820F0705025
:1025D000C8600846406940F4C04048617047000048
:1025E0003038024000140240001002401CB54FF485
:1025F0004070FEF75BF9FFF75FFEFFF7A5FFFFF7FF
:102600001BFF00F075F801F015FAFFF749FDFFF721
:10261000C9FEFFF7D7FE124908604FF4E13001F020
:1026200001FB4FF4614001F06BFB4FF4E13001F02E
:10263000C7FB0CA0FEF72CFE1248017812A0FEF793
:1026400027FE1748052100234FF40072CDE9001042
:1026500014A1184802F004FE02F0ACF800BFFEE737
:1026600030000020536D61727420446F6F72204CF3
:102670006F636B2053797374656D2053746172744A
:10268000210A0000350000205243353232205665C1
:102690007273696F6E3A203078253032580D0A0017
:1026A000000000206170705F7461736B5F696E6918
:1026B000740000007117000870B5002415E004F1E3
:1026C000B001C8B2FEF7FCF80020FEF7F9F81020C0
:1026D000FEF7F6F8002504E00020FEF705F9681C77
:1026E000C5B2802DF8DB601CC4B2082CE7DB70BDDE
:1026F0001CB501210220FEF73BFA01208DF80400F1
:102700008DF806008DF8070002208DF805004FF4C3
:102710004070009069463548FDF77BFF4FF400712B
:102720003248FDF7ECFF4FF480713048FDF7E7FFCA
:102730003220FFF7D5FD782000F05AF87A2000F01B
:1027400057F8AE20FEF7BCF80A20FFF7C9FDD520E8
:10275000FEF7B6F88020FEF7B3F8A820FEF7B0F831
:102760003F20FEF7ADF8D320FEF7AAF80020FEF7D1
:10277000A7F84020FEF7A4F88D20FEF7A1F814205A
:10278000FEF79EF82020FEF79BF80220FEF798F84F
:10279000A120FEF795F8C820FEF792F8DA20FEF7A0
:1027A0008FF81220FEF78CF88120FEF789F8CF20F1
:1027B000FEF786F8D920FEF783F8F120FEF780F8BF
:1027C000DB20FEF77DF84020FEF77AF8A420FEF724
:1027D00077F8A620FEF774F8AF20FEF771F86420B2
:1027E000FFF77EFDFFF768FF1CBD000000040240FC
:1027F00010B50446FDF786FF2046FDF7EDFFFDF717
:10280000A3FF012010BD00002DE9F04104468846D9
:10281000174640E03E78202E01DB7E2E00DD20268C
:10282000A6F12000C6B208F1B001C8B2FEF748F820
:1028300004F00F00FEF744F8102101EB2410FEF71E
:102840003FF8002507E0164901EB0611485DFEF749
:102850004BF8681CC5B2082DF5DB08F1B101C8B210
:10286000FEF72EF804F00F00FEF72AF8102101EB16
:102870002410FEF725F8082507E0094901EB0611A9
:10288000485DFEF731F8681CC5B2102DF5DB04F188
:102890000800C4B27F1C38780028BBD1BDE8F081A5
:1028A0007C57000830B591B03048007800285BD0E4
:1028B000002404E02E48005D01A90855641C2D4841
:1028C0000078844201D23F2CF4D3002001A908559E
:1028D00040212748FDF7E9FC0020264908702349DC
:1028E000087001A924A0FEF7D3FC01AD002434E058
:1028F00001A8005D2A2807D001A8005D0D2803D09B
:1029000001A8005D0A2827D1002001A908552878D0
:10291000F8B11CA12846FDF7D3FC78B11BA0FEF747
:10292000B7FC00201D4908600420009000230A2203
:1029300069461B48006802F0FDFA0AE019A1284622
:10294000FDF7BEFC28B119A0FEF7A2FC0120134937
:10295000086001A82044451C641C402C03D201A837
:10296000005D0028C4D100BF11B030BD3F00002081
:10297000680100203E0000205B576946695D202504
:10298000730D0A00756E6C6F636B000057694669C2
:1029900020556E6C6F636B210D0A0000A4824242C9
:1029A0001C0000206C6F636B0000000057694669D3
:1029B000204C6F636B210D0A0000000038B59C4865
:1029C0000078002874D09BA19C48FDF779FC18B1D1
:1029D0009BA0FEF75DFC20E19DA19848FDF770FCEF
:1029E00078B19DA0FEF754FC0020A24908600420A5
:1029F000009000230A2269469F48006802F09AFA74
:102A00000BE19EA18D48FDF75BFC30B19DA0FEF768
:102A10003FFC012097490860FFE0A1A18748FDF72E
:102A20004FFC18B1A1A0FEF733FCF6E0A7A1834844
:102A3000FDF746FCB8B1814C641D002505E014F893
:102A4000012B28466D1CA3490A54207820B1207818
:102A50002A2801D01F2DF2DB00209E4948559EA058
:102A6000FEF716FCD9E0A1A17448FDF729FCB8B126
:102A7000724C641D002505E014F8012B28466D1CDE
:102A80009C490A54207820B120782A2801D01F2D93
:102A9000F2DB00209749485597A0FEF7F9FBBCE010
:102AA0009AA16648FDF70CFC98B1644CE41C04E064
:102AB000BCE0207801F0DEF9641C207810B12078A9
:102AC0002A28F6D10D2001F0D5F90A2001F0D2F91B
:102AD000A3E08FA15948FDF7F3FBA0B18FA0FEF74B
:102AE000D7FB95A001F0D6F94FF4FA6001F008FD8C
:102AF00092A001F0CFF94FF4FA6001F001FD91A02E
:102B0000FEF7C6FB89E094A14C48FDF7D9FB10B154
:102B100001F0F2FE81E092A14848FDF7D1FB28B117
:102B200091A0FEF7B5FBFFF753FA76E096A1434874
:102B3000FDF7C6FB48B197A0FEF7AAFB9CA001F0E9
:102B400033F9A0A0FEF7A4FB67E0A5A13B48FDF781
:102B5000B7FB80B1A548006818B9A5A0FEF798FB9F
:102B60005BE0A2480068FFF733FCA0480168ABA017
:102B7000FEF78EFB51E0B0A13048FDF7A1FB60B13C
:102B8000B048006828B1AF480168AFA0FEF780FBED
:102B900043E0B2A0FEF77CFB3FE0B5A12748FDF77C
:102BA0008FFB58B30125254C00E0641C207828B128
:102BB00020783028F9DB20783928F6DC2078302896
:102BC00014DB2078392811DC002507E02078303824
:102BD00005EB850100EB410085B2641C20783028AC
:102BE00002DB20783928F1DD05B901252946A2A0AC
:102BF000FEF74EFB2846FEF703FF0EE0A8A10F48A4
:102C0000FDF75EFB28B1AAA0FEF742FBFEF782FEAD
:102C100003E00A49AEA0FEF73BFB40210748FDF761
:102C200044FB0020B04908700149087038BD00001D
:102C30003D0000207465737400000000280100202E
:102C40007465737420636F6D6D616E64210A00009A
:102C5000756E6C6F636B0000426C7565746F6F749A
:102C60006820556E6C6F636B205375636365737377
:102C7000210A0000A48242421C0000206C6F636B9A
:102C800000000000426C7565746F6F7468204C6FB3
:102C9000636B2053756363657373210A0000000042
:102CA00073796E635F66696E6765720053796E63F0
:102CB000696E672066696E6765727072696E74739B
:102CC00020746F204150502E2E2E0A0073736964B9
:102CD00020000000400000205769466920535349F6
:102CE00044207365743A2025730D0A007061737374
:102CF0002000000060000020576946692050617381
:102D000073207365743A2025730D0A0061742000E6
:102D1000776966695F746573740000005769466976
:102D200020746573743A2073656E64696E67204120
:102D3000542E2E2E0D0A00002B2B2B0041540D0A71
:102D40000000000057694669207465737420646F41
:102D50006E652E0D0A0000007769666900000000AC
:102D600066696E676572000054657374696E6720EA
:102D700066696E6765727072696E74206D6F6475D6
:102D80006C652E2E2E0A000075617274325F6563C9
:102D9000686F00005B55415254325D205465737476
:102DA000696E67206563686F2E2E2E0D0A00000085
:102DB00048656C6C6F2066726F6D205541525432BD
:102DC000210D0A005B55415254325D204563686F06
:102DD000207465737420646F6E652E0D0A00000008
:102DE000736176655F636172640000002C000020EF
:102DF0004E6F2063617264207363616E6E65642040
:102E000079657421205363616E206120636172646F
:102E10002066697273742E0D0A00000043617264AB
:102E2000202530385820736176656420746F204601
:102E30006C617368210D0A0073686F775F6361725C
:102E400064000000300000205361766564206361F7
:102E500072643A20253038580D0A00004E6F206306
:102E60006172642073617665642E0D0A00000000B3
:102E7000656E726F6C6C0000537461727420656EC5
:102E8000726F6C6C696E672066696E6765727072CE
:102E9000696E742049443D25642E2E2E0A000000E0
:102EA000636C6561725F66696E6765720000000041
:102EB000436C656172696E6720616C6C2066696E37
:102EC0006765727072696E74732E2E2E0A00000090
:102ED000756E6B6E6F7720636F6D6D616E64203DF4
:102EE0002025730A000000003C0000202DE9F0417D
:102EF00005460E461C4807681C480068001D00F087
:102F0000D4FF50B91948006890F82C10012088406F
:102F100017490968814316480160681C38B936B101
:102F200012480168091D134801F04CF81AE07C1999
:102F30000E4800684460BC4207D20C480168091D75
:102F40000D48006801F024F80CE008480168091DEC
:102F50000A48006801F01CF809480068844201D260
:102F600007480460BDE8F081C8000020B4000020DC
:102F7000CC000020642F0120BC000020B8000020FD
:102F8000E400002010B5044601F0A4F824480068CD
:102F9000401C234908602348006840B92148046068
:102FA0000846006801280DD100F0ECF90AE01E483F
:102FB000006838B91B480068C06AE16A884201D8D5
:102FC0001848046019480068401C18490860084601
:102FD0000068206494F82C10012088401449096886
:102FE000084313490860E16A01EB8101114A02EBD1
:102FF0008100211D00F0E6FF01F096F80A48006804
:1030000068B108480068C06AE16A884207D24FF098
:10301000805009490860BFF34F8FBFF36F8F10BD19
:10302000C4000020B4000020D0000020E0000020F8
:10303000CC000020E82D012004ED00E010B501F0E7
:1030400049F810480068D0B90F4800F091FF0F48C8
:1030500000F08EFF0C480E4908600C480D490860CE
:1030600000220C210A2001F00AFE064908600846E9
:10307000006820B108A10348006801F077F901F069
:1030800053F810BDF8000020782F01208C2F01206C
:10309000F0000020F4000020546D72510000000088
:1030A00070B523E001F0D0FB1348006808B9012097
:1030B00000E00020054602F06DFABDB901F00AF803
:1030C0000D48C068C468201D00F0EFFE0B48006882
:1030D000401E0A4908600A480068401E0849086006
:1030E00001F022F8204600F060F800BF04480068B4
:1030F0000028D7D170BD0000502F0120C40000204F
:10310000C000002070B504460D46206C70B1216CE3
:10311000E0680844E0606168E068884201D32068A4
:10312000E0602846226CE168FDF7A6F870BD2DE945
:10313000F04104460F4615464FF00008A66B206C80
:1031400040B9206860BB606802F074F980460020D6
:10315000606025E07DB93946226CA068FDF78CF8E7
:10316000216CA0680844A060D4E90110884217D3FC
:103170002068A06014E03946226CE068FDF77CF816
:10318000216CE068401AE0602168E068884203D260
:10319000216C6068401AE060022D01D106B1761EF4
:1031A000701CA0634046BDE8F08110B50446206B5A
:1031B00000F0D8FF204600F0D5FF10BD0146084AB8
:1031C000126812680AB9012200E000220A600A6847
:1031D00022B9034A1268D268106800E000207047E4
:1031E000F000002030B54FF49633174800F0070484
:1031F0002CB1C01D20F00700134C041B1B1B024602
:10320000124C22600024114D6C60D018083820F058
:1032100007000F4C206000240D4D2D686C600C4D94
:103220002D682C601146441A4C60094C24680C60CF
:10323000084D4C682C60084D4C682C604FF00044E1
:10324000064D2C6030BD0000A80100209000002039
:1032500098000020A00000209C000020A400002076
:1032600000BFFFF71DFF064800680128F9D94FF09D
:10327000805004490860BFF34F8FBFF36F8FF0E7B2
:10328000E82D012004ED00E010B504464CB100200B
:1032900060602060E06000231A461946204601F075
:1032A00049FE10BD2DE9F04106460D4617469846E9
:1032B000069C0DB9246000E02760E66325640121C7
:1032C000204601F0EBFD84F84C80BDE8F0812DE94B
:1032D000F05F82460F4690469B460A9E0C9C4FEA42
:1032E0008801A522206BFCF7D9FFA8F10100216B12
:1032F00001EB800929F0070909F0070008B901204E
:1033000000E0002050B900BF502080F31188BFF3C7
:103310004F8FBFF36F8F00BF00BFFEE7002507E0B0
:10332000795D04F134004155785D00B902E06D1C0F
:103330000A2DF5D300BF00213D2001550F2E00D3EB
:103340000E26E662A6640020E064201D00F01DFE4B
:1033500004F1180000F019FE2461C6F10F00A0610D
:1033600064620020206584F854005A46514648465D
:1033700000F03AFB20600B9808B10B980460BDE8A0
:10338000F09F000010B5002407E004EB84010F4A11
:1033900002EB810000F0ECFD641C0F2CF5D30C480F
:1033A00000F0E6FD0B4800F0E3FD0B4800F0E0FD07
:1033B0000A4800F0DDFD0A4800F0DAFD044809493A
:1033C000086004480849086010BD0000E82D01208D
:1033D000142F0120282F01203C2F0120502F0120E5
:1033E000642F0120B8000020BC00002010B5014669
:1033F000164800E0006803688B42FBD3024643682E
:1034000013448B4204D143684C6823444360014613
:103410000A464B6813440468A34211D10C4C03685C
:103420002468A34208D04B680468646823444B6056
:1034300003681B680B6005E0054B1B680B6001E02F
:1034400003680B60884200D0016010BD900000202E
:10345000980000202DE9F04104460D4616461F460F
:103460004FF0000865602461B5420CD8F01BA169DB
:10347000884202D34FF0010811E0211D094800687D
:1034800000F086FD0BE0BE4204D2BD4202D34FF0F5
:10349000010804E0211D0448006800F079FD404661
:1034A000BDE8F081F4000020F000002070B5054672
:1034B00000F010FEA86B08B9012400E0002400F021
:1034C00033FE204670BD70B5054600F003FEA86BC4
:1034D000E96B884201D1012400E0002400F024FEC1
:1034E000204670BDF8B505460F4616480068C0680E
:1034F000C468201D00F0D9FCE06901281DD1A06935
:1035000041192B463A462046FFF7A4FFA8B10020F8
:1035100003462A4601460090204602F0E9F8064696
:1035200056B900BF502080F31188BFF34F8FBFF30F
:103530006F8F00BF00BFFEE700BF2046616A88476B
:10354000F8BD0000F000002070B586B06AE0039876
:10355000002867DB059C606908B9012000E00020B5
:1035600010B9201D00F0A1FC02A800F0BDF805462E
:1035700003980A2854D2DFE800F009050731334FD9
:103580000608323400BF00BF00BF00BF0498A26924
:10359000811803462A462046FFF75CFFE8B1204623
:1035A000616A8847E069012817D1002000900498DB
:1035B000A169421800231946204602F099F80646F0
:1035C00056B900BF502080F31188BFF34F8FBFF36F
:1035D0006F8F00BF00BFFEE700BF22E000BF20E00A
:1035E00000BF0498A061A06908B1012000E000209C
:1035F00050B900BF502080F31188BFF34F8FBFF345
:103600006F8F00BF00BFFEE7A06941192B462A4615
:103610002046FFF71FFF04E0204600F0A3FD00E076
:1036200000BF00BF00231A4603A90448006801F048
:1036300053FB00288BD106B070BD0000F8000020BD
:10364000F8B505460C4601F0FFF8684600F04CF866
:103650000646009820BB44B9B54206D801F09AFF4F
:1036600031462846FFF73EFF1CE03CB10E4800689B
:10367000006808B9012000E000200446A91B22468A
:103680000A48006800F088FE01F084FF50B94FF04E
:10369000805007490860BFF34F8FBFF36F8F01E081
:1036A00001F078FFF8BD0000F4000020F8000020D1
:1036B00004ED00E00A490968096809B9012100E040
:1036C000002121B14FF0FF31064A116006E00449A4
:1036D0000968C968C868034A4168116070470000FA
:1036E000B8000020E400002070B5044601F0F8FDA9
:1036F000054607480068854204D200F00BF8012017
:10370000206001E00020206001480560284670BD6F
:10371000000100202DE9F84332E024480068C06829
:10372000056822480068C068C468201D00F0BDFB21
:103730002046616A8847E069012821D1A0694619BD
:10374000AE4207D966602461211D1848006800F068
:103750001FFC15E0002003462A4601460090204643
:1037600001F0C6FF074657B900BF502080F311880B
:10377000BFF34F8FBFF36F8F00BF00BFFEE700BFE7
:103780000A480068006808B9012000E0002000280D
:10379000C3D00648D0F80080054800680349086097
:1037A0000348C0F80080BDE8F8830000F000002066
:1037B000F40000200E480068401C08B9012000E019
:1037C000002050B900BF502080F31188BFF34F8F05
:1037D000BFF36F8F00BF00BFFEE700BF502080F334
:1037E0001188BFF34F8FBFF36F8F00BF00BFFEE79D
:1037F000A800002008B500BF6846FFF7DFFC0446BC
:1038000020460099FFF71CFFFFF79EFEF4E770B516
:10381000044600F05FFC94F9455010E0606A08B976
:10382000012000E0002038B904F1240001F066FE18
:1038300018B100F00DFF00E003E0681E45B2002D56
:10384000ECDC00BFFF2084F8450000F06DFC00F0C8
:1038500041FC94F9445010E0206908B9012000E0CF
:10386000002048B904F1100001F048FE08B100F052
:10387000EFFE681E45B200E001E0002DECDC00BF69
:10388000FF2084F8440000F04FFC70BD2DE9F041AA
:1038900004464FF0000800F0D7FF4648006808B91A
:1038A000FFF7A0FC44480068204000286BD1D4B149
:1038B000083404F00700B0B104F00700C0F10800BC
:1038C000044404F0070008B9012000E0002050B9CA
:1038D00000BF502080F31188BFF34F8FBFF36F8F6D
:1038E00000BF00BFFEE7002C4DD034480068844282
:1038F00049D8334E3046056801E02E462D68686889
:10390000A04202D228680028F7D12A4800688542E0
:1039100039D0306800F10808286830606868001BFA
:10392000102819D92F1907F0070008B9012000E065
:10393000002050B900BF502080F31188BFF34F8F93
:10394000BFF36F8F00BF00BFFEE76868001B7860A1
:103950006C603846FFF74AFD184968680968081A1C
:10396000164908600846006816490968884203D26B
:1039700012480068134908600F49686809680843DD
:1039800068600020286001F005FE08F0070008B913
:10399000012000E0002050B900BF502080F31188C2
:1039A000BFF34F8FBFF36F8F00BF00BFFEE74046EE
:1039B000BDE8F08198000020A40000209C000020B9
:1039C00090000020A00000200648006830B10549A2
:1039D000096801F14C00C96C491C0160014800688C
:1039E00070470000B4000020001F4FF08073036098
:1039F000001F21F001030360001F054B0360143812
:103A00000260001F6FF0020303602038704700005F
:103A1000B537000808B50021009102E00099491C63
:103A2000009100EB4001C1EBC011009AB2EB811F85
:103A3000F4D308BD1CB501210C20FDF799F8012035
:103A40008DF8040000208DF8060001208DF8070095
:103A500003208DF805004020009069462A48FCF7B5
:103A6000D8FDC020009069462848FCF7D2FD4FF4ED
:103A70000060009069462448FCF7CBFD00208DF8DB
:103A8000040001208DF8070003208DF805004FF495
:103A90008070009069461C48FCF7BBFD80211B48E4
:103AA000FCF72DFE40211848FCF729FE402117485D
:103AB000FCF723FE4FF400611348FCF720FE322090
:103AC000FFF7A8FFFCF796FF8D212A20FDF73AF8B3
:103AD0003E212B20FDF736F81E212D20FDF732F870
:103AE00000212C20FDF72EF840211520FDF72AF8A3
:103AF0003D211120FDF726F8FCF70AFF3720FCF7DF
:103B000043FF034908701CBD00080240000C02403E
:103B1000350000203EB5044669462620FCF74EFFDE
:103B200005460DB100203EBD01A8FCF7FEFE05468E
:103B30000DB10020F7E79DF8040000069DF8051080
:103B400040EA01409DF8061040EA01209DF8071068
:103B5000084320600120E6E710B5044624B940215F
:103B60000D48FCF7C1FD10BD012C04D140210B48CC
:103B7000FCF7BAFDF7E7022C04D1E1010848FCF795
:103B8000B3FDF0E7032C04D110210548FCF7ACFD90
:103B9000E9E70120E7E700000004024000100240CE
:103BA0000000024010B5044680211448FCF7A7FD30
:103BB0004FF400411248FCF7A2FD4FF42071114868
:103BC000FCF79DFD24B980210C48FCF796FD14E01C
:103BD000012C04D1E1030A48FCF78FFD0DE0022C13
:103BE00004D180210748FCF788FD06E0032C04D1AE
:103BF0004FF400710348FCF780FD10BD0004024043
:103C0000001802400008024008B50020009004E0BF
:103C1000BDF80000401C80B20090BDF800003228C2
:103C2000F6DB08BD10B588B0044601214120FCF741
:103C30009FFF01211020FCF7BBFF01208DF81C0025
:103C400000208DF81E004FF48070069000208DF843
:103C50001F0002208DF81D0006A92648FCF7D9FC9C
:103C600002208DF81C0000208DF81E004FF4C0606B
:103C7000069000208DF81F0002208DF81D0006A977
:103C80001D48FCF7C6FC072209211B48FCF709FD6B
:103C900007220A211848FCF704FD02940020ADF821
:103CA0000C00ADF81000ADF80E000C20ADF81200BD
:103CB0000020ADF8140002A91048FDF775FA0122A2
:103CC00040F225510D48FDF749FA25208DF80400F2
:103CD00001208DF8050002208DF8060001208DF8E6
:103CE000070001A8FCF7A6FD01210448FDF7F3F940
:103CF00008B010BD00180240000002400010014052
:103D000010B586B0044601210846FCF731FF0121B9
:103D10004804FCF73DFF02208DF8140000208DF8C8
:103D200016000C20049001208DF8170002208DF859
:103D3000150004A91248FCF76CFC07220221104868
:103D4000FCF7AFFC072203210D48FCF7AAFC009406
:103D50000020ADF80400ADF80800ADF806000C2016
:103D6000ADF80A000020ADF80C0069460548FDF7E3
:103D70001BFA01210348FDF7AEF906B010BD0000A3
:103D8000000002400044004010B5044600BF8021FE
:103D90000448FDF7ACF90128F9D121460148FDF7A7
:103DA00072FA10BD0044004010B5044603E014F858
:103DB000010BFFF7E9FF20780028F8D110BD0000C3
:103DC00010B588B0044601210220FCF7D1FE012184
:103DD0008804FCF7DDFE02208DF81C0000208DF821
:103DE0001E004FF44060069000208DF81F00022056
:103DF0008DF81D0006A91D48FCF70BFC07220A21BF
:103E00001A48FCF74EFC07220B211848FCF749FC26
:103E100002940020ADF80C00ADF81000ADF80E00D3
:103E20000C20ADF812000020ADF8140002A91048D3
:103E3000FDF7BAF9012240F225510D48FDF78EF940
:103E400027208DF8040008208DF8050002208DF849
:103E5000060001208DF8070001A8FCF7EBFC01210A
:103E60000348FDF738F908B010BD00000004024017
:103E70000048004010B5044600BF80210448FDF70B
:103E800036F90128F9D121460148FDF7FCF910BDAA
:103E90000048004010B5044603E014F8010BFFF79A
:103EA000E9FF20780028F8D110BD01460A69D1E960
:103EB00001309860D1E9010358605068884201D10F
:103EC00088685060002008611068401E106010680B
:103ED000704700001CB5002001900120009000BF39
:103EE00001A8FEF721F9B0B1BDF804100CA0FDF750
:103EF000CFF900230A2269460F48006801F01AF83A
:103F000000200E4908604FF4FA60FEF7E9F901203D
:103F10000B49C1F8A4024FF4FA7000F0F1FADFE7A0
:103F200046696E67657220556E6C6F636B21204920
:103F3000443A2025640D0A001C000020A48242425D
:103F40000080424208B500BFFEF7D0FA00909DF80D
:103F5000000030B100230A2269460448006800F0DE
:103F6000E9FF642000F0CCFAEEE70000200000201A
:103F700000F1080141604FF0FF31816000F108015C
:103F8000C16001610021016070470021016170473B
:103F900010B502460B685C1C0CB9106907E002F111
:103FA000080000E04068446824689C42FAD94468EC
:103FB0004C604C68A160886041600A611468641CB0
:103FC000146010BD42684A6093688B6093685960C2
:103FD0009160086103685B1C0360704708B500BF0F
:103FE00000235A1E69462B48006800F075FE012820
:103FF000F6D10023821E19462748006800F06CFEA7
:104000000028EDD0FEF758FB0098012805D123A227
:1040100000210846FEF7F8FB19E00098022805D1B8
:1040200021A200210846FEF7EFFB10E000980328CC
:1040300005D11FA200210846FEF7E6FB07E0009825
:10404000042804D11DA200210846FEF7DDFB002351
:104050001A4619461048006800F06CFF4FF4FA60E9
:1040600000F04EFA00235A1E19460B48006800F073
:1040700033FE0028B4D0FEF71FFB12A20021084631
:10408000FEF7C2FB00231A4619460348006800F0F9
:1040900051FFA5E71C0000202400002046696E6740
:1040A0006572204F4B210000507764204F4B210058
:1040B00052464944204F4B2100000000424C45200D
:1040C0004F4B21005761697420556E6C6F636B2EE6
:1040D0002E2E000000BF502080F31188BFF34F8FB9
:1040E000BFF36F8F00BF0E480068401C0C4908608A
:1040F00008460068012812D10A480068C0B208B911
:10410000012000E0002050B900BF502080F311884A
:10411000BFF34F8FBFF36F8F00BF00BFFEE7704745
:10412000A800002004ED00E00D48006850B900BF71
:10413000502080F31188BFF34F8FBFF36F8F00BF04
:1041400000BFFEE706480068401E054908600846B3
:10415000006820B9002080F3118800BF00BF7047BD
:10416000A800002070B506463546002E3FD0083D19
:104170002C461F4960680968084008B1012000E02A
:10418000002050B900BF502080F31188BFF34F8F3B
:10419000BFF36F8F00BF00BFFEE7206808B90120A2
:1041A00000E0002050B900BF502080F31188BFF319
:1041B0004F8FBFF36F8F00BF00BFFEE70C496068F1
:1041C0000968084098B1206888B909496068096899
:1041D0008843606000F038FB06496068096808445D
:1041E000044908602046FFF701F901F0D3F970BDDA
:1041F000A40000209C000020064800684FF47A715B
:10420000B0FBF1F0401E4FF0E0214861072008614B
:10421000704700001401002070B5FCF717F8044641
:10422000102C16D304F1E02090F8F05315480078D4
:10423000854201DB012000E0002050B900BF502082
:1042400080F31188BFF34F8FBFF36F8F00BF00BFA4
:10425000FEE70D48006800F4E0600C4909688842F8
:1042600001D8012000E0002050B900BF502080F3A9
:104270001188BFF34F8FBFF36F8F00BF00BFFEE702
:1042800070BD0000AC0000200CED00E0B00000208C
:1042900088B0142103A8FCF708F80024022001903C
:1042A00000BF00235A1E02A92048006800F014FD38
:1042B0000128F6D19DF8080023282DD1002003A95C
:1042C00008551B48016803A8FBF7FAFF28B91948ED
:1042D000016803A8FBF7F4FFA8B117A0FCF7D8FF0B
:1042E00000230A2201A91948006800F023FE0020DB
:1042F000174908604FF4FA6000F002F901201549EF
:10430000C1F8A40202E014A0FCF7C2FF142103A824
:10431000FBF7CBFF0024C4E7102CC2DA9DF808207D
:104320002046611CCCB203A90A54BAE72000002041
:10433000745700087857000850617373776F726480
:1043400020556E6C6F636B210D0A00001C0000206D
:10435000A48242420080424250617373776F72645C
:10436000204572726F72210D0A0000000246002083
:104370000BE0084B53F8303033B9064B43F830109C
:1043800003EBC0035A6002E0401C0828F1D300BFD1
:1043900070470000A82D01202DE9F04105460E468A
:1043A00017462C46FFF796FE94F94400401C10B9BE
:1043B000002084F8440094F94500401C10B9002006
:1043C00084F84500FFF7B0FEA06B28B93A463146A5
:1043D00004F1240000F05EF92046FFF718FABDE86A
:1043E000F08100001CB5002001900320009000BF68
:1043F00001A8FFF78FFB00282CD01949019808600D
:1044000018A00199FCF744FF1B48006818B91BA0CD
:10441000FCF73EFF1EE0184901980968884216D152
:1044200025A00199FCF734FF00230A226946294898
:10443000006800F07FFD0020274908604FF4FA6013
:1044400000F05EF801202549C1F8A40202E024A092
:10445000FCF71EFF4FF4967000F052F8C8E700001A
:104460002C0000205246494420436172643A2025C2
:104470003038580D0A000000300000204E6F2063D5
:10448000617264207361766564207965742E2053AF
:10449000656E642027736176655F636172642A27A5
:1044A00020746F207361766520746869732063617E
:1044B00072642E0D0A0000005246494420556E6C6D
:1044C0006F636B2120436172643A20253038580DA8
:1044D0000A0000001C000020A482424200804242E8
:1044E000524649442044656E6965642120556E6BCF
:1044F0006E6F776E20636172642E0D0A00000000FB
:1045000070B504460025D4B11248006808B90120EE
:1045100000E0002050B900BF502080F31188BFF3A5
:104520004F8FBFF36F8F00BF00BFFEE700F08CF925
:1045300000212046FEF7DAFC01F02CF805463DB9D3
:104540004FF0805004490860BFF34F8FBFF36F8F67
:1045500070BD0000EC00002004ED00E070B50546E1
:10456000FFF7B8FD15B93048006800E0284604465A
:10457000201DFFF79AFC78B9E06A00EB80002B4918
:1045800051F8200040B994F82C10012088402849A7
:104590000968814326480160A06A18B104F1180037
:1045A000FFF783FC23480068401C224908601E482E
:1045B0000068844209D1211D1F48FFF703FD1F48F1
:1045C0000068401C1D49086009E01D480068401E45
:1045D0001B4908602046FEF7E8FDFFF76BF8FFF780
:1045E000A3FD18480068E8B10F480068844219D15B
:1045F0001548006808B9012000E0002050B900BF4C
:10460000502080F31188BFF34F8FBFF36F8F00BF2F
:1046100000BFFEE74FF080500C490860BFF34F8F9A
:10462000BFF36F8F70BD0000B4000020E82D0120A3
:10463000CC000020E0000020502F0120C00000200E
:10464000C4000020D0000020EC00002004ED00E0B9
:104650000120014908607047D800002070B5044669
:104660000D4654B900BF502080F31188BFF34F8F1F
:10467000BFF36F8F00BF00BFFEE705480168183128
:104680002046FFF785FC01212846FEF72FFC70BD70
:10469000B400002070B505460E46144655B900BF5B
:1046A000502080F31188BFF34F8FBFF36F8F00BF8F
:1046B00000BFFEE70648016818312846FFF782FC74
:1046C0000CB14FF0FF3621463046FEF70FFC70BDAF
:1046D000B400002070B505462C46002D4BD026496D
:1046E000E06A0968C96A884245D2A06900F00040C2
:1046F00028B921480068C06AC0F10F00A061E16AD2
:1047000001EB81011D4A02EB81016069884201D100
:10471000012000E0002050B3201DFFF7C6FB78B950
:10472000E06A00EB8000154951F8200040B994F888
:104730002C1001208840124909688143104801600B
:104740000D480068C06AE06294F82C10012088408F
:104750000B49096808430A490860E16A01EB8101D5
:10476000064A02EB8100211DFFF72CFC03E0024802
:104770000068C06AE06270BDB4000020E82D01202E
:10478000CC00002050B900BF502181F31188BFF345
:104790004F8FBFF36F8F00BF00BFFEE7034909686B
:1047A000016003490968416070470000DC00002097
:1047B000C80000201CB51D4800210B468222CDE90F
:1047C00000101BA11C4800F04BFD0446012C02D137
:1047D00000F062FF0446012C15D100BF502080F389
:1047E0001188BFF34F8FBFF36F8F00BF4FF0FF30C3
:1047F0001249086001201249086000201149086030
:1048000000F08EF910E0601C08B1012000E00020EB
:1048100050B900BF502080F31188BFF34F8FBFF312
:104820006F8F00BF00BFFEE71CBD0000E800002046
:1048300049444C450000000061320008E4000020BB
:10484000D0000020C800002002480068401C014938
:1048500008607047EC0000201D48006818B1012076
:104860001C49086032E000201A4908601A480068B4
:10487000B0FA80F0C0F11F0101EB8100174A52F835
:10488000200008B1012000E0002050B900BF5020F6
:1048900080F31188BFF34F8FBFF36F8F00BF00BF4E
:1048A000FEE701EB81020D4B03EB82004268526888
:1048B000426000F108024368934202D142685268A4
:1048C00042604268D268064B1A6000BF7047000021
:1048D000EC000020D8000020CC000020E82D0120B2
:1048E000B400002000BFFEF769F8FDF7DBFF3220BF
:1048F000FFF706FEF7E7000000B5C1B02DA0FCF7FA
:10490000C7FC32A000F0F6F840F2DC50FFF7F8FDEB
:104910002FA000F0EFF84FF4FA612FA000F0D2F8CA
:104920002EA000F0E7F84FF4FA612BA000F0CAF8CF
:104930002F48304B30A24FF48071009001A8FCF753
:10494000B7FC01A800F0D6F82A4932A0FCF7A0FC79
:1049500042F2107120A000F0B5F820B134A0FCF7AD
:1049600097FC41B000BD36A24FF4807101A8FCF75E
:104970009FFC01A800F0BEF83BA0FCF789FC42F2C6
:1049800010713EA000F09EF818B13EA0FCF780FC2C
:10499000E7E73FA000F0AEF840F6B8310EA000F017
:1049A00091F83FA000F0A6F841A0FCF771FC00BF11
:1049B000D7E70000576946692073657475702073E6
:1049C000746172742E2E2E0D0A0000002B2B2B000A
:1049D000415445300D0A00004F4B000041542B4319
:1049E000574D4F44455F4355523D310D0A0000007D
:1049F000600000204000002041542B43574A4150A2
:104A00005F4355523D222573222C222573220D0A25
:104A1000000000005769466920636F6E6E6563741D
:104A2000696E673A202573202E2E2E0D0A00000095
:104A300057694669204641494C210D0A0000000093
:104A400041542B43495053544152543D22544350F6
:104A5000222C2231302E3134392E35352E39362262
:104A60002C383030300D0A0054435020636F6E6E86
:104A7000656374696E672E2E2E0D0A00434F4E4EED
:104A800045435400544350204641494C210D0A00EF
:104A900041542B4349504D4F44453D310D0A0000D0
:104AA00041542B43495053454E440D0A0000000029
:104AB0005769466920736574757020646F6E65214F
:104AC0000D0A000070B504460D4600260AE0214696
:104AD0000748FBF7F5FB08B1002070BD0120FFF788
:104AE0000FFD761CAE42F2D34FF0FF30F5E7000029
:104AF0006801002010B5044640210648FBF7D5FBAD
:104B0000002005490870054908702046FFF7C2F9E2
:104B100010BD0000680100203E0000203F00002082
:104B20001CB5474800684749884201D0012000E091
:104B3000002050B900BF502080F31188BFF34F8F81
:104B4000BFF36F8F00BF00BFFEE73D4800683D49DF
:104B5000491E884201D0012000E0002050B900BF6A
:104B6000502080F31188BFF34F8FBFF36F8F00BFCA
:104B700000BFFEE73449084600780190FF200A464E
:104B800010700846007800909DF8000000F0F000DA
:104B90009DF80020904201D1012000E0002050B992
:104BA00000BF502080F31188BFF34F8FBFF36F8F8A
:104BB00000BF00BFFEE79DF8000000F05000234A50
:104BC00010700720224A106009E021480068401E4A
:104BD0001F4A10609DF800004006000E00909DF8EE
:104BE000000000F080008028EFD019480068000223
:104BF000174A10601046008800F4E0601060124A06
:104C0000019810700E482030006840F470000C4984
:104C1000203108600846006840F070400860FFF7E7
:104C2000EBFA00200B490860FBF7D8FA0A48006845
:104C300040F0404008490860FBF7C0FA00201CBD66
:104C400000ED00E071C20F4100E400E0AC00002084
:104C5000B0000020A800002034EF00E02DE9F04172
:104C600004460126002722460021012000F007F813
:104C700005462846FEF708FB2846BDE8F0812DE9E9
:104C8000F84305460E4690460DB1012000E0002095
:104C900050B900BF502080F31188BFF34F8FBFF38E
:104CA0006F8F00BF00BFFEE70EB9002701E005FBD4
:104CB00006F707F15000FEF7E9FD044644B104F1A0
:104CC000500943464A46314628460094FEF7EAFA20
:104CD0002046BDE8F88300002DE9FF4782B0054675
:104CE0000E461F464FF0000A2C4654B900BF502014
:104CF00080F31188BFF34F8FBFF36F8F00BF00BFEA
:104D0000FEE70EB9206C08B9012000E0002050B980
:104D100000BF502080F31188BFF34F8FBFF36F8F18
:104D200000BF00BFFEE700F0CBFA08B9049808B94D
:104D3000012000E0002050B900BF502080F311880E
:104D4000BFF34F8FBFF36F8F00BF00BFFEE700BF01
:104D5000FFF7C0F9D4F83890B9F1000F3DD0D4F87E
:104D60000C8031462046FEF7CDF9DFB9A9F10100EC
:104D7000A063206810B9FEF727FE6060206908B9BB
:104D8000012000E0002010BB04F1100000F0B6FB91
:104D9000E8B14FF0805040490860BFF34F8FBFF338
:104DA0006F8F14E0C4F80C80606A08B9012000E03D
:104DB000002060B904F1240000F0A0FB38B14FF0EE
:104DC000805035490860BFF34F8FBFF36F8FFFF7F7
:104DD000ABF9012006B0BDE8F087049818B9FFF7D9
:104DE000A3F90020F6E7BAF1000F04D16846FFF7F7
:104DF000C9FC4FF0010AFFF797F9FFF725FDFFF710
:104E000069F994F94400401C10B9002084F844006A
:104E100094F94500401C10B9002084F84500FFF7C4
:104E200083F904A9684600F0D5F940BB2046FEF797
:104E30003DFBF0B1206830B9FFF74CF96068FFF72F
:104E400049FCFFF771F904F124000499FFF706FC0F
:104E50002046FEF7DCFC00F09DFB00287FF478AFD5
:104E60004FF080500C490860BFF34F8FBFF36F8F36
:104E70006EE72046FEF7CBFC00F08CFB68E720468F
:104E8000FEF7C5FC00F086FB2046FEF70FFB00286E
:104E9000EED000209EE7000004ED00E070B505466E
:104EA0000E462C4654B900BF502080F31188BFF342
:104EB0004F8FBFF36F8F00BF00BFFEE7FFF70AF908
:104EC000D4E90F12206801FB020060600020A0639B
:104ED0002068A060E06B401E226C216800FB02107D
:104EE000E060FF2084F8440084F845009EB9206902
:104EF00008B9012000E00020A8B904F1100000F07A
:104F0000FDFA80B14FF0805009490860BFF34F8F20
:104F1000BFF36F8F07E004F11000FFF729F804F1E9
:104F20002400FFF725F8FFF7FFF8012070BD00000F
:104F300004ED00E02DE9FF4383B0064688461D4698
:104F40004FF00009344654B900BF502080F3118857
:104F5000BFF34F8FBFF36F8F00BF00BFFEE7B8F105
:104F6000000F01D1206C08B9012000E0002050B9E9
:104F700000BF502080F31188BFF34F8FBFF36F8FB6
:104F800000BF00BFFEE7022D02D1E06B012801D176
:104F9000012000E0002050B900BF502080F31188AC
:104FA000BFF34F8FBFF36F8F00BF00BFFEE700F06E
:104FB00087F908B9059808B9012000E0002050B928
:104FC00000BF502080F31188BFF34F8FBFF36F8F66
:104FD00000BF00BFFEE700BFFFF77CF8A06BE16BEE
:104FE000884201D3022D28D12A4641462046FEF7A9
:104FF0009EF80746606A08B9012000E0002068B901
:1050000004F1240000F07AFA88B14FF08050324960
:105010000860BFF34F8FBFF36F8F08E03FB14FF0D1
:1050200080502D490860BFF34F8FBFF36F8FFFF79C
:105030007BF8012007B0BDE8F083059818B9FFF7A9
:1050400073F80020F6E7B9F1000F04D101A8FFF7CB
:1050500099FB4FF00109FFF767F8FFF7F5FBFFF742
:1050600039F894F94400401C10B9002084F8440039
:1050700094F94500401C10B9002084F84500FFF762
:1050800053F805A901A800F0A5F8F0B92046FEF7ED
:105090001AFAA0B104F110000599FFF7DFFA2046D3
:1050A000FEF7B5FB00F076FA002895D14FF080505E
:1050B00009490860BFF34F8FBFF36F8F8CE720461D
:1050C000FEF7A5FB00F066FA86E72046FEF79FFB99
:1050D00000F060FA0020ADE704ED00E02DE9F05F9C
:1050E00007468A4690461E463C4654B900BF5020AB
:1050F00080F31188BFF34F8FBFF36F8F00BF00BFE6
:10510000FEE7BAF1000F01D1206C08B9012000E0E0
:10511000002050B900BF502080F31188BFF34F8F9B
:10512000BFF36F8F00BF00BFFEE7022E02D1E06B1E
:10513000012801D1012000E0002050B900BF50201B
:1051400080F31188BFF34F8FBFF36F8F00BF00BF95
:10515000FEE7FFF761F800BF5021EFF3118081F304
:105160001188BFF34F8FBFF36F8F00BF0546A06B51
:10517000E16B884201D3022E23D194F945B0324627
:1051800051462046FDF7D3FF0BF1010088B9606A54
:1051900008B9012000E0002080B904F1240000F0EB
:1051A000ADF958B1B8F1000F08D00120C8F80000DF
:1051B00004E00BF1010040B284F845004FF0010912
:1051C00001E04FF0000900BF85F3118800BF484699
:1051D000BDE8F09F70B504460D4654B900BF50209D
:1051E00080F31188BFF34F8FBFF36F8F00BF00BFF5
:1051F000FEE755B900BF502080F31188BFF34F8FF1
:10520000BFF36F8F00BF00BFFEE7FEF763FF1248DA
:1052100003682868401C08B9002619E00F49206877
:105220000968884204D06068984201D801260FE0DE
:105230006068181A2968884209D228686168591A72
:10524000401A28602046FFF79DFA002600E001265C
:10525000FEF76AFF304670BDC8000020DC00002069
:105260002DE9FF4F85B0804689461746DDE912AB30
:10527000B800FEF70BFB064656B15820FEF706FBBA
:1052800004460CB1266304E03046FEF76BFF00E0F5
:1052900000247CB10020CDE900ABCDE902403A46C4
:1052A00049464046089BFEF712F82046FDF76AFE85
:1052B000012501E04FF0FF35284609B0BDE8F08F29
:1052C0000549096809B9012005E00449096809B9D7
:1052D000022000E000207047D0000020EC000020F9
:1052E0000149086870470000C80000202DE9F0411E
:1052F0004FF0000844480068002877D14348006810
:10530000451C4248056015BB41480068006808B963
:10531000012000E0002050B900BF502080F3118828
:10532000BFF34F8FBFF36F8F00BF00BFFEE738485A
:1053300007683848006836490860364807603648CC
:105340000068401C34490860FEF7B4F900BF3348D8
:10535000006885423CD300BF2D480068006808B94A
:10536000012000E0002020B14FF0FF302B49086001
:105370002DE027480068C068C4686668B54202D25C
:105380002648066023E0201DFEF78FFDA06A18B1B5
:1053900004F11800FEF789FD94F82C1001208840D4
:1053A0001F49096808431E490860E16A01EB810151
:1053B0001C4A02EB8100211DFEF704FE1A49E06A37
:1053C0000968C96A8842C7D34FF00108C4E700BF23
:1053D00015480068C06A00EB8000124951F82000AF
:1053E000012801D94FF0010805E0FFE70F480068E8
:1053F000401C0E4908600E48006808B14FF00108D3
:105400004046BDE8F0810000EC000020C80000200C
:10541000B8000020BC000020DC000020E4000020D8
:10542000CC000020E82D0120B4000020D400002092
:10543000D800002070B505462C460026002D55D01A
:105440002B480068844201D1012000E0002050B9BF
:1054500000BF502080F31188BFF34F8FBFF36F8FD1
:1054600000BF00BFFEE7E06C50B900BF502080F3E2
:105470001188BFF34F8FBFF36F8F00BF00BFFEE7F0
:10548000E06C401EE064A16CE06A88422ED0E06CC3
:1054900060BB201DFEF709FD78B9E06A00EB8000D3
:1054A000144951F8200040B994F82C10012088408C
:1054B00011490968814310480160A06CE062E06A0C
:1054C000C0F10F00A06194F82C10012088400A4917
:1054D0000968084308490860E16A01EB8101054A4F
:1054E00002EB8100211DFEF76DFD0126304670BDE7
:1054F000B4000020E82D0120CC00002070B5064645
:10550000F068C46854B900BF502080F31188BFF31D
:105510004F8FBFF36F8F00BF00BFFEE704F118008D
:10552000FEF7C3FC15480068A8B9201DFEF7BDFCB6
:1055300094F82C100120884011490968084310494B
:105540000860E16A01EB81010E4A02EB8100211D36
:10555000FEF738FD04E004F118010B48FEF732FDB8
:105560000A49E06A0968C96A884204D9012501200C
:105570000749086000E00025284670BDEC000020C7
:10558000CC000020E82D01203C2F0120B400002099
:10559000D800002070B5002400263648006850B9B5
:1055A00000BF502080F31188BFF34F8FBFF36F8F80
:1055B00000BF00BFFEE7FEF78DFD2E480068401ECD
:1055C0002C4908600846006800284FD12A48006826
:1055D00000284BD024E02948C068C46804F11800B2
:1055E000FEF763FC201DFEF760FC94F82C100120F0
:1055F000884023490968084321490860E16A01EBB2
:105600008101204A02EB8100211DFEF7DBFC1E49CF
:10561000E06A0968C96A884202D301201B49086010
:105620001648006808B9012000E000200028D2D008
:105630000CB1FEF73FF81648056865B100BFFFF7EB
:1056400055FE10B10120114908606D1E002DF6D1E4
:1056500000200F4908600D48006838B10126300766
:105660000C490860BFF34F8FBFF36F8FFEF75CFDEF
:10567000304670BDEC000020C40000203C2F01200B
:10568000CC000020E82D0120B4000020D80000202C
:10569000D400002004ED00E01CB50024FDF7CEFC92
:1056A0000E48006858B10E48022100234FF4827260
:1056B000CDE900100BA10D48FFF7D2FD044654B907
:1056C00000BF502080F31188BFF34F8FBFF36F8F5F
:1056D00000BF00BFFEE720461CBD0000F800002010
:1056E000FC000020546D722053766300F5370008EB
:1056F0002DE9FE4304460D4616461F46DDF8288078
:105700004FF0000954B900BF502080F31188BFF357
:105710004F8FBFF36F8F00BF00BFFEE714480068D4
:1057200010B3009501960294062D15DAFFF7C8FD17
:10573000022808D10023424669460D480068FFF759
:10574000F9FB814610E000231A46694608480068C4
:10575000FFF7F0FB814607E000233A46694604481C
:105760000068FFF7BBFC81464846BDE8FE830000A9
:10577000F8000020845D00087C5D00080000000047
:10578000000000000000000000000000000000F821
:1057900000000000000000333000000000100C0684
:1057A000100C0600000000000000000040C078401F
:1057B000C0784000043F04043F040400007088FCEB
:1057C00008300000001820FF211E0000F008F00043
:1057D000E018000000211C031E211E0000F00888B4
:1057E000700000001E2123241927211010160E001E
:1057F000000000000000000000000000000000E0C9
:1058000018040200000000071820400000020418DD
:10581000E00000000040201807000000404080F039
:10582000804040000202010F01020200000000F06F
:10583000000000000001011F010100000000000045
:10584000000000000080B0700000000000000000B8
:105850000000000000010101010101000000000042
:1058600000000000003030000000000000000000D8
:1058700080601804006018060100000000E01008B5
:105880000810E000000F102020100F00001010F88A
:10589000000000000020203F2020000000700808C9
:1058A0000888700000302824222130000030088849
:1058B000884830000018202020110E000000C02071
:1058C00010F8000000070424243F240000F8088892
:1058D000880808000019212020110E0000E010881F
:1058E00088180000000F112020110E000038080851
:1058F000C83808000000003F000000000070880861
:1059000008887000001C222121221C0000E01008E1
:105910000810E0000000312222110F00000000C03A
:10592000C0000000000000303000000000000080D7
:1059300000000000000080600000000000008040C7
:1059400020100800000102040810200040404040E0
:105950004040400004040404040404000008102033
:105960004080000000201008040201000070480878
:105970000808F0000000003036010000C030C828E0
:10598000E810E0000718272423140B000000C0389B
:10599000E0000000203C23020227382008F8888815
:1059A00088700000203F202020110E00C030080821
:1059B00008083800071820202010080008F80808F8
:1059C0000810E000203F202020100F0008F88888F1
:1059D000E8081000203F20202320180008F88888BD
:1059E000E8081000203F200003000000C030080835
:1059F0008888380007182020201F000008F8880039
:105A00000088F808203F210000203F20000808F807
:105A1000080800000020203F2020000000000808A7
:105A2000F8080800C08080807F00000008F888C067
:105A300028180800203F20012638200008F8080018
:105A400000000000203F20202020300008F8F8004F
:105A5000F8F80800203F003F003F200008F830C061
:105A600000F80800203F200007183F00E010080859
:105A70000810E0000F10202020100F0008F8080880
:105A80000808F000203F210101010000E010080893
:105A90000810E0000F18242438504F0008F88888B8
:105AA00088887000203F2000030C30200070880898
:105AB000080838000038202121221C00180808F8A6
:105AC000080818000000203F2000000008F8080027
:105AD0000008F808001F202020201F0008788800F8
