:020000040800F2
:10000000D0330120550200085D0200085F0200089D
:100010006102000863020008650200080000000099
:100020000000000000000000000000009D0100082A
:100030006902000800000000F1010008890E0008B4
:100040006F0200086F0200086F0200086F020008CC
:100050006F0200086F020008010400086F02000828
:10006000350400086D040008910400086F020008C0
:100070006F0200086F0200086F0200086F0200089C
:100080006F0200086F0200086F0200086F0200088C
:100090006F0200086F0200086F0200086F0200087C
:1000A000250F00086F0200086F0200086F020008A9
:1000B000550F0008810F00086F0200086F0200084A
:1000C0006F0200086F0200086F0200086F0200084C
:1000D0006F020008091000086F020008891000086C
:1000E0006F0200086F0200086F0200086F0200082C
:1000F0006F0200086F0200086F0200086F0200081C
:100100006F0200086F0200086F0200086F0200080B
:100110006F0200086F0200086F0200086F020008FB
:100120006F0200086F0200086F0200086F020008EB
:100130006F0200086F0200086F0200086F020008DB
:100140006F0200086F0200086F0200086F020008CB
:100150006F0200086F0200086F0200086F020008BB
:100160006F0200086F0200086F0200086F020008AB
:100170006F0200086F0200086F0200086F0200089B
:100180006F0200086F020008DFF80CD000F0DCF806
:100190000048004705280008D03301202A4B196881
:1001A0000868B0E8F04F80F30988BFF36F8F4FF015
:1001B000000080F3118870470000000006480068C6
:1001C000006880F3088862B661B6BFF34F8FBFF353
:1001D0006F8F00DF00BF00BF08ED00E0DFF80C000C
:1001E000016841F470010160704700BF88ED00E0D4
:1001F000EFF30980BFF36F8F134B1A681EF0100FD7
:1002000008BF20ED108A20E9F04F106008B44FF0CD
:10021000500080F31188BFF34F8FBFF36F8F04F04E
:100220007FFF4FF0000080F3118808BC1968086850
:10023000B0E8F04F1EF0100F08BFB0EC108A80F34A
:100240000988BFF36F8F7047E4000020EFF305804B
:10025000704700000648804706480047FEE7FEE773
:10026000FEE7FEE7FEE7FEE7FEE7FEE7FEE7FEE766
:10027000BD0E00088901000840EA01039B0703D076
:1002800009E008C9121F08C0042AFAD203E011F8D5
:10029000013B00F8013B521EF9D27047D2B201E097
:1002A00000F8012B491EFBD270470022F6E710B57B
:1002B00013460A4604461946FFF7F0FF204610BDD4
:1002C00030B505462A460B4612F8010B13F8014BD0
:1002D00008B1A042F8D01CB1002802D06D1CF1E793
:1002E000284630BD2DE9F05F0546002092469B462A
:1002F00088460646814640241BE02846414647463C
:10030000224600F042F853465A46C01A914110D393
:1003100011461846224600F029F82D1A67EB01080D
:100320004F4622460120002100F020F817EB00097B
:100330004E41201EA4F10104DFDC484631462A4626
:100340004346BDE8F09F0000064C074D06E0E0681C
:1003500040F0010394E8070098471034AC42F6D30C
:10036000FFF716FFC46A0008E46A0008202A04DBCD
:10037000203A00FA02F1002070479140C2F12003B8
:1003800020FA03F3194390407047202A04DB203AF7
:1003900021FA02F00021704721FA02F3D040C2F1A5
:1003A0002002914008431946704770B58C1810F828
:1003B000015B15F0070301D110F8013B2A1106D1AA
:1003C00010F8012B03E010F8016B01F8016B5B1EC4
:1003D000F9D12B0705D40023521E0DD401F8013B9F
:1003E000FAE710F8013BCB1A921C03E013F8015B0B
:1003F00001F8015B521EF9D5A142D8D3002070BD8F
:1004000010B500BF5021EFF3118081F31188BFF3C5
:100410004F8FBFF36F8F00BF0446012000F050F8EC
:10042000012801D100F046F800BF84F3118800BF15
:1004300010BD000010B5042000F042F801280DD1D5
:1004400007480068C0430749C1F8A4024FF4FA7195
:10045000054800F0D7FD042000F02CF810BD000086
:10046000A4824242008042420004004010B50820AD
:1004700000F026F8012807D14FF44871034800F036
:10048000C1FD082000F016F810BD00000004004077
:1004900010B5102000F014F8012807D140F2DE3129
:1004A000034800F0AFFD102000F004F810BD00007C
:1004B000000400400149086070470000143C0140FE
:1004C00001460020034A12680A400AB1012000E0F8
:1004D00000207047143C014001490860704700004B
:1004E0000C3C024070B504460A460026092502B9B4
:1004F00009E0012A01D1160205E0022A01D1160203
:1005000001E04FF4407600F09FF80546092D28D110
:100510001548006820F440701349086008460068D8
:10052000304308600846006820F0F800086008467C
:10053000006844F0020108430B490860084600685F
:1005400040F48030086000F07FF8054606480068F7
:1005500020F00200044908600846006820F0F80016
:100560000860284670BD0000103C02400920134975
:10057000096801F48031B1F5803F01D101201CE010
:100580000E49096801F0100109B1062015E00B4978
:10059000096801F4807109B102200EE00749096879
:1005A00001F0EF0109B1072007E00449096801F0F3
:1005B000020109B1082000E0092070470C3C02400C
:1005C0000348006840F0004001490860704700009F
:1005D000103C024030B502460C46092500F034F8C4
:1005E0000546092D19D10E48006820F440700C49C9
:1005F00008600846006840F400700860084600681B
:1006000040F001000860146000F01EF80546044840
:10061000006820F0010002490860284630BD000053
:10062000103C02400548006800F0004028B1044832
:1006300002490C390860034808607047103C0240CA
:1006400023016745AB89EFCD08B509200090FFF77E
:100650008DFF009002E0FFF789FF00909DF80000F9
:100660000128F8D09DF8000008BDF0B50A46002129
:100670000023002400BF3DE0012505FA01F31568C1
:1006800005EA03049C4234D105684F000326BE40AE
:10069000B543056015794E00B540066835430560E1
:1006A0001579012D02D01579022D16D185684F00DC
:1006B0000326BE40B543856055794E00B540866837
:1006C00035438560456801268E40B54345604568E1
:1006D00096798E40B6B235434560C5684F00032613
:1006E000BE40B543C560D5794E00B540C6683543B8
:1006F000C560491C1029BFD3F0BDF0B5002300240C
:100700004D07ED0E02FA05F3CE1000F1200555F865
:1007100026504E07F70E0F26BE40B543CF1000F10E
:10072000200646F82750CE1000F1200555F8265037
:1007300045EA0304CE1000F1200545F82640F0BD3F
:100740000246002013690B400BB1012000E000209D
:1007500070474183704701837047000010B54FF424
:1007600000710E48FFF7F7FF4FF480710B48FFF759
:10077000F2FF052001F084FE4FF400710748FFF7F7
:10078000E8FF052001F07CFE4FF480710348FFF77D
:10079000E0FF052001F074FE10BD000000040240DF
:1007A00010B54FF480710E48FFF7D3FF4FF400717E
:1007B0000B48FFF7CEFF052001F062FE4FF4807179
:1007C0000748FFF7C8FF052001F05AFE4FF40071FB
:1007D0000348FFF7C0FF052001F052FE10BD0000E6
:1007E0000004024010B54FF400711048FFF7B3FF4A
:1007F00000F08EFA022001F043FE4FF480710B48A6
:10080000FFF7A9FF022001F03BFE08481030006806
:10081000C0F340244FF480710448FFF79AFF00F0C2
:1008200081FA022001F02CFE204610BD0004024097
:1008300070B50446002521E004F0800028B14FF493
:1008400000711148FFF787FF04E04FF400710E4874
:10085000FFF77FFF4FF480710B48FFF77CFF052007
:1008600001F00EFE4FF480710748FFF772FF05207C
:1008700001F006FE6006040E681CC5B2082DDBDB25
:10088000FFF7B0FF70BD00000004024070B500210A
:1008900000230F22C4781CB3174C246804F4E064CE
:1008A000C4F5E064C4F30721C1F10404E3B20A41D2
:1008B00044789C40E1B28478144021430C07210E17
:1008C0000E4C05786155047804F01F050124AC40F6
:1008D00005786D11AD0005F1E025C5F8004109E08E
:1008E000047804F01F050124AC40054D067876110C
:1008F00045F8264070BD00000CED00E000E400E08B
:1009000080E100E002490143024A116070470000A3
:100910000000FA050CED00E010B50446FFF71EFFDD
:1009200006480078FFF784FF0020FFF781FF20468C
:10093000FFF77EFFFFF734FF10BD000064000020CA
:1009400010B50446FFF70AFF06480078FFF770FF6E
:100950004020FFF76DFF2046FFF76AFFFFF720FFFB
:1009600010BD00006400002010B5142000F038F81D
:10097000044604F0030018B90321142000F07AF8AB
:1009800010BD7CB5044600210D2000F007F993202E
:1009900020702020607001A823460222214600908A
:1009A0000C2000F074F808B101207CBD2078882864
:1009B00007D0002503E0605D6055681CC5B2042DBA
:1009C000F9DB0020F1E770B505460C46284600F03B
:1009D00007F820EA04063146284600F0DFF870BD2B
:1009E00070B5044680210A48FFF7B3FE7E2101EA74
:1009F000440141F0800000F09FF9002000F09CF9D4
:100A0000054680210248FFF7A6FE284670BD00007B
:100A1000000C02407CB505460C4607210D2000F075
:100A2000BDF8257001A823460122214600900C2024
:100A300000F02DF808B101207CBD9DF804001028BD
:100A400001D00220F8E70020F6E7000010B54FF4CF
:100A500000610748FFF77DFE0A2003F013F94FF409
:100A600000610348FFF777FE0A2003F00BF910BD81
:100A70000008024070B505460C462846FFF7B0FF57
:100A800040EA04063146284600F088F870BD2DE99A
:100A9000FC5F0546894692469B46002001900090E7
:100AA0000C2D03D17720019030200090019840F068
:100AB0008001022000F072F880210420FFF783FFFC
:100AC0000021012000F06AF880210A20FFF7D2FF00
:100AD000002406E019F80410092000F05FF8601CFB
:100AE000C4B25445F6DB2946012000F057F80C2D1E
:100AF00003D180210D20FFF7BDFF4FF4FA6600BF40
:100B00000420FFF76DFF0446701E86B236B104F074
:100B1000010018B9009820400028F1D080210D2054
:100B2000FFF751FF16B90120BDE8FC9F0420FFF735
:100B300057FF00F0010008B10220F5E70420FFF79D
:100B40004FFF00F0010030BB0A20FFF749FF0446C9
:100B50000C20FFF745FF00F00708B8F1000F06D0A2
:100B6000601E08EBC000C1B20C98017003E0E00603
:100B7000010E0C98017004B90124102C00DD102422
:100B8000002706E00920FFF72BFF0BF80700781C71
:100B9000C7B2A742F6DB0020C6E7000070B50446E6
:100BA0000D4680210748FFF7D4FD7E2101EA44006D
:100BB00000F0C2F8284600F0BFF880210148FFF796
:100BC000CAFD70BD000C024029B1064A12680243FA
:100BD000044B1A6004E0034A12688243014B1A6016
:100BE000704700003038024029B1064A12680243BB
:100BF000044B1A6004E0034A12688243014B1A60F6
:100C0000704700004038024029B1064A126802438A
:100C1000044B1A6004E0034A12688243014B1A60D5
:100C20007047000044380240F0B500210022002443
:100C3000022500260223324F3F6807F00C0121B144
:100C4000042905D0082937D105E02E4F076036E08A
:100C50002D4F076033E02A4F3F1F3F68C7F3805690
:100C6000274F3F1F3F6807F03F036EB1264FB7FB8A
:100C7000F3F7DFF88CC0ACF1040CDCF800C0CCF367
:100C8000881C07FB0CF40CE01E4FB7FBF3F7DFF8F2
:100C900070C0ACF1040CDCF800C0CCF3881C07FB7E
:100CA0000CF4174F3F1F3F68C7F301477F1C7D00BF
:100CB000B4FBF5F7076002E0124F076000BF00BF0A
:100CC0000F4F3F6807F0F0010909104F7A5C076881
:100CD000D74047600A4F3F6807F4E051890A0B4F3D
:100CE0007A5C4768D7408760054F3F6807F46041EA
:100CF000490B064F7A5C4768D740C760F0BD0000DB
:100D0000083802400024F40000127A003401002068
:100D10000348006820F44020014908607047000043
:100D2000000402400348006840F480200149086044
:100D3000704700000004024070B50446002525E01D
:100D400004F0800020B140211248FFF704FD03E0C9
:100D500040211048FFF7FDFC03F08EF840210E48BB
:100D6000FFF7F9FC03F088F86006040E4FF4807179
:100D70000848FFF7E5FC08B144F0010440210648AB
:100D8000FFF7E7FC03F078F8681CC5B2082DD7DB45
:100D9000204670BD00080240000C02400CB5002047
:100DA000019000903448006840F480303249086077
:100DB00000BF3148006800F4003000900198401CEA
:100DC0000190009818B90198B0F5A04FF1D12A48C8
:100DD000006800F4003010B10120009001E0002014
:100DE00000900098012846D123484030006840F028
:100DF00080502149403108602048006840F440405C
:100E00001E4908601C48083000681B49083108600A
:100E10000846006840F4004008600846006840F456
:100E2000A05008601648091F0860081F006840F0BD
:100E30008070091F086000BF0F48006800F0007054
:100E40000028F9D040F205700E4908600A480830C1
:100E5000006820F00300084908310860084600686F
:100E600040F00200086000BF03480830006800F04E
:100E70000C000828F8D10CBD00380240007000407A
:100E800008544007003C024010B500BF502080F3DA
:100E90001188BFF34F8FBFF36F8F00BF05F09EF82F
:100EA00018B14FF080500449086000BF002080F363
:100EB000118800BF10BD000004ED00E010B515481A
:100EC000006840F47000134908601348006840F05F
:100ED00001001149086000200F49083108600E48E0
:100EE00000680E4908400C4908600D48091D08605B
:100EF000081F006820F48020091F086000200649B0
:100F00000C310860FFF74AFF4FF00060014980395B
:100F1000086010BD88ED00E000380240FFFFF6FEDB
:100F20001030002410B50121074800F05AF80128BC
:100F300009D106480068C0430549C1F8B80201213B
:100F4000014800F03FF810BD00400140B8024242A5
:100F50000000424210B50121880700F042F8012844
:100F600009D105480068C0430449C1F8A402012121
:100F7000880700F027F810BDA48242420080424258
:100F800010B501210B4800F02CF8012810D10A48B7
:100F9000006828B909480068C0430949C1F8A4029B
:100FA0000021044800F011F80121024800F00AF87D
:100FB00010BD00000004004008024242A4824242E8
:100FC00000804242CA430282704721B1028842F047
:100FD0000102028004E002884FF6FE731A4002808C
:100FE000704730B50246002000230024158A05EA28
:100FF0000103958905EA010413B10CB1012000E059
:10100000002030BD4163704770B500BF5021EFF341
:10101000118081F31188BFF34F8FBFF36F8F00BF33
:10102000044640F22551144800F09AF801281DD1D9
:10103000114800F04FF9C1B210480578681C0F4AFA
:1010400010700F48415510460078401E0C49085C4E
:101050002A2803D0104600783F2802D301200949EE
:10106000087040F22551044800F052F800BF84F3A4
:10107000118800BF70BD0000001001406C0000200E
:10108000580100206D00002070B500BF5021EFF323
:10109000118081F31188BFF34F8FBFF36F8F00BFB3
:1010A000054640F22551164800F05AF8012821D192
:1010B000134800F00FF9C4B2124800783F2813D249
:1010C00010490878411C0F4A11700F490C542A2C02
:1010D00007D00D2C05D00A2C03D0104600783E28EE
:1010E00002D301200949087040F22551044800F05C
:1010F0000FF800BF00BF85F3118800BF70BD00006E
:10110000004800406E000020980100206F00002081
:1011100010B50022002340F66A14A14200D100BF9E
:101120000A1201249440A3B2DC43048010BD21B113
:10113000828942F40052828104E082894DF6FF7375
:101140001A408281704702460020B1F5007F00D12D
:1011500000BF13880B400BB1012000E00020704756
:1011600070B50246002400230025002040F66A16D0
:10117000B14200D100BFC1F3421501F01F030126A7
:1011800006FA03F3012D02D19689334006E0022DC1
:1011900002D1168A334001E0968A33400C120126B0
:1011A00006FA04F41688344013B10CB1012000E0B3
:1011B000002070BDF0B50346002400260025002065
:1011C00040F66A17B94200D100BF1846C1F3421475
:1011D00001F01F06012707FA06F5012C01D10C309A
:1011E00004E0022C01D1103000E014301AB107687D
:1011F0002F43076002E00768AF430760F0BD0000BF
:101200002DE9FF4705460E460024A14600BFA04633
:10121000B08900B100BF2C8A24F44054F088044304
:101220002C82AC8941F20C608443B0883189084338
:10123000718908430443AC81AC8A24F44074B089BA
:101240000443AC826846FFF7EFFC2048854202D099
:101250001F48854202D1DDF80C9001E0DDF80890CE
:10126000A88900F4004040B109EBC90000EB091067
:1012700031684900B0FBF1F707E009EBC90000EB6A
:10128000091031688900B0FBF1F76420B7FBF0F07A
:1012900004012009642101FB1078A88900F40040B2
:1012A00040B1322000EBC800B0FBF1F000F00700C5
:1012B000044308E0322000EB08106421B0FBF1F099
:1012C00000F00F0004432C81BDE8FF8700100140AF
:1012D0000014014001468888C0F308007047C1F33C
:1012E00008028280704700000FB4054B10B503A9B7
:1012F000044A029800F02CF810BC5DF814FB0000C2
:1013000055250008B80000200FB41CB50A46521E2F
:10131000CDE9000207A9054B6A46069800F018F8C7
:10132000009A002111701CBC5DF814FBB317000873
:1013300002E008C8121F08C1002AFAD1704770479E
:10134000002001E001C1121F002AFBD170470000FC
:101350002DE9FF4F8DB00F460546002606E02528F3
:101360000BD0DDE90F1290476D1C761C2878002801
:10137000F5D111B03046BDE8F08F0024A246A14659
:101380000122EC4900E0044315F8013F203B02FA3A
:1013900003F00842F7D128782A2810D06FF02F02E6
:1013A0002878A0F13001092914D80AEB8A0102EB50
:1013B000410144F0020400EB010A6D1CF0E701CF8B
:1013C0005FEA000A03D544F40054CAF1000A44F06D
:1013D00002046D1C28782E2817D115F8010F44F04F
:1013E00004042A280ED06FF02F022878A0F13001D3
:1013F00009290AD809EB890102EB410100EB010937
:101400006D1CF2E757F8049B6D1C28786C280FD0F0
:1014100006DC4C2817D068280DD06A2814D104E0C7
:10142000742810D07A280FD10DE044F400140AE09B
:1014300044F4801401E044F440146978814202D1FC
:1014400004F580146D1C6D1C2A786E2A1FD00CDCEC
:10145000632A31D004DC002A8BD0582A11D1A3E0B2
:10146000642A68D0692A0CD165E0732A2ED004DC86
:101470006F2A73D0702A04D19BE0752A6FD0782A26
:101480006ED01046DDE90F129047761C50E1C4F390
:101490000250022806D0032809D0042801CF09D021
:1014A000066045E101CFF117C0E9006140E101CFDD
:1014B00006803DE106703BE117F8040B8DF8000053
:1014C00000208DF80100EB46012003E057F804BB33
:1014D0004FF0FF3061074FF0000102D40DE008F13A
:1014E0000101884649450FDA8045F8DB1BF80810F2
:1014F0000029F4D108E008F1010188468142FADBB5
:101500001BF808100029F6D1DDE90F23AAEB08002B
:101510008146214600F036F9304400EB080604E02D
:10152000DDE90F121BF8010B9047B8F10108F7D263
:1015300021464846F7E00A21C4F302534FF0000B5E
:101540000891022B04D001CFC117032B09D00AE068
:10155000FF1D27F00707F7E8020108E032E01FE06F
:1015600020E000B2C117042B01D140B2C117031E05
:1015700071F1000307DA4FF0000CD0EB0C006CEBBC
:1015800001012D2302E0230504D52B238DF82430FF
:10159000012303E0E30701D02023F7E7984658E052
:1015A0000A2110E010210EE010204FF0000B0890EF
:1015B0000CE010214FF0000B44F004044FF0080938
:1015C000089103E008214FF0000B0891C4F3025387
:1015D000022B04D001CF0021032B06D006E0FF1D13
:1015E00027F00707F7E8020103E080B2042B00D1DF
:1015F000C0B24FF0000823072BD5702A07D0DDF8C2
:1016000020C08CF0100C5CEA0B0C05D00EE04023DF
:101610008DF82430012308E050EA010306D030237E
:101620008DF824308DF8252002239846DDF820C05F
:101630008CF0080C5CEA0B0C0BD150EA010301D1D1
:10164000630706D530238DF824304FF00108A9F147
:101650000109582A04D038A20B9208AA0A920BE07A
:101660003AA2F9E75B46089AFEF73CFE0B9B9B5CAF
:101670000A9A521E0A92137050EA0102F2D10A9895
:10168000ADEB000000F1200B600702D524F480349C
:1016900001E04FF00109D94502DDA9EB0B0000E0A4
:1016A000002000EB0B0141440890AAEB010AE00383
:1016B00006D4DDE90F232146504600F063F80644C6
:1016C0004FF0000908E009A911F80900DDE90F123F
:1016D000904709F10109761CC145F4DBE0030CD504
:1016E000DDE90F232146504600F04CF8064404E0A3
:1016F000DDE90F1230209047761C0899481E0890AB
:101700000029F5DC08E00A980A990078491C0A913A
:10171000DDE90F129047761CBBF10001ABF1010B24
:10172000F1DC21465046DDE90F2300F019F80644AC
:101730006D1C1BE609280100303132333435363751
:10174000383961626364656600000000303132330D
:1017500034353637383941424344454600000000AD
:101760002DE9F041044600251E461746880404D49E
:1017700005E039462020B0476D1C641EF9D5284687
:10178000BDE8F0812DE9F041044600251E46904653
:10179000C80301D5302700E02027880404D505E0E0
:1017A00041463846B0476D1C641EF9D52846BDE851
:1017B000F0814A68002A06D00A68531C0B6010703A
:1017C0004868401E486070471CB504465CA0FFF79F
:1017D0008BFD002204210A2004F0C9F85F4908604B
:1017E00000220121102004F0C2F85D4908600022A7
:1017F0000121102004F0BBF85A490860002208219A
:10180000052004F0B4F858490860002202210520A0
:1018100004F0ADF855490860012004F097F85449E8
:101820000860012004F092F852490860012004F099
:101830008DF85149086002F0B9FF50480321002398
:101840004FF40072CDE900104DA1504804F080FB28
:101850004F48032100234FF40072CDE900104DA141
:101860004E4804F075FB4E4804210023CA01CDE91F
:1018700000104CA14D4804F06BFB4D48052100239E
:101880004FF40072CDE900104AA14D4804F060FB0E
:101890004C48022100230A02CDE900104AA14D481C
:1018A00004F056FB4C48032100234FF40072CDE9AD
:1018B00000104AA14C4804F04BFB4C480321002384
:1018C0004FF48072CDE9001049A14C4804F040FB70
:1018D0000020032103464FF40072CDE9001048A117
:1018E0004B4804F035FB02F08BFF00235A1E1946CB
:1018F0001F48006804F068F800281CD000F0E8FFDA
:1019000044A20021084601F08BF846A202210020E3
:1019100001F086F846A20421002001F081F849A2D6
:101920000621002001F07CF800231A4619461048D1
:10193000006804F077F9002003F0BAF91CBD00003C
:101940006170705F7461736B5F696E69742072752A
:101950006E6E696E67210D0A0000000020000020F5
:1019600024000020280000202C000020300000204F
:1019700034000020380000203C000020040000203B
:1019800046696E6765725461736B000045410008DB
:10199000080000205077645461736B0069490008A7
:1019A0000C0000204B65795461736B009145000871
:1019B000100000204B65794D656E755461736B00A6
:1019C000C9410008140000204F6C65645461736BBA
:1019D000000000006D46000818000020526669648F
:1019E0005461736B00000000D14A00081C00002005
:1019F00055617274436D645461736B00AD5100089E
:101A0000556E6C6F636B457865635461736B000052
:101A1000C151000853797374656D20526561647912
:101A200021000000312D557020322D446F776E005B
:101A3000232D436F6E6669726D202A2D4578697477
:101A4000000000005761697420556E6C6F636B2E47
:101A50002E2E000000B587B018A207CA8DE8070037
:101A600000235A1E19461848006803F0ADFF0128EC
:101A700004D016A0FFF738FC07B000BD0C21684663
:101A800000F09CFC0C22C82103A800F0AFFB0C283E
:101A900006DB9DF8150018B916A0FFF725FC04E039
:101AA0009DF815101DA0FFF71FFC00231A461946CC
:101AB0000548006804F0B6F800BFDDE7EF01FFFF5E
:101AC000FFFF0100030D0011380000205B46696E26
:101AD0006765725D20436C6561723A206661696C6E
:101AE000656420746F20676574206D757465780D6A
:101AF0000A0000005B46696E6765725D20416C6C90
:101B00002066696E6765727072696E747320636CAB
:101B10006561726564210D0A000000005B46696E14
:101B20006765725D20436C656172206661696C3A1D
:101B300020636F64653D3078253032580D0A00000F
:101B4000F0B59BB00546202113A8FEF7AEFB97A287
:101B500007CA10AB07C398A1D1E90023D1E902015C
:101B6000CDE90C23CDE90E0197A191E80D00C968DC
:101B700008AC0DC40B9198A207CA05AB07C399A383
:101B80000FCB01AC0FC40027002600235A1E1946B4
:101B90009848006803F018FF012805D096A0FFF7C9
:101BA000A3FB00201BB0F0BD01209B490870280A50
:101BB0008DF80F00E8B28DF810009DF80F000E3080
:101BC0009DF810100844C0B28DF81200294693A069
:101BD000FFF78AFB002631E0C82003F03BF80C2118
:101BE00010A800F0EBFB0C224FF47A7113A800F060
:101BF000FDFA04461CB997A0FFF776FBCAE00C2C4F
:101C000003DB9DF8550000B919E00C2C10DB9DF8A2
:101C1000550002280CD13046711C8EB20A2190FB6F
:101C2000F1F201FB120010B996A0FFF75DFB05E091
:101C30009DF855109CA0FFF757FBABE0CCE700BF29
:101C4000A3A0FFF751FB4FF47A7003F003F8AAA0AA
:101C5000FFF74AFB0D210CA800F0B0FB0C224FF45B
:101C60007A7113A800F0C2FA04460A2C02DB9DF830
:101C7000550028B19DF85510AAA0FFF735FB89E063
:101C8000B2A0FFF731FB002631E0C82002F0E2FFEE
:101C90000C2110A800F092FB0C224FF47A7113A8CB
:101CA00000F0A4FA04461CB9B4A0FFF71DFB71E0D4
:101CB0000C2C03DB9DF8550000B919E00C2C10DB4F
:101CC0009DF8550002280CD13046711C8EB20A21B5
:101CD00090FBF1F201FB120010B9B1A0FFF704FB79
:101CE00005E09DF85510B8A0FFF7FEFA52E0CCE7EA
:101CF00000BFBFA0FFF7F8FA0D2108A800F05EFBB7
:101D00000C224FF47A7113A800F070FA04460A2CE2
:101D100002DB9DF8550028B19DF85510C0A0FFF7D3
:101D2000E3FA37E0C8A0FFF7DFFA0C2105A800F0BE
:101D300045FB0C224FF4FA6113A800F057FA044651
:101D40000A2C02DB9DF8550028B19DF85510C9A05A
:101D5000FFF7CAFA1EE0D1A0FFF7C6FA0F2101A8CB
:101D600000F02CFB0C224FF47A7113A800F03EFA1D
:101D700004460A2C02DB9DF8550028B19DF8551049
:101D8000CFA0FFF7B1FA05E02946D6A0FFF7ACFADD
:101D9000012700BF00202049087000231A46194679
:101DA0001448006803F03EFF3846FBE6EF01FFFFF2
:101DB000FFFF010003010005EF01FFFFFFFF01002E
:101DC0000402010008000000EF01FFFFFFFF010017
:101DD0000402020009000000EF01FFFFFFFF010005
:101DE00003050009EF01FFFFFFFF010006060100E8
:101DF00000000000380000205B456E726F6C6C5D67
:101E0000204661696C656420746F20676574206D7D
:101E100075746578210D0A00660000205B456E72BE
:101E20006F6C6C5D2049443D2564202D2053746502
:101E30007020312F343A20506C6163652066696EE2
:101E4000676572206F6E2073656E736F722E2E2E13
:101E50000D0A00005B456E726F6C6C5D2047657407
:101E6000496D616765313A206E6F20726573706FDE
:101E70006E73652066726F6D206D6F64756C652181
:101E80000D0A00005B456E726F6C6C5D20576169D6
:101E900074696E6720666F722066696E6765722E60
:101EA0002E2E0D0A000000005B456E726F6C6C5D9B
:101EB00020476574496D61676531206661696C3AD8
:101EC00020636F64653D3078253032580D0A00007C
:101ED0005B456E726F6C6C5D2053746570203120B1
:101EE0004F4B202D2052656D6F76652066696E67B9
:101EF00065722E2E2E0D0A005B456E726F6C6C5D46
:101F0000205374657020322F343A2047656E657215
:101F10006174696E672074656D706C6174652E2ED6
:101F20002E0D0A005B456E726F6C6C5D2047656E0E
:101F30004368617231206661696C3A20636F646541
:101F40003D3078253032580D0A0000005B456E7236
:101F50006F6C6C5D20537465702032204F4B202DC8
:101F600020506C6163652066696E676572206167E9
:101F700061696E2E2E2E0D0A000000005B456E7208
:101F80006F6C6C5D20476574496D616765323A20FE
:101F90006E6F20726573706F6E7365210D0A00009D
:101FA0005B456E726F6C6C5D2057616974696E671A
:101FB00020666F722066696E67657220616761696D
:101FC0006E2E2E2E0D0A00005B456E726F6C6C5DDE
:101FD00020476574496D61676532206661696C3AB6
:101FE00020636F64653D3078253032580D0A00005B
:101FF0005B456E726F6C6C5D20537465702033208E
:102000004F4B202D2047656E65726174696E6720A5
:1020100074656D706C61746520322E2E2E0D0A0071
:102020005B456E726F6C6C5D2047656E43686172D4
:1020300032206661696C3A20636F64653D307825B3
:102040003032580D0A0000005B456E726F6C6C5D9B
:10205000205374657020342F343A204D65726769BF
:102060006E672074656D706C617465732E2E2E0D15
:102070000A0000005B456E726F6C6C5D20526567F4
:102080004D6F64656C206661696C3A20636F6465AE
:102090003D3078253032580D0A0000005B456E72E5
:1020A0006F6C6C5D2053746F72696E672066696E29
:1020B0006765727072696E742E2E2E0D0A00000014
:1020C0005B456E726F6C6C5D2053746F7265206639
:1020D00061696C3A20636F64653D30782530325811
:1020E0000D0A00005B456E726F6C6C5D20535543AA
:1020F00043455353212046696E6765722049443D2C
:10210000256420656E726F6C6C6564210D0A000099
:1021100000B587B00020039004900590069018A2A7
:1021200007CA8DE8070000235A1E194617480068A1
:1021300003F04AFC0C21684600F040F90C224FF4F1
:102140007A7103A800F052F860B911A0FFF7CCF83B
:1021500000231A4619460D48006803F063FD00206D
:1021600007B000BD9DF8151012A0FFF7BDF80023C1
:102170001A4619460548006803F054FD0120EFE7B0
:10218000EF01FFFFFFFF01000326002A38000020B7
:102190005B41533630385D2048616E647368616B13
:1021A000653A206E6F20726573706F6E73650D0AED
:1021B000000000005B41533630385D2048616E649A
:1021C0007368616B65204F4B2120636F6E66697287
:1021D0006D5F636F64653D3078253032580D0A00BD
:1021E00010B5C82000F01CF910BD0000F8B5054678
:1021F0000E4617460024002000900DE020211948CB
:10220000FEF7A1FF012803D11648FFF763F800E0AD
:1022100006E00098401C00900098B0F57A7FEDD35E
:1022200000BF0020009013E020210E48FEF78BFF36
:1022300001280AD10B48FFF74DF8C2B22046611CB5
:102240008CB22A54BC4200DB09E00098401C00908C
:1022500040F2712070430099B1EB401FE4D300BFFE
:10226000E0B2F8BD0044004070B594B005463CA211
:10227000D2E900109268CDE90A0209913BA30FCB85
:1022800005AC0FC414223DA16846FDF7F5FF0026FA
:102290000023642219463E48006803F095FB01289C
:1022A00002D0002014B070BD01263A48007800B179
:1022B00044E00C2109A800F081F80C224FF4FA71D7
:1022C0000CA8FFF793FF04460A2C02DB9DF83900A7
:1022D00000B133E00D2105A800F070F80C224FF496
:1022E000FA710CA8FFF782FF04460A2C02DB9DF866
:1022F000390000B122E01121684600F05FF8102299
:102300004FF4FA710CA8FFF771FF04460A2C02DBA8
:102310009DF8390000B111E09DF83B009DF83A109E
:1023200040EA012028809DF83F009DF83E3040EAB9
:102330000322298818A0FEF7D7FF00BF012E06D17F
:1023400000231A4619461248006803F06BFC0C2C57
:1023500004DB9DF8390008B90120A3E70020A1E7BC
:10236000EF01FFFFFFFF010003010005EF01FFFF89
:10237000FFFF01000402010008000000EF01FFFF61
:10238000FFFF0100080401000003E700F80000005F
:1023900038000020660000205B46696E6765725D4C
:1023A000204D61746368212049443D256420736396
:1023B0006F72653D25640D0A0000000070B505468A
:1023C0000E4600240CE000BF80210A48FEF7BBFE49
:1023D0000028F9D0295D0748FEF781FF601C84B210
:1023E000B442F0DB00BF40210248FEF7ACFE0028FB
:1023F000F9D070BD004400404FF0E020006920F0AB
:1024000004004FF0E02108616FF07F404861002038
:1024100088610846006940F00100086170470000CB
:102420002DE9F047074600264FF0E020D0F8149041
:10243000124800684FF47A71B0FBF1F000FB07F826
:102440004FF0E020856902F063FE11E04FF0E020DC
:102450008469AC420CD0AC4202D2281B064403E093
:10246000A9EB0400284406442546464500D300E075
:10247000ECE700BF03F006FFBDE8F0874401002051
:102480002DE9F047074600264FF0E020D0F81490E1
:10249000124800681249B0FBF1F000FB07F84FF05A
:1024A000E020856902F034FE11E04FF0E0208469FD
:1024B000AC420CD0AC4202D2281B064403E0A9EB8C
:1024C0000400284406442546464500D300E0ECE7D6
:1024D00000BF03F0D7FEBDE8F087000044010020F4
:1024E00040420F000448054A0168914202D1044A63
:1024F000416811607047000000000E080100FECA2C
:102500006800002001480068704700006800002053
:102510001CB50446FEF786F8F320FDF7DDFF022127
:102520005820FDF7DFFF0848009001940748009904
:10253000FEF750F80548001D0199FEF74BF8FEF72D
:102540003FF8034804601CBD0100FECA00000E08ED
:102550006800002070B504460D4600BF8021054884
:10256000FEF7F1FD0128F9D1A1B20248FEF7B7FE4E
:10257000204670BD0010014010B5002004490860DD
:102580003220FFF74DFF01200249C1F8A40210BD1F
:10259000A48242420080424210B500200A490870DD
:1025A0000A4908700A48006818B10948006802F032
:1025B00093FC0848006818B10648006802F08CFCDB
:1025C00005A0FEF791FE10BD400000204100002054
:1025D00004000020080000205B4B6579626F617287
:1025E000645D204D6F646520646561637469766124
:1025F000746564210D0A000010B5012009490870B6
:102600000948006818B10848006802F00FFD074843
:10261000006818B10548006802F008FD04A0FEF744
:1026200063FE10BD400000200400002008000020D0
:102630005B4B6579626F6172645D204D6F646520EC
:10264000616374697661746564210D0A000000009D
:102650001CB501215720FEF7B7FA01208DF80400C0
:1026600000208DF8060002208DF8050080200090E3
:1026700069461F48FDF7F9FF4FF400400090694696
:102680001C48FDF7F2FF4FF42070009069461A488D
:10269000FDF7EBFF00208DF8040001208DF8070006
:1026A0004020009069461248FDF7DFFF402000906F
:1026B00069461248FDF7D9FF4FF4807000906946D3
:1026C0000F48FDF7D2FF1020009069460C48FDF737
:1026D000CCFF80210648FEF73EF84FF40041054844
:1026E000FEF739F84FF420710348FEF734F81CBDAB
:1026F000000402400018024000080240001002409E
:10270000000002407FB5154B0FCB8DE80F00002471
:102710001FE0204601F07EFB002517E0284601F06F
:1027200053FB90B90F20FFF77BFE284601F04CFBCE
:1027300058B900BF284601F047FB0028FAD0684688
:1027400000EB8400405D04B070BD6D1C042DE5DB22
:10275000641C042CDDDB0020F5E700005C6A000847
:102760002548006840F0300023490860234800688D
:1027700020F47010214908600846006840F4A01059
:102780000860081D006820F4C060091D0860081D6D
:10279000006820F47010091D0860081D006820F40E
:1027A0007010091D086015481430006840F4C060BE
:1027B0001249143108601248006820F07050104926
:1027C00008600846006840F0A0500860084640686D
:1027D00020F4C04048600846806820F0705088604F
:1027E0000846C06820F07050C8600846406940F450
:1027F000C040486170470000303802400014024079
:10280000001002401CB54FF44070FEF77BF8FFF754
:10281000F3FDFFF7A5FFFFF71BFF00F075F801F0D0
:1028200041FAFFF7DDFCFFF75DFEFFF76BFE124993
:1028300008604FF4E13001F02DFB4FF4614001F0EE
:1028400097FB4FF4E13001F0F3FB0CA0FEF74CFDD9
:102850001248017812A0FEF747FD17480521002312
:102860004FF40072CDE9001014A1184803F070FB7A
:1028700002F092FB00BFFEE760000020536D617222
:102880007420446F6F72204C6F636B2053797374A4
:10289000656D205374617274210A00006500002088
:1028A00052433532322056657273696F6E3A20306A
:1028B00078253032580D0A00000000206170705FEA
:1028C0007461736B5F696E6974000000C91700085A
:1028D00070B5002415E004F1B001C8B2FEF71CF891
:1028E0000020FEF719F81020FEF716F8002504E086
:1028F0000020FEF725F8681CC5B2802DF8DB601CAF
:10290000C4B2082CE7DB70BD1CB501210220FEF724
:102910005BF901208DF804008DF806008DF80700A2
:1029200002208DF805004FF440700090694635484C
:10293000FDF79BFE4FF400713248FDF70CFF4FF49A
:1029400080713048FDF707FF3220FFF769FD7820DE
:1029500000F05AF87A2000F057F8AE20FDF7DCFFBF
:102960000A20FFF75DFDD520FDF7D6FF8020FDF79B
:10297000D3FFA820FDF7D0FF3F20FDF7CDFFD320E8
:10298000FDF7CAFF0020FDF7C7FF4020FDF7C4FF99
:102990008D20FDF7C1FF1420FDF7BEFF2020FDF7BD
:1029A000BBFF0220FDF7B8FFA120FDF7B5FFC8204F
:1029B000FDF7B2FFDA20FDF7AFFF1220FDF7ACFF05
:1029C0008120FDF7A9FFCF20FDF7A6FFD920FDF755
:1029D000A3FFF120FDF7A0FFDB20FDF79DFF4020C6
:1029E000FDF79AFFA420FDF797FFA620FDF794FFBF
:1029F000AF20FDF791FF6420FFF712FDFFF768FF9E
:102A00001CBD00000004024010B50446FDF7A6FE00
:102A10002046FDF70DFFFDF7C3FE012010BD0000AD
:102A20002DE9F04104468846174640E03E78202EC6
:102A300001DB7E2E00DD2026A6F12000C6B208F1C3
:102A4000B001C8B2FDF768FF04F00F00FDF764FFA6
:102A5000102101EB2410FDF75FFF002507E0164968
:102A600001EB0611485DFDF76BFF681CC5B2082D30
:102A7000F5DB08F1B101C8B2FDF74EFF04F00F001D
:102A8000FDF74AFF102101EB2410FDF745FF082553
:102A900007E0094901EB0611485DFDF751FF681C8D
:102AA000C5B2102DF5DB04F10800C4B27F1C3878E4
:102AB0000028BBD1BDE8F0816C64000830B591B04E
:102AC0003048007800285BD0002404E02E48005DE8
:102AD00001A90855641C2D480078844201D23F2C7E
:102AE000F4D3002001A9085540212748FDF7DDFB5C
:102AF0000020264908702349087001A924A0FEF788
:102B0000F3FB01AD002434E001A8005D2A2807D0C2
:102B100001A8005D0D2803D001A8005D0A2827D177
:102B2000002001A908552878F8B11CA12846FDF716
:102B3000C7FB78B11BA0FEF7D7FB00201D4908603A
:102B40000420009000230A2269461B48006803F015
:102B500069F80AE019A12846FDF7B2FB28B119A0CF
:102B6000FEF7C2FB01201349086001A82044451C60
:102B7000641C402C03D201A8005D0028C4D100BF12
:102B800011B030BD6F000020980100206E000020C1
:102B90005B576946695D2025730D0A00756E6C6F81
:102BA000636B00005769466920556E6C6F636B213B
:102BB0000D0A0000A4824242200000206C6F636B6B
:102BC0000000000057694669204C6F636B210D0AB5
:102BD0000000000038B59C480078002874D09BA104
:102BE0009C48FDF76DFB18B19BA0FEF77DFB20E133
:102BF0009DA19848FDF764FB78B19DA0FEF774FB9A
:102C00000020A24908600420009000230A2269469F
:102C10009F48006803F006F80BE19EA18D48FDF780
:102C20004FFB30B19DA0FEF75FFB01209749086084
:102C3000FFE0A1A18748FDF743FB18B1A1A0FEF773
:102C400053FBF6E0A7A18348FDF73AFBB8B1814CEE
:102C5000641D002505E014F8012B28466D1CA349CE
:102C60000A54207820B120782A2801D01F2DF2DBC9
:102C700000209E4948559EA0FEF736FBD9E0A1A151
:102C80007448FDF71DFBB8B1724C641D002505E0CA
:102C900014F8012B28466D1C9C490A54207820B159
:102CA00020782A2801D01F2DF2DB002097494855B3
:102CB00097A0FEF719FBBCE09AA16648FDF700FB60
:102CC00098B1644CE41C04E0BCE0207801F00AFAFE
:102CD000641C207810B120782A28F6D10D2001F04C
:102CE00001FA0A2001F0FEF9A3E08FA15948FDF78F
:102CF000E7FAA0B18FA0FEF7F7FA95A001F002FA6B
:102D00004FF4FA6001F0A6FF92A001F0FBF94FF436
:102D1000FA6001F09FFF91A0FEF7E6FA89E094A126
:102D20004C48FDF7CDFA10B102F05EFC81E092A1B3
:102D30004848FDF7C5FA28B191A0FEF7D5FAFFF78C
:102D4000E7F976E096A14348FDF7BAFA48B197A0B3
:102D5000FEF7CAFA9CA001F05FF9A0A0FEF7C4FA42
:102D600067E0A5A13B48FDF7ABFA80B1A548006834
:102D700018B9A5A0FEF7B8FA5BE0A2480068FFF713
:102D8000C7FBA0480168ABA0FEF7AEFA51E0B0A1C6
:102D90003048FDF795FA60B1B048006828B1AF48F7
:102DA0000168AFA0FEF7A0FA43E0B2A0FEF79CFADC
:102DB0003FE0B5A12748FDF783FA58B30125254C1C
:102DC00000E0641C207828B120783028F9DB2078D6
:102DD0003928F6DC2078302814DB2078392811DCFB
:102DE000002507E02078303805EB850100EB410035
:102DF00085B2641C2078302802DB20783928F1DD88
:102E000005B901252946A2A0FEF76EFA2846FEF76D
:102E100097FE0EE0A8A10F48FDF752FA28B1AAA02C
:102E2000FEF762FAFEF716FE03E00A49AEA0FEF7CF
:102E30005BFA40210748FDF738FA0020B0490870D6
:102E40000149087038BD00006D000020746573747E
:102E500000000000580100207465737420636F6DDA
:102E60006D616E64210A0000756E6C6F636B00000B
:102E7000426C7565746F6F746820556E6C6F636B10
:102E80002053756363657373210A0000A482424274
:102E9000200000206C6F636B00000000426C7565C1
:102EA000746F6F7468204C6F636B20537563636538
:102EB0007373210A0000000073796E635F66696EA8
:102EC0006765720053796E63696E672066696E6725
:102ED00065727072696E747320746F204150502E49
:102EE0002E2E0A0073736964200000007000002019
:102EF000576946692053534944207365743A202525
:102F0000730D0A00706173732000000090000020B0
:102F1000576946692050617373207365743A2025A0
:102F2000730D0A0061742000776966695F746573C8
:102F3000740000005769466920746573743A207301
:102F4000656E64696E672041542E2E2E0D0A0000B6
:102F50002B2B2B0041540D0A0000000057694669D5
:102F6000207465737420646F6E652E0D0A00000076
:102F7000776966690000000066696E676572000027
:102F800054657374696E672066696E6765727072E6
:102F9000696E74206D6F64756C652E2E2E0A0000AC
:102FA00075617274325F6563686F00005B554152F2
:102FB00054325D2054657374696E67206563686F71
:102FC0002E2E2E0D0A00000048656C6C6F20667274
:102FD0006F6D205541525432210D0A005B5541520C
:102FE00054325D204563686F207465737420646F8C
:102FF0006E652E0D0A000000736176655F63617275
:10300000640000005C0000204E6F20636172642049
:103010007363616E6E65642079657421205363610A
:103020006E206120636172642066697273742E0D74
:103030000A00000043617264202530385820736113
:1030400076656420746F20466C617368210D0A00F8
:1030500073686F775F636172640000006000002036
:10306000536176656420636172643A202530385874
:103070000D0A00004E6F20636172642073617665F3
:10308000642E0D0A00000000656E726F6C6C00000B
:10309000537461727420656E726F6C6C696E672018
:1030A00066696E6765727072696E742049443D2569
:1030B000642E2E2E0A000000636C6561725F6669E3
:1030C0006E67657200000000436C656172696E672F
:1030D00020616C6C2066696E6765727072696E74CF
:1030E000732E2E2E0A000000756E6B6E6F772063B4
:1030F0006F6D6D616E64203D2025730A0000000035
:103100006C0000202DE9F04105460E461C4807687A
:103110001C480068001D01F000F850B9194800680B
:1031200090F82C10012088401749096881431648FF
:103130000160681C38B936B112480168091D13488E
:1031400001F088FA1AE07C190E4800684460BC421D
:1031500007D20C480168091D0D48006801F060FAAB
:103160000CE008480168091D0A48006801F058FA97
:1031700009480068844201D207480460BDE8F08134
:10318000F8000020E4000020FC000020942F012023
:10319000EC000020E80000201401002010B50446D7
:1031A00001F004FB24480068401C234908602348C0
:1031B000006840B9214804600846006801280DD124
:1031C00000F0ECF90AE01E48006838B91B480068B6
:1031D000C06AE16A884201D818480460194800684A
:1031E000401C1849086008460068206494F82C10B8
:1031F0000120884014490968084313490860E16ABE
:1032000001EB8101114A02EB8100211D01F022FA3C
:1032100001F0F6FA0A48006868B108480068C06A18
:10322000E16A884207D24FF0805009490860BFF335
:103230004F8FBFF36F8F10BDF4000020E40000201B
:103240000001002010010020FC000020182E0120A9
:1032500004ED00E010B501F0A9FA10480068D0B9FB
:103260000F4801F0CDF90F4801F0CAF90C480E499A
:1032700008600C480D49086000220C210A2002F069
:1032800076FB064908600846006820B108A103489B
:10329000006801F0E1FB01F0B3FA10BD2801002045
:1032A000A82F0120BC2F0120200100202401002094
:1032B000546D72510000000070B523E001F028FF4A
:1032C0001348006808B9012000E00020054602F01C
:1032D000D9FFBDB901F06AFA0D48C068C468201D65
:1032E00000F01BFF0B480068401E0A4908600A48AE
:1032F0000068401E0849086001F082FA204600F08C
:1033000060F800BF044800680028D7D170BD0000F5
:10331000802F0120F4000020F000002070B504464A
:103320000D46206C70B1216CE0680844E060616873
:10333000E068884201D32068E0602846226CE1689A
:10334000FCF79AFF70BD2DE9F04104460F46154683
:103350004FF00008A66B206C40B9206860BB606825
:1033600002F0E0FE80460020606025E07DB939462D
:10337000226CA068FCF780FF216CA0680844A06064
:10338000D4E90110884217D32068A06014E03946C0
:10339000226CE068FCF770FF216CE068401AE06086
:1033A0002168E068884203D2216C6068401AE060BE
:1033B000022D01D106B1761E701CA0634046BDE807
:1033C000F08110B50446206B01F038FA204601F078
:1033D00035FA10BD0146084A126812680AB901227E
:1033E00000E000220A600A6822B9034A1268D26823
:1033F000106800E0002070472001002030B54FF435
:103400009633174800F007042CB1C01D20F00700C8
:10341000134C041B1B1B0246124C22600024114D4E
:103420006C60D018083820F007000F4C2060002492
:103430000D4D2D686C600C4D2D682C601146441AA2
:103440004C60094C24680C60084D4C682C60084D99
:103450004C682C604FF00044064D2C6030BD0000DD
:10346000D8010020C0000020C8000020D0000020AB
:10347000CC000020D400002000BFFFF71DFF06484D
:1034800000680128F9D94FF0805004490860BFF363
:103490004F8FBFF36F8FF0E7182E012004ED00E08F
:1034A00010B504464CB1002060602060E06000234D
:1034B0001A461946204602F0B5FB10BD2DE9F04131
:1034C00006460D4617469846069C0DB9246000E056
:1034D0002760E66325640121204602F057FB84F84B
:1034E0004C80BDE8F0812DE9F05F82460F469046A2
:1034F0009B460A9E0C9C4FEA8801A522206BFCF794
:10350000CDFEA8F10100216B01EB800929F007092C
:1035100009F0070008B9012000E0002050B900BF01
:10352000502080F31188BFF34F8FBFF36F8F00BF20
:1035300000BFFEE7002507E0795D04F13400415546
:10354000785D00B902E06D1C0A2DF5D300BF0021A3
:103550003D2001550F2E00D30E26E662A664002002
:10356000E064201D01F059F804F1180001F055F84D
:103570002461C6F10F00A06164620020206584F818
:1035800054005A465146484600F066FB20600B98AE
:1035900008B10B980460BDE8F09F000010B500244E
:1035A00007E004EB84010F4A02EB810001F028F8E8
:1035B000641C0F2CF5D30C4801F022F80B4801F0E5
:1035C0001FF80B4801F01CF80A4801F019F80A48E6
:1035D00001F016F8044809490860044808490860E1
:1035E00010BD0000182E0120442F0120582F01206B
:1035F0006C2F0120802F0120942F0120E800002053
:10360000EC00002010B50146164800E00068036891
:103610008B42FBD30246436813448B4204D1436878
:103620004C682344436001460A464B6813440468CF
:10363000A34211D10C4C03682468A34208D04B6804
:103640000468646823444B6003681B680B6005E0F2
:10365000054B1B680B6001E003680B60884200D0DB
:10366000016010BDC0000020C80000202DE9F0411D
:1036700004460D4616461F464FF00008656024615B
:10368000B5420CD8F01BA169884202D34FF0010863
:1036900011E0211D0948006800F0C2FF0BE0BE42A6
:1036A00004D2BD4202D34FF0010804E0211D0448BA
:1036B000006800F0B5FF4046BDE8F081240100201D
:1036C0002001002070B5054601F070F8A86B08B91C
:1036D000012400E0002401F093F8204670BD70B58D
:1036E000054601F063F8A86BE96B884201D101241B
:1036F00000E0002401F084F8204670BDF8B50546CE
:103700000F4616480068C068C468201D00F005FD1B
:10371000E06901281DD1A06941192B463A4620468F
:10372000FFF7A4FFA8B1002003462A4601460090F7
:10373000204602F055FE064656B900BF502080F3E1
:103740001188BFF34F8FBFF36F8F00BF00BFFEE73D
:1037500000BF2046616A8847F8BD000020010020B4
:1037600070B586B06AE00398002867DB059C606945
:1037700008B9012000E0002010B9201D00F0CDFCA8
:1037800002A800F0BDF8054603980A2854D2DFE8E5
:1037900000F009050731334F0608323400BF00BF7F
:1037A00000BF00BF0498A269811803462A4620463C
:1037B000FFF75CFFE8B12046616A8847E0690128AD
:1037C00017D1002000900498A169421800231946DF
:1037D000204602F005FE064656B900BF502080F391
:1037E0001188BFF34F8FBFF36F8F00BF00BFFEE79D
:1037F00000BF22E000BF20E000BF0498A061A069E4
:1038000008B1012000E0002050B900BF502080F333
:103810001188BFF34F8FBFF36F8F00BF00BFFEE76C
:10382000A06941192B462A462046FFF71FFF04E0F6
:10383000204601F003F800E000BF00BF00231A4655
:1038400003A90448006802F0BFF800288BD106B035
:1038500070BD000028010020F8B505460C4601F0B7
:1038600057FC684600F04CF80646009820BB44B967
:10387000B54206D802F006FD31462846FFF73EFF66
:103880001CE03CB10E480068006808B9012000E067
:1038900000200446A91B22460A48006801F0F2F8FD
:1038A00002F0F0FC50B94FF0805007490860BFF3B8
:1038B0004F8FBFF36F8F01E002F0E4FCF8BD000012
:1038C000240100202801002004ED00E00A490968D5
:1038D000096809B9012100E0002121B14FF0FF3151
:1038E000064A116006E004490968C968C868034AC5
:1038F0004168116070470000E800002014010020BA
:1039000070B5044602F064FB05460748006885422E
:1039100004D200F00BF80120206001E000202060BC
:1039200001480560284670BD300100202DE9F843AC
:1039300032E024480068C068056822480068C06812
:10394000C468201D00F0E9FB2046616A8847E069F1
:10395000012821D1A0694619AE4207D966602461C9
:10396000211D1848006800F05BFE15E000200346AA
:103970002A4601460090204602F032FD074657B91C
:1039800000BF502080F31188BFF34F8FBFF36F8FBC
:1039900000BF00BFFEE700BF0A480068006808B922
:1039A000012000E000200028C3D00648D0F80080A5
:1039B00005480068034908600348C0F80080BDE876
:1039C000F883000020010020240100200E48006838
:1039D000401C08B9012000E0002050B900BF502071
:1039E00080F31188BFF34F8FBFF36F8F00BF00BF0D
:1039F000FEE700BF502080F31188BFF34F8FBFF365
:103A00006F8F00BF00BFFEE7D800002010B5024650
:103A10000020114652B900BF502383F31188BFF331
:103A20004F8FBFF36F8F00BF00BFFEE70B4C4B699A
:103A3000A34201D1012300E0002373B1084C8B6A3B
:103A4000A34201D1012300E0002333B98B6A0BB9F3
:103A5000012300E0002303B1012010BD942F0120B9
:103A60006C2F012008B500BF6846FFF7B3FC044681
:103A700020460099FFF7F0FEFFF772FEF4E770B5FD
:103A8000044600F093FE94F9455010E0606A08B9CE
:103A9000012000E0002038B904F1240002F0A6FB68
:103AA00018B101F07FF900E003E0681E45B2002D77
:103AB000ECDC00BFFF2084F8450000F0A1FE00F020
:103AC00075FE94F9445010E0206908B9012000E027
:103AD000002048B904F1100002F088FB08B101F0A1
:103AE00061F9681E45B200E001E0002DECDC00BF8A
:103AF000FF2084F8440000F083FE70BD2DE9F04102
:103B000004464FF0000801F003FB4648006808B97E
:103B1000FFF774FC44480068204000286BD1D4B102
:103B2000083404F00700B0B104F00700C0F1080049
:103B3000044404F0070008B9012000E0002050B957
:103B400000BF502080F31188BFF34F8FBFF36F8FFA
:103B500000BF00BFFEE7002C4DD03448006884420F
:103B600049D8334E3046056801E02E462D68686816
:103B7000A04202D228680028F7D12A48006885426E
:103B800039D0306800F10808286830606868001B88
:103B9000102819D92F1907F0070008B9012000E0F3
:103BA000002050B900BF502080F31188BFF34F8F21
:103BB000BFF36F8F00BF00BFFEE76868001B78602F
:103BC0006C603846FFF71EFD184968680968081AD6
:103BD000164908600846006816490968884203D2F9
:103BE00012480068134908600F496868096808436B
:103BF00068600020286002F045FB08F0070008B963
:103C0000012000E0002050B900BF502080F311884F
:103C1000BFF34F8FBFF36F8F00BF00BFFEE740467B
:103C2000BDE8F081C8000020D4000020CC000020B6
:103C3000C0000020D00000200648006830B10549CF
:103C4000096801F14C00C96C491C01600148006819
:103C500070470000E4000020001F4FF080730360F5
:103C6000001F21F001030360001F054B036014389F
:103C70000260001F6FF002030360203870470000ED
:103C8000CD39000808B50021009102E00099491CD7
:103C9000009100EB4001C1EBC011009AB2EB811F13
:103CA000F4D308BD1CB501210C20FCF78DFF0120C9
:103CB0008DF8040000208DF8060001208DF8070023
:103CC00003208DF805004020009069462A48FCF743
:103CD000CCFCC020009069462848FCF7C6FC4FF495
:103CE0000060009069462448FCF7BFFC00208DF876
:103CF000040001208DF8070003208DF805004FF423
:103D00008070009069461C48FCF7AFFC80211B487E
:103D1000FCF721FD40211848FCF71DFD4021174804
:103D2000FCF717FD4FF400611348FCF714FD322037
:103D3000FFF7A8FFFCF78AFE8D212A20FCF72EFF53
:103D40003E212B20FCF72AFF1E212D20FCF726FF09
:103D500000212C20FCF722FF40211520FCF71EFF3C
:103D60003D211120FCF71AFFFCF7FEFD3720FCF780
:103D700037FE034908701CBD00080240000C0240D9
:103D8000650000203EB5044669462620FCF742FE49
:103D900005460DB100203EBD01A8FCF7F2FD054629
:103DA0000DB10020F7E79DF8040000069DF805100E
:103DB00040EA01409DF8061040EA01209DF80710F6
:103DC000084320600120E6E710B5044624B94021ED
:103DD0000D48FCF7B5FC10BD012C04D140210B4867
:103DE000FCF7AEFCF7E7022C04D1E1010848FCF730
:103DF000A7FCF0E7032C04D110210548FCF7A0FC38
:103E0000E9E70120E7E7000000040240001002405B
:103E10000000024010B5044680211448FCF79BFCCA
:103E20004FF400411248FCF796FC4FF42071114802
:103E3000FCF791FC24B980210C48FCF78AFC14E0C3
:103E4000012C04D1E1030A48FCF783FC0DE0022CAD
:103E500004D180210748FCF77CFC06E0032C04D148
:103E60004FF400710348FCF774FC10BD00040240DD
:103E7000001802400008024008B50020009004E04D
:103E8000BDF80000401C80B20090BDF80000322850
:103E9000F6DB08BD10B588B0044601214120FCF7CF
:103EA00093FE01211020FCF7AFFE01208DF81C00CD
:103EB00000208DF81E004FF48070069000208DF8D1
:103EC0001F0002208DF81D0006A92648FCF7CDFB37
:103ED00002208DF81C0000208DF81E004FF4C060F9
:103EE000069000208DF81F0002208DF81D0006A905
:103EF0001D48FCF7BAFB072209211B48FCF7FDFB14
:103F000007220A211848FCF7F8FB02940020ADF8BC
:103F10000C00ADF81000ADF80E000C20ADF812004A
:103F20000020ADF8140002A91048FDF769F901223C
:103F300040F225510D48FDF73DF925208DF804008C
:103F400001208DF8050002208DF8060001208DF873
:103F5000070001A8FCF79AFC01210448FDF7E7F8E7
:103F600008B010BD001802400000024000100140DF
:103F700010B586B0044601210846FCF725FE012154
:103F80004804FCF731FE02208DF8140000208DF863
:103F900016000C20049001208DF8170002208DF8E7
:103FA000150004A91248FCF760FB07220221104803
:103FB000FCF7A3FB072203210D48FCF79EFB0094AE
:103FC0000020ADF80400ADF80800ADF806000C20A4
:103FD000ADF80A000020ADF80C0069460548FDF771
:103FE0000FF901210348FDF7A2F806B010BD00004B
:103FF000000002400044004010B5044600BF80218C
:104000000448FDF7A0F80128F9D121460148FDF741
:1040100066F910BD0044004010B5044603E014F8F2
:10402000010BFFF7E9FF20780028F8D110BD000050
:1040300010B588B0044601210220FCF7C5FD01211E
:104040008804FCF7D1FD02208DF81C0000208DF8BB
:104050001E004FF44060069000208DF81F000220E3
:104060008DF81D0006A91D48FCF7FFFA07220A215A
:104070001A48FCF742FB07220B211848FCF73DFBCE
:1040800002940020ADF80C00ADF81000ADF80E0061
:104090000C20ADF812000020ADF8140002A9104861
:1040A000FDF7AEF8012240F225510D48FDF782F8E8
:1040B00027208DF8040008208DF8050002208DF8D7
:1040C000060001208DF8070001A8FCF7DFFB0121A5
:1040D0000348FDF72CF808B010BD000000040240B2
:1040E0000048004010B5044600BF80210448FDF799
:1040F0002AF80128F9D121460148FDF7F0F810BD52
:104100000048004010B5044603E014F8010BFFF727
:10411000E9FF20780028F8D110BD01460A69D1E9ED
:1041200001309860D1E9010358605068884201D19C
:1041300088685060002008611068401E1060106898
:10414000704700001CB5002001900120009000BFC6
:104150001348007818B1002000F068FFF8E701A8C4
:10416000FEF782F8B0B1BDF804100EA0FDF7BCF860
:1041700000230A2269461148006801F053FD00201F
:104180000F4908604FF4FA60FEF74AF901200D4923
:10419000C1F8A4024FF4FA7000F05CFDD8E700000B
:1041A0004000002046696E67657220556E6C6F6333
:1041B0006B212049443A2025640D0A00200000208C
:1041C000A48242420080424286B00024002600BF02
:1041D00000235A1E05A99C48006801F0F5FB012840
:1041E0007ED1FEF7C9F99DF814002A280CD13EB102
:1041F00096A0FDF779F800209C490870002602E09F
:10420000FEF7CAF90024E3E79948007810B9FEF7F1
:10421000F3F9002406B1DBE79DF81400312807D13B
:10422000002C02DD601EC4B200E00224914804703C
:104230009DF81400322807D1022C02DA601CC4B2A7
:1042400000E000248B4804709DF81400232876D1E8
:1042500001260120854908700023821E19468648E0
:10426000006801F0B1FBF0B1FEF732FB83A2002140
:104270000846FEF7D5FB844850F824200221002090
:10428000FEF7CEFB81A204210020FEF7C9FB83A22A
:1042900006210020FEF7C4FB00231A461946764883
:1042A000006801F0BFFC784850F824107EA0FDF7AC
:1042B0001BF88DF80C4042F21070049000235A1E37
:1042C00003A98248006801F0ADFC002342F6E062D9
:1042D00002A97F48006801F077FB01283FD100E088
:1042E000B1E00023821E19466348006801F06CFBB0
:1042F000002854D0FEF7ECFA9DF80900B0B175A281
:1043000002210020FEF78CFB5F4850F8241074A0B7
:10431000FCF7EAFF00207C4908604FF4FA6000F0E7
:1043200099FC01207949C1F8A40210E078A2022189
:104330000020FEF775FB544850F8241000E03DE0E3
:1043400075A0FCF7D1FF4FF47A7000F083FC0023D6
:104350001A4619464848006801F064FC1FE0002333
:104360005A1E19464448006801F02EFB68B1FEF75A
:10437000AFFA73A202210020FEF752FB00231A4677
:1043800019463D48006801F04DFC3F4850F82410A4
:104390006EA0FCF7A9FF4FF47A7000F05BFC0026DA
:1043A00000203249087000BF00231A4601A92648A0
:1043B000006801F009FB0128F6D000BF002E42D1B1
:1043C00000235A1E19462C48006801F0FDFAD0B3AC
:1043D000FEF77EFA67A200210846FEF721FB0025C2
:1043E00028E0A54212D1022000EB4500C1B265A22F
:1043F0000020FEF715FB644850F82520022000EB52
:104400004500C1B20820FEF70BFB11E0022000EBD3
:104410004500C1B25DA20020FEF702FB5A4850F8E9
:104420002520022000EB4500C1B20820FEF7F8FA73
:10443000681CC5B2032DD4DB00231A4619460E486A
:10444000006801F0EFFBC3E6280000205B4B6579B4
:10445000626F6172645D20556E6C6F636B20636187
:104460006E63656C6C6564210D0A000042000020DB
:1044700040000020410000203400002053656C659E
:10448000637465643A00000050000020457865635D
:104490007574696E672E2E2E000000002A20746F3E
:1044A0002063616E63656C005B4B6579626F61725E
:1044B000645D205374617274696E6720756E6C6FF1
:1044C000636B3A2025730D0A000000002C000020C9
:1044D0003000002053554343455353210000000052
:1044E0005B4B6579626F6172645D20556E6C6F63C2
:1044F0006B205355434345535321204D6F64653A18
:104500002025730D0A000000A4824242008042422E
:104510004641494C454421005B4B6579626F6172AD
:10452000645D20556E6C6F636B204641494C454479
:1045300021204D6F64653A2025730D0A00000000AC
:1045400054494D454F555421000000005B4B65799F
:10455000626F6172645D20556E6C6F636B205449AD
:104560004D454F555421204D6F64653A2025730DFC
:104570000A00000053656C656374204D6F64653AF2
:10458000000000003E000000440000202000000069
:1045900008B500BFFEF7B6F800909DF8000010B314
:1045A0001348007888B100230A2269461148006840
:1045B00001F038FB10480078A8B100230A226946B0
:1045C0000E48006801F02EFB0DE000230A22694628
:1045D0000A48006801F026FB00230A2269460548C4
:1045E000006801F01FFB642000F034FBD2E70000FC
:1045F000400000202800002042000020240000206D
:1046000000F1080141604FF0FF31816000F10801C5
:10461000C1600161002101607047002101617047A4
:1046200010B502460B685C1C0CB9106907E002F17A
:10463000080000E04068446824689C42FAD9446855
:104640004C604C68A160886041600A611468641C19
:10465000146010BD42684A6093688B60936859602B
:104660009160086103685B1C0360704708B500BF78
:1046700000235A1E69463048006801F0A5F9012858
:1046800058D12E48007800B1F2E700235A1E19468F
:104690002B48006801F098F900284BD0FEF718F974
:1046A0000098012805D127A200210846FEF7B8F995
:1046B00010E00098022805D125A200210846FEF747
:1046C000AFF907E00098032804D125A2002108468D
:1046D000FEF7A6F900231A4619461948006801F0AA
:1046E000A1FA4FF4FA6000F0B5FA00235A1E1946F9
:1046F0001348006801F068F9E0B1FEF7E9F81BA281
:1047000000210846FEF78CF91CA202210020FEF7CA
:1047100087F91DA204210020FEF782F91FA20621BD
:104720000020FEF77DF900231A4619460448006868
:1047300001F078FA9CE700002000002040000020F3
:104740003400002046696E676572204F4B210000DF
:1047500050617373776F7264204F4B21000000002B
:1047600052464944204F4B21000000005379737496
:10477000656D20526561647921000000312D55700E
:1047800020322D446F776E00232D436F6E66697261
:104790006D202A2D45786974000000005761697406
:1047A00020556E6C6F636B2E2E2E000000BF5020C4
:1047B00080F31188BFF34F8FBFF36F8F00BF0E4898
:1047C0000068401C0C49086008460068012812D1A6
:1047D0000A480068C0B208B9012000E0002050B9C2
:1047E00000BF502080F31188BFF34F8FBFF36F8F4E
:1047F00000BF00BFFEE77047D800002004ED00E0D6
:104800000D48006850B900BF502080F31188BFF3F5
:104810004F8FBFF36F8F00BF00BFFEE706480068F1
:10482000401E054908600846006820B9002080F352
:10483000118800BF00BF7047D800002070B5064641
:104840003546002E3FD0083D2C461F496068096858
:10485000084008B1012000E0002050B900BF5020FE
:1048600080F31188BFF34F8FBFF36F8F00BF00BF7E
:10487000FEE7206808B9012000E0002050B900BF21
:10488000502080F31188BFF34F8FBFF36F8F00BFAD
:1048900000BFFEE70C4960680968084098B12068CD
:1048A00088B90949606809688843606000F030FC95
:1048B0000649606809680844044908602046FEF714
:1048C000A1FE01F0DFFC70BDD4000020CC00002070
:1048D000064800684FF47A71B0FBF1F0401E4FF0CB
:1048E000E021486107200861704700004401002072
:1048F00070B5FBF7ABFC0446102C16D304F1E02096
:1049000090F8F05315480078854201DB012000E063
:10491000002050B900BF502080F31188BFF34F8FA3
:10492000BFF36F8F00BF00BFFEE70D48006800F4C3
:10493000E0600C490968884201D8012000E00020AD
:1049400050B900BF502080F31188BFF34F8FBFF3E1
:104950006F8F00BF00BFFEE770BD0000DC000020CD
:104960000CED00E0E000002088B0142103A8FBF764
:104970009CFC00240220019000BF2648007818B15A
:10498000002000F053FBF8E700235A1E02A922483A
:10499000006801F019F801283AD19DF80800232891
:1049A0002DD1002003A908551C48016803A8FBF776
:1049B00087FC28B91A48016803A8FBF781FCA8B155
:1049C00018A0FCF791FC00230A2201A91A480068EC
:1049D00001F028F90020194908604FF4FA6000F04E
:1049E00039F901201649C1F8A40202E015A0FCF72C
:1049F0007BFC142103A8FBF758FC002408E0102CD2
:104A000006DA9DF808202046611CCCB203A90A549E
:104A1000B3E7000040000020240000206464000888
:104A20006864000850617373776F726420556E6C10
:104A30006F636B210D0A000020000020A482424217
:104A40000080424250617373776F726420457272C6
:104A50006F72210D0A000000024600200BE0084B97
:104A600053F8303033B9064B43F8301003EBC00332
:104A70005A6002E0401C0828F1D300BF70470000D4
:104A8000D82D01202DE9F04105460E4617462C464B
:104A9000FFF78CFE94F94400401C10B9002084F804
:104AA000440094F94500401C10B9002084F84500EA
:104AB000FFF7A6FEA06B28B93A46314604F1240060
:104AC00000F092F92046FEF7DAFFBDE8F081000021
:104AD0001CB5002001900320009000BF0023642239
:104AE00019462648006800F06FFF012840D101A850
:104AF000FFF748F9002834D021490198086021487F
:104B0000007820B120A00199FCF7EEFB29E02AA053
:104B10000199FCF7E9FB2D48006818B92CA0FCF7B7
:104B2000E3FB1EE0294901980968884216D137A0A5
:104B30000199FCF7D9FB00230A2269463A4800682C
:104B400001F070F80020394908604FF4FA6000F075
:104B500081F801203649C1F8A40202E035A0FCF733
:104B6000C3FB00231A4619460448006801F05AF8AE
:104B70004FF4967000F06EF8B0E700003C000020A3
:104B80005C000020400000205B524649445D204309
:104B900061726420646574656374656420286B6564
:104BA00079626F617264206D6F6465293A202530E7
:104BB00038580D0A000000005246494420436172F3
:104BC000643A20253038580D0A00000060000020AB
:104BD0004E6F20636172642073617665642079652D
:104BE000742E2053656E642027736176655F636160
:104BF00072642A2720746F20736176652074686957
:104C00007320636172642E0D0A000000524649440D
:104C100020556E6C6F636B2120436172643A2025CE
:104C20003038580D0A00000020000020A4824242C3
:104C300000804242524649442044656E69656421C1
:104C400020556E6B6E6F776E20636172642E0D0A55
:104C50000000000070B504460025D4B11248006879
:104C600008B9012000E0002050B900BF502080F3B7
:104C70001188BFF34F8FBFF36F8F00BF00BFFEE7F8
:104C800000F046FA00212046FEF73CFA01F0FAFA5D
:104C900005463DB94FF0805004490860BFF34F8F7F
:104CA000BFF36F8F70BD00001C01002004ED00E019
:104CB00070B50546FFF77AFD15B93048006800E089
:104CC00028460446201DFFF728FA78B9E06A00EB71
:104CD00080002B4951F8200040B994F82C10012095
:104CE000884028490968814326480160A06A18B1B4
:104CF00004F11800FFF711FA23480068401C22490C
:104D000008601E480068844209D1211D1F48FFF732
:104D1000A1FC1F480068401C1D49086009E01D48AF
:104D20000068401E1B4908602046FEF74AFBFEF75C
:104D3000CDFDFFF765FD18480068E8B10F48006831
:104D4000844219D11548006808B9012000E000200C
:104D500050B900BF502080F31188BFF34F8FBFF3CD
:104D60006F8F00BF00BFFEE74FF080500C49086016
:104D7000BFF34F8FBFF36F8F70BD0000E4000020C2
:104D8000182E0120FC00002010010020802F01209F
:104D9000F0000020F4000020000100201C01002091
:104DA00004ED00E00120014908607047080100207F
:104DB00070B504460D4654B900BF502080F31188E9
:104DC000BFF34F8FBFF36F8F00BF00BFFEE70548F3
:104DD000016818312046FFF723FC01212846FEF721
:104DE00091F970BDE400002070B505460E461446EA
:104DF00055B900BF502080F31188BFF34F8FBFF328
:104E00006F8F00BF00BFFEE70648016818312846D3
:104E1000FFF720FC0CB14FF0FF3621463046FEF77D
:104E200071F970BDE400002070B505462C46002DD8
:104E30004BD02649E06A0968C96A884245D2A06910
:104E400000F0004028B921480068C06AC0F10F0096
:104E5000A061E16A01EB81011D4A02EB81016069F9
:104E6000884201D1012000E0002050B3201DFFF74F
:104E700054F978B9E06A00EB8000154951F8200038
:104E800040B994F82C1001208840124909688143E8
:104E9000104801600D480068C06AE06294F82C1068
:104EA000012088400B49096808430A490860E16A03
:104EB00001EB8101064A02EB8100211DFFF7CAFBCD
:104EC00003E002480068C06AE06270BDE4000020B0
:104ED000182E0120FC00002070B505462C4655B95F
:104EE00000BF502080F31188BFF34F8FBFF36F8F47
:104EF00000BF00BFFEE774B31748006884422AD0A1
:104F0000FFF754FC2046FEF781FD10B3201DFFF78C
:104F100004F994F82C1001208840104909680843CE
:104F20000E490860E16A01EB81010D4A02EB810044
:104F3000211DFFF78FFB0849E06A0968C96A8842AA
:104F400007D34FF0805007490860BFF34F8FBFF37E
:104F50006F8FFFF755FC70BDE4000020FC000020BF
:104F6000182E012004ED00E050B900BF502181F35C
:104F70001188BFF34F8FBFF36F8F00BF00BFFEE7F5
:104F800003490968016003490968416070470000EE
:104F90000C010020F80000201CB51D4800210B4624
:104FA0008222CDE900101BA11C4800F0D1FF04466D
:104FB000012C02D101F0E8F90446012C15D100BF03
:104FC000502080F31188BFF34F8FBFF36F8F00BF66
:104FD0004FF0FF301249086001201249086000209C
:104FE0001149086000F014FC10E0601C08B10120B9
:104FF00000E0002050B900BF502080F31188BFF3BB
:105000004F8FBFF36F8F00BF00BFFEE71CBD0000D6
:105010001801002049444C45000000007934000884
:105020001401002000010020F800002070B50546A2
:10503000FFF7BCFB15B92E48006800E0284604467F
:10504000201DFFF76AF878B9E06A00EB8000294973
:1050500051F8200040B994F82C10012088402649CE
:105060000968814324480160A06A18B104F118005E
:10507000FFF753F8211D2148FFF7ECFAFFF7C0FBBB
:105080001F48006828B1FFF791FBFEF71FFCFFF7F0
:10509000B7FB17480068844229D119480068D0B18D
:1050A0001848006808B9012000E0002050B900BF8E
:1050B000502080F31188BFF34F8FBFF36F8F00BF75
:1050C00000BFFEE74FF080500F490860BFF34F8FDD
:1050D000BFF36F8F0BE0094800680C4909688842EC
:1050E00003D100200249086001E000F019F870BD0A
:1050F000E4000020182E0120FC000020942F012045
:10510000000100201C01002004ED00E0F40000205C
:1051100002480068401C0149086070471C010020DB
:105120001D48006818B101201C49086032E00020C9
:105130001A4908601A480068B0FA80F0C0F11F01EF
:1051400001EB8100174A52F8200008B1012000E06D
:10515000002050B900BF502080F31188BFF34F8F5B
:10516000BFF36F8F00BF00BFFEE701EB81020D4B65
:1051700003EB820042685268426000F10802436813
:10518000934202D14268526842604268D268064B3C
:105190001A6000BF704700001C01002008010020B9
:1051A000FC000020182E0120E400002000BFFDF7C5
:1051B00011FDFDF783FC3220FFF74CFDF7E70000FF
:1051C0008CB000200890142103A8FBF76EF800248F
:1051D0000020019000BF00235A1E0AA97E480068E3
:1051E00000F0F2FB0128F6D19DF828008DF824008C
:1051F00000208DF825009DF8280020B1012827D037
:10520000022824D184E075A0FCF76EF800F0E0FEDF
:10521000054610E008A8FDF727F840B1BDF82010BA
:1052200079A0FCF761F801208DF825000EE04FF41D
:105230009670FFF70FFD00F0CBFE411B4FF47A7222
:105240000B985043B0FBF2F08142E3D300BFB3E0D0
:1052500076A0FCF749F8142103A8FBF726F80024F0
:1052600000F0B6FE054600BF00231A4602A97A48A0
:10527000006800F0A9FB0128F6D03CE0002364227E
:1052800002A97548006800F09FFB012833D19DF802
:105290000800232819D1002003A908556F48016888
:1052A00003A8FBF70DF828B96D48016803A8FBF7C0
:1052B00007F830B16BA0FCF717F801208DF8250036
:1052C00002E071A0FCF710F820E09DF808002A2801
:1052D00003D176A0FCF708F818E0102C0BDA9DF843
:1052E00008202046611CCCB203A90A549DF808107E
:1052F00079A0FBF7F9FF00F06BFE411B4FF47A72C7
:105300000B985043B0FBF2F08142B7D300BF53E09B
:1053100078A0FBF7E9FF00F05BFE05463FE00023C5
:10532000642219467D48006800F04EFB012833D105
:1053300001A8FEF727FD002827D0794901980860C9
:1053400078A00199FBF7D0FF7F48006858B17E49EB
:1053500001980968884206D17CA0FBF7C5FF0120AF
:105360008DF8250009E07848006818B97FA0FBF7A0
:10537000BBFF02E085A0FBF7B7FF00231A461946E2
:105380006648006800F04EFC14E000231A461946F7
:105390006248006800F046FCC820FFF75BFC00F0A4
:1053A00017FE411B4FF47A720B985043B0FBF2F09A
:1053B0008142B4D300BF00BF00BF00235A1E09A919
:1053C0007B48006800F02EFC9DF825209DF82410F5
:1053D00078A0FBF789FFFEE62C0000205B556E6C81
:1053E0006F636B457865635D2045786563757469A7
:1053F0006E672046696E67657220756E6C6F636BB1
:105400002E2E2E0D0A0000005B556E6C6F636B45EF
:105410007865635D2046696E67657220666F756E9C
:1054200064212049443A2025640D0A005B556E6CC6
:105430006F636B457865635D204578656375746956
:105440006E672050617373776F726420756E6C6F36
:10545000636B2E2E2E0D0A002400002064640008C9
:10546000686400085B556E6C6F636B457865635DBF
:105470002050617373776F726420636F727265631B
:1054800074210D0A000000005B556E6C6F636B4564
:105490007865635D2050617373776F726420696E05
:1054A000636F7272656374210D0A00005B556E6C48
:1054B0006F636B457865635D2050617373776F72BE
:1054C0006420696E7075742063616E63656C6C65D1
:1054D00064210D0A000000005B556E6C6F636B4524
:1054E0007865635D20496E7075743A2025630D0AF6
:1054F000000000005B556E6C6F636B457865635D03
:1055000020457865637574696E672052464944206A
:10551000756E6C6F636B2E2E2E0D0A003C00002002
:105520005C0000205B556E6C6F636B457865635D56
:1055300020436172642064657465637465643A2015
:10554000253038580D0A0000600000205B556E6C55
:105550006F636B457865635D2043617264206D61A4
:105560007463686564210D0A000000005B556E6C71
:105570006F636B457865635D204E6F206361726475
:10558000207361766564210D0A0000005B556E6C26
:105590006F636B457865635D2043617264206E6F55
:1055A00074206D617463686564210D0A0000000059
:1055B000300000205B556E6C6F636B457865635DF2
:1055C00020556E6C6F636B20726573756C743A2036
:1055D0006D6F64653D25642C20737563636573731B
:1055E0003D25640D0A00000000B5C1B02DA0FBF7F9
:1055F0007BFE32A000F0F6F840F2DC50FFF72AFB09
:105600002FA000F0EFF84FF4FA612FA000F0D2F8CD
:105610002EA000F0E7F84FF4FA612BA000F0CAF8D2
:105620002F48304B30A24FF48071009001A8FBF757
:105630006BFE01A800F0D6F82A4932A0FBF754FE11
:1056400042F2107120A000F0B5F820B134A0FBF7B1
:105650004BFE41B000BD36A24FF4807101A8FBF7AC
:1056600053FE01A800F0BEF83BA0FBF73DFE42F25E
:1056700010713EA000F09EF818B13EA0FBF734FE7A
:10568000E7E73FA000F0AEF840F6B8310EA000F01A
:1056900091F83FA000F0A6F841A0FBF725FE00BF5F
:1056A000D7E70000576946692073657475702073E9
:1056B000746172742E2E2E0D0A0000002B2B2B000D
:1056C000415445300D0A00004F4B000041542B431C
:1056D000574D4F44455F4355523D310D0A00000080
:1056E000900000207000002041542B43574A415045
:1056F0005F4355523D222573222C222573220D0A29
:10570000000000005769466920636F6E6E65637420
:10571000696E673A202573202E2E2E0D0A00000098
:1057200057694669204641494C210D0A0000000096
:1057300041542B43495053544152543D22544350F9
:10574000222C2231302E3134392E35352E39362265
:105750002C383030300D0A0054435020636F6E6E89
:10576000656374696E672E2E2E0D0A00434F4E4EF0
:1057700045435400544350204641494C210D0A00F2
:1057800041542B4349504D4F44453D310D0A0000D3
:1057900041542B43495053454E440D0A000000002C
:1057A0005769466920736574757020646F6E652152
:1057B0000D0A000070B504460D4600260AE0214699
:1057C0000748FAF77DFD08B1002070BD0120FFF702
:1057D00041FA761CAE42F2D34FF0FF30F5E70000FD
:1057E0009801002010B5044640210648FAF75DFDF7
:1057F000002005490870054908702046FEF782FC24
:1058000010BD0000980100206E0000206F000020F5
:105810001CB5474800684749884201D0012000E094
:10582000002050B900BF502080F31188BFF34F8F84
:10583000BFF36F8F00BF00BFFEE73D4800683D49E2
:10584000491E884201D0012000E0002050B900BF6D
:10585000502080F31188BFF34F8FBFF36F8F00BFCD
:1058600000BFFEE73449084600780190FF200A4651
:1058700010700846007800909DF8000000F0F000DD
:105880009DF80020904201D1012000E0002050B995
:1058900000BF502080F31188BFF34F8FBFF36F8F8D
:1058A00000BF00BFFEE79DF8000000F05000234A53
:1058B00010700720224A106009E021480068401E4D
:1058C0001F4A10609DF800004006000E00909DF8F1
:1058D000000000F080008028EFD019480068000226
:1058E000174A10601046008800F4E0601060124A09
:1058F000019810700E482030006840F470000C4988
:10590000203108600846006840F070400860FEF7EB
:10591000DFFF00200B490860FAF760FC0A480068C6
:1059200040F0404008490860FAF748FC00201CBDE0
:1059300000ED00E071C20F4100E400E0DC00002057
:10594000E0000020D800002034EF00E02DE9F04115
:1059500004460126002722460021012000F007F816
:1059600005462846FDF79CFD2846BDE8F0812DE957
:10597000F84305460E4690460DB1012000E0002098
:1059800050B900BF502080F31188BFF34F8FBFF391
:105990006F8F00BF00BFFEE70EB9002701E005FBD7
:1059A00006F707F15000FEF7A9F8044644B104F1E8
:1059B000500943464A46314628460094FDF77EFD8D
:1059C0002046BDE8F88300002DE9FF4782B0054678
:1059D0000E461F464FF0000A2C4654B900BF502017
:1059E00080F31188BFF34F8FBFF36F8F00BF00BFED
:1059F000FEE70EB9206C08B9012000E0002050B984
:105A000000BF502080F31188BFF34F8FBFF36F8F1B
:105A100000BF00BFFEE700F0CBFA08B9049808B950
:105A2000012000E0002050B900BF502080F3118811
:105A3000BFF34F8FBFF36F8F00BF00BFFEE700BF04
:105A4000FEF7B4FED4F83890B9F1000F3DD0D4F889
:105A50000C8031462046FDF761FCDFB9A9F1010059
:105A6000A063206810B9FEF7E7F86060206908B904
:105A7000012000E0002010BB04F1100000F0B6FB94
:105A8000E8B14FF0805040490860BFF34F8FBFF33B
:105A90006F8F14E0C4F80C80606A08B9012000E040
:105AA000002060B904F1240000F0A0FB38B14FF0F1
:105AB000805035490860BFF34F8FBFF36F8FFEF7FB
:105AC0009FFE012006B0BDE8F087049818B9FEF7E4
:105AD00097FE0020F6E7BAF1000F04D16846FFF701
