:020000040800F2
:10000000A0330120550200085D0200085F020008CD
:100010006102000863020008650200080000000099
:100020000000000000000000000000009D0100082A
:100030006902000800000000F1010008310E00080C
:100040006F0200086F0200086F0200086F020008CC
:100050006F0200086F020008AB0300086F0200087F
:10006000DD03000815040008390400086F020008C9
:100070006F0200086F0200086F0200086F0200089C
:100080006F0200086F0200086F0200086F0200088C
:100090006F0200086F0200086F0200086F0200087C
:1000A000CD0E00086F0200086F0200086F02000802
:1000B000FD0E0008290F00086F0200086F020008FB
:1000C0006F0200086F0200086F0200086F0200084C
:1000D0006F020008B10F0008311000086F0200081D
:1000E0006F0200086F0200086F0200086F0200082C
:1000F0006F0200086F0200086F0200086F0200081C
:100100006F0200086F0200086F0200086F0200080B
:100110006F0200086F0200086F0200086F020008FB
:100120006F0200086F0200086F0200086F020008EB
:100130006F0200086F0200086F0200086F020008DB
:100140006F0200086F0200086F0200086F020008CB
:100150006F0200086F0200086F0200086F020008BB
:100160006F0200086F0200086F0200086F020008AB
:100170006F0200086F0200086F0200086F0200089B
:100180006F0200086F020008DFF80CD000F0DCF806
:10019000004800470D250008A03301202A4B1968AC
:1001A0000868B0E8F04F80F30988BFF36F8F4FF015
:1001B000000080F3118870470000000006480068C6
:1001C000006880F3088862B661B6BFF34F8FBFF353
:1001D0006F8F00DF00BF00BF08ED00E0DFF80C000C
:1001E000016841F470010160704700BF88ED00E0D4
:1001F000EFF30980BFF36F8F134B1A681EF0100FD7
:1002000008BF20ED108A20E9F04F106008B44FF0CD
:10021000500080F31188BFF34F8FBFF36F8F04F04E
:100220002BFA4FF0000080F3118808BC19680868A9
:10023000B0E8F04F1EF0100F08BFB0EC108A80F34A
:100240000988BFF36F8F7047B4000020EFF305807B
:10025000704700000648804706480047FEE7FEE773
:10026000FEE7FEE7FEE7FEE7FEE7FEE7FEE7FEE766
:10027000650E00088901000840EA01039B0703D0CE
:1002800009E008C9121F08C0042AFAD203E011F8D5
:10029000013B00F8013B521EF9D27047D2B201E097
:1002A00000F8012B491EFBD270470022F6E710B57B
:1002B00013460A4604461946FFF7F0FF204610BDD4
:1002C00030B505462A460B4612F8010B13F8014BD0
:1002D00008B1A042F8D01CB1002802D06D1CF1E793
:1002E000284630BD2DE9F05F0546002092469B462A
:1002F00088460646814640241BE02846414647463C
:10030000224600F042F853465A46C01A914110D393
:1003100011461846224600F029F82D1A67EB01080D
:100320004F4622460120002100F020F817EB00097B
:100330004E41201EA4F10104DFDC484631462A4626
:100340004346BDE8F09F0000064C074D06E0E0681C
:1003500040F0010394E8070098471034AC42F6D30C
:10036000FFF716FFAC5B0008CC5B0008202A04DB1B
:10037000203A00FA02F1002070479140C2F12003B8
:1003800020FA03F3194390407047202A04DB203AF7
:1003900021FA02F00021704721FA02F3D040C2F1A5
:1003A0002002914008431946704710B500BF502104
:1003B000EFF3118081F31188BFF34F8FBFF36F8F7D
:1003C00000BF0446012000F04FF8012801D100F0E1
:1003D00045F800BF84F3118800BF10BD10B504209C
:1003E00000F042F801280DD107480068C0430749D2
:1003F000C1F8A4024FF4FA71054800F0D7FD0420BB
:1004000000F02CF810BD0000A4824242008042425D
:100410000004004010B5082000F026F8012807D19C
:100420004FF44871034800F0C1FD082000F016F8B1
:1004300010BD00000004004010B5102000F014F8BA
:10044000012807D140F2DE31034800F0AFFD102053
:1004500000F004F810BD00000004004001490860ED
:1004600070470000143C014001460020034A126816
:100470000A400AB1012000E000207047143C01400E
:1004800001490860704700000C3C024070B504460A
:100490000A460026092502B909E0012A01D11602FF
:1004A00005E0022A01D1160201E04FF4407600F087
:1004B0009FF80546092D28D11548006820F44070A2
:1004C0001349086008460068304308600846006821
:1004D00020F0F80008600846006844F00201084374
:1004E0000B4908600846006840F48030086000F05E
:1004F0007FF805460648006820F0020004490860BD
:100500000846006820F0F8000860284670BD00002A
:10051000103C024009201349096801F48031B1F50B
:10052000803F01D101201CE00E49096801F0100153
:1005300009B1062015E00B49096801F4807109B181
:1005400002200EE00749096801F0EF0109B1072018
:1005500007E00449096801F0020109B1082000E040
:10056000092070470C3C02400348006840F00040FE
:100570000149086070470000103C024030B5024657
:100580000C46092500F034F80546092D19D10E480E
:10059000006820F440700C4908600846006840F488
:1005A000007008600846006840F0010008601460B0
:1005B00000F01EF805460448006820F001000249DA
:1005C0000860284630BD0000103C02400548006825
:1005D00000F0004028B1044802490C390860034883
:1005E00008607047103C024023016745AB89EFCD9E
:1005F00008B509200090FFF78DFF009002E0FFF79B
:1006000089FF00909DF800000128F8D09DF80000B7
:1006100008BDF0B50A4600210023002400BF3DE0DC
:10062000012505FA01F3156805EA03049C4234D15B
:1006300005684F000326BE40B543056015794E009E
:10064000B5400668354305601579012D02D015794E
:10065000022D16D185684F000326BE40B543856044
:1006600055794E00B540866835438560456801265A
:100670008E40B5434560456896798E40B6B23543A5
:100680004560C5684F000326BE40B543C560D579B7
:100690004E00B540C6683543C560491C1029BFD31C
:1006A000F0BDF0B5002300244D07ED0E02FA05F36E
:1006B000CE1000F1200555F826504E07F70E0F26F4
:1006C000BE40B543CF1000F1200646F82750CE10AB
:1006D00000F1200555F8265045EA0304CE1000F13C
:1006E000200545F82640F0BD0246002013690B4066
:1006F0000BB1012000E00020704741837047018367
:100700007047000010B54FF400710E48FFF7F7FF77
:100710004FF480710B48FFF7F2FF052001F0A0FDB8
:100720004FF400710748FFF7E8FF052001F098FD3E
:100730004FF480710348FFF7E0FF052001F090FDC2
:1007400010BD00000004024010B54FF480710E4847
:10075000FFF7D3FF4FF400710B48FFF7CEFF0520E2
:1007600001F07EFD4FF480710748FFF7C8FF0520B8
:1007700001F076FD4FF400710348FFF7C0FF05203C
:1007800001F06EFD10BD00000004024010B54FF4F2
:1007900000711048FFF7B3FF00F08EFA022001F05D
:1007A0005FFD4FF480710B48FFF7A9FF022001F0B5
:1007B00057FD084810300068C0F340244FF48071A2
:1007C0000448FFF79AFF00F081FA022001F048FD8B
:1007D000204610BD0004024070B50446002521E00B
:1007E00004F0800028B14FF400711148FFF787FF33
:1007F00004E04FF400710E48FFF77FFF4FF4807163
:100800000B48FFF77CFF052001F02AFD4FF48071B3
:100810000748FFF772FF052001F022FD6006040E75
:10082000681CC5B2082DDBDBFFF7B0FF70BD000010
:100830000004024070B5002100230F22C4781CB3CD
:10084000174C246804F4E064C4F5E064C4F30721A1
:10085000C1F10404E3B20A4144789C40E1B28478D7
:10086000144021430C07210E0E4C05786155047885
:1008700004F01F050124AC4005786D11AD0005F1B1
:10088000E025C5F8004109E0047804F01F050124C3
:10089000AC40054D0678761145F8264070BD000045
:1008A0000CED00E000E400E080E100E002490143DB
:1008B000024A1160704700000000FA050CED00E0EC
:1008C00010B50446FFF71EFF06480078FFF784FFC7
:1008D0000020FFF781FF2046FFF77EFFFFF734FF80
:1008E00010BD00003400002010B50446FFF70AFFD9
:1008F00006480078FFF770FF4020FFF76DFF2046A5
:10090000FFF76AFFFFF720FF10BD00003400002052
:1009100010B5142000F038F8044604F0030018B9AC
:100920000321142000F07AF810BD7CB504460021A4
:100930000D2000F007F9932020702020607001A89E
:1009400023460222214600900C2000F074F808B1E2
:1009500001207CBD2078882807D0002503E0605D59
:100960006055681CC5B2042DF9DB0020F1E770B5B5
:1009700005460C46284600F007F820EA04063146F2
:10098000284600F0DFF870BD70B5044680210A48A3
:10099000FFF7B3FE7E2101EA440141F0800000F040
:1009A0009FF9002000F09CF9054680210248FFF7DE
:1009B000A6FE284670BD0000000C02407CB505462E
:1009C0000C4607210D2000F0BDF8257001A8234634
:1009D0000122214600900C2000F02DF808B10120E2
:1009E0007CBD9DF80400102801D00220F8E700200B
:1009F000F6E7000010B54FF400610748FFF77DFEF1
:100A00000A2002F035FF4FF400610348FFF777FE3C
:100A10000A2002F02DFF10BD0008024070B5054607
:100A20000C462846FFF7B0FF40EA04063146284648
:100A300000F088F870BD2DE9FC5F054689469246B6
:100A40009B460020019000900C2D03D1772001904F
:100A500030200090019840F08001022000F072F8F0
:100A600080210420FFF783FF0021012000F06AF8B5
:100A700080210A20FFF7D2FF002406E019F80410B5
:100A8000092000F05FF8601CC4B25445F6DB29462B
:100A9000012000F057F80C2D03D180210D20FFF725
:100AA000BDFF4FF4FA6600BF0420FFF76DFF044658
:100AB000701E86B236B104F0010018B900982040CB
:100AC0000028F1D080210D20FFF751FF16B9012039
:100AD000BDE8FC9F0420FFF757FF00F0010008B1BC
:100AE0000220F5E70420FFF74FFF00F0010030BBC4
:100AF0000A20FFF749FF04460C20FFF745FF00F0EE
:100B00000708B8F1000F06D0601E08EBC000C1B2A4
:100B10000C98017003E0E006010E0C98017004B916
:100B20000124102C00DD1024002706E00920FFF727
:100B30002BFF0BF80700781CC7B2A742F6DB00209A
:100B4000C6E7000070B504460D4680210748FFF750
:100B5000D4FD7E2101EA440000F0C2F8284600F0EE
:100B6000BFF880210148FFF7CAFD70BD000C0240AC
:100B700029B1064A12680243044B1A6004E0034A92
:100B800012688243014B1A607047000030380240FF
:100B900029B1064A12680243044B1A6004E0034A72
:100BA00012688243014B1A607047000040380240CF
:100BB00029B1064A12680243044B1A6004E0034A52
:100BC00012688243014B1A607047000044380240AB
:100BD000F0B5002100220024022500260223324F16
:100BE0003F6807F00C0121B1042905D0082937D14D
:100BF00005E02E4F076036E02D4F076033E02A4FA7
:100C00003F1F3F68C7F38056274F3F1F3F6807F0DD
:100C10003F036EB1264FB7FBF3F7DFF88CC0ACF1A2
:100C2000040CDCF800C0CCF3881C07FB0CF40CE0CF
:100C30001E4FB7FBF3F7DFF870C0ACF1040CDCF823
:100C400000C0CCF3881C07FB0CF4174F3F1F3F6814
:100C5000C7F301477F1C7D00B4FBF5F7076002E096
:100C6000124F076000BF00BF0F4F3F6807F0F00151
:100C70000909104F7A5C0768D74047600A4F3F6800
:100C800007F4E051890A0B4F7A5C4768D7408760C8
:100C9000054F3F6807F46041490B064F7A5C47688F
:100CA000D740C760F0BD0000083802400024F400BF
:100CB00000127A00040100200348006820F440205C
:100CC00001490860704700000004024003480068C2
:100CD00040F4802001490860704700000004024091
:100CE00070B50446002525E004F0800020B14021C5
:100CF0001248FFF704FD03E040211048FFF7FDFC18
:100D000002F0B0FE40210E48FFF7F9FC02F0AAFE07
:100D10006006040E4FF480710848FFF7E5FC08B147
:100D200044F0010440210648FFF7E7FC02F09AFE78
:100D3000681CC5B2082DD7DB204670BD00080240F4
:100D4000000C02400CB5002001900090344800686F
:100D500040F480303249086000BF3148006800F438
:100D6000003000900198401C0190009818B901983B
:100D7000B0F5A04FF1D12A48006800F4003010B15E
:100D80000120009001E0002000900098012846D149
:100D900023484030006840F08050214940310860CD
:100DA0002048006840F440401E4908601C48083054
:100DB00000681B49083108600846006840F400409C
:100DC00008600846006840F4A05008601648091FF3
:100DD0000860081F006840F08070091F086000BFAD
:100DE0000F48006800F000700028F9D040F205704C
:100DF0000E4908600A480830006820F003000849DE
:100E0000083108600846006840F00200086000BF32
:100E100003480830006800F00C000828F8D10CBD29
:100E2000003802400070004008544007003C024077
:100E300010B500BF502080F31188BFF34F8FBFF370
:100E40006F8F00BF04F062F918B14FF08050044971
:100E5000086000BF002080F3118800BF10BD0000B3
:100E600004ED00E010B51548006840F47000134927
:100E700008601348006840F0010011490860002034
:100E80000F49083108600E4800680E4908400C49B7
:100E900008600D48091D0860081F006820F48020C4
:100EA000091F0860002006490C310860FFF74AFF5F
:100EB0004FF0006001498039086010BD88ED00E006
:100EC00000380240FFFFF6FE1030002410B501216B
:100ED000074800F05AF8012809D106480068C043C5
:100EE0000549C1F8B8020121014800F03FF810BDE2
:100EF00000400140B80242420000424210B50121C8
:100F0000880700F042F8012809D105480068C0436D
:100F10000449C1F8A4020121880700F027F810BD98
:100F2000A48242420080424210B501210B4800F0E9
:100F30002CF8012810D10A48006828B9094800682F
:100F4000C0430949C1F8A4020021044800F011F887
:100F50000121024800F00AF810BD00000004004022
:100F600008024242A482424200804242CA430282B4
:100F7000704721B1028842F00102028004E0028839
:100F80004FF6FE731A400280704730B502460020CB
:100F900000230024158A05EA0103958905EA010466
:100FA00013B10CB1012000E0002030BD4163704757
:100FB00070B500BF5021EFF3118081F31188BFF3AA
:100FC0004F8FBFF36F8F00BF044640F22551144886
:100FD00000F086F801281DD1114800F03BF9C1B29C
:100FE00010480578681C0F4A10700F48415510468C
:100FF0000078401E0C49085C2A2803D0104600786F
:101000003F2802D301200949087040F225510448C5
:1010100000F03EF800BF84F3118800BF70BD0000EF
:10102000001001403C000020280100203D0000206D
:1010300010B540F22551124800F052F801281DD198
:101040000F4800F007F9C1B20E480478601C0D4A41
:1010500010700D48015510460078401E0A49085C82
:101060002A2803D0104600783F2802D301200749E0
:10107000087040F22551024800F00AF810BD000047
:10108000004400403E000020680100203F00002096
:1010900010B50022002340F66A14A14200D100BF1F
:1010A0000A1201249440A3B2DC43048010BD21B194
:1010B000828942F40052828104E082894DF6FF73F6
:1010C0001A408281704702460020B1F5007F00D1AE
:1010D00000BF13880B400BB1012000E000207047D7
:1010E00070B50246002400230025002040F66A1651
:1010F000B14200D100BFC1F3421501F01F03012628
:1011000006FA03F3012D02D19689334006E0022D41
:1011100002D1168A334001E0968A33400C12012630
:1011200006FA04F41688344013B10CB1012000E033
:10113000002070BDF0B503460024002600250020E5
:1011400040F66A17B94200D100BF1846C1F34214F5
:1011500001F01F06012707FA06F5012C01D10C301A
:1011600004E0022C01D1103000E014301AB10768FD
:101170002F43076002E00768AF430760F0BD00003F
:101180002DE9FF4705460E460024A14600BFA046B4
:10119000B08900B100BF2C8A24F44054F088044385
:1011A0002C82AC8941F20C608443B08831890843B9
:1011B000718908430443AC81AC8A24F44074B0893B
:1011C0000443AC826846FFF703FD2048854202D005
:1011D0001F48854202D1DDF80C9001E0DDF808904F
:1011E000A88900F4004040B109EBC90000EB0910E8
:1011F00031684900B0FBF1F707E009EBC90000EBEB
:10120000091031688900B0FBF1F76420B7FBF0F0FA
:1012100004012009642101FB1078A88900F4004032
:1012200040B1322000EBC800B0FBF1F000F0070045
:10123000044308E0322000EB08106421B0FBF1F019
:1012400000F00F0004432C81BDE8FF87001001402F
:101250000014014001468888C0F308007047C1F3BC
:1012600008028280704700000FB4054B10B503A937
:10127000044A029800F02CF810BC5DF814FB000042
:1012800035230008880000200FB41CB50A46521E02
:10129000CDE9000207A9054B6A46069800F018F848
:1012A000009A002111701CBC5DF814FB3317000874
:1012B00002E008C8121F08C1002AFAD1704770471F
:1012C000002001E001C1121F002AFBD1704700007D
:1012D0002DE9FF4F8DB00F460546002606E0252874
:1012E0000BD0DDE90F1290476D1C761C2878002882
:1012F000F5D111B03046BDE8F08F0024A246A146DA
:101300000122EC4900E0044315F8013F203B02FABA
:1013100003F00842F7D128782A2810D06FF02F0266
:101320002878A0F13001092914D80AEB8A0102EBD0
:10133000410144F0020400EB010A6D1CF0E701CF0B
:101340005FEA000A03D544F40054CAF1000A44F0ED
:1013500002046D1C28782E2817D115F8010F44F0CF
:1013600004042A280ED06FF02F022878A0F1300153
:1013700009290AD809EB890102EB410100EB0109B7
:101380006D1CF2E757F8049B6D1C28786C280FD071
:1013900006DC4C2817D068280DD06A2814D104E048
:1013A000742810D07A280FD10DE044F400140AE01C
:1013B00044F4801401E044F440146978814202D17D
:1013C00004F580146D1C6D1C2A786E2A1FD00CDC6D
:1013D000632A31D004DC002A8BD0582A11D1A3E033
:1013E000642A68D0692A0CD165E0732A2ED004DC07
:1013F0006F2A73D0702A04D19BE0752A6FD0782AA7
:101400006ED01046DDE90F129047761C50E1C4F310
:101410000250022806D0032809D0042801CF09D0A1
:10142000066045E101CFF117C0E9006140E101CF5D
:1014300006803DE106703BE117F8040B8DF80000D3
:1014400000208DF80100EB46012003E057F804BBB3
:101450004FF0FF3061074FF0000102D40DE008F1BA
:101460000101884649450FDA8045F8DB1BF8081072
:101470000029F4D108E008F1010188468142FADB35
:101480001BF808100029F6D1DDE90F23AAEB0800AC
:101490008146214600F036F9304400EB080604E0AE
:1014A000DDE90F121BF8010B9047B8F10108F7D2E4
:1014B00021464846F7E00A21C4F302534FF0000BDF
:1014C0000891022B04D001CFC117032B09D00AE0E9
:1014D000FF1D27F00707F7E8020108E032E01FE0F0
:1014E00020E000B2C117042B01D140B2C117031E86
:1014F00071F1000307DA4FF0000CD0EB0C006CEB3D
:1015000001012D2302E0230504D52B238DF824307F
:10151000012303E0E30701D02023F7E7984658E0D2
:101520000A2110E010210EE010204FF0000B08906F
:101530000CE010214FF0000B44F004044FF00809B8
:10154000089103E008214FF0000B0891C4F3025307
:10155000022B04D001CF0021032B06D006E0FF1D93
:1015600027F00707F7E8020103E080B2042B00D15F
:10157000C0B24FF0000823072BD5702A07D0DDF842
:1015800020C08CF0100C5CEA0B0C05D00EE0402360
:101590008DF82430012308E050EA010306D03023FF
:1015A0008DF824308DF8252002239846DDF820C0E0
:1015B0008CF0080C5CEA0B0C0BD150EA010301D152
:1015C000630706D530238DF824304FF00108A9F1C8
:1015D0000109582A04D038A20B9208AA0A920BE0FB
:1015E0003AA2F9E75B46089AFEF77CFE0B9B9B5CF0
:1015F0000A9A521E0A92137050EA0102F2D10A9816
:10160000ADEB000000F1200B600702D524F480341C
:1016100001E04FF00109D94502DDA9EB0B0000E024
:10162000002000EB0B0141440890AAEB010AE00303
:1016300006D4DDE90F232146504600F063F8064446
:101640004FF0000908E009A911F80900DDE90F12BF
:10165000904709F10109761CC145F4DBE0030CD584
:10166000DDE90F232146504600F04CF8064404E023
:10167000DDE90F1230209047761C0899481E08902B
:101680000029F5DC08E00A980A990078491C0A91BB
:10169000DDE90F129047761CBBF10001ABF1010BA5
:1016A000F1DC21465046DDE90F2300F019F806442D
:1016B0006D1C1BE6092801003031323334353637D2
:1016C000383961626364656600000000303132338E
:1016D000343536373839414243444546000000002E
:1016E0002DE9F041044600251E461746880404D41F
:1016F00005E039462020B0476D1C641EF9D5284608
:10170000BDE8F0812DE9F041044600251E469046D3
:10171000C80301D5302700E02027880404D505E060
:1017200041463846B0476D1C641EF9D52846BDE8D1
:10173000F0814A68002A06D00A68531C0B601070BA
:101740004868401E486070471CB504463CA0FFF73F
:101750008BFD002204210A2003F0A1F93F49086013
:1017600000220121102003F09AF93D490860012070
:1017700003F084F93B490860012003F07FF93A49FE
:10178000086002F0B7FB3948032100234FF40072D0
:10179000CDE9001036A1394803F072FC3848032126
:1017A00000234FF40072CDE9001036A1374803F052
:1017B00067FC374804210023CA01CDE9001035A198
:1017C000364803F05DFC3648022100230A02CDE9C9
:1017D000001034A1364803F053FC3648032100239F
:1017E0004FF40072CDE9001033A1364803F048FCF5
:1017F0003548032100234FF48072CDE9001033A156
:10180000354803F03DFC02F09FFB00235A1E1946A9
:101810001448006803F070F968B100F0DDFE2FA2F3
:101820000021084600F080FF00231A4619460D48A3
:10183000006803F08FFA002002F0A0FD1CBD00003C
:101840006170705F7461736B5F696E69742072752B
:101850006E6E696E67210D0A000000001C000020FA
:101860002000002024000020280000200400002088
:1018700046696E6765725461736B0000F53C000841
:10188000080000205077645461736B00B140000879
:101890000C0000204B65795461736B00653D0008B6
:1018A000100000204F6C65645461736B00000000F1
:1018B000FD3D000814000020526669645461736B9A
:1018C00000000000054200081800002055617274F5
:1018D000436D645461736B00054700085761697478
:1018E00020556E6C6F636B2E2E2E000000B587B0F6
:1018F0000EA207CA8DE807000C21684600F04EFCD6
:101900000C22C82103A800F059FB0C2806DB9DF827
:10191000150018B908A0FFF7A7FC04E09DF8151002
:101920000FA0FFF7A1FC07B000BD0000EF01FFFF13
:10193000FFFF0100030D00115B46696E6765725D74
:1019400020416C6C2066696E6765727072696E7496
:101950007320636C6561726564210D0A00000000EC
:101960005B46696E6765725D20436C6561722066D7
:1019700061696C3A20636F64653D30782530325878
:101980000D0A000030B597B0054600201390149062
:101990001590169098A207CA10AB07C399A2D2E976
:1019A00001311068D268CDE90D310F920C9099A3E6
:1019B000D3E90020D3E9021309AC0BC4089299A221
:1019C00007CA05AB07C39AA30FCB01AC0FC4002312
:1019D0005A1E19469A48006803F08EF8280A8DF8B6
:1019E0000F00E8B28DF810009DF80F000E309DF842
:1019F00010100844C0B28DF81200294691A0FFF7DC
:101A000033FC34E00C2110A800F0C8FB0C224FF48A
:101A10007A7113A800F0D2FA044664B992A0FFF7D5
:101A200023FC00231A4619468548006803F092F902
:101A3000002017B030BD0C2C03DB9DF8550000B919
:101A400016E00C2C04DB9DF85500022800D10EE0B6
:101A50009DF85520214690A0FFF706FC00231A466A
:101A600019467748006803F075F90020E1E7C9E7F7
:101A700000BF95A0FFF7F8FB16E00D210CA800F0C1
:101A80008DFB0C224FF4FA7113A800F097FA04466C
:101A90000C2C03DB9DF8550000B906E09DF855209D
:101AA000214692A0FFF7E0FBE7E700BF9CA0FFF70D
:101AB000DBFB33E00C2110A800F070FB0C224FF48C
:101AC0007A7113A800F07AFA04465CB9A0A0FFF777
:101AD000CBFB00231A4619465948006803F03AF92F
:101AE0000020A6E70C2C03DB9DF8550000B916E09A
:101AF0000C2C04DB9DF85500022800D10EE09DF867
:101B0000552021469EA0FFF7AFFB00231A46194639
:101B10004B48006803F01EF900208AE7CAE700BFBF
:101B2000A3A0FFF7A1FB16E00D2108A800F036FBEB
:101B30000C224FF4FA7113A800F040FA04460C2C62
:101B400003DB9DF8550000B906E09DF855202146BD
:101B5000A0A0FFF789FBE7E700BFABA0FFF784FB7E
:101B60000C2105A800F01AFB0C22C82113A800F0D4
:101B700025FA04460C2C02DB9DF8550070B19DF847
:101B800055202146AAA0FFF76FFB00231A461946ED
:101B90002B48006803F0DEF800204AE7B0A0FFF70A
:101BA00063FB0F2101A800F0F9FA0C22C82113A849
:101BB00000F004FA04460C2C02DB9DF8550070B1CD
:101BC0009DF855202146AFA0FFF74EFB00231A4693
:101BD00019461B48006803F0BDF8002029E7294694
:101BE000B3A0FFF741FB00231A46194614480068CA
:101BF00003F0B0F801201CE7EF01FFFFFFFF010039
:101C000003010005EF01FFFFFFFF010004020100D7
:101C100008000000EF01FFFFFFFF010004020200C7
:101C200009000000EF01FFFFFFFF010003050009AD
:101C3000EF01FFFFFFFF01000606010000000000AA
:101C4000280000205B456E726F6C6C5D2049443D3E
:101C50002564202D20706C6163652066696E676560
:101C6000722E2E2E0D0A00005B456E726F6C6C5D3D
:101C700020476574496D616765313A206E6F207247
:101C80006573706F6E73652066726F6D206D6F6423
:101C9000756C65210D0A00005B456E726F6C6C5DA2
:101CA00020476574496D61676531206661696C3AEA
:101CB000207265743D256420636F64653D3078252E
:101CC0003032580D0A0000005B456E726F6C6C5D1F
:101CD00020496D61676531204F4B2C2067656E2070
:101CE000636861722E2E2E0D0A0000005B456E7235
:101CF0006F6C6C5D2047656E436861723120726560
:101D00007472792E2E2E20287265743D256420630E
:101D10006F64653D307825303258290D0A00000087
:101D20005B456E726F6C6C5D2047656E43686172D7
:101D300031204F4B2C20706C6163652066696E67A3
:101D4000657220616761696E2E2E2E0D0A000000FB
:101D50005B456E726F6C6C5D20476574496D6167A1
:101D600065323A206E6F20726573706F6E736520F6
:101D700066726F6D206D6F64756C65210D0A0000D1
:101D80005B456E726F6C6C5D20476574496D616771
:101D90006532206661696C3A207265743D25642065
:101DA000636F64653D3078253032580D0A000000BD
:101DB0005B456E726F6C6C5D20496D6167653220AA
:101DC0004F4B2C2067656E20636861722E2E2E0D9E
:101DD0000A0000005B456E726F6C6C5D2047656E9B
:101DE00043686172322072657472792E2E2E20281B
:101DF0007265743D256420636F64653D30782530DD
:101E00003258290D0A0000005B456E726F6C6C5DE4
:101E10002047656E4368617232204F4B2C207265FB
:101E200067206D6F64656C2E2E2E0D0A0000000079
:101E30005B456E726F6C6C5D205265674D6F6465BB
:101E40006C206661696C3A207265743D256420637C
:101E50006F64653D3078253032580D0A000000006F
:101E60005B456E726F6C6C5D205265674D6F64658B
:101E70006C204F4B2C2073746F72652E2E2E0D0A22
:101E8000000000005B456E726F6C6C5D2053746FD8
:101E90007265206661696C3A207265743D25642024
:101EA000636F64653D3078253032580D0A000000BC
:101EB0005B456E726F6C6C5D2046696E6765722063
:101EC00049443D256420656E726F6C6C65642073B7
:101ED00075636365737366756C6C79210D0A000018
:101EE00000B587B00020039004900590069018A2DA
:101EF00007CA8DE8070000235A1E194617480068D4
:101F000002F0FAFD0C21684600F048F90C224FF46B
:101F10007A7103A800F052F860B911A0FFF7A4F994
:101F200000231A4619460D48006802F013FF0020EE
:101F300007B000BD9DF8151012A0FFF795F900231A
:101F40001A4619460548006802F004FF0120EFE731
:101F5000EF01FFFFFFFF01000326002A28000020F9
:101F60005B41533630385D2048616E647368616B45
:101F7000653A206E6F20726573706F6E73650D0A1F
:101F8000000000005B41533630385D2048616E64CC
:101F90007368616B65204F4B2120636F6E666972B9
:101FA0006D5F636F64653D3078253032580D0A00EF
:101FB00010B5C82000F024F910BD0000F8B50546A2
:101FC0000E46174600240020009013E020210E4802
:101FD000FFF779F801280AD10B48FFF73BF9C2B2A5
:101FE0002046611C8CB22A54BC4200DB09E00098F8
:101FF000401C009040F6412070430099B1EBC00FA7
:10200000E4D300BFE0B2F8BD0048004030B591B065
:10201000054641A207CA0AAB07C342A30FCB06ACD1
:102020000FC4142243A101A8FEF726F900231A4683
:1020300019464548006802F05FFD012802D00020E3
:1020400011B030BD0C210AA800F0A8F80C224FF402
:10205000FA710DA8FFF7B2FF04460C2C02DB9DF8C5
:102060003D0040B100231A4619463748006802F087
:1020700071FE0020E4E70D2106A800F08FF80C2285
:10208000C8210DA8FFF79AFF04460C2C02DB9DF82F
:102090003D0070B19DF83D2021462CA0FFF7E4F8EB
:1020A00000231A4619462848006802F053FE002013
:1020B000C6E7112101A800F071F81022C8210DA86F
:1020C000FFF77CFF0446102C02DB9DF83D0040B179
:1020D00000231A4619461C48006802F03BFE002007
:1020E000AEE79DF83F009DF83E1040EA01202880B1
:1020F0009DF843009DF8423040EA032229881EA043
:10210000FFF7B2F800231A4619460F48006802F09C
:1021100021FE012094E70000EF01FFFFFFFF010017
:1021200003010005EF01FFFFFFFF010004020100B2
:1021300008000000EF01FFFFFFFF0100080401009D
:102140000003E700F8000000280000205B46696EED
:102150006765725D2047656E4368617220666169DC
:102160006C3A207265743D256420636F64653D3070
:1021700078253032580D0A005B46696E6765725DDE
:10218000204D61746368212049443D2564207363B8
:102190006F72653D25640D0A0000000070B50546AC
:1021A0000E4600240CE000BF80210A48FEF78BFF9A
:1021B0000028F9D0295D0748FFF751F8601C84B268
:1021C000B442F0DB00BF40210248FEF77CFF00284C
:1021D000F9D070BD004800404FF0E020006920F0C9
:1021E00004004FF0E02108616FF07F40486100205B
:1021F00088610846006940F00100086170470000EE
:102200002DE9F047074600264FF0E020D0F8149063
:10221000124800684FF47A71B0FBF1F000FB07F848
:102220004FF0E020856902F01FFA11E04FF0E02046
:102230008469AC420CD0AC4202D2281B064403E0B5
:10224000A9EB0400284406442546464500D300E097
:10225000ECE700BF03F0AEF8BDE8F0871401002002
:102260002DE9F047074600264FF0E020D0F8149003
:10227000124800681249B0FBF1F000FB07F84FF07C
:10228000E020856902F0F0F911E04FF0E020846968
:10229000AC420CD0AC4202D2281B064403E0A9EBAE
:1022A0000400284406442546464500D300E0ECE7F8
:1022B00000BF03F07FF8BDE8F087000014010020A4
:1022C00040420F000448054A0168914202D1044A85
:1022D000416811607047000000000E080100FECA4E
:1022E00038000020014800687047000038000020D6
:1022F0001CB50446FEF76AF9F320FEF7C1F8022187
:102300005820FEF7C3F80848009001940748009948
:10231000FEF734F90548001D0199FEF72FF9FEF785
:1023200023F9034804601CBD0100FECA00000E082A
:102330003800002070B504460D4600BF80210548D6
:10234000FEF7C1FE0128F9D1A1B20248FEF787FFCE
:10235000204670BD001001401CB501215720FEF73A
:1023600007FC01208DF8040000208DF806000220F3
:102370008DF805008020009069461F48FEF749F956
:102380004FF40040009069461C48FEF742F94FF4B4
:102390002070009069461A48FEF73BF900208DF83E
:1023A000040001208DF80700402000906946124883
:1023B000FEF72FF94020009069461248FEF729F9F0
:1023C0004FF48070009069460F48FEF722F9102004
:1023D000009069460C48FEF71CF980210648FEF77C
:1023E0008EF94FF400410548FEF789F94FF420714A
:1023F0000348FEF784F91CBD0004024000180240A7
:102400000008024000100240000002407FB5154B5A
:102410000FCB8DE80F0000241FE0204601F0F0FAFA
:10242000002517E0284601F0C5FA90B90F20FFF704
:10243000E7FE284601F0BEFA58B900BF284601F071
:10244000B9FA0028FAD0684600EB8400405D04B079
:1024500070BD6D1C042DE5DB641C042CDDDB00204D
:10246000F5E700008C5B00082548006840F030006C
:10247000234908602348006820F47010214908604F
:102480000846006840F4A0100860081D006820F4A9
:10249000C060091D0860081D006820F47010091D47
:1024A0000860081D006820F47010091D08601548B8
:1024B0001430006840F4C0601249143108601248BA
:1024C000006820F07050104908600846006840F02D
:1024D000A05008600846406820F4C04048600846A4
:1024E000806820F0705088600846C06820F0705006
:1024F000C8600846406940F4C04048617047000029
:102500003038024000140240001002401CB54FF465
:102510004070FEF7CBF9FFF75FFEFFF7A5FFFFF76F
:102520001BFF00F075F801F0B3F9FFF741FDFFF76D
:10253000C9FEFFF7D7FE124908604FF4E13001F001
:102540009FFA4FF4E13001F009FB4FF4614001F0D4
:1025500079FB0CA0FEF788FE1248017812A0FEF766
:1025600083FE1748052100234FF40072CDE90010C7
:1025700014A1184802F084FD02F02CF800BFFEE719
:1025800030000020536D61727420446F6F72204CD4
:102590006F636B2053797374656D2053746172742B
:1025A000210A0000350000205243353232205665A2
:1025B0007273696F6E3A203078253032580D0A00F8
:1025C000000000206170705F7461736B5F696E69F9
:1025D000740000004917000870B5002415E004F1EC
:1025E000B001C8B2FEF76CF90020FEF769F91020BF
:1025F000FEF766F9002504E00020FEF775F9681C77
:10260000C5B2802DF8DB601CC4B2082CE7DB70BDBE
:102610001CB501210220FEF7ABFA01208DF8040061
:102620008DF806008DF8070002208DF805004FF4A4
:102630004070009069463548FDF7EBFF4FF400719C
:102640003248FEF75CF84FF480713048FEF757F8D7
:102650003220FFF7D5FD782000F05AF87A2000F0FC
:1026600057F8AE20FEF72CF90A20FFF7C9FDD52058
:10267000FEF726F98020FEF723F9A820FEF720F9BF
:102680003F20FEF71DF9D320FEF71AF90020FEF7D0
:1026900017F94020FEF714F98D20FEF711F91420E8
:1026A000FEF70EF92020FEF70BF90220FEF708F9DD
:1026B000A120FEF705F9C820FEF702F9DA20FEF79F
:1026C000FFF81220FEF7FCF88120FEF7F9F8CF2082
:1026D000FEF7F6F8D920FEF7F3F8F120FEF7F0F850
:1026E000DB20FEF7EDF84020FEF7EAF8A420FEF725
:1026F000E7F8A620FEF7E4F8AF20FEF7E1F8642043
:10270000FFF77EFDFFF768FF1CBD000000040240DC
:1027100010B50446FDF7F6FF2046FEF75DF8FEF71C
:1027200013F8012010BD00002DE9F0410446884651
:10273000174640E03E78202E01DB7E2E00DD20266D
:10274000A6F12000C6B208F1B001C8B2FEF7B8F891
:1027500004F00F00FEF7B4F8102101EB2410FEF78F
:10276000AFF8002507E0164901EB0611485DFEF7BA
:10277000BBF8681CC5B2082DF5DB08F1B101C8B281
:10278000FEF79EF804F00F00FEF79AF8102101EB17
:102790002410FEF795F8082507E0094901EB06111A
:1027A000485DFEF7A1F8681CC5B2102DF5DB04F1F9
:1027B0000800C4B27F1C38780028BBD1BDE8F08186
:1027C0009C55000808B51948007800282CD01849F5
:1027D00018A0FEF749FD1AA11548FDF771FD78B163
:1027E00019A0FEF741FD00201B490860042000905D
:1027F00000230A2269461948006802F0ABFA0AE091
:1028000017A10B48FDF75CFD28B117A0FEF72CFDC2
:1028100001201149086040210548FDF746FD0020D0
:10282000154908700149087008BD00003F000020EC
:10283000680100205B576946695D2025730D0A0019
:10284000756E6C6F636B00005769466920556E6C3E
:102850006F636B210D0A0000A48242421C0000201D
:102860006C6F636B0000000057694669204C6F6312
:102870006B210D0A000000003E00002038B594488E
:102880000078002874D093A19448FDF719FD18B181
:1028900093A0FEF7E9FC11E195A19048FDF710FD2A
:1028A00078B195A0FEF7E0FC00209A49086004206A
:1028B000009000230A2269469748006802F04AFA0D
:1028C000FCE096A18548FDF7FBFC30B195A0FEF732
:1028D000CBFC01208F490860F0E099A17F48FDF70B
:1028E000EFFC18B199A0FEF7BFFCE7E09FA17B4881
:1028F000FDF7E6FCB8B1794C641D002505E014F83D
:10290000012B28466D1C9B490A54207820B1207861
:102910002A2801D01F2DF2DB00209649485596A0A9
:10292000FEF7A2FCCAE099A16C48FDF7C9FCB8B15A
:102930006A4C641D002505E014F8012B28466D1C27
:1029400094490A54207820B120782A2801D01F2DDC
:10295000F2DB00208F4948558FA0FEF785FCADE0E3
:1029600092A15E48FDF7ACFC98B15C4CE41C04E01D
:10297000ADE0207801F04AF9641C207810B120788D
:102980002A28F6D10D2001F041F90A2001F03EF984
:1029900094E087A15148FDF793FCA0B187A0FEF712
:1029A00063FC8DA001F042F94FF4FA6001F0B8FC2D
:1029B0008AA001F03BF94FF4FA6001F0B1FC89A064
:1029C000FEF752FC7AE091A14448FDF779FC10B182
:1029D00001F0A2FE72E08FA14048FDF771FC28B122
:1029E0008EA0FEF741FCFFF77BFA67E093A13B481E
:1029F000FDF766FC80B19448006818B993A0FEF713
:102A000033FC5BE090480068FFF772FC8E48016879
:102A100099A0FEF729FC51E09EA13048FDF750FC3B
:102A200060B19F48006828B19D4801689DA0FEF7ED
:102A30001BFC43E0A0A0FEF717FC3FE0A3A1274842
:102A4000FDF73EFC58B30125244C00E0641C2078BF
:102A500028B120783028F9DB20783928F6DC207876
:102A6000302814DB2078392811DC002507E0207895
:102A7000303805EB850100EB410085B2641C2078FD
:102A8000302802DB20783928F1DD05B901252946F7
:102A900090A0FEF7E9FB2846FEF774FF0EE097A131
:102AA0000E48FDF70DFC28B198A0FEF7DDFBFEF700
:102AB0001DFF03E009499DA0FEF7D6FB4021074812
:102AC000FDF7F3FB00209F4908700149087038BDED
:102AD0003D00002074657374000000002801002090
:102AE0007465737420636F6D6D616E64210A0000FC
:102AF000756E6C6F636B0000426C7565746F6F74FC
:102B00006820556E6C6F636B2053756363657373D8
:102B1000210A0000A48242421C0000206C6F636BFB
:102B200000000000426C7565746F6F7468204C6F14
:102B3000636B2053756363657373210A00000000A3
:102B400073796E635F66696E6765720053796E6351
:102B5000696E672066696E6765727072696E7473FC
:102B600020746F204150502E2E2E0A00737369641A
:102B70002000000040000020576946692053534957
:102B800044207365743A2025730D0A0070617373D5
:102B900020000000600000205769466920506173E2
:102BA00073207365743A2025730D0A006174200048
:102BB000776966695F7465737400000057694669D8
:102BC00020746573743A2073656E64696E67204182
:102BD000542E2E2E0D0A00002B2B2B0041540D0AD3
:102BE0000000000057694669207465737420646FA3
:102BF0006E652E20436865636B205B576946695D8F
:102C0000206F75747075742E0D0A000077696669FF
:102C10000000000066696E67657200005465737499
:102C2000696E672066696E6765727072696E74207E
:102C30006D6F64756C652E2E2E0A000073617665CB
:102C40005F636172640000002C0000204E6F2063FF
:102C5000617264207363616E6E65642079657421AE
:102C6000205363616E206120636172642066697223
:102C700073742E0D0A000000436172642025303801
:102C80005820736176656420746F20466C617368A8
:102C9000210D0A0073686F775F6361726400000042
:102CA00030000020536176656420636172643A20CD
:102CB000253038580D0A00004E6F20636172642081
:102CC00073617665642E0D0A00000000656E726FF8
:102CD0006C6C0000537461727420656E726F6C6C62
:102CE000696E672066696E6765727072696E7420BE
:102CF00049443D25642E2E2E0A000000636C656158
:102D0000725F66696E67657200000000436C656102
:102D100072696E6720616C6C2066696E676572709F
:102D200072696E74732E2E2E0A000000756E6B6E23
:102D30006F7720636F6D6D616E64203D2025730A8F
:102D4000000000003C0000202DE9F04105460E4641
:102D50001C4807681C480068001D00F0B7FF50B908
:102D60001948006890F82C1001208840174909681C
:102D7000814316480160681C38B936B112480168B1
:102D8000091D134801F02EF81AE07C190E4800685E
:102D90004460BC4207D20C480168091D0D48006818
:102DA00001F006F80CE008480168091D0A480068AF
:102DB00000F0FEFF09480068844201D20748046021
:102DC000BDE8F081C8000020B4000020CC00002045
:102DD000642F0120BC000020B8000020E400002087
:102DE00010B5044601F086F824480068401C2349C9
:102DF00008602348006840B921480460084600681C
:102E000001280DD100F0ECF90AE01E48006838B93D
:102E10001B480068C06AE16A884201D8184804600B
:102E200019480068401C184908600846006820647A
:102E300094F82C100120884014490968084313496C
:102E40000860E16A01EB8101114A02EB8100211D5A
:102E500000F0C8FF01F078F80A48006868B1084837
:102E60000068C06AE16A884207D24FF08050094981
:102E70000860BFF34F8FBFF36F8F10BDC4000020F9
:102E8000B4000020D0000020E0000020CC00002092
:102E9000E82D012004ED00E010B501F02BF81048FA
:102EA0000068D0B90F4800F073FF0F4800F070FFC2
:102EB0000C480E4908600C480D49086000220C219E
:102EC0000A2001F0ECFD064908600846006820B1C0
:102ED00008A10348006801F059F901F035F810BD68
:102EE000F8000020782F01208C2F0120F000002016
:102EF000F4000020546D72510000000070B523E012
:102F000001F0B2FB1348006808B9012000E000207E
:102F1000054602F04FFABDB900F0ECFF0D48C0685D
:102F2000C468201D00F0D2FE0B480068401E0A490C
:102F300008600A480068401E0849086001F004F86B
:102F4000204600F060F800BF044800680028D7D190
:102F500070BD0000502F0120C4000020C0000020E0
:102F600070B504460D46206C70B1216CE0680844D1
:102F7000E0606168E068884201D32068E06028462C
:102F8000226CE168FDF778F970BD2DE9F041044647
:102F90000F4615464FF00008A66B206C40B920681C
:102FA00060BB606802F056F980460020606025E052
:102FB0007DB93946226CA068FDF75EF9216CA068E6
:102FC0000844A060D4E90110884217D32068A060AB
:102FD00014E03946226CE068FDF74EF9216CE06898
:102FE000401AE0602168E068884203D2216C606882
:102FF000401AE060022D01D106B1761E701CA0635C
:103000004046BDE8F08110B50446206B00F0BAFFE1
:10301000204600F0B7FF10BD0146084A126812684A
:103020000AB9012200E000220A600A6822B9034AB4
:103030001268D268106800E000207047F00000209D
:1030400030B54FF49633174800F007042CB1C01D7B
:1030500020F00700134C041B1B1B0246124C22607D
:103060000024114D6C60D018083820F007000F4C78
:10307000206000240D4D2D686C600C4D2D682C6077
:103080001146441A4C60094C24680C60084D4C6889
:103090002C60084D4C682C604FF00044064D2C60AD
:1030A00030BD0000A8010020900000209800002002
:1030B000A00000209C000020A400002000BFFFF71B
:1030C0001DFF064800680128F9D94FF080500449D7
:1030D0000860BFF34F8FBFF36F8FF0E7E82D01203B
:1030E00004ED00E010B504464CB1002060602060A3
:1030F000E06000231A461946204601F02BFE10BD61
:103100002DE9F04106460D4617469846069C0DB936
:10311000246000E02760E66325640121204601F079
:10312000CDFD84F84C80BDE8F0812DE9F05F82464A
:103130000F4690469B460A9E0C9C4FEA8801A522AA
:10314000206BFDF7ABF8A8F10100216B01EB8009C2
:1031500029F0070909F0070008B9012000E0002064
:1031600050B900BF502080F31188BFF34F8FBFF3D9
:103170006F8F00BF00BFFEE7002507E0795D04F117
:1031800034004155785D00B902E06D1C0A2DF5D37D
:1031900000BF00213D2001550F2E00D30E26E66210
:1031A000A6640020E064201D00F0FFFD04F118007B
:1031B00000F0FBFD2461C6F10F00A06164620020F5
:1031C000206584F854005A465146484600F03AFBC0
:1031D00020600B9808B10B980460BDE8F09F0000D8
:1031E00010B5002407E004EB84010F4A02EB8100D4
:1031F00000F0CEFD641C0F2CF5D30C4800F0C8FD88
:103200000B4800F0C5FD0B4800F0C2FD0A4800F075
:10321000BFFD0A4800F0BCFD0448094908600448A5
:103220000849086010BD0000E82D0120142F01207E
:10323000282F01203C2F0120502F0120642F012036
:10324000B8000020BC00002010B50146164800E080
:10325000006803688B42FBD30246436813448B42E9
:1032600004D143684C682344436001460A464B68D6
:1032700013440468A34211D10C4C03682468A34290
:1032800008D04B680468646823444B6003681B687B
:103290000B6005E0054B1B680B6001E003680B60E9
:1032A000884200D0016010BD9000002098000020EE
:1032B0002DE9F04104460D4616461F464FF0000822
:1032C00065602461B5420CD8F01BA169884202D325
:1032D0004FF0010811E0211D0948006800F068FD69
:1032E0000BE0BE4204D2BD4202D34FF0010804E01D
:1032F000211D0448006800F05BFD4046BDE8F081F8
:10330000F4000020F000002070B5054600F0F2FD4A
:10331000A86B08B9012400E0002400F015FE204647
:1033200070BD70B5054600F0E5FDA86BE96B8842FD
:1033300001D1012400E0002400F006FE204670BD0B
:10334000F8B505460F4616480068C068C468201DD9
:1033500000F0BCFCE06901281DD1A06941192B4691
:103360003A462046FFF7A4FFA8B1002003462A46AC
:1033700001460090204602F0CBF8064656B900BF41
:10338000502080F31188BFF34F8FBFF36F8F00BFC2
:1033900000BFFEE700BF2046616A8847F8BD000015
:1033A000F000002070B586B06AE00398002867DB63
:1033B000059C606908B9012000E0002010B9201DBB
:1033C00000F084FC02A800F0BDF8054603980A2826
:1033D00054D2DFE800F009050731334F06083234D4
:1033E00000BF00BF00BF00BF0498A2698118034658
:1033F0002A462046FFF75CFFE8B12046616A88470D
:10340000E069012817D1002000900498A1694218B2
:1034100000231946204602F07BF8064656B900BF45
:10342000502080F31188BFF34F8FBFF36F8F00BF21
:1034300000BFFEE700BF22E000BF20E000BF04980D
:10344000A061A06908B1012000E0002050B900BFD0
:10345000502080F31188BFF34F8FBFF36F8F00BFF1
:1034600000BFFEE7A06941192B462A462046FFF718
:103470001FFF04E0204600F085FD00E000BF00BF14
:1034800000231A4603A90448006801F035FB002810
:103490008BD106B070BD0000F8000020F8B50546DD
:1034A0000C4601F0E1F8684600F04CF8064600983A
:1034B00020BB44B9B54206D801F07CFF314628460E
:1034C000FFF73EFF1CE03CB10E480068006808B9F9
:1034D000012000E000200446A91B22460A4800689B
:1034E00000F06AFE01F066FF50B94FF080500749C6
:1034F0000860BFF34F8FBFF36F8F01E001F05AFFF9
:10350000F8BD0000F4000020F800002004ED00E009
:103510000A490968096809B9012100E0002121B1BF
:103520004FF0FF31064A116006E004490968C96896
:10353000C868034A4168116070470000B800002065
:10354000E400002070B5044601F0DAFD05460748A6
:103550000068854204D200F00BF80120206001E0F1
:103560000020206001480560284670BD0001002051
:103570002DE9F84332E024480068C0680568224815
:103580000068C068C468201D00F0A0FB2046616A86
:103590008847E069012821D1A0694619AE4207D9C0
:1035A00066602461211D1848006800F001FC15E0E8
:1035B000002003462A4601460090204601F0A8FF5D
:1035C000074657B900BF502080F31188BFF34F8FD3
:1035D000BFF36F8F00BF00BFFEE700BF0A4800685F
:1035E000006808B9012000E000200028C3D0064888
:1035F000D0F8008005480068034908600348C0F817
:103600000080BDE8F8830000F0000020F4000020F6
:103610000E480068401C08B9012000E0002050B9A5
:1036200000BF502080F31188BFF34F8FBFF36F8F1F
:1036300000BF00BFFEE700BF502080F31188BFF33A
:103640004F8FBFF36F8F00BF00BFFEE7A8000020C1
:1036500008B500BF6846FFF7DFFC04462046009926
:10366000FFF71CFFFFF79EFEF4E770B5044600F07D
:1036700041FC94F9455010E0606A08B9012000E06F
:10368000002038B904F1240001F048FE18B100F020
:10369000EFFE00E003E0681E45B2002DECDC00BF49
:1036A000FF2084F8450000F04FFC00F023FC94F963
:1036B000445010E0206908B9012000E0002048B91A
:1036C00004F1100001F02AFE08B100F0D1FE681EDE
:1036D00045B200E001E0002DECDC00BFFF2084F8E3
:1036E000440000F031FC70BD2DE9F04104464FF07C
:1036F000000800F0B9FF4648006808B9FFF7A0FCD1
:1037000044480068204000286BD1D4B1083404F04C
:103710000700B0B104F00700C0F10800044404F051
:10372000070008B9012000E0002050B900BF502078
:1037300080F31188BFF34F8FBFF36F8F00BF00BFBF
:10374000FEE7002C4DD034480068844249D8334EFF
:103750003046056801E02E462D686868A04202D216
:1037600028680028F7D12A480068854239D0306897
:1037700000F10808286830606868001B102819D913
:103780002F1907F0070008B9012000E0002050B908
:1037900000BF502080F31188BFF34F8FBFF36F8FAE
:1037A00000BF00BFFEE76868001B78606C603846A9
:1037B000FFF74AFD184968680968081A1649086041
:1037C0000846006816490968884203D21248006812
:1037D000134908600F496868096808436860002059
:1037E000286001F0E7FD08F0070008B9012000E0BB
:1037F000002050B900BF502080F31188BFF34F8FD5
:10380000BFF36F8F00BF00BFFEE74046BDE8F08109
:1038100098000020A40000209C00002090000020C0
:10382000A00000200648006830B10549096801F190
:103830004C00C96C491C01600148006870470000D9
:10384000B4000020001F4FF080730360001F21F0C0
:1038500001030360001F054B036014380260001F62
:103860006FF0020303602038704700001136000833
:1038700008B50021009102E00099491C009100EB7D
:103880004001C1EBC011009AB2EB811FF4D308BD17
:103890001CB501210C20FDF76BF901208DF8040007
:1038A00000208DF8060001208DF8070003208DF818
:1038B00005004020009069462A48FCF7AAFEC02077
:1038C000009069462848FCF7A4FE4FF40060009081
:1038D00069462448FCF79DFE00208DF80400012075
:1038E0008DF8070003208DF805004FF480700090DC
:1038F00069461C48FCF78DFE80211B48FCF7FFFE43
:1039000040211848FCF7FBFE40211748FCF7F5FE64
:103910004FF400611348FCF7F2FE3220FFF7A8FFD6
:10392000FDF768F88D212A20FDF70CF93E212B20A8
:10393000FDF708F91E212D20FDF704F900212C20A8
:10394000FDF700F940211520FDF7FCF83D2111207D
:10395000FDF7F8F8FCF7DCFF3720FDF715F8034911
:1039600008701CBD00080240000C02403500002019
:103970003EB5044669462620FDF720F805460DB100
:1039800000203EBD01A8FCF7D0FF05460DB1002088
:10399000F7E79DF8040000069DF8051040EA014095
:1039A0009DF8061040EA01209DF8071008432060AA
:1039B0000120E6E710B5044624B940210D48FCF784
:1039C00093FE10BD012C04D140210B48FCF78CFE66
:1039D000F7E7022C04D1E1010848FCF785FEF0E787
:1039E000032C04D110210548FCF77EFEE9E70120F5
:1039F000E7E700000004024000100240000002401F
:103A000010B5044680211448FCF779FE4FF40041BC
:103A10001248FCF774FE4FF420711148FCF76FFE5A
:103A200024B980210C48FCF768FE14E0012C04D175
:103A3000E1030A48FCF761FE0DE0022C04D180216D
:103A40000748FCF75AFE06E0032C04D14FF400713E
:103A50000348FCF752FE10BD00040240001802406B
:103A60000008024008B50020009004E0BDF8000006
:103A7000401C80B20090BDF800003228F6DB08BD83
:103A800010B588B0044601214120FDF771F80121ED
:103A90001020FDF78DF801208DF81C0000208DF816
:103AA0001E004FF48070069000208DF81F00022049
:103AB0008DF81D0006A92648FCF7ABFD02208DF805
:103AC0001C0000208DF81E004FF4C06006900020FE
:103AD0008DF81F0002208DF81D0006A91D48FCF777
:103AE00098FD072209211B48FCF7DBFD07220A216C
:103AF0001848FCF7D6FD02940020ADF80C00ADF894
:103B00001000ADF80E000C20ADF812000020ADF84A
:103B1000140002A91048FDF733FB012240F22551A1
:103B20000D48FDF707FB25208DF8040001208DF8D6
:103B3000050002208DF8060001208DF8070001A87D
:103B4000FCF778FE01210448FDF7B1FA08B010BD7A
:103B500000180240000002400010014010B588B07B
:103B6000044601210846FDF703F801214804FDF74A
:103B70000FF802208DF81C0000208DF81E000C208C
:103B8000069000208DF81F0002208DF81D0006A968
:103B90001C48FCF73EFD072202211A48FCF781FD74
:103BA000072203211748FCF77CFD02940020ADF8A2
:103BB0000C00ADF81000ADF80E000C20ADF81200AE
:103BC0000020ADF8140002A90F48FDF7D9FA012230
:103BD00040F225510C48FDF7ADFA26208DF804007F
:103BE00008208DF8050002208DF8060001208DF8D0
:103BF000070001A8FCF71EFE01210348FDF757FA54
:103C000008B010BD000002400044004010B504465A
:103C100000BF80210448FDF756FA0128F9D121465A
:103C20000148FDF71CFB10BD0044004010B50446E0
:103C300003E014F8010BFFF7E9FF20780028F8D122
:103C400010BD000010B586B0044601210220FCF72B
:103C50008FFF01218804FCF79BFF02208DF81400E0
:103C600000208DF816004FF44060049000208DF87D
:103C7000170002208DF8150004A91248FCF7C9FCB2
:103C800007220A210F48FCF70CFD07220B210D48E3
:103C9000FCF707FD00940020ADF80400ADF8080023
:103CA000ADF806000C20ADF80A000020ADF80C00BD
:103CB00069460548FDF764FA01210348FDF7F7F965
:103CC00006B010BD000402400048004001460A69E9
:103CD000D1E901309860D1E9010358605068884209
:103CE00001D188685060002008611068401E106093
:103CF000106870471CB5002001900120009000BFA3
:103D000001A8FEF783F9B0B1BDF804100CA0FDF7CF
:103D1000ABFA00230A2269460F48006801F01AF83E
:103D200000200E4908604FF4FA60FEF769FA01209E
:103D30000B49C1F8A4024FF4FA7000F0F1FADFE782
:103D400046696E67657220556E6C6F636B21204902
:103D5000443A2025640D0A001C000020A48242423F
:103D60000080424208B500BFFEF750FB00909DF86E
:103D7000000030B100230A2269460448006800F0C0
:103D8000E9FF642000F0CCFAEEE7000020000020FC
:103D900000F1080141604FF0FF31816000F108013E
:103DA000C16001610021016070470021016170471D
:103DB00010B502460B685C1C0CB9106907E002F1F3
:103DC000080000E04068446824689C42FAD94468CE
:103DD0004C604C68A160886041600A611468641C92
:103DE000146010BD42684A6093688B6093685960A4
:103DF0009160086103685B1C0360704708B500BFF1
:103E000000235A1E69462B48006800F075FE012801
:103E1000F6D10023821E19462748006800F06CFE88
:103E20000028EDD0FEF7D8FB0098012805D123A289
:103E300000210846FEF778FC19E00098022805D119
:103E400021A200210846FEF76FFC10E0009803282D
:103E500005D11FA200210846FEF766FC07E0009886
:103E6000042804D11DA200210846FEF75DFC0023B2
:103E70001A4619461048006800F06CFF4FF4FA60CB
:103E800000F04EFA00235A1E19460B48006800F055
:103E900033FE0028B4D0FEF79FFB12A20021084693
:103EA000FEF742FC00231A4619460348006800F05A
:103EB00051FFA5E71C0000202400002046696E6722
:103EC0006572204F4B210000507764204F4B21003A
:103ED00052464944204F4B2100000000424C4520EF
:103EE0004F4B21005761697420556E6C6F636B2EC8
:103EF0002E2E000000BF502080F31188BFF34F8F9B
:103F0000BFF36F8F00BF0E480068401C0C4908606B
:103F100008460068012812D10A480068C0B208B9F2
:103F2000012000E0002050B900BF502080F311882C
:103F3000BFF34F8FBFF36F8F00BF00BFFEE7704727
:103F4000A800002004ED00E00D48006850B900BF53
:103F5000502080F31188BFF34F8FBFF36F8F00BFE6
:103F600000BFFEE706480068401E05490860084695
:103F7000006820B9002080F3118800BF00BF70479F
:103F8000A800002070B506463546002E3FD0083DFB
:103F90002C461F4960680968084008B1012000E00C
:103FA000002050B900BF502080F31188BFF34F8F1D
:103FB000BFF36F8F00BF00BFFEE7206808B9012084
:103FC00000E0002050B900BF502080F31188BFF3FB
:103FD0004F8FBFF36F8F00BF00BFFEE70C496068D3
:103FE0000968084098B1206888B90949606809687B
:103FF0008843606000F038FB06496068096808443F
:10400000044908602046FFF71FF901F0D3F970BD9D
:10401000A40000209C000020064800684FF47A713C
:10402000B0FBF1F0401E4FF0E0214861072008612D
:10403000704700001401002070B5FCF707F9044632
:10404000102C16D304F1E02090F8F05315480078B6
:10405000854201DB012000E0002050B900BF502064
:1040600080F31188BFF34F8FBFF36F8F00BF00BF86
:10407000FEE70D48006800F4E0600C4909688842DA
:1040800001D8012000E0002050B900BF502080F38B
:104090001188BFF34F8FBFF36F8F00BF00BFFEE7E4
:1040A00070BD0000AC0000200CED00E0B00000206E
:1040B00088B0142103A8FCF7F8F80024022001902E
:1040C00000BF00235A1E02A92048006800F014FD1A
:1040D0000128F6D19DF8080023282DD1002003A93E
:1040E00008551B48016803A8FCF7EAF828B91948E5
:1040F000016803A8FCF7E4F8A8B117A0FDF7B4F82D
:1041000000230A2201A91948006800F023FE0020BC
:10411000174908604FF4FA6000F002F901201549D0
:10412000C1F8A40202E014A0FDF79EF8142103A830
:10413000FCF7BBF80024C4E7102CC2DA9DF8082075
:104140002046611CCCB203A90A54BAE72000002023
:10415000945500089855000850617373776F726426
:1041600020556E6C6F636B210D0A00001C0000204F
:10417000A48242420080424250617373776F72643E
:10418000204572726F72210D0A0000000246002065
:104190000BE0084B53F8303033B9064B43F830107E
:1041A00003EBC0035A6002E0401C0828F1D300BFB3
:1041B00070470000A82D01202DE9F04105460E466C
:1041C00017462C46FFF796FE94F94400401C10B9A0
:1041D000002084F8440094F94500401C10B90020E8
:1041E00084F84500FFF7B0FEA06B28B93A46314687
:1041F00004F1240000F05EF92046FFF736FABDE82E
:10420000F08100001CB5002001900320009000BF49
:1042100001A8FFF7ADFB00282CD0194901980860D0
:1042200018A00199FDF720F81B48006818B91BA0D9
:10423000FDF71AF81EE0184901980968884216D15E
:1042400025A00199FDF710F800230A2269462948A4
:10425000006800F07FFD0020274908604FF4FA60F5
:1042600000F05EF801202549C1F8A40202E024A074
:10427000FCF7FAFF4FF4967000F052F8C8E7000020
:104280002C0000205246494420436172643A2025A4
:104290003038580D0A000000300000204E6F2063B7
:1042A000617264207361766564207965742E205391
:1042B000656E642027736176655F636172642A2787
:1042C00020746F2073617665207468697320636160
:1042D00072642E0D0A0000005246494420556E6C4F
:1042E0006F636B2120436172643A20253038580D8A
:1042F0000A0000001C000020A482424200804242CA
:10430000524649442044656E6965642120556E6BB0
:104310006E6F776E20636172642E0D0A00000000DC
:1043200070B504460025D4B11248006808B90120D0
:1043300000E0002050B900BF502080F31188BFF387
:104340004F8FBFF36F8F00BF00BFFEE700F08CF907
:1043500000212046FEF7F8FC01F02CF805463DB997
:104360004FF0805004490860BFF34F8FBFF36F8F49
:1043700070BD0000EC00002004ED00E070B50546C3
:10438000FFF7B8FD15B93048006800E0284604463C
:10439000201DFFF79BFC78B9E06A00EB80002B49F9
:1043A00051F8200040B994F82C1001208840284989
:1043B0000968814326480160A06A18B104F1180019
:1043C000FFF784FC23480068401C224908601E480F
:1043D0000068844209D1211D1F48FFF703FD1F48D3
:1043E0000068401C1D49086009E01D480068401E27
:1043F0001B4908602046FEF706FEFFF789F8FFF725
:10440000A3FD18480068E8B10F480068844219D13C
:104410001548006808B9012000E0002050B900BF2D
:10442000502080F31188BFF34F8FBFF36F8F00BF11
:1044300000BFFEE74FF080500C490860BFF34F8F7C
:10444000BFF36F8F70BD0000B4000020E82D012085
:10445000CC000020E0000020502F0120C0000020F0
:10446000C4000020D0000020EC00002004ED00E09B
:104470000120014908607047D800002070B504464B
:104480000D4654B900BF502080F31188BFF34F8F01
:10449000BFF36F8F00BF00BFFEE70548016818310A
:1044A0002046FFF785FC01212846FEF74DFC70BD34
:1044B000B400002070B505460E46144655B900BF3D
:1044C000502080F31188BFF34F8FBFF36F8F00BF71
:1044D00000BFFEE70648016818312846FFF782FC56
:1044E0000CB14FF0FF3621463046FEF72DFC70BD73
:1044F000B400002070B505462C46002D4BD026494F
:10450000E06A0968C96A884245D2A06900F00040A3
:1045100028B921480068C06AC0F10F00A061E16AB3
:1045200001EB81011D4A02EB81016069884201D1E2
:10453000012000E0002050B3201DFFF7C7FB78B931
:10454000E06A00EB8000154951F8200040B994F86A
:104550002C100120884012490968814310480160ED
:104560000D480068C06AE06294F82C100120884071
:104570000B49096808430A490860E16A01EB8101B7
:10458000064A02EB8100211DFFF72CFC03E00248E4
:104590000068C06AE06270BDB4000020E82D012010
:1045A000CC00002050B900BF502181F31188BFF327
:1045B0004F8FBFF36F8F00BF00BFFEE7034909684D
:1045C000016003490968416070470000DC00002079
:1045D000C80000201CB51D4800210B468222CDE9F1
:1045E00000101BA11C4800F04BFD0446012C02D119
:1045F00000F062FF0446012C15D100BF502080F36B
:104600001188BFF34F8FBFF36F8F00BF4FF0FF30A4
:104610001249086001201249086000201149086011
:1046200000F08EF910E0601C08B1012000E00020CD
:1046300050B900BF502080F31188BFF34F8FBFF3F4
:104640006F8F00BF00BFFEE71CBD0000E800002028
:1046500049444C4500000000BD300008E400002043
:10466000D0000020C800002002480068401C01491A
:1046700008607047EC0000201D48006818B1012058
:104680001C49086032E000201A4908601A48006896
:10469000B0FA80F0C0F11F0101EB8100174A52F817
:1046A000200008B1012000E0002050B900BF5020D8
:1046B00080F31188BFF34F8FBFF36F8F00BF00BF30
:1046C000FEE701EB81020D4B03EB8200426852686A
:1046D000426000F108024368934202D14268526886
:1046E00042604268D268064B1A6000BF7047000003
:1046F000EC000020D8000020CC000020E82D012094
:10470000B400002000BFFEF7B9F8FEF75BF83220D6
:10471000FFF706FEF7E7000000B5C1B02DA0FCF7DB
:10472000A3FD32A000F0F6F840F2DC50FFF7F8FDF0
:104730002FA000F0EFF84FF4FA612FA000F0D2F8AC
:104740002EA000F0E7F84FF4FA612BA000F0CAF8B1
:104750002F48304B30A24FF48071009001A8FCF735
:1047600093FD01A800F0D6F82A4932A0FCF77CFDA1
:1047700042F2107120A000F0B5F820B134A0FCF78F
:1047800073FD41B000BD36A24FF4807101A8FCF763
:104790007BFD01A800F0BEF83BA0FCF765FD42F2EE
:1047A00010713EA000F09EF818B13EA0FCF75CFD31
:1047B000E7E73FA000F0AEF840F6B8310EA000F0F9
:1047C00091F83FA000F0A6F841A0FCF74DFD00BF16
:1047D000D7E70000576946692073657475702073C8
:1047E000746172742E2E2E0D0A0000002B2B2B00EC
:1047F000415445300D0A00004F4B000041542B43FB
:10480000574D4F44455F4355523D310D0A0000005E
:10481000600000204000002041542B43574A415083
:104820005F4355523D222573222C222573220D0A07
:10483000000000005769466920636F6E6E656374FF
:10484000696E673A202573202E2E2E0D0A00000077
:1048500057694669204641494C210D0A0000000075
:1048600041542B43495053544152543D22544350D8
:10487000222C2231302E3134392E35352E39362244
:104880002C383030300D0A0054435020636F6E6E68
:10489000656374696E672E2E2E0D0A00434F4E4ECF
:1048A00045435400544350204641494C210D0A00D1
:1048B00041542B4349504D4F44453D310D0A0000B2
:1048C00041542B43495053454E440D0A000000000B
:1048D0005769466920736574757020646F6E652131
:1048E0000D0A000070B504460D4600260AE0214678
:1048F0000748FBF7E5FC08B1002070BD0120FFF779
:104900000FFD761CAE42F2D34FF0FF30F5E700000A
:104910006801002010B5044640210648FBF7C5FC9D
:10492000002005490870054908702046FFF77EF908
:1049300010BD0000680100203E0000203F00002064
:104940001CB5474800684749884201D0012000E073
:10495000002050B900BF502080F31188BFF34F8F63
:10496000BFF36F8F00BF00BFFEE73D4800683D49C1
:10497000491E884201D0012000E0002050B900BF4C
:10498000502080F31188BFF34F8FBFF36F8F00BFAC
:1049900000BFFEE73449084600780190FF200A4630
:1049A00010700846007800909DF8000000F0F000BC
:1049B0009DF80020904201D1012000E0002050B974
:1049C00000BF502080F31188BFF34F8FBFF36F8F6C
:1049D00000BF00BFFEE79DF8000000F05000234A32
:1049E00010700720224A106009E021480068401E2C
:1049F0001F4A10609DF800004006000E00909DF8D0
:104A0000000000F080008028EFD019480068000204
:104A1000174A10601046008800F4E0601060124AE7
:104A2000019810700E482030006840F470000C4966
:104A3000203108600846006840F070400860FFF7C9
:104A4000EBFA00200B490860FBF7C8FB0A48006836
:104A500040F0404008490860FBF7B0FB00201CBD57
:104A600000ED00E071C20F4100E400E0AC00002066
:104A7000B0000020A800002034EF00E02DE9F04154
:104A800004460126002722460021012000F007F8F5
:104A900005462846FEF726FB2846BDE8F0812DE9AD
:104AA000F84305460E4690460DB1012000E0002077
:104AB00050B900BF502080F31188BFF34F8FBFF370
:104AC0006F8F00BF00BFFEE70EB9002701E005FBB6
:104AD00006F707F15000FEF707FE044644B104F163
:104AE000500943464A46314628460094FEF708FBE3
:104AF0002046BDE8F88300002DE9FF4782B0054657
:104B00000E461F464FF0000A2C4654B900BF5020F5
:104B100080F31188BFF34F8FBFF36F8F00BF00BFCB
:104B2000FEE70EB9206C08B9012000E0002050B962
:104B300000BF502080F31188BFF34F8FBFF36F8FFA
:104B400000BF00BFFEE700F0CBFA08B9049808B92F
:104B5000012000E0002050B900BF502080F31188F0
:104B6000BFF34F8FBFF36F8F00BF00BFFEE700BFE3
:104B7000FFF7C0F9D4F83890B9F1000F3DD0D4F860
:104B80000C8031462046FEF7EBF9DFB9A9F10100B0
:104B9000A063206810B9FEF745FE6060206908B97F
:104BA000012000E0002010BB04F1100000F0B6FB73
:104BB000E8B14FF0805040490860BFF34F8FBFF31A
:104BC0006F8F14E0C4F80C80606A08B9012000E01F
:104BD000002060B904F1240000F0A0FB38B14FF0D0
:104BE000805035490860BFF34F8FBFF36F8FFFF7D9
:104BF000ABF9012006B0BDE8F087049818B9FFF7BB
:104C0000A3F90020F6E7BAF1000F04D16846FFF7D8
:104C1000C9FC4FF0010AFFF797F9FFF725FDFFF7F1
:104C200069F994F94400401C10B9002084F844004C
:104C300094F94500401C10B9002084F84500FFF7A6
:104C400083F904A9684600F0D5F940BB2046FEF779
:104C50005BFBF0B1206830B9FFF74CF96068FFF7F3
:104C600049FCFFF771F904F124000499FFF706FCF1
:104C70002046FEF7FAFC00F09DFB00287FF478AF99
:104C80004FF080500C490860BFF34F8FBFF36F8F18
:104C90006EE72046FEF7E9FC00F08CFB68E7204653
:104CA000FEF7E3FC00F086FB2046FEF72DFB002814
:104CB000EED000209EE7000004ED00E070B5054650
:104CC0000E462C4654B900BF502080F31188BFF324
:104CD0004F8FBFF36F8F00BF00BFFEE7FFF70AF9EA
:104CE000D4E90F12206801FB020060600020A0637D
:104CF0002068A060E06B401E226C216800FB02105F
:104D0000E060FF2084F8440084F845009EB92069E3
:104D100008B9012000E00020A8B904F1100000F05B
:104D2000FDFA80B14FF0805009490860BFF34F8F02
:104D3000BFF36F8F07E004F11000FFF729F804F1CB
:104D40002400FFF725F8FFF7FFF8012070BD0000F1
:104D500004ED00E02DE9FF4383B0064688461D467A
:104D60004FF00009344654B900BF502080F3118839
:104D7000BFF34F8FBFF36F8F00BF00BFFEE7B8F1E7
:104D8000000F01D1206C08B9012000E0002050B9CB
:104D900000BF502080F31188BFF34F8FBFF36F8F98
:104DA00000BF00BFFEE7022D02D1E06B012801D158
:104DB000012000E0002050B900BF502080F311888E
:104DC000BFF34F8FBFF36F8F00BF00BFFEE700F050
:104DD00087F908B9059808B9012000E0002050B90A
:104DE00000BF502080F31188BFF34F8FBFF36F8F48
:104DF00000BF00BFFEE700BFFFF77CF8A06BE16BD0
:104E0000884201D3022D28D12A4641462046FEF78A
:104E1000BCF80746606A08B9012000E0002068B9C4
:104E200004F1240000F07AFA88B14FF08050324942
:104E30000860BFF34F8FBFF36F8F08E03FB14FF0B3
:104E400080502D490860BFF34F8FBFF36F8FFFF77E
:104E50007BF8012007B0BDE8F083059818B9FFF78B
:104E600073F80020F6E7B9F1000F04D101A8FFF7AD
:104E700099FB4FF00109FFF767F8FFF7F5FBFFF724
:104E800039F894F94400401C10B9002084F844001B
:104E900094F94500401C10B9002084F84500FFF744
:104EA00053F805A901A800F0A5F8F0B92046FEF7CF
:104EB00038FAA0B104F110000599FFF7DFFA204697
:104EC000FEF7D3FB00F076FA002895D14FF0805022
:104ED00009490860BFF34F8FBFF36F8F8CE72046FF
:104EE000FEF7C3FB00F066FA86E72046FEF7BDFB3F
:104EF00000F060FA0020ADE704ED00E02DE9F05F7E
:104F000007468A4690461E463C4654B900BF50208C
:104F100080F31188BFF34F8FBFF36F8F00BF00BFC7
:104F2000FEE7BAF1000F01D1206C08B9012000E0C2
:104F3000002050B900BF502080F31188BFF34F8F7D
:104F4000BFF36F8F00BF00BFFEE7022E02D1E06B00
:104F5000012801D1012000E0002050B900BF5020FD
:104F600080F31188BFF34F8FBFF36F8F00BF00BF77
:104F7000FEE7FFF761F800BF5021EFF3118081F3E6
:104F80001188BFF34F8FBFF36F8F00BF0546A06B33
:104F9000E16B884201D3022E23D194F945B0324609
:104FA00051462046FDF7F1FF0BF1010088B9606A18
:104FB00008B9012000E0002080B904F1240000F0CD
:104FC000ADF958B1B8F1000F08D00120C8F80000C1
:104FD00004E00BF1010040B284F845004FF00109F4
:104FE00001E04FF0000900BF85F3118800BF48467B
:104FF000BDE8F09F70B504460D4654B900BF50207F
:1050000080F31188BFF34F8FBFF36F8F00BF00BFD6
:10501000FEE755B900BF502080F31188BFF34F8FD2
:10502000BFF36F8F00BF00BFFEE7FEF763FF1248BC
:1050300003682868401C08B9002619E00F49206859
:105040000968884204D06068984201D801260FE0C0
:105050006068181A2968884209D228686168591A54
:10506000401A28602046FFF79DFA002600E001263E
:10507000FEF76AFF304670BDC8000020DC0000204B
:105080002DE9FF4F85B0804689461746DDE912AB12
:10509000B800FEF729FB064656B15820FEF724FB60
:1050A00004460CB1266304E03046FEF76BFF00E0D7
:1050B00000247CB10020CDE900ABCDE902403A46A6
:1050C00049464046089BFEF730F82046FDF788FE2B
:1050D000012501E04FF0FF35284609B0BDE8F08F0B
:1050E0000549096809B9012005E00449096809B9B9
:1050F000022000E000207047D0000020EC000020DB
:105100000149086870470000C80000202DE9F041FF
:105110004FF0000844480068002877D143480068F1
:10512000451C4248056015BB41480068006808B945
:10513000012000E0002050B900BF502080F311880A
:10514000BFF34F8FBFF36F8F00BF00BFFEE738483C
:1051500007683848006836490860364807603648AE
:105160000068401C34490860FEF7D2F900BF33489C
:10517000006885423CD300BF2D480068006808B92C
:10518000012000E0002020B14FF0FF302B490860E3
:105190002DE027480068C068C4686668B54202D23E
:1051A0002648066023E0201DFEF790FDA06A18B196
:1051B00004F11800FEF78AFD94F82C1001208840B5
:1051C0001F49096808431E490860E16A01EB810133
:1051D0001C4A02EB8100211DFEF704FE1A49E06A19
:1051E0000968C96A8842C7D34FF00108C4E700BF05
:1051F00015480068C06A00EB8000124951F8200091
:10520000012801D94FF0010805E0FFE70F480068C9
:10521000401C0E4908600E48006808B14FF00108B4
:105220004046BDE8F0810000EC000020C8000020EE
:10523000B8000020BC000020DC000020E4000020BA
:10524000CC000020E82D0120B4000020D400002074
:10525000D800002070B505462C460026002D55D0FC
:105260002B480068844201D1012000E0002050B9A1
:1052700000BF502080F31188BFF34F8FBFF36F8FB3
:1052800000BF00BFFEE7E06C50B900BF502080F3C4
:105290001188BFF34F8FBFF36F8F00BF00BFFEE7D2
:1052A000E06C401EE064A16CE06A88422ED0E06CA5
:1052B00060BB201DFEF70AFD78B9E06A00EB8000B4
:1052C000144951F8200040B994F82C10012088406E
:1052D00011490968814310480160A06CE062E06AEE
:1052E000C0F10F00A06194F82C10012088400A49F9
:1052F0000968084308490860E16A01EB8101054A31
:1053000002EB8100211DFEF76DFD0126304670BDC8
:10531000B4000020E82D0120CC00002070B5064626
:10532000F068C46854B900BF502080F31188BFF3FF
:105330004F8FBFF36F8F00BF00BFFEE704F118006F
:10534000FEF7C4FC15480068A8B9201DFEF7BEFC96
:1053500094F82C100120884011490968084310492D
:105360000860E16A01EB81010E4A02EB8100211D18
:10537000FEF738FD04E004F118010B48FEF732FD9A
:105380000A49E06A0968C96A884204D901250120EE
:105390000749086000E00025284670BDEC000020A9
:1053A000CC000020E82D01203C2F0120B40000207B
:1053B000D800002070B5002400263648006850B997
:1053C00000BF502080F31188BFF34F8FBFF36F8F62
:1053D00000BF00BFFEE7FEF78DFD2E480068401EAF
:1053E0002C4908600846006800284FD12A48006808
:1053F00000284BD024E02948C068C46804F1180094
:10540000FEF764FC201DFEF761FC94F82C100120CF
:10541000884023490968084321490860E16A01EB93
:105420008101204A02EB8100211DFEF7DBFC1E49B1
:10543000E06A0968C96A884202D301201B490860F2
:105440001648006808B9012000E000200028D2D0EA
:105450000CB1FEF75DF81648056865B100BFFFF7AF
:1054600055FE10B10120114908606D1E002DF6D1C6
:1054700000200F4908600D48006838B10126300748
:105480000C490860BFF34F8FBFF36F8FFEF75CFDD1
:10549000304670BDEC000020C40000203C2F0120ED
:1054A000CC000020E82D0120B4000020D80000200E
:1054B000D400002004ED00E01CB50024FDF7ECFC56
:1054C0000E48006858B10E48022100234FF4827242
:1054D000CDE900100BA10D48FFF7D2FD044654B9E9
:1054E00000BF502080F31188BFF34F8FBFF36F8F41
:1054F00000BF00BFFEE720461CBD0000F8000020F2
:10550000FC000020546D7220537663005136000871
:105510002DE9FE4304460D4616461F46DDF8288059
:105520004FF0000954B900BF502080F31188BFF339
:105530004F8FBFF36F8F00BF00BFFEE714480068B6
:1055400010B3009501960294062D15DAFFF7C8FDF9
:10555000022808D10023424669460D480068FFF73B
:10556000F9FB814610E000231A46694608480068A6
:10557000FFF7F0FB814607E000233A4669460448FE
:105580000068FFF7BBFC81464846BDE8FE8300008B
:10559000F8000020A45B00089C5B000800000000ED
:1055A000000000000000000000000000000000F803
:1055B00000000000000000333000000000100C0666
:1055C000100C0600000000000000000040C0784001
:1055D000C0784000043F04043F040400007088FCCD
:1055E00008300000001820FF211E0000F008F00025
:1055F000E018000000211C031E211E0000F0088896
:10560000700000001E2123241927211010160E00FF
:10561000000000000000000000000000000000E0AA
:1056200018040200000000071820400000020418BF
:10563000E00000000040201807000000404080F01B
:10564000804040000202010F01020200000000F051
:10565000000000000001011F010100000000000027
:10566000000000000080B07000000000000000009A
:105670000000000000010101010101000000000024
:1056800000000000003030000000000000000000BA
:1056900080601804006018060100000000E0100897
:1056A0000810E000000F102020100F00001010F86C
:1056B000000000000020203F2020000000700808AB
:1056C000088870000030282422213000003008882B
:1056D000884830000018202020110E000000C02053
:1056E00010F8000000070424243F240000F8088874
:1056F000880808000019212020110E0000E0108801
:1057000088180000000F112020110E000038080832
:10571000C83808000000003F000000000070880842
:1057200008887000001C222121221C0000E01008C3
:105730000810E0000000312222110F00000000C01C
:10574000C0000000000000303000000000000080B9
:1057500000000000000080600000000000008040A9
:1057600020100800000102040810200040404040C2
:105770004040400004040404040404000008102015
:10578000408000000020100804020100007048085A
:105790000808F0000000003036010000C030C828C2
:1057A000E810E0000718272423140B000000C0387D
:1057B000E0000000203C23020227382008F88888F7
:1057C00088700000203F202020110E00C030080803
:1057D00008083800071820202010080008F80808DA
:1057E0000810E000203F202020100F0008F88888D3
:1057F000E8081000203F20202320180008F888889F
:10580000E8081000203F200003000000C030080816
:105810008888380007182020201F000008F888001A
:105820000088F808203F210000203F20000808F8E9
:10583000080800000020203F202000000000080889
:10584000F8080800C08080807F00000008F888C049
:1058500028180800203F20012638200008F80800FA
:1058600000000000203F20202020300008F8F80031
:10587000F8F80800203F003F003F200008F830C043
:1058800000F80800203F200007183F00E01008083B
:105890000810E0000F10202020100F0008F8080862
:1058A0000808F000203F210101010000E010080875
:1058B0000810E0000F18242438504F0008F888889A
:1058C00088887000203F2000030C3020007088087A
:1058D000080838000038202121221C00180808F888
:1058E000080818000000203F2000000008F8080009
:1058F0000008F808001F202020201F0008788800DA
:1059000000C83808000007380E010000F80800F849
:105910000008F800033C0700073C030008186880F3
:105920008068180820302C03032C30200838C80069
:10593000C83808000000203F2000000010080808B8
:10594000C83808002038262120201800000000FE5A
:10595000020202000000007F40404000000C30C006
:1059600000000000000000010638C0000002020232
:10597000FE000000004040407F00000000000402E4
:10598000020204000000000000000000000000000F
:1059900000000000808080808080808000020204FF
:1059A00000000000000000000000000000008080F7
:1059B000808000000019242222223F2008F8008065
:1059C00080000000003F112020110E000000008028
:1059D00080800000000E11202020110000000080B7
:1059E0008088F800000E112020103F2000008080E9
:1059F00080800000001F222222221300008080F0FD
:105A0000888888180020203F202000000000808027
:105A100080808000006B94949493600008F800806C
:105A200080800000203F210000203F2000809898C7
:105A3000000000000020203F202000000000008027
:105A40009898000000C08080807F000008F8000067
:105A500080808000203F24022D302000000808F8BC
:105A6000000000000020203F202000008080808077
:105A700080808000203F20003F20003F8080008009
:105A800080800000203F210000203F200000808017
:105A900080800000000E112020110E008080008008
:105AA0008000000080FFA12020110E000000008077
:105AB00080808000000E112020A0FF808080800068
:105AC0008080800020203F21200001000000808095
:105AD000808080000033242424241900008080E08A
