:020000040800F2
:1000000040340120550200085D0200085F0200082C
:100010006102000863020008650200080000000099
:100020000000000000000000000000009D0100082A
:100030006902000800000000F1010008A90E000894
:100040006F0200086F0200086F0200086F020008CC
:100050006F0200086F020008210400086F02000808
:10006000550400088D040008B10400086F02000860
:100070006F0200086F0200086F0200086F0200089C
:100080006F0200086F0200086F0200086F0200088C
:100090006F0200086F0200086F0200086F0200087C
:1000A000450F00086F0200086F0200086F02000889
:1000B000750F0008A10F00086F0200086F0200080A
:1000C0006F0200086F0200086F0200086F0200084C
:1000D0006F020008291000086F020008A91000082C
:1000E0006F0200086F0200086F0200086F0200082C
:1000F0006F0200086F0200086F0200086F0200081C
:100100006F0200086F0200086F0200086F0200080B
:100110006F0200086F0200086F0200086F020008FB
:100120006F0200086F0200086F0200086F020008EB
:100130006F0200086F0200086F0200086F020008DB
:100140006F0200086F0200086F0200086F020008CB
:100150006F0200086F0200086F0200086F020008BB
:100160006F0200086F0200086F0200086F020008AB
:100170006F0200086F0200086F0200086F0200089B
:100180006F0200086F020008DFF80CD000F0ECF8F6
:1001900000480047A12C0008403401202A4B196870
:1001A0000868B0E8F04F80F30988BFF36F8F4FF015
:1001B000000080F3118870470000000006480068C6
:1001C000006880F3088862B661B6BFF34F8FBFF353
:1001D0006F8F00DF00BF00BF08ED00E0DFF80C000C
:1001E000016841F470010160704700BF88ED00E0D4
:1001F000EFF30980BFF36F8F134B1A681EF0100FD7
:1002000008BF20ED108A20E9F04F106008B44FF0CD
:10021000500080F31188BFF34F8FBFF36F8F06F04C
:1002200027FB4FF0000080F3118808BC19680868AC
:10023000B0E8F04F1EF0100F08BFB0EC108A80F34A
:100240000988BFF36F8F704704010020EFF305802A
:10025000704700000648804706480047FEE7FEE773
:10026000FEE7FEE7FEE7FEE7FEE7FEE7FEE7FEE766
:10027000DD0E00088901000840EA01039B0703D056
:1002800009E008C9121F08C0042AFAD203E011F8D5
:10029000013B00F8013B521EF9D27047D2B201E097
:1002A00000F8012B491EFBD270470022F6E710B57B
:1002B00013460A4604461946FFF7F0FF204610BDD4
:1002C00030B505462A460B4612F8010B13F8014BD0
:1002D00008B1A042F8D01CB1002802D06D1CF1E793
:1002E000284630BD421C10F8011B0029FBD1801AA2
:1002F0007047034611F8012B00F8012B002AF9D1B1
:10030000184670472DE9F05F0546002092469B464F
:1003100088460646814640241BE02846414647461B
:10032000224600F042F853465A46C01A914110D373
:1003300011461846224600F029F82D1A67EB0108ED
:100340004F4622460120002100F020F817EB00095B
:100350004E41201EA4F10104DFDC484631462A4606
:100360004346BDE8F09F0000064C074D06E0E068FC
:1003700040F0010394E8070098471034AC42F6D3EC
:10038000FFF706FF2889000848890008202A04DBB7
:10039000203A00FA02F1002070479140C2F1200398
:1003A00020FA03F3194390407047202A04DB203AD7
:1003B00021FA02F00021704721FA02F3D040C2F185
:1003C0002002914008431946704770B58C1810F808
:1003D000015B15F0070301D110F8013B2A1106D18A
:1003E00010F8012B03E010F8016B01F8016B5B1EA4
:1003F000F9D12B0705D40023521E0DD401F8013B7F
:10040000FAE710F8013BCB1A921C03E013F8015BEA
:1004100001F8015B521EF9D5A142D8D3002070BD6E
:1004200010B500BF5021EFF3118081F31188BFF3A5
:100430004F8FBFF36F8F00BF0446012000F050F8CC
:10044000012801D100F046F800BF84F3118800BFF5
:1004500010BD000010B5042000F042F801280DD1B5
:1004600007480068C0430749C1F8A4024FF4FA7175
:10047000054800F0D7FD042000F02CF810BD000066
:10048000A4824242008042420004004010B508208D
:1004900000F026F8012807D14FF44871034800F016
:1004A000C1FD082000F016F810BD00000004004057
:1004B00010B5102000F014F8012807D140F2DE3109
:1004C000034800F0AFFD102000F004F810BD00005C
:1004D000000400400149086070470000143C0140DE
:1004E00001460020034A12680A400AB1012000E0D8
:1004F00000207047143C014001490860704700002B
:100500000C3C024070B504460A460026092502B993
:1005100009E0012A01D1160205E0022A01D11602E2
:1005200001E04FF4407600F09FF80546092D28D1F0
:100530001548006820F440701349086008460068B8
:10054000304308600846006820F0F800086008465C
:10055000006844F0020108430B490860084600683F
:1005600040F48030086000F07FF8054606480068D7
:1005700020F00200044908600846006820F0F800F6
:100580000860284670BD0000103C02400920134955
:10059000096801F48031B1F5803F01D101201CE0F0
:1005A0000E49096801F0100109B1062015E00B4958
:1005B000096801F4807109B102200EE00749096859
:1005C00001F0EF0109B1072007E00449096801F0D3
:1005D000020109B1082000E0092070470C3C0240EC
:1005E0000348006840F0004001490860704700007F
:1005F000103C024030B502460C46092500F034F8A4
:100600000546092D19D10E48006820F440700C49A8
:1006100008600846006840F40070086008460068FA
:1006200040F001000860146000F01EF80546044820
:10063000006820F0010002490860284630BD000033
:10064000103C02400548006800F0004028B1044812
:1006500002490C390860034808607047103C0240AA
:1006600023016745AB89EFCD08B509200090FFF75E
:100670008DFF009002E0FFF789FF00909DF80000D9
:100680000128F8D09DF8000008BDF0B50A46002109
:100690000023002400BF3DE0012505FA01F31568A1
:1006A00005EA03049C4234D105684F000326BE408E
:1006B000B543056015794E00B540066835430560C1
:1006C0001579012D02D01579022D16D185684F00BC
:1006D0000326BE40B543856055794E00B540866817
:1006E00035438560456801268E40B54345604568C1
:1006F00096798E40B6B235434560C5684F000326F3
:10070000BE40B543C560D5794E00B540C668354397
:10071000C560491C1029BFD3F0BDF0B500230024EB
:100720004D07ED0E02FA05F3CE1000F1200555F845
:1007300026504E07F70E0F26BE40B543CF1000F1EE
:10074000200646F82750CE1000F1200555F8265017
:1007500045EA0304CE1000F1200545F82640F0BD1F
:100760000246002013690B400BB1012000E000207D
:1007700070474183704701837047000010B54FF404
:1007800000710E48FFF7F7FF4FF480710B48FFF739
:10079000F2FF052001F03EFF4FF400710748FFF71C
:1007A000E8FF052001F036FF4FF480710348FFF7A2
:1007B000E0FF052001F02EFF10BD00000004024004
:1007C00010B54FF480710E48FFF7D3FF4FF400715E
:1007D0000B48FFF7CEFF052001F01CFF4FF480719E
:1007E0000748FFF7C8FF052001F014FF4FF4007120
:1007F0000348FFF7C0FF052001F00CFF10BD00000B
:100800000004024010B54FF400711048FFF7B3FF29
:1008100000F08EFA022001F0FDFE4FF480710B48CB
:10082000FFF7A9FF022001F0F5FE0848103000682C
:10083000C0F340244FF480710448FFF79AFF00F0A2
:1008400081FA022001F0E6FE204610BD00040240BD
:1008500070B50446002521E004F0800028B14FF473
:1008600000711148FFF787FF04E04FF400710E4854
:10087000FFF77FFF4FF480710B48FFF77CFF0520E7
:1008800001F0C8FE4FF480710748FFF772FF0520A2
:1008900001F0C0FE6006040E681CC5B2082DDBDB4B
:1008A000FFF7B0FF70BD00000004024070B50021EA
:1008B00000230F22C4781CB3174C246804F4E064AE
:1008C000C4F5E064C4F30721C1F10404E3B20A41B2
:1008D00044789C40E1B28478144021430C07210EF7
:1008E0000E4C05786155047804F01F050124AC40D6
:1008F00005786D11AD0005F1E025C5F8004109E06E
:10090000047804F01F050124AC40054D06787611EB
:1009100045F8264070BD00000CED00E000E400E06A
:1009200080E100E002490143024A11607047000083
:100930000000FA050CED00E010B50446FFF71EFFBD
:1009400006480078FFF784FF0020FFF781FF20466C
:10095000FFF77EFFFFF734FF10BD0000840000208A
:1009600010B50446FFF70AFF06480078FFF770FF4E
:100970004020FFF76DFF2046FFF76AFFFFF720FFDB
:1009800010BD00008400002010B5142000F038F8DD
:10099000044604F0030018B90321142000F07AF88B
:1009A00010BD7CB5044600210D2000F007F993200E
:1009B00020702020607001A823460222214600906A
:1009C0000C2000F074F808B101207CBD2078882844
:1009D00007D0002503E0605D6055681CC5B2042D9A
:1009E000F9DB0020F1E770B505460C46284600F01B
:1009F00007F820EA04063146284600F0DFF870BD0B
:100A000070B5044680210A48FFF7B3FE7E2101EA53
:100A1000440141F0800000F09FF9002000F09CF9B3
:100A2000054680210248FFF7A6FE284670BD00005B
:100A3000000C02407CB505460C4607210D2000F055
:100A4000BDF8257001A823460122214600900C2004
:100A500000F02DF808B101207CBD9DF8040010289D
:100A600001D00220F8E70020F6E7000010B54FF4AF
:100A700000610748FFF77DFE0A2003F05BFC4FF49E
:100A800000610348FFF777FE0A2003F053FC10BD16
:100A90000008024070B505460C462846FFF7B0FF37
:100AA00040EA04063146284600F088F870BD2DE97A
:100AB000FC5F0546894692469B46002001900090C7
:100AC0000C2D03D17720019030200090019840F048
:100AD0008001022000F072F880210420FFF783FFDC
:100AE0000021012000F06AF880210A20FFF7D2FFE0
:100AF000002406E019F80410092000F05FF8601CDB
:100B0000C4B25445F6DB2946012000F057F80C2DFD
:100B100003D180210D20FFF7BDFF4FF4FA6600BF1F
:100B20000420FFF76DFF0446701E86B236B104F054
:100B3000010018B9009820400028F1D080210D2034
:100B4000FFF751FF16B90120BDE8FC9F0420FFF715
:100B500057FF00F0010008B10220F5E70420FFF77D
:100B60004FFF00F0010030BB0A20FFF749FF0446A9
:100B70000C20FFF745FF00F00708B8F1000F06D082
:100B8000601E08EBC000C1B20C98017003E0E006E3
:100B9000010E0C98017004B90124102C00DD102402
:100BA000002706E00920FFF72BFF0BF80700781C51
:100BB000C7B2A742F6DB0020C6E7000070B50446C6
:100BC0000D4680210748FFF7D4FD7E2101EA44004D
:100BD00000F0C2F8284600F0BFF880210148FFF776
:100BE000CAFD70BD000C024029B1064A12680243DA
:100BF000044B1A6004E0034A12688243014B1A60F6
:100C0000704700003038024029B1064A126802439A
:100C1000044B1A6004E0034A12688243014B1A60D5
:100C2000704700004038024029B1064A126802436A
:100C3000044B1A6004E0034A12688243014B1A60B5
:100C40007047000044380240F0B500210022002423
:100C5000022500260223324F3F6807F00C0121B124
:100C6000042905D0082937D105E02E4F076036E06A
:100C70002D4F076033E02A4F3F1F3F68C7F3805670
:100C8000274F3F1F3F6807F03F036EB1264FB7FB6A
:100C9000F3F7DFF88CC0ACF1040CDCF800C0CCF347
:100CA000881C07FB0CF40CE01E4FB7FBF3F7DFF8D2
:100CB00070C0ACF1040CDCF800C0CCF3881C07FB5E
:100CC0000CF4174F3F1F3F68C7F301477F1C7D009F
:100CD000B4FBF5F7076002E0124F076000BF00BFEA
:100CE0000F4F3F6807F0F0010909104F7A5C076861
:100CF000D74047600A4F3F6807F4E051890A0B4F1D
:100D00007A5C4768D7408760054F3F6807F46041C9
:100D1000490B064F7A5C4768D740C760F0BD0000BA
:100D2000083802400024F40000127A005401002028
:100D30000348006820F44020014908607047000023
:100D4000000402400348006840F480200149086024
:100D5000704700000004024070B50446002525E0FD
:100D600004F0800020B140211248FFF704FD03E0A9
:100D700040211048FFF7FDFC03F0D6FB40210E4850
:100D8000FFF7F9FC03F0D0FB6006040E4FF480710E
:100D90000848FFF7E5FC08B144F00104402106488B
:100DA000FFF7E7FC03F0C0FB681CC5B2082DD7DBDA
:100DB000204670BD00080240000C02400CB5002027
:100DC000019000903448006840F480303249086057
:100DD00000BF3148006800F4003000900198401CCA
:100DE0000190009818B90198B0F5A04FF1D12A48A8
:100DF000006800F4003010B10120009001E00020F4
:100E000000900098012846D123484030006840F007
:100E100080502149403108602048006840F440403B
:100E20001E4908601C48083000681B4908310860EA
:100E30000846006840F4004008600846006840F436
:100E4000A05008601648091F0860081F006840F09D
:100E50008070091F086000BF0F48006800F0007034
:100E60000028F9D040F205700E4908600A480830A1
:100E7000006820F00300084908310860084600684F
:100E800040F00200086000BF03480830006800F02E
:100E90000C000828F8D10CBD00380240007000405A
:100EA00008544007003C024010B500BF502080F3BA
:100EB0001188BFF34F8FBFF36F8F00BF06F05AFF4B
:100EC00018B14FF080500449086000BF002080F343
:100ED000118800BF10BD000004ED00E010B51548FA
:100EE000006840F47000134908601348006840F03F
:100EF00001001149086000200F49083108600E48C0
:100F000000680E4908400C4908600D48091D08603A
:100F1000081F006820F48020091F0860002006498F
:100F20000C310860FFF74AFF4FF00060014980393B
:100F3000086010BD88ED00E000380240FFFFF6FEBB
:100F40001030002410B50121074800F05AF801289C
:100F500009D106480068C0430549C1F8B80201211B
:100F6000014800F03FF810BD00400140B802424285
:100F70000000424210B50121880700F042F8012824
:100F800009D105480068C0430449C1F8A402012101
:100F9000880700F027F810BDA48242420080424238
:100FA00010B501210B4800F02CF8012810D10A4897
:100FB000006828B909480068C0430949C1F8A4027B
:100FC0000021044800F011F80121024800F00AF85D
:100FD00010BD00000004004008024242A4824242C8
:100FE00000804242CA430282704721B1028842F027
:100FF0000102028004E002884FF6FE731A4002806C
:10100000704730B50246002000230024158A05EA07
:101010000103958905EA010413B10CB1012000E038
:10102000002030BD4163704770B500BF5021EFF321
:10103000118081F31188BFF34F8FBFF36F8F00BF13
:10104000044640F22551144800F09AF801281DD1B9
:10105000114800F04FF9C1B210480578681C0F4ADA
:1010600010700F48415510460078401E0C49085C2E
:101070002A2803D0104600783F2802D301200949CE
:10108000087040F22551044800F052F800BF84F384
:10109000118800BF70BD0000001001408C000020CE
:1010A000C40100208D00002070B500BF5021EFF377
:1010B000118081F31188BFF34F8FBFF36F8F00BF93
:1010C000054640F22551164800F05AF8012821D172
:1010D000134800F00FF9C4B2124800783F2813D229
:1010E00010490878411C0F4A11700F490C542A2CE2
:1010F00007D00D2C05D00A2C03D0104600783E28CE
:1011000002D301200949087040F22551044800F03B
:101110000FF800BF00BF85F3118800BF70BD00004D
:10112000004800408E000020040200208F000020B4
:1011300010B50022002340F66A14A14200D100BF7E
:101140000A1201249440A3B2DC43048010BD21B1F3
:10115000828942F40052828104E082894DF6FF7355
:101160001A408281704702460020B1F5007F00D10D
:1011700000BF13880B400BB1012000E00020704736
:1011800070B50246002400230025002040F66A16B0
:10119000B14200D100BFC1F3421501F01F03012687
:1011A00006FA03F3012D02D19689334006E0022DA1
:1011B00002D1168A334001E0968A33400C12012690
:1011C00006FA04F41688344013B10CB1012000E093
:1011D000002070BDF0B50346002400260025002045
:1011E00040F66A17B94200D100BF1846C1F3421455
:1011F00001F01F06012707FA06F5012C01D10C307A
:1012000004E0022C01D1103000E014301AB107685C
:101210002F43076002E00768AF430760F0BD00009E
:101220002DE9FF4705460E460024A14600BFA04613
:10123000B08900B100BF2C8A24F44054F0880443E4
:101240002C82AC8941F20C608443B0883189084318
:10125000718908430443AC81AC8A24F44074B0899A
:101260000443AC826846FFF7EFFC2048854202D079
:101270001F48854202D1DDF80C9001E0DDF80890AE
:10128000A88900F4004040B109EBC90000EB091047
:1012900031684900B0FBF1F707E009EBC90000EB4A
:1012A000091031688900B0FBF1F76420B7FBF0F05A
:1012B00004012009642101FB1078A88900F4004092
:1012C00040B1322000EBC800B0FBF1F000F00700A5
:1012D000044308E0322000EB08106421B0FBF1F079
:1012E00000F00F0004432C81BDE8FF87001001408F
:1012F0000014014001468888C0F308007047C1F31C
:1013000008028280704700000FB4054B10B503A996
:10131000044A029800F040F810BC5DF814FB00008D
:10132000112A0008D80000200FB41CB50A46521E2E
:10133000CDE9000207A9054B6A46069800F02CF893
:10134000009A002111701CBC5DF814FBFB1700080B
:101350000FB4084B10B504A902AA039800F01CF8BA
:10136000044602A9002000F053FA204610BC5DF8A4
:1013700014FB00001118000802E008C8121F08C181
:10138000002AFAD170477047002001E001C1121F06
:10139000002AFBD1704700002DE9FF4F8DB00F46AA
:1013A0000546002606E025280BD0DDE90F12904700
:1013B0006D1C761C28780028F5D111B03046BDE8A8
:1013C000F08F0024A246A1460122EC4900E004432C
:1013D00015F8013F203B02FA03F00842F7D12878C4
:1013E0002A2810D06FF02F022878A0F130010929A7
:1013F00014D80AEB8A0102EB410144F0020400EB2D
:10140000010A6D1CF0E701CF5FEA000A03D544F43E
:101410000054CAF1000A44F002046D1C28782E28FA
:1014200017D115F8010F44F004042A280ED06FF0EC
:101430002F022878A0F1300109290AD809EB890187
:1014400002EB410100EB01096D1CF2E757F8049B28
:101450006D1C28786C280FD006DC4C2817D0682823
:101460000DD06A2814D104E0742810D07A280FD146
:101470000DE044F400140AE044F4801401E044F464
:1014800040146978814202D104F580146D1C6D1CF2
:101490002A786E2A1FD00CDC632A31D004DC002AA3
:1014A0008BD0582A11D1A3E0642A68D0692A0CD1C4
:1014B00065E0732A2ED004DC6F2A73D0702A04D121
:1014C0009BE0752A6FD0782A6ED01046DDE90F12A6
:1014D0009047761C50E1C4F30250022806D003283E
:1014E00009D0042801CF09D0066045E101CFF117EA
:1014F000C0E9006140E101CF06803DE106703BE1BB
:1015000017F8040B8DF8000000208DF80100EB4661
:10151000012003E057F804BB4FF0FF3061074FF0A4
:10152000000102D40DE008F10101884649450FDAB7
:101530008045F8DB1BF808100029F4D108E008F119
:10154000010188468142FADB1BF808100029F6D118
:10155000DDE90F23AAEB08008146214600F036F9A9
:10156000304400EB080604E0DDE90F121BF8010B24
:101570009047B8F10108F7D221464846F7E00A2122
:10158000C4F302534FF0000B0891022B04D001CF9B
:10159000C117032B09D00AE0FF1D27F00707F7E862
:1015A000020108E032E01FE020E000B2C117042B86
:1015B00001D140B2C117031E71F1000307DA4FF0E9
:1015C000000CD0EB0C006CEB01012D2302E0230595
:1015D00004D52B238DF82430012303E0E30701D049
:1015E0002023F7E7984658E00A2110E010210EE08A
:1015F00010204FF0000B08900CE010214FF0000B72
:1016000044F004044FF00809089103E008214FF06A
:10161000000B0891C4F30253022B04D001CF002128
:10162000032B06D006E0FF1D27F00707F7E80201AD
:1016300003E080B2042B00D1C0B24FF000082307B2
:101640002BD5702A07D0DDF820C08CF0100C5CEA96
:101650000B0C05D00EE040238DF82430012308E068
:1016600050EA010306D030238DF824308DF8252070
:1016700002239846DDF820C08CF0080C5CEA0B0CC5
:101680000BD150EA010301D1630706D530238DF851
:1016900024304FF00108A9F10109582A04D038A2DA
:1016A0000B9208AA0A920BE03AA2F9E75B46089A65
:1016B000FEF728FE0B9B9B5C0A9A521E0A9213703F
:1016C00050EA0102F2D10A98ADEB000000F1200BC4
:1016D000600702D524F4803401E04FF00109D945B8
:1016E00002DDA9EB0B0000E0002000EB0B01414400
:1016F0000890AAEB010AE00306D4DDE90F23214696
:10170000504600F063F806444FF0000908E009A9CC
:1017100011F80900DDE90F12904709F10109761C63
:10172000C145F4DBE0030CD5DDE90F23214650462B
:1017300000F04CF8064404E0DDE90F123020904739
:10174000761C0899481E08900029F5DC08E00A98E4
:101750000A990078491C0A91DDE90F129047761C1E
:10176000BBF10001ABF1010BF1DC21465046DDE994
:101770000F2300F019F806446D1C1BE60928010030
:1017800030313233343536373839616263646566F7
:1017900000000000303132333435363738394142B9
:1017A00043444546000000002DE9F0410446002571
:1017B0001E461746880404D405E039462020B04769
:1017C0006D1C641EF9D52846BDE8F0812DE9F04175
:1017D000044600251E469046C80301D5302700E088
:1017E0002027880404D505E041463846B0476D1CE3
:1017F000641EF9D52846BDE8F0814A68002A06D063
:101800000A68531C0B6010704868401E486070479F
:101810000A68531C0B601070704700001CB504462A
:1018200064A0FFF771FD002204210A2005F06BFF80
:101830006749086000220121102005F064FF654916
:10184000086000220121102005F05DFF6249086058
:1018500000220821052005F056FF6049086000229B
:101860000221052005F04FFF5D490860002201219B
:10187000102005F048FF5B490860012005F032FFA9
:1018800059490860012005F02DFF584908600120E2
:1018900005F028FF5649086004F0C4F955480321B3
:1018A00000234FF40072CDE9001053A1554806F013
:1018B0001BFA5548032100234FF40072CDE90010B4
:1018C00052A1544806F010FA534804210023CA01DB
:1018D000CDE9001051A1534806F006FA52480521FF
:1018E00000234FF40072CDE9001050A1524806F0D9
:1018F000FBF95248022100230A02CDE9001050A151
:10190000524806F0F1F95248032100234FF40072C7
:10191000CDE900104FA1524806F0E6F951480321E5
:1019200000234FF48072CDE900104FA1514806F01A
:10193000DBF95148032100234FF40072CDE9001078
:101940004EA1524806F0D0F95148052100234FF42A
:101950000072CDE900104FA1514806F0C5F904F01E
:101960008BF900235A1E19461F48006805F0F8FE3F
:10197000E0B101F005FB4BA20021084601F0A8FBF5
:101980004CA20221002001F0A3FB4DA20421002063
:1019900001F09EFB4DA20621002001F099FB0023DF
:1019A0001A4619461048006806F008F8002004F0AE
:1019B00027FD1CBD6170705F7461736B5F696E6938
:1019C000742072756E6E696E67210D0A000000004A
:1019D000280000202C0000203000002034000020CF
:1019E000380000203C00002040000020440000207F
:1019F000480000200400002046696E67657254614B
:101A0000736B0000F547000808000020507764540D
:101A100061736B00E15D00080C0000204B65795498
:101A200061736B00ED4F0008100000204B65794D8D
:101A3000656E755461736B00A148000814000020A6
:101A40004F6C65645461736B00000000D55A000848
:101A500018000020526669645461736B0000000036
:101A60001D6200081C00002055617274436D6454AF
:101A700061736B00FD68000820000020556E6C6FDC
:101A8000636B457865635461736B000011690008EE
:101A9000240000204D616E6167655461736B000026
:101AA0000152000853797374656D20526561647941
:101AB00021000000312D556E6C6F636B000000003B
:101AC000322D4D616E6167650000000050726573D4
:101AD000732031206F7220320000000000B587B003
:101AE00018A207CA8DE8070000235A1E1946184895
:101AF000006805F035FE012804D016A0FFF704FCAD
:101B000007B000BD0C21684600F022FD0C22C82160
:101B100003A800F035FC0C2806DB9DF8150018B969
:101B200016A0FFF7F1FB04E09DF815101DA0FFF7CC
:101B3000EBFB00231A4619460548006805F03EFFF6
:101B400000BFDDE7EF01FFFFFFFF0100030D001104
:101B5000440000205B46696E6765725D20436C65DA
:101B600061723A206661696C656420746F206765F4
:101B700074206D757465780D0A0000005B46696E0F
:101B80006765725D20416C6C2066696E6765727076
:101B900072696E747320636C6561726564210D0AED
:101BA000000000005B46696E6765725D20436C65EE
:101BB0006172206661696C3A20636F64653D3078BC
:101BC000253032580D0A000030B589B0044623A3F1
:101BD0000FCB01AD0FC5002500235A1E194623481F
:101BE000006805F0BDFD012805D021A0FFF78CFBA2
:101BF000002009B030BD200A8DF80F00E0B28DF84A
:101C000010009DF80F0013309DF810100844C0B26A
:101C10008DF812000F2101A800F09AFC0C224FF45D
:101C20007A7105A800F0ACFB0C2808DB9DF81D00BC
:101C300028B9214616A0FFF767FB012504E09DF8AF
:101C40001D101CA0FFF760FB00231A461946074829
:101C5000006805F0B3FE2846CBE70000EF01FFFF68
:101C6000FFFF0100050C01000000000044000020FF
:101C70005B44656C6574655D204661696C656420D4
:101C8000746F20676574206D75746578210D0A0086
:101C90005B44656C6574655D2046696E676572209E
:101CA00049443D25642064656C65746564210D0AB2
:101CB000000000005B44656C6574655D20466169E9
:101CC0006C2120636F64653D3078253032580D0AF1
:101CD00000000000F0B59BB00546202113A8FEF7D8
:101CE000E4FA97A207CA10AB07C398A1D1E9002371
:101CF000D1E90201CDE90C23CDE90E0197A191E8CC
:101D00000D00C96808AC0DC40B9198A207CA05ABB9
:101D100007C399A30FCB01AC0FC4002700260023F3
:101D20005A1E19469848006805F01AFD012805D08A
:101D300096A0FFF7E9FA00201BB0F0BD01209B49F7
:101D40000870280A8DF80F00E8B28DF810009DF891
:101D50000F000E309DF810100844C0B28DF812002C
:101D6000294693A0FFF7D0FA002631E0C82004F0FE
:101D700019FB0C2110A800F0EBFB0C224FF47A7138
:101D800013A800F0FDFA04461CB997A0FFF7BCFAAF
:101D9000CAE00C2C03DB9DF8550000B919E00C2CAF
:101DA00010DB9DF8550002280CD13046711C8EB214
:101DB0000A2190FBF1F201FB120010B996A0FFF787
:101DC000A3FA05E09DF855109CA0FFF79DFAABE043
:101DD000CCE700BFA3A0FFF797FA4FF47A7004F0A6
:101DE000E1FAAAA0FFF790FA0D210CA800F0B0FBD1
:101DF0000C224FF47A7113A800F0C2FA04460A2CA0
:101E000002DB9DF8550028B19DF85510AAA0FFF7F8
:101E10007BFA89E0B2A0FFF777FA002631E0C8200C
:101E200004F0C0FA0C2110A800F092FB0C224FF431
:101E30007A7113A800F0A4FA04461CB9B4A0FFF705
:101E400063FA71E00C2C03DB9DF8550000B919E032
:101E50000C2C10DB9DF8550002280CD13046711C6B
:101E60008EB20A2190FBF1F201FB120010B9B1A071
:101E7000FFF74AFA05E09DF85510B8A0FFF744FABD
:101E800052E0CCE700BFBFA0FFF73EFA0D2108A843
:101E900000F05EFB0C224FF47A7113A800F070FA88
:101EA00004460A2C02DB9DF8550028B19DF8551018
:101EB000C0A0FFF729FA37E0C8A0FFF725FA0C21E8
:101EC00005A800F045FB0C224FF4FA6113A800F0BE
:101ED00057FA04460A2C02DB9DF8550028B19DF8FC
:101EE0005510C9A0FFF710FA1EE0D1A0FFF70CFAB9
:101EF0000F2101A800F02CFB0C224FF47A7113A8DB
:101F000000F03EFA04460A2C02DB9DF8550028B189
:101F10009DF85510CFA0FFF7F7F905E02946D6A0A8
:101F2000FFF7F2F9012700BF0020204908700023C5
:101F30001A4619461448006805F040FD3846FBE68D
:101F4000EF01FFFFFFFF010003010005EF01FFFFAD
:101F5000FFFF01000402010008000000EF01FFFF85
:101F6000FFFF01000402020009000000EF01FFFF73
:101F7000FFFF010003050009EF01FFFFFFFF010064
:101F80000606010000000000440000205B456E7260
:101F90006F6C6C5D204661696C656420746F2067AE
:101FA0006574206D75746578210D0A008600002027
:101FB0005B456E726F6C6C5D2049443D2564202D3D
:101FC000205374657020312F343A20506C61636562
:101FD0002066696E676572206F6E2073656E736F21
:101FE000722E2E2E0D0A00005B456E726F6C6C5DBA
:101FF00020476574496D616765313A206E6F2072C4
:102000006573706F6E73652066726F6D206D6F649F
:10201000756C65210D0A00005B456E726F6C6C5D1E
:102020002057616974696E6720666F722066696EF9
:102030006765722E2E2E0D0A000000005B456E7241
:102040006F6C6C5D20476574496D61676531206612
:1020500061696C3A20636F64653D30782530325891
:102060000D0A00005B456E726F6C6C5D20537465E9
:10207000702031204F4B202D2052656D6F766520EA
:1020800066696E6765722E2E2E0D0A005B456E72B4
:102090006F6C6C5D205374657020322F343A20478A
:1020A000656E65726174696E672074656D706C61D0
:1020B00074652E2E2E0D0A005B456E726F6C6C5D82
:1020C0002047656E4368617231206661696C3A2011
:1020D000636F64653D3078253032580D0A0000008A
:1020E0005B456E726F6C6C5D20537465702032209E
:1020F0004F4B202D20506C6163652066696E6765CB
:102100007220616761696E2E2E2E0D0A000000009C
:102110005B456E726F6C6C5D20476574496D6167DD
:1021200065323A206E6F20726573706F6E73652131
:102130000D0A00005B456E726F6C6C5D2057616923
:1021400074696E6720666F722066696E67657220BB
:10215000616761696E2E2E2E0D0A00005B456E725E
:102160006F6C6C5D20476574496D616765322066F0
:1021700061696C3A20636F64653D30782530325870
:102180000D0A00005B456E726F6C6C5D20537465C8
:10219000702033204F4B202D2047656E657261748F
:1021A000696E672074656D706C61746520322E2EC7
:1021B0002E0D0A005B456E726F6C6C5D2047656E7C
:1021C0004368617232206661696C3A20636F6465AE
:1021D0003D3078253032580D0A0000005B456E72A4
:1021E0006F6C6C5D205374657020342F343A204D31
:1021F000657267696E672074656D706C6174657374
:102200002E2E2E0D0A0000005B456E726F6C6C5D09
:10221000205265674D6F64656C206661696C3A2079
:10222000636F64653D3078253032580D0A00000038
:102230005B456E726F6C6C5D2053746F72696E6774
:102240002066696E6765727072696E742E2E2E0D2F
:102250000A0000005B456E726F6C6C5D2053746FFA
:102260007265206661696C3A20636F64653D307801
:10227000253032580D0A00005B456E726F6C6C5D44
:102280002053554343455353212046696E67657279
:102290002049443D256420656E726F6C6C65642135
:1022A0000D0A000000B587B000200390049005904F
:1022B000069018A207CA8DE8070000235A1E194687
:1022C0001748006805F04CFA0C21684600F040F908
:1022D0000C224FF47A7103A800F052F860B911A0F3
:1022E000FFF712F800231A4619460D48006805F05A
:1022F00065FB002007B000BD9DF8151012A0FFF788
:1023000003F800231A4619460548006805F056FBF5
:102310000120EFE7EF01FFFFFFFF01000326002A86
:10232000440000205B41533630385D2048616E64C4
:102330007368616B653A206E6F20726573706F6EA3
:1023400073650D0A000000005B41533630385D2094
:1023500048616E647368616B65204F4B2120636F29
:102360006E6669726D5F636F64653D3078253032EB
:10237000580D0A0010B5C82000F01CF910BD00006F
:10238000F8B505460E4617460024002000900DE0E3
:1023900020211948FEF7E7FE012803D11648FEF771
:1023A000A9FF00E006E00098401C00900098B0F5FE
:1023B0007A7FEDD300BF0020009013E020210E486B
:1023C000FEF7D1FE01280AD10B48FEF793FFC2B2F7
:1023D0002046611C8CB22A54BC4200DB09E0009804
:1023E000401C009040F2712070430099B1EB401FF7
:1023F000E4D300BFE0B2F8BD0044004070B594B033
:1024000005463CA2D2E900109268CDE90A02099182
:102410003BA30FCB05AC0FC414223DA16846FDF7CA
:102420002BFF00260023642219463E48006805F071
:1024300097F9012802D0002014B070BD01263A4857
:10244000007800B144E00C2109A800F081F80C22CA
:102450004FF4FA710CA8FFF793FF04460A2C02DB35
:102460009DF8390000B133E00D2105A800F070F8A7
:102470000C224FF4FA710CA8FFF782FF04460A2CD5
:1024800002DB9DF8390000B122E01121684600F01E
:102490005FF810224FF4FA710CA8FFF771FF0446A1
:1024A0000A2C02DB9DF8390000B111E09DF83B00D9
:1024B0009DF83A1040EA012028809DF83F009DF8E1
:1024C0003E3040EA0322298818A0FEF71DFF00BF16
:1024D000012E06D100231A4619461248006805F05D
:1024E0006DFA0C2C04DB9DF8390008B90120A3E734
:1024F0000020A1E7EF01FFFFFFFF0100030100053E
:10250000EF01FFFFFFFF01000402010008000000CF
:10251000EF01FFFFFFFF0100080401000003E700D7
:10252000F800000044000020860000205B46696E31
:102530006765725D204D61746368212049443D25C3
:10254000642073636F72653D25640D0A000000000E
:1025500070B505460E4600240CE000BF80210A48F5
:10256000FEF701FE0028F9D0295D0748FEF7C7FEF7
:10257000601C84B2B442F0DB00BF40210248FEF789
:10258000F2FD0028F9D070BD004400404FF0E0207B
:10259000006920F004004FF0E02108616FF07F40F7
:1025A0004861002088610846006940F00100086128
:1025B000704700002DE9F047074600264FF0E02065
:1025C000D0F81490124800684FF47A71B0FBF1F023
:1025D00000FB07F84FF0E020856904F041F911E0B5
:1025E0004FF0E0208469AC420CD0AC4202D2281BF0
:1025F000064403E0A9EB040028440644254646456A
:1026000000D300E0ECE700BF05F008FDBDE8F0876F
:10261000640100202DE9F047074600264FF0E02036
:10262000D0F81490124800681249B0FBF1F000FB9A
:1026300007F84FF0E020856904F012F911E04FF03F
:10264000E0208469AC420CD0AC4202D2281B064484
:1026500003E0A9EB0400284406442546464500D380
:1026600000E0ECE700BF05F0D9FCBDE8F087000012
:102670006401002040420F0010B504460B4890F85A
:102680004900052801DB002010BD084890F84910DA
:10269000343040F82140343890F84900401C034958
:1026A00081F8490000F07CF90120EDE77801002075
:1026B00010B50446114890F84800052801DB0020B9
:1026C00010BD2046FDF70EFE082801D90020F7E7CF
:1026D0000A4991F8481001EBC1020849091D501838
:1026E0002146FDF706FE054890F84800401C0349C6
:1026F00081F8480000F054F90120E1E7780100205A
:1027000070B50546154890F84900A84201DC002044
:1027100070BD2C4608E011483430611C50F821107F
:1027200040F82410601CC4B20C4890F84900401EC8
:10273000A042F0DC0022094890F84900401E0749F9
:10274000343141F82020054890F84900401E3439C2
:1027500081F8490000F024F90120D9E77801002030
:1027600070B50546194890F84800A84201DC0020E1
:1027700070BD2C460CE0621C02EBC203134A121D12
:10278000991804EBC4039818FDF7B3FD601CC4B29C
:102790000E4890F84800401EA042ECDC0B4890F830
:1027A0004800401E00EBC0010848001D08440021FD
:1027B000016041600172054890F84800401E0349DD
:1027C00081F8480000F0ECF80120D1E77801002002
:1027D0000146094890F84900052801DD00207047AE
:1027E000054890F84900884204DD0348343050F829
:1027F0002100F4E70020F2E778010020054890F876
:102800004900052801DD00207047024890F8490082
:10281000FAE700007801002001460A4890F84800D5
:10282000052801DD00207047064890F848008842DE
:1028300005DD01EBC1020348001D1044F3E7002051
:10284000F1E7000078010020054890F848000528CD
:1028500001DD00207047024890F84800FAE70000C8
:10286000780100202DE9F0474A4E37460024A14662
:102870004FF0010848493068884240D196F8490035
:10288000052803DC96F84800052801DD4FF0000814
:10289000B8F1000F12D0002509E005EBC501301D8D
:1028A000405CFF2801D14FF00008681CC5B296F8C3
:1028B0004800A84202DDB8F1000FEED1B8F1000FD8
:1028C00005D04C2231463548FDF7D6FC60E04C215E
:1028D0003248FDF7EAFC304830490860002081F8B2
:1028E000480081F849007C68601C28B124B1084682
:1028F0004463012081F8490000F052F848E04C217F
:102900002648FDF7D2FC244824490860002081F8BD
:10291000480081F849003868401C002838D000245D
:10292000A1463C68601C48B144B11B48844205D0B4
:1029300008464463012081F849008146B9F1000F3F
:102940000AD17C68601C38B134B11448446301205A
:10295000124981F849008146B9F1000F16D10025CE
:1029600011E057F82540601C58B154B10A48844220
:1029700007D00A4844630120084981F8490081468C
:1029800003E0681CC5B2102DEBDB00BF00F008F8B7
:10299000BDE8F08700000E080100FECA78010020A3
:1029A0002DE9F041FDF74EFEF320FDF7A5FD0221D4
:1029B0005820FDF7A7FD094D094E1327002406E016
:1029C00055F8241006EB8400FDF714FE641CBC428D
:1029D000F6D3FDF705FEBDE8F08100007801002088
:1029E00000000E0810B50446074890F8490018B9D1
:1029F0002046FFF741FE03E003484463FFF7D0FFA2
:102A00000248046010BD000078010020880000200A
:102A100070B504460D4600BF80210548FEF7A3FBB4
:102A20000128F9D1A1B20248FEF769FC204670BD29
:102A30000010014010B50020044908603220FFF763
:102A4000B9FD01200249C1F8A40210BDA48242428E
:102A50000080424210B500200749087007490870FD
:102A60000748006818B10648006803F0DDFD05A0BE
:102A7000FEF74AFC10BD00004C0000204D00002075
:102A8000040000205B4B6579626F6172645D204DCC
:102A90006F6465206465616374697661746564213F
:102AA0000D0A000010B501200649087006480068AC
:102AB00018B10548006803F061FE04A0FEF724FC8D
:102AC00010BD00004C000020040000205B4B657925
:102AD000626F6172645D204D6F646520616374692B
:102AE0007661746564210D0A000000001CB50121A7
:102AF0005720FEF779F801208DF8040000208DF8AA
:102B0000060002208DF805008020009069461F48CD
:102B1000FDF7BBFD4FF40040009069461C48FDF7EF
:102B2000B4FD4FF42070009069461A48FDF7ADFDE2
:102B300000208DF8040001208DF80700402000904F
:102B400069461248FDF7A1FD4020009069461248F1
:102B5000FDF79BFD4FF48070009069460F48FDF72C
:102B600094FD1020009069460C48FDF78EFD8021F1
:102B70000648FDF700FE4FF400410548FDF7FBFD58
:102B80004FF420710348FDF7F6FD1CBD0004024020
:102B900000180240000802400010024000000240FD
:102BA0007FB5154B0FCB8DE80F0000241FE02046AA
:102BB00001F088FC002517E0284601F05DFC90B983
:102BC0000F20FFF7F7FC284601F056FC58B900BF6C
:102BD000284601F051FC0028FAD0684600EB84003A
:102BE000405D04B070BD6D1C042DE5DB641C042C3D
:102BF000DDDB0020F5E70000EC87000825480068D1
:102C000040F03000234908602348006820F4701029
:102C1000214908600846006840F4A0100860081DBB
:102C2000006820F4C060091D0860081D006820F4D9
:102C30007010091D0860081D006820F47010091D3F
:102C4000086015481430006840F4C060124914311F
:102C500008601248006820F070501049086008466B
:102C6000006840F0A05008600846406820F4C0406A
:102C700048600846806820F0705088600846C06848
:102C800020F07050C8600846406940F4C040486178
:102C9000704700003038024000140240001002402B
:102CA0001CB54FF44070FDF73DFEFFF76FFCFFF7DA
:102CB000A5FFFFF71BFF00F07FF901F04BFBFFF7CB
:102CC00059FBFFF7CFFD4FF4E13001F03BFC4FF42F
:102CD000614001F0A5FC4FF4E13001F001FD2DA0B1
:102CE000FEF712FB3348017833A0FEF70DFB38A046
:102CF000FEF70AFBFFF782FD064631463BA0FEF7D2
:102D000003FB002409E0E0B2FFF762FD064632460D
:102D100021463BA0FEF7F8FA641CFFF76FFDA042C6
:102D2000F1DCFFF791FD064631463AA0FEF7ECFADA
:102D3000002409E0E0B2FFF76FFD06463246214667
:102D40003AA0FEF7E1FA641CFFF77EFDA042F1DC39
:102D50003A4D3BA0FEF7D8FA002407E055F82420AE
:102D600005EB84013CA0FEF7CFFA641C0A2CF5DBCE
:102D70003FA0FEF7C9FA4548052100234FF4007231
:102D8000CDE9001042A1464804F0AEFF03F0ACFCD0
:102D900000BFFEE7536D61727420446F6F72204C68
:102DA0006F636B2053797374656D20537461727413
:102DB000210A00008500002052433532322056653A
:102DC0007273696F6E3A203078253032580D0A00E0
:102DD0003D3D3D20466C61736820496E6974204416
:102DE00065627567203D3D3D0D0A000043617264D8
:102DF00020636F756E743A2025640D0A0000000090
:102E00002020436172645B25645D3A202530385888
:102E10000D0A000050617373776F726420636F75E1
:102E20006E743A2025640D0A0000000020205077BF
:102E3000645B25645D3A2025730D0A0000000E08CE
:102E400052617720466C61736820636F6E74656EA3
:102E5000743A0D0A0000000020205B3078253038DD
:102E6000585D3A203078253038580D0A00000000AF
:102E70003D3D3D3D3D3D3D3D3D3D3D3D3D3D3D3D82
:102E80003D3D3D3D3D3D3D3D0D0A00000000002023
:102E90006170705F7461736B5F696E6974000000CC
:102EA0001D18000810B500200E4908700E49087062
:102EB0000E48006818B10D48006803F0B5FB0C48D7
:102EC000006818B10A48006803F0AEFB09480068C2
:102ED00018B10848006803F0A7FB07A0FEF714FA32
:102EE00010BD00004F000020500000200400002012
:102EF00008000020180000205B4D616E6167655D71
:102F0000204D6F64652064656163746976617465E2
:102F100064210D0A0000000010B501200D49087061
:102F20000D48006818B10C48006803F027FC0B48F6
:102F3000006818B10948006803F020FC08480068E0
:102F400018B10748006803F019FC06A0FEF7DCF989
:102F500010BD00004F0000200400002008000020E9
:102F6000180000205B4D616E6167655D204D6F64E8
:102F70006520616374697661746564210D0A0000DF
:102F800070B5002415E004F1B001C8B2FDF7D4FC1F
:102F90000020FDF7D1FC1020FDF7CEFC002504E059
:102FA0000020FDF7DDFC681CC5B2802DF8DB601C3D
:102FB000C4B2082CE7DB70BD1CB501210220FDF76F
:102FC00013FE01208DF804008DF806008DF807002F
:102FD00002208DF805004FF4407000906946354896
:102FE000FDF753FB4FF400713248FDF7C4FB4FF47B
:102FF00080713048FDF7BFFB3220FFF7DBFA782005
:1030000000F05AF87A2000F057F8AE20FDF794FC53
:103010000A20FFF7CFFAD520FDF78EFC8020FDF7C0
:103020008BFCA820FDF788FC3F20FDF785FCD32012
:10303000FDF782FC0020FDF77FFC4020FDF77CFCC3
:103040008D20FDF779FC1420FDF776FC2020FDF79C
:1030500073FC0220FDF770FCA120FDF76DFCC82079
:10306000FDF76AFCDA20FDF767FC1220FDF764FC2F
:103070008120FDF761FCCF20FDF75EFCD920FDF734
:103080005BFCF120FDF758FCDB20FDF755FC4020F0
:10309000FDF752FCA420FDF74FFCA620FDF74CFCE9
:1030A000AF20FDF749FC6420FFF784FAFFF768FFC3
:1030B0001CBD00000004024010B50446FDF75EFB95
:1030C0002046FDF7C5FBFDF77BFB012010BD00008E
:1030D0002DE9F04104468846174640E03E78202E10
:1030E00001DB7E2E00DD2026A6F12000C6B208F10D
:1030F000B001C8B2FDF720FC04F00F00FDF71CFC86
:10310000102101EB2410FDF717FC002507E01649FC
:1031100001EB0611485DFDF723FC681CC5B2082DC4
:10312000F5DB08F1B101C8B2FDF706FC04F00F00B1
:10313000FDF702FC102101EB2410FDF7FDFB082533
:1031400007E0094901EB0611485DFDF709FC681C21
:10315000C5B2102DF5DB04F10800C4B27F1C38782D
:103160000028BBD1BDE8F081FC81000830B591B0EA
:103170003048007800285BD0002404E02E48005D31
:1031800001A90855641C2D480078844201D23F2CC7
:10319000F4D3002001A9085540212748FDF785F800
:1031A0000020264908702349087001A924A0FEF7D1
:1031B000ABF801AD002434E001A8005D2A2807D057
:1031C00001A8005D0D2803D001A8005D0A2827D1C1
:1031D000002001A908552878F8B11CA12846FDF760
:1031E0006FF878B11BA0FEF78FF800201D4908602A
:1031F0000420009000230A2269461B48006804F05E
:10320000DDFB0AE019A12846FDF75AF828B119A0FC
:10321000FEF77AF801201349086001A82044451CF4
:10322000641C402C03D201A8005D0028C4D100BF5B
:1032300011B030BD8F000020040200208E0000205D
:103240005B576946695D2025730D0A00756E6C6FCA
:10325000636B00005769466920556E6C6F636B2184
:103260000D0A0000A4824242280000206C6F636BAC
:103270000000000057694669204C6F636B210D0AFE
:103280000000000038B59C480078002874D09BA14D
:103290009C48FDF715F818B19BA0FEF735F820E122
:1032A0009DA19848FDF70CF878B19DA0FEF72CF889
:1032B0000020A24908600420009000230A226946E9
:1032C0009F48006804F07AFB0BE19EA18D48FCF753
:1032D000F7FF30B19DA0FEF717F80120974908606D
:1032E000FFE0A1A18748FCF7EBFF18B1A1A0FEF712
:1032F0000BF8F6E0A7A18348FCF7E2FFB8B1814CD8
:10330000641D002505E014F8012B28466D1CA34917
:103310000A54207820B120782A2801D01F2DF2DB12
:1033200000209E4948559EA0FDF7EEFFD9E0A1A1DF
:103330007448FCF7C5FFB8B1724C641D002505E068
:1033400014F8012B28466D1C9C490A54207820B1A2
:1033500020782A2801D01F2DF2DB002097494855FC
:1033600097A0FDF7D1FFBCE09AA16648FCF7A8FF43
:1033700098B1644CE41C04E0BCE0207801F00AFA47
:10338000641C207810B120782A28F6D10D2001F095
:1033900001FA0A2001F0FEF9A3E08FA15948FCF7D9
:1033A0008FFFA0B18FA0FDF7AFFF95A001F002FA4B
:1033B0004FF4FA6002F0F6FF92A001F0FBF94FF42F
:1033C000FA6002F0EFFF91A0FDF79EFF89E094A163
:1033D0004C48FCF775FF10B103F0F6FB81E092A1B9
:1033E0004848FCF76DFF28B191A0FDF78DFFFEF76F
:1033F00059FF76E096A14348FCF762FF48B197A0D9
:10340000FDF782FF9CA001F05FF9A0A0FDF77CFF13
:1034100067E0A5A13B48FCF753FF80B1A5480068D1
:1034200018B9A5A0FDF770FF5BE0A2480068FFF7A0
:10343000D9FAA0480168ABA0FDF766FF51E0B0A142
:103440003048FCF73DFF60B1B048006828B1AF4894
:103450000168AFA0FDF758FF43E0B2A0FDF754FFAD
:103460003FE0B5A12748FCF72BFF58B30125254CB9
:1034700000E0641C207828B120783028F9DB20781F
:103480003928F6DC2078302814DB2078392811DC44
:10349000002507E02078303805EB850100EB41007E
:1034A00085B2641C2078302802DB20783928F1DDD1
:1034B00005B901252946A2A0FDF726FF2846FEF7FB
:1034C00009FC0EE0A8A10F48FCF7FAFE28B1AAA05B
:1034D000FDF71AFFFEF702FB03E00A49AEA0FDF775
:1034E00013FF40210748FCF7E0FE0020B0490870B8
:1034F0000149087038BD00008D00002074657374A8
:1035000000000000C40100207465737420636F6DB7
:103510006D616E64210A0000756E6C6F636B000054
:10352000426C7565746F6F746820556E6C6F636B59
:103530002053756363657373210A0000A4824242BD
:10354000280000206C6F636B00000000426C756502
:10355000746F6F7468204C6F636B20537563636581
:103560007373210A0000000073796E635F66696EF1
:103570006765720053796E63696E672066696E676E
:1035800065727072696E747320746F204150502E92
:103590002E2E0A0073736964200000009000002042
:1035A000576946692053534944207365743A20256E
:1035B000730D0A007061737320000000B0000020DA
:1035C000576946692050617373207365743A2025EA
:1035D000730D0A0061742000776966695F74657312
:1035E000740000005769466920746573743A20734B
:1035F000656E64696E672041542E2E2E0D0A000000
:103600002B2B2B0041540D0A00000000576946691E
:10361000207465737420646F6E652E0D0A000000BF
:10362000776966690000000066696E676572000070
:1036300054657374696E672066696E67657270722F
:10364000696E74206D6F64756C652E2E2E0A0000F5
:1036500075617274325F6563686F00005B5541523B
:1036600054325D2054657374696E67206563686FBA
:103670002E2E2E0D0A00000048656C6C6F206672BD
:103680006F6D205541525432210D0A005B55415255
:1036900054325D204563686F207465737420646FD5
:1036A0006E652E0D0A000000736176655F636172BE
:1036B00064000000800000204E6F2063617264206F
:1036C0007363616E6E656420796574212053636154
:1036D0006E206120636172642066697273742E0DBE
:1036E0000A0000004361726420253038582073615D
:1036F00076656420746F20466C617368210D0A0042
:1037000073686F775F636172640000008800002057
:10371000536176656420636172643A2025303858BD
:103720000D0A00004E6F206361726420736176653C
:10373000642E0D0A00000000656E726F6C6C000054
:10374000537461727420656E726F6C6C696E672061
:1037500066696E6765727072696E742049443D25B2
:10376000642E2E2E0A000000636C6561725F66692C
:103770006E67657200000000436C656172696E6778
:1037800020616C6C2066696E6765727072696E7418
:10379000732E2E2E0A000000756E6B6E6F772063FD
:1037A0006F6D6D616E64203D2025730A000000007E
:1037B0008C0000202DE9F04105460E461C480768A4
:1037C0001C480068001D01F000F850B91948006855
:1037D00090F82C1001208840174909688143164849
:1037E0000160681C38B936B112480168091D1348D8
:1037F00001F0FAFC1AE07C190E4800684460BC42F3
:1038000007D20C480168091D0D48006801F0D2FC80
:103810000CE008480168091D0A48006801F0CAFC6C
:1038200009480068844201D207480460BDE8F0817D
:1038300018010020040100201C010020003001209C
:103840000C010020080100203401002010B50446BE
:1038500002F0E8F924480068401C23490860234826
:10386000006840B9214804600846006801280DD16D
:1038700000F0ECF90AE01E48006838B91B480068FF
:10388000C06AE16A884201D8184804601948006893
:10389000401C1849086008460068206494F82C1001
:1038A0000120884014490968084313490860E16A07
:1038B00001EB8101114A02EB8100211D01F094FC12
:1038C00002F0DAF90A48006868B108480068C06A7E
:1038D000E16A884207D24FF0805009490860BFF37F
:1038E0004F8FBFF36F8F10BD140100200401002023
:1038F00020010020300100201C010020842E012026
:1039000004ED00E010B502F08DF910480068D0B960
:103910000F4801F03FFC0F4801F03CFC0C480E49F9
:1039200008600C480D49086000220C210A2003F0B1
:10393000EAFE064908600846006820B108A103486D
:10394000006802F02FFC02F097F910BD480100203A
:1039500014300120283001204001002044010020C3
:10396000546D72510000000070B523E002F078FF42
:103970001348006808B9012000E00020054604F063
:103980004DFBBDB902F04EF90D48C068C468201D5A
:1039900000F01BFF0B480068401E0A4908600A48F7
:1039A0000068401E0849086002F066F9204600F0F1
:1039B00060F800BF044800680028D7D170BD00003F
:1039C000EC2F0120140100201001002070B50446E6
:1039D0000D46206C70B1216CE0680844E0606168BD
:1039E000E068884201D32068E0602846226CE168E4
:1039F000FCF742FC70BD2DE9F04104460F46154628
:103A00004FF00008A66B206C40B9206860BB60686E
:103A100004F054FA80460020606025E07DB9394604
:103A2000226CA068FCF728FC216CA0680844A06008
:103A3000D4E90110884217D32068A06014E0394609
:103A4000226CE068FCF718FC216CE068401AE0602A
:103A50002168E068884203D2216C6068401AE06007
:103A6000022D01D106B1761E701CA0634046BDE850
:103A7000F08110B50446206B02F01CF9204602F0DC
:103A800019F910BD0146084A126812680AB90122E4
:103A900000E000220A600A6822B9034A1268D2686C
:103AA000106800E0002070474001002030B54FF45E
:103AB0009633174800F007042CB1C01D20F0070012
:103AC000134C041B1B1B0246124C22600024114D98
:103AD0006C60D018083820F007000F4C20600024DC
:103AE0000D4D2D686C600C4D2D682C601146441AEC
:103AF0004C60094C24680C60084D4C682C60084DE3
:103B00004C682C604FF00044064D2C6030BD000026
:103B100044020020E0000020E8000020F000002027
:103B2000EC000020F400002000BFFFF71DFF064856
:103B300000680128F9D94FF0805004490860BFF3AC
:103B40004F8FBFF36F8FF0E7842E012004ED00E06C
:103B500010B504464CB1002060602060E060002396
:103B60001A461946204603F029FF10BD2DE9F04101
:103B700006460D4617469846069C0DB9246000E09F
:103B80002760E66325640121204603F0CBFE84F81C
:103B90004C80BDE8F0812DE9F05F82460F469046EB
:103BA0009B460A9E0C9C4FEA8801A522206BFCF7DD
:103BB00075FBA8F10100216B01EB800929F00709D1
:103BC00009F0070008B9012000E0002050B900BF4B
:103BD000502080F31188BFF34F8FBFF36F8F00BF6A
:103BE00000BFFEE7002507E0795D04F13400415590
:103BF000785D00B902E06D1C0A2DF5D300BF0021ED
:103C00003D2001550F2E00D30E26E662A66400204B
:103C1000E064201D01F0CBFA04F1180001F0C7FAAE
:103C20002461C6F10F00A06164620020206584F861
:103C300054005A465146484600F066FB20600B98F7
:103C400008B10B980460BDE8F09F000010B5002497
:103C500007E004EB84010F4A02EB810001F09AFABD
:103C6000641C0F2CF5D30C4801F094FA0B4801F0BA
:103C700091FA0B4801F08EFA0A4801F08BFA0A48D3
:103C800001F088FA044809490860044808490860B6
:103C900010BD0000842E0120B02F0120C42F012070
:103CA000D82F0120EC2F0120003001200801002036
:103CB0000C01002010B50146164800E000680368BA
:103CC0008B42FBD30246436813448B4204D14368C2
:103CD0004C682344436001460A464B681344046819
:103CE000A34211D10C4C03682468A34208D04B684E
:103CF0000468646823444B6003681B680B6005E03C
:103D0000054B1B680B6001E003680B60884200D024
:103D1000016010BDE0000020E80000202DE9F04126
:103D200004460D4616461F464FF0000865602461A4
:103D3000B5420CD8F01BA169884202D34FF00108AC
:103D400011E0211D0948006801F034FA0BE0BE4281
:103D500004D2BD4202D34FF0010804E0211D044803
:103D6000006801F027FA4046BDE8F08144010020D8
:103D70004001002070B5054601F054FFA86B08B95A
:103D8000012400E0002401F077FF204670BD70B5EB
:103D9000054601F047FFA86BE96B884201D1012479
:103DA00000E0002401F068FF204670BDF8B505462C
:103DB0000F4616480068C068C468201D00F005FD65
:103DC000E06901281DD1A06941192B463A462046D9
:103DD000FFF7A4FFA8B1002003462A460146009041
:103DE000204604F0C9F9064656B900BF502080F3BA
:103DF0001188BFF34F8FBFF36F8F00BF00BFFEE787
:103E000000BF2046616A8847F8BD000040010020DD
:103E100070B586B06AE00398002867DB059C60698E
:103E200008B9012000E0002010B9201D00F0CDFCF1
:103E300002A800F0BDF8054603980A2854D2DFE82E
:103E400000F009050731334F0608323400BF00BFC8
:103E500000BF00BF0498A269811803462A46204685
:103E6000FFF75CFFE8B12046616A8847E0690128F6
:103E700017D1002000900498A16942180023194628
:103E8000204604F079F9064656B900BF502080F369
:103E90001188BFF34F8FBFF36F8F00BF00BFFEE7E6
:103EA00000BF22E000BF20E000BF0498A061A0692D
:103EB00008B1012000E0002050B900BF502080F37D
:103EC0001188BFF34F8FBFF36F8F00BF00BFFEE7B6
:103ED000A06941192B462A462046FFF71FFF04E040
:103EE000204601F0E7FE00E000BF00BF00231A46B5
:103EF00003A90448006803F033FC00288BD106B006
:103F000070BD000048010020F8B505460C4602F0DF
:103F1000A7FC684600F04CF80646009820BB44B960
:103F2000B54206D804F07AF831462846FFF73EFF3E
:103F30001CE03CB10E480068006808B9012000E0B0
:103F400000200446A91B22460A48006802F040F9F6
:103F500004F064F850B94FF0805007490860BFF38F
:103F60004F8FBFF36F8F01E004F058F8F8BD0000E9
:103F7000440100204801002004ED00E00A490968DE
:103F8000096809B9012100E0002121B14FF0FF319A
:103F9000064A116006E004490968C968C868034A0E
:103FA00041681160704700000801002034010020C2
:103FB00070B5044603F0D8FE054607480068854200
:103FC00004D200F00BF80120206001E00020206006
:103FD00001480560284670BD500100202DE9F843D6
:103FE00032E024480068C068056822480068C0685C
:103FF000C468201D00F0E9FB2046616A8847E0693B
:10400000012821D1A0694619AE4207D96660246112
:10401000211D1848006801F0CDF815E00020034686
:104020002A4601460090204604F0A6F8074657B9F4
:1040300000BF502080F31188BFF34F8FBFF36F8F05
:1040400000BF00BFFEE700BF0A480068006808B96B
:10405000012000E000200028C3D00648D0F80080EE
:1040600005480068034908600348C0F80080BDE8BF
:10407000F883000040010020440100200E48006841
:10408000401C08B9012000E0002050B900BF5020BA
:1040900080F31188BFF34F8FBFF36F8F00BF00BF56
:1040A000FEE700BF502080F31188BFF34F8FBFF3AE
:1040B0006F8F00BF00BFFEE7F800002010B502467A
:1040C0000020114652B900BF502383F31188BFF37B
:1040D0004F8FBFF36F8F00BF00BFFEE70B4C4B69E4
:1040E000A34201D1012300E0002373B1084C8B6A85
:1040F000A34201D1012300E0002333B98B6A0BB93D
:10410000012300E0002303B1012010BD0030012095
:10411000D82F012008B500BF6846FFF7B3FC04465E
:1041200020460099FFF7F0FEFFF772FEF4E770B546
:10413000044601F077FD94F9455010E0606A08B933
:10414000012000E0002038B904F1240003F01AFF38
:1041500018B102F0CFF900E003E0681E45B2002D6F
:10416000ECDC00BFFF2084F8450001F085FD01F084
:1041700059FD94F9445010E0206908B9012000E08D
:10418000002048B904F1100003F0FCFE08B102F071
:10419000B1F9681E45B200E001E0002DECDC00BF83
:1041A000FF2084F8440001F067FD70BD2DE9F04167
:1041B00004464FF0000802F053FB4648006808B977
:1041C000FFF774FC44480068204000286BD1D4B14C
:1041D000083404F00700B0B104F00700C0F1080093
:1041E000044404F0070008B9012000E0002050B9A1
:1041F00000BF502080F31188BFF34F8FBFF36F8F44
:1042000000BF00BFFEE7002C4DD034480068844258
:1042100049D8334E3046056801E02E462D6868685F
:10422000A04202D228680028F7D12A4800688542B7
:1042300039D0306800F10808286830606868001BD1
:10424000102819D92F1907F0070008B9012000E03C
:10425000002050B900BF502080F31188BFF34F8F6A
:10426000BFF36F8F00BF00BFFEE76868001B786078
:104270006C603846FFF71EFD184968680968081A1F
:10428000164908600846006816490968884203D242
:1042900012480068134908600F49686809680843B4
:1042A00068600020286003F0B9FE08F0070008B934
:1042B000012000E0002050B900BF502080F3118899
:1042C000BFF34F8FBFF36F8F00BF00BFFEE74046C5
:1042D000BDE8F081E8000020F4000020EC000020A0
:1042E000E0000020F00000200648006830B10549D9
:1042F000096801F14C00C96C491C01600148006863
:104300007047000004010020001F4FF0807303601D
:10431000001F21F001030360001F054B03601438E8
:104320000260001F6FF00203036020387047000036
:104330007D40000808B50021009102E00099491C69
:10434000009100EB4001C1EBC011009AB2EB811F5C
:10435000F4D308BD1CB501210C20FCF745FC01205D
:104360008DF8040000208DF8060001208DF807006C
:1043700003208DF805004020009069462A48FCF78C
:1043800084F9C020009069462848FCF77EF94FF474
:104390000060009069462448FCF777F900208DF80A
:1043A000040001208DF8070003208DF805004FF46C
:1043B0008070009069461C48FCF767F980211B4813
:1043C000FCF7D9F940211848FCF7D5F940211748E6
:1043D000FCF7CFF94FF400611348FCF7CCF9322019
:1043E000FFF7A8FFFCF742FB8D212A20FCF7E6FB34
:1043F0003E212B20FCF7E2FB1E212D20FCF7DEFBEB
:1044000000212C20FCF7DAFB40211520FCF7D6FB1D
:104410003D211120FCF7D2FBFCF7B6FA3720FCF760
:10442000EFFA034908701CBD00080240000C02406E
:10443000850000203EB5044669462620FCF7FAFABE
:1044400005460DB100203EBD01A8FCF7AAFA0546BD
:104450000DB10020F7E79DF8040000069DF8051057
:1044600040EA01409DF8061040EA01209DF807103F
:10447000084320600120E6E710B5044624B9402136
:104480000D48FCF76DF910BD012C04D140210B48FB
:10449000FCF766F9F7E7022C04D1E1010848FCF7C4
:1044A0005FF9F0E7032C04D110210548FCF758F917
:1044B000E9E70120E7E700000004024000100240A5
:1044C0000000024010B5044680211448FCF753F95F
:1044D0004FF400411248FCF74EF94FF42071114897
:1044E000FCF749F924B980210C48FCF742F914E0A3
:1044F000012C04D1E1030A48FCF73BF90DE0022C42
:1045000004D180210748FCF734F906E0032C04D1DC
:104510004FF400710348FCF72CF910BD0004024071
:10452000001802400008024008B50020009004E096
:10453000BDF80000401C80B20090BDF80000322899
:10454000F6DB08BD10B588B0044601214120FCF718
:104550004BFB01211020FCF767FB01208DF81C00AC
:1045600000208DF81E004FF48070069000208DF81A
:104570001F0002208DF81D0006A92648FCF785F8CB
:1045800002208DF81C0000208DF81E004FF4C06042
:10459000069000208DF81F0002208DF81D0006A94E
:1045A0001D48FCF772F8072209211B48FCF7B5F8F3
:1045B00007220A211848FCF7B0F802940020ADF851
:1045C0000C00ADF81000ADF80E000C20ADF8120094
:1045D0000020ADF8140002A91048FCF721FE0122CA
:1045E00040F225510D48FCF7F5FD25208DF804001B
:1045F00001208DF8050002208DF8060001208DF8BD
:10460000070001A8FCF752F901210448FCF79FFDBF
:1046100008B010BD00180240000002400010014028
:1046200010B586B0044601210846FCF7DDFA0121E9
:104630004804FCF7E9FA02208DF8140000208DF8F8
:1046400016000C20049001208DF8170002208DF830
:10465000150004A91248FCF718F807220221104897
:10466000FCF75BF8072203210D48FCF756F800948D
:104670000020ADF80400ADF80800ADF806000C20ED
:10468000ADF80A000020ADF80C0069460548FCF7BB
:10469000C7FD01210348FCF75AFD06B010BD00001C
:1046A000000002400044004010B5044600BF8021D5
:1046B0000448FCF758FD0128F9D121460148FCF7D0
:1046C0001EFE10BD0044004010B5044603E014F87F
:1046D000010BFFF7E9FF20780028F8D110BD00009A
:1046E00010B588B0044601210220FCF77DFA0121B3
:1046F0008804FCF789FA02208DF81C0000208DF850
:104700001E004FF44060069000208DF81F0002202C
:104710008DF81D0006A91D48FBF7B7FF07220A21E7
:104720001A48FBF7FAFF07220B211848FBF7F5FFA1
:1047300002940020ADF80C00ADF81000ADF80E00AA
:104740000C20ADF812000020ADF8140002A91048AA
:10475000FCF766FD012240F225510D48FCF73AFDB9
:1047600027208DF8040008208DF8050002208DF820
:10477000060001208DF8070001A8FCF797F8012139
:104780000348FCF7E4FC08B010BD00000004024040
:104790000048004010B5044600BF80210448FCF7E3
:1047A000E2FC0128F9D121460148FCF7A8FD10BD23
:1047B0000048004010B5044603E014F8010BFFF771
:1047C000E9FF20780028F8D110BD01460A69D1E937
:1047D00001309860D1E9010358605068884201D1E6
:1047E00088685060002008611068401E10601068E2
:1047F000704700001CB5002001900120009000BF10
:104800001A48007810B91A48007818B1002001F051
:10481000B5FFF5E71748007818B317480078012866
:104820001FD101A8FDF7EAFDD8B1BDF8041013A00F
:10483000FCF76AFD00230A2269461648006803F067
:10484000BDF80020144908604FF4FA60FDF7B2FE8D
:1048500001201249C1F8A402002007490870054947
:1048600008704FF4FA7001F09DFDC9E74C0000207C
:104870004F000020510000205200002046696E6762
:10488000657220556E6C6F636B212049443A202578
:10489000640D0A0028000020A482424200804242A7
:1048A0001FB500BF00240025002600BF00235A1EAC
:1048B00003A9FE48006802F053FF01287AD106B12F
:1048C000F4E7FB48007800B1F0E7032C00DB02249A
:1048D000012C03D1F748007800B90024FEF7AAF8AC
:1048E0009DF80C002A282BD10024FEF7B3F8FEF720
:1048F000D9FA00BF00235A1E1946EF48006802F09B
:104900002FFFE0B1FEF73CFBECA200210846FEF7CA
:10491000DFFBEEA202210020FEF7DAFBEEA204216B
:104920000020FEF7D5FBEFA206210020FEF7D0FB0A
:1049300000231A461946E048006803F03FF8B5E73F
:10494000062C65D2DFE804F00365FDFCFBFA9DF858
:104950000C0031282FD100BF01240120D549087057
:104960000020E44908700023421E1946D24800681E
:1049700002F0F6FE00284BD0FEF702FBDEA200217B
:104980000846FEF7A5FBE0A202210020FEF7A0FBEF
:10499000E0A204210020FEF79BFBE1A206210020FB
:1049A000FEF796FB00231A461946C348006803F039
:1049B00005F82DE002E39DF80C00322828D100BF55
:1049C0000224FEF7A9FA00235A1E1946BA480068C5
:1049D00002F0C6FEE0B1FEF7D3FAD5A200210846E8
:1049E000FEF776FBC8A202210020FEF771FBC9A2E8
:1049F00004210020FEF76CFBC9A206210020FEF76F
:104A000067FB00231A461946AB48006802F0D6FF40
:104A1000D3E29DF80C00312826D10120B549087059
:104A2000A44908700023821E1946A348006802F0BA
:104A300097FE002817D0FEF7A3FAC1A2002108466E
:104A4000FEF746FBC2A202210020FEF741FBC4A2F2
:104A500006210020FEF73CFB00231A461946964823
:104A6000006802F0ABFFA3E09DF80C00322840D1B3
:104A7000BEA0FCF749FC02209E49087001208D4928
:104A800008709C480178C5A0FCF73EFCFEF70AF8C8
:104A9000CD480178CDA0FCF737FC00235A1E1946FB
:104AA0008548006802F05CFEB8B1FEF769FAD5A24D
:104AB00000210846FEF70CFBD6A202210020FEF7DB
:104AC00007FBD8A206210020FEF702FB00231A46AE
:104AD00019467948006802F071FFD648006800283E
:104AE00066D0D5A0FCF710FCD248006801F09CFD10
:104AF0005EE09DF80C00332829D103207D49087021
:104B00000023021F19466C48006802F029FE0028A5
:104B10004ED0FEF735FAD3A200210846FEF7D8FAA8
:104B2000D3A202210020FEF7D3FA8DA20621002095
:104B3000FEF7CEFA00231A46194603E035E233E2C7
:104B400031E236E05C48006802F038FF30E09DF862
:104B50000C002A282CD1002056490870654908709D
:104B60000024FDF777FF00235A1E194652480068BB
:104B700002F0F6FDE0B1FEF703FA50A2002108466C
:104B8000FEF7A6FA51A202210020FEF7A1FA52A2D6
:104B900004210020FEF79CFA52A206210020FEF715
:104BA00097FA00231A4619464348006802F006FFA8
:104BB00003E29DF80C0031283DD1032400BF012001
:104BC0003B4908704020039000235A1E03A9AC48BB
:104BD000006802F0F3FE3120039000235A1E03A95F
:104BE000A748006802F0EAFE00235A1E1946324820
:104BF000006802F0B5FD00281CD0FEF7C1F9A1A2A3
:104C000000210846FEF764FAA2A202210020FEF766
:104C10005FFAA2A204210020FEF75AFAA2A20621FE
:104C20000020FEF755FA00231A461946224800686C
:104C300002F0C4FEB6E19DF80C00322833D1042402
:104C400000BFFDF701FE054601201949087040200C
:104C5000039000235A1E03A98948006802F0AEFEA3
:104C60003220039000235A1E03A98548006802F0F1
:104C7000A5FE00235A1E19460F48006802F070FD79
:104C80000028D7D0FEF77CF98AA200210846FEF75B
:104C90001FFA002D08DD0020FDF7BEFD07463A464D
:104CA000022100200CE127E10DE10000300000208E
:104CB0005000002051000020400000205379737400
:104CC000656D20526561647921000000312D556EBB
:104CD0006C6F636B00000000322D4D616E61676583
:104CE0000000000050726573732031206F72203213
:104CF0000000000052000020556E6C6F636B204D69
:104D00006F64653A00000000312E46696E67657277
:104D100000000000322E50617373776F72640000E0
:104D2000332E52464944202A2D4261636B00000015
:104D30004D616E616765204D6F64653A000000004B
:104D400046696E67657220556E6C6F636B0000007C
:104D5000506C6163652066696E6765722E2E2E0049
:104D60002A20746F2063616E63656C005B764B650F
:104D7000794D656E755461736B5D2053656C656329
:104D80007465642070617373776F726420756E6CE4
:104D90006F636B206D6F64650D0A00005B764B6579
:104DA000794D656E755461736B5D2073656C6563D9
:104DB0007465645F756E6C6F636B5F6D6F64653D8A
:104DC00025640D0A000000004C0000205B764B6556
:104DD000794D656E755461736B5D206B6579626F9B
:104DE0006172645F6D6F64655F6163746976653D70
:104DF000256420616674657220656E61626C650D64
:104E00000A00000050617373776F726420556E6CF6
:104E10006F636B00496E7075742070617373776F88
:104E200072643A00232D4F4B202A2D43616E636537
:104E30006C000000080000205B764B65794D656EC4
:104E4000755461736B5D20526573756D696E672073
:104E50007077645F7461736B5F68616E646C650D1D
:104E60000A0000005246494420556E6C6F636B0087
:104E70005363616E20636172642E2E2E0000000069
:104E80003C00002046696E676572204D616E616767
:104E9000653A000053656C3A20300000312D4465BE
:104EA0006C20322D41646400332D557020342D4424
:104EB0006F776E00507764204D616E6167653A00D0
:104EC000FEF706F904E03EA202210020FEF700F9F9
:104ED000AFF2380204210020FEF7FAF8AFF23802F0
:104EE00006210020FEF7F4F800231A46194636483A
:104EF000006802F063FD55E09DF80C00332851D1A5
:104F0000052400BFFDF77AFC054601202F490870F3
:104F10004020039000235A1E03A92D48006802F088
:104F20004DFD3320039000235A1E03A92848006832
:104F300002F044FD00235A1E19462348006802F07F
:104F40000FFC78B3FEF71CF822A200210846FEF7FA
:104F5000BFF8002D0EDD0020FDF73AFC07463A466B
:104F600020A16846FCF7F4F96A4602210020FEF70A
:104F7000AFF804E012A202210020FEF7A9F8AFF278
:104F8000E40204210020FEF7A3F8AFF2E4020621B8
:104F90000020FEF79DF800231A4619460A480068CB
:104FA00002F00CFD09E000BF00BF00235A1E03A958
:104FB0000748006802F002FD00BF00BF76E4000071
:104FC000456D707479000000400000205000002002
:104FD0003C00002052464944204D616E6167653AAD
:104FE00000000000253038580000000008B500BF60
:104FF000FDF7D6FD00909DF8000000284AD09DF8EE
:105000000020114625A0FCF77FF92E4803782E4892
:1050100002782E4801782E48FCF776F92B48007864
:10502000002818D02848007850B12AA0FCF76CF965
:1050300000230A2269463048006802F0BFFC29E0DC
:105040002EA0FCF761F900230A2269463548006862
:1050500002F0B4FC1EE01B48007850B132A0FCF70F
:1050600053F900230A2269463C48006802F0A6FC76
:1050700010E03BA0FCF748F900230A2269463748B4
:10508000006802F09BFC00230A226946254800685C
:1050900002F094FC642001F085F9A9E75B764B658A
:1050A000795461736B5D204B6579207363616E6E1B
:1050B00065643A2027256327202830782530325828
:1050C000290D0A004C000020500000204F00002055
:1050D000688800085B764B65795461736B5D20537B
:1050E000656E64696E6720746F206D616E616765BF
:1050F00051756575650D0A003C0000205B764B65B7
:10510000795461736B5D2053656E64696E672074BA
:105110006F206B65794D656E7551756575650D0A06
:1051200000000000300000205B764B65795461730D
:105130006B5D2053656E64696E6720746F206B65CC
:1051400079517565756520286B6579626F61726448
:10515000206D6F6465290D0A000000002C000020FE
:105160005B764B65795461736B5D2053656E646942
:105170006E6720746F206B65795175657565206168
:105180006E64206B65794D656E7551756575650D3D
:105190000A00000000F1080141604FF0FF3181601A
:1051A00000F10801C1600161002101607047002128
:1051B0000161704710B502460B685C1C0CB91069A0
:1051C00007E002F1080000E04068446824689C425F
:1051D000FAD944684C604C68A160886041600A61FB
:1051E0001468641C146010BD42684A6093688B6048
:1051F000936859609160086103685B1C03607047A5
:1052000094B000250026032414210EA8FBF74DF8C6
:105210004FF000084FF0000900200D9000BF002360
:105220005A1E13A9F948006802F09AFA012876D1AB
:105230009DF84C00402819D10023642213A9F3489B
:10524000006802F08DFA01280FD19DF84C0031283A
:1052500004D0322804D0332806D103E0032403E02D
:10526000042401E0052400BF00BFD8E7FDF7E2FBFE
:105270009DF84C002A286ED1B9F1000F6CD04FF088
:1052800000094FF0000814210EA8FBF70EF80023C8
:105290005A1E1946DE48006802F062FA002872D0F1
:1052A000FDF76EFE032C14D1DAA200210846FDF7AB
:1052B0000FFFDCA202210020FDF70AFFDBA2042180
:1052C0000020FDF705FFDCA206210020FDF700FF0E
:1052D00052E0042C24D1FDF7B7FA0646D8A20021EB
:1052E0000846FDF7F5FE002E09DD0020FDF794FAD3
:1052F0008246524602210020FDF7EAFE04E0D3A2D6
:1053000002210020FDF7E4FEC8A204210020FDF7E1
:10531000DFFEC9A206210020FDF7DAFE2CE08DE3B6
:10532000052C29D1FDF76AFA0646CAA200210846D3
:10533000FDF7CEFE002E10DD0020FDF749FA824673
:105340005246C8A101A8FCF703F801AA02210020D7
:10535000FDF7BEFE06E048E016E0BCA202210020F8
:10536000FDF7B6FEB1A204210020FDF7B1FEB2A206
:1053700006210020FDF7ACFE00231A461946A4487A
:10538000006802F01BFB2FE04FF00009C846142113
:105390000EA8FAF78AFF00250020B4490870002300
:1053A000421E19469A48006802F0DAF9E0B1FDF7AA
:1053B000E7FDAFA200210846FDF78AFEB0A2022158
:1053C0000020FDF785FEB1A204210020FDF780FE3C
:1053D000B1A206210020FDF77BFE00231A461946E4
:1053E0008B48006802F0EAFA19E7B9F1000F7DD0A6
:1053F000042C7CD19DF84C0023285AD100200EA902
:1054000001F80800B8F1040F31DB0EA8FDF750F9E0
:10541000B0B100235A1E19467D48006802F0A0F979
:1054200020B3FDF7ADFDA0A202210020FDF750FE44
:1054300000231A4619467648006802F0BFFA2CE0AD
:1054400000235A1E19467248006802F089F968B1B3
:10545000FDF796FD96A202210020FDF739FE0023FC
:105460001A4619466A48006802F0A8FA15E00023B7
:105470005A1E19466648006802F072F968B1FDF7D5
:105480007FFD8DA202210020FDF722FE00231A4697
:1054900019465F48006802F091FA4FF47A7000F004
:1054A00081FF4FF00009C84614210EA8FAF7FDFE4F
:1054B00043E29DF84C003028FADB9DF84C00392877
:1054C000F6DCB8F1100FF3DA9DF84C204046411C91
:1054D00001F0FF080EA90A5400235A1E19464C4831
:1054E000006802F03DF90028E2D001E040E118E058
:1054F000FDF746FD73A200210846FDF7E9FD0EAA5F
:1055000002210020FDF7E4FD71A204210020FDF737
:10551000DFFD00231A4619463D48006802F04EFAA6
:105520000BE2052C70D100200D90002341F288324F
:1055300019466B48006802F013F901285DD10DA8E7
:10554000FEF778FFD8B30D98FDF796F800B3002367
:105550005A1E19462E48006802F002F970B3FDF792
:105560000FFD60A200210846FDF7B2FD3DA10AA88B
:105570000D9AFBF7EDFE0AAA02210020FDF7A8FD17
:1055800000231A4619462248006802F017FA2DE057
:1055900000235A1E19461E48006802F0E1F868B15F
:1055A000FDF7EEFC42A202210020FDF791FD002351
:1055B0001A4619461648006802F000FA16E0FFE79E
:1055C00000235A1E19461248006802F0C9F868B153
:1055D000FDF7D6FC46A202210020FDF779FD00234D
:1055E0001A4619460A48006802F0E8F900231A46EC
:1055F00019463B48006802F0E1F94FF47A7000F078
:10560000D1FE4FF0000998E178E000003C00002056
:105610004000002046696E676572204D616E6167CB
:10562000653A000053656C3A20300000312D446526
:105630006C20322D416464002A2D4261636B0000AE
:10564000507764204D616E6167653A00456D7074F6
:105650007900000052464944204D616E6167653A09
:1056600000000000253038580000000050000020E5
:105670004D616E616765204D6F64653A0000000002
:10568000312E46696E67657200000000322E50614F
:105690007373776F72640000332E52464944202A98
:1056A0002D4261636B000000536176656421000048
:1056B00046756C6C21000000546F6F2053686F7248
:1056C00074210000496E707574205057443A0000F0
:1056D0005072657373202320746F207361766500A8
:1056E00048000020436172642053617665642100A4
:1056F0004E6F20436172642100000000032C36D1FC
:105700002846FCF7E7FAB0B100235A1E1946CF48E5
:10571000006802F025F820B3FDF732FCCCA202218C
:105720000020FDF7D5FC00231A461946C74800683B
:1057300002F044F915E000235A1E1946C3480068D8
:1057400002F00EF868B1FDF71BFCC4A20221002094
:10575000FDF7BEFC00231A461946BC48006802F05B
:105760002DF94FF47A7000F01DFE4FF00009E4E0CF
:10577000032C04D0042C04D0052C0AD105E00A2601
:1057800007E0FDF761F8064603E0FDF737F8064647
:1057900000BF00BF9DF84C00312858D1002EE6DD37
:1057A00000235A1E1946A948006801F0D9FF68B1C4
:1057B000FDF7E6FBADA200210846FDF789FC0023BA
:1057C0001A461946A148006802F0F8F8002341F291
:1057D000883209A9A948006801F0C2FF0128C6D192
:1057E0009DF8240031282DD1032C04D0042C06D0A0
:1057F000052C0CD107E02846FCF7E6F907E028461F
:10580000FCF7AEFF03E02846FCF77AFF00BF00BFBD
:10581000701EA84200DC002500235A1E19468B4842
:10582000006801F09DFF68B1FDF7AAFB94A2022178
:105830000020FDF74DFC00231A46194683480068F6
:1058400002F0BCF84FF4FA7000F0ACFD75E09DF882
:105850004C0032283AD14FF0010900235A1E194654
:105860007A48006801F07CFF002866D0FDF788FBCD
:10587000032C04D0042C08D0052C1ED117E083A2E1
:1058800000210846FDF724FC17E0AFF2C812002102
:105890000846FDF71DFC74A202210020FDF718FC4C
:1058A000AFF2D41204210020FDF712FC05E07BA228
:1058B00000210846FDF70CFC00BF00BF00231A467C
:1058C00019466248006802F079F836E09DF84C000D
:1058D000332804D1002D30DD681EC5B22DE09DF8BF
:1058E0004C0034280CD1032C04D1092D25DA681C76
:1058F000C5B222E0701EA8421FDD681CC5B21CE0C4
:105900009DF84C00312818DB9DF84C00392814DC38
:105910009DF84C003138C7B2032C03D10A2F0CDAA2
:105920003D460AE0042C03D1B74206DA3D4604E0C6
:10593000052C02D1B74200DA3D46B9F1000F7DD106
:1059400000235A1E19464148006801F009FF00284B
:105950007BD0FDF715FB032C04D0042C1ED0052CA6
:1059600069D13EE0AFF2543200210846FDF7B0FBAA
:105970002A464EA104A8FBF7EBFC04AA0221002052
:10598000FDF7A6FBAFF25C3204210020FDF7A0FB7F
:1059900048A206210020FDF79BFB4CE048A2002115
:1059A0000846FDF795FB002E09DD2846FCF734FF7D
:1059B0008246524602210020FDF78AFB05E0AFF245
:1059C000743202210020FDF783FBAFF2A0320421E4
:1059D0000020FDF77DFB37A206210020FDF778FBB4
:1059E00029E0AFF2903200210846FDF771FB002E4E
:1059F0000FDD2846FCF7ECFE82465246AFF29C31A2
:105A000001A8FBF7A5FC01AA02210020FDF760FB1D
:105A100005E0AFF2C83202210020FDF759FBAFF2DA
:105A2000F43204210020FDF753FB22A206210020BE
:105A3000FDF74EFB00BF00BF002300E005E01A4663
:105A400019460248006801F0B9FF0EE4400000204A
:105A5000456E726F6C6C204F4B210000456E726F6B
:105A60006C6C204661696C210000000044656C6527
:105A700074653F20313D5965730000003C000020F3
:105A800044656C657465642100000000506C6163BE
:105A9000652066696E6765722E2E2E005363616EF7
:105AA00020636172642E2E2E0000000053656C3A54
:105AB00020256400332D557020342D446F776E00FF
:105AC00050617373776F7264204D616E6167653AE0
:105AD0000000000008B500BF00235A1E6946354883
