:020000040800F2
:1000000048340120550200085D0200085F02000824
:100010006102000863020008650200080000000099
:100020000000000000000000000000009D0100082A
:100030006902000800000000F1010008C50E000878
:100040006F0200086F0200086F0200086F020008CC
:100050006F0200086F0200083D0400086F020008EC
:1000600071040008A9040008CD0400086F0200080C
:100070006F0200086F0200086F0200086F0200089C
:100080006F0200086F0200086F0200086F0200088C
:100090006F0200086F0200086F0200086F0200087C
:1000A000610F00086F0200086F0200086F0200086D
:1000B000910F0008BD0F00086F0200086F020008D2
:1000C0006F0200086F0200086F0200086F0200084C
:1000D0006F020008451000086F020008C5100008F4
:1000E0006F0200086F0200086F0200086F0200082C
:1000F0006F0200086F0200086F0200086F0200081C
:100100006F0200086F0200086F0200086F0200080B
:100110006F0200086F0200086F0200086F020008FB
:100120006F0200086F0200086F0200086F020008EB
:100130006F0200086F0200086F0200086F020008DB
:100140006F0200086F0200086F0200086F020008CB
:100150006F0200086F0200086F0200086F020008BB
:100160006F0200086F0200086F0200086F020008AB
:100170006F0200086F0200086F0200086F0200089B
:100180006F0200086F020008DFF80CD000F0FAF8E8
:1001900000480047452D0008483401202A4B1968C3
:1001A0000868B0E8F04F80F30988BFF36F8F4FF015
:1001B000000080F3118870470000000006480068C6
:1001C000006880F3088862B661B6BFF34F8FBFF353
:1001D0006F8F00DF00BF00BF08ED00E0DFF80C000C
:1001E000016841F470010160704700BF88ED00E0D4
:1001F000EFF30980BFF36F8F134B1A681EF0100FD7
:1002000008BF20ED108A20E9F04F106008B44FF0CD
:10021000500080F31188BFF34F8FBFF36F8F06F04C
:1002200043FB4FF0000080F3118808BC1968086890
:10023000B0E8F04F1EF0100F08BFB0EC108A80F34A
:100240000988BFF36F8F704704010020EFF305802A
:10025000704700000648804706480047FEE7FEE773
:10026000FEE7FEE7FEE7FEE7FEE7FEE7FEE7FEE766
:10027000F90E00088901000840EA01039B0703D03A
:1002800009E008C9121F08C0042AFAD203E011F8D5
:10029000013B00F8013B521EF9D27047D2B201E097
:1002A00000F8012B491EFBD270470022F6E710B57B
:1002B00013460A4604461946FFF7F0FF204610BDD4
:1002C00030B505462A460B4612F8010B13F8014BD0
:1002D00008B1A042F8D01CB1002802D06D1CF1E793
:1002E000284630BD421C10F8011B0029FBD1801AA2
:1002F000704710B5002200E0521C835C8C5CA34266
:1003000001D1002BF8D1D8B2E1B2401A10BD03469A
:1003100011F8012B00F8012B002AF9D1184670477B
:100320002DE9F05F0546002092469B46884606462A
:10033000814640241BE0284641464746224600F0BD
:1003400042F853465A46C01A914110D311461846F6
:10035000224600F029F82D1A67EB01084F46224685
:100360000120002100F020F817EB00094E41201E6B
:10037000A4F10104DFDC484631462A464346BDE885
:10038000F09F0000064C074D06E0E06840F00103D6
:1003900094E8070098471034AC42F6D3FFF7F8FE14
:1003A0002088000840880008202A04DB203A00FA50
:1003B00002F1002070479140C2F1200320FA03F3BC
:1003C000194390407047202A04DB203A21FA02F0BA
:1003D0000021704721FA02F3D040C2F1200291407F
:1003E00008431946704770B58C1810F8015B15F07A
:1003F000070301D110F8013B2A1106D110F8012B97
:1004000003E010F8016B01F8016B5B1EF9D12B07BB
:1004100005D40023521E0DD401F8013BFAE710F871
:10042000013BCB1A921C03E013F8015B01F8015B5E
:10043000521EF9D5A142D8D3002070BD10B500BF1F
:100440005021EFF3118081F31188BFF34F8FBFF379
:100450006F8F00BF0446012000F050F8012801D141
:1004600000F046F800BF84F3118800BF10BD000003
:1004700010B5042000F042F801280DD107480068AB
:10048000C0430749C1F8A4024FF4FA71054800F0CF
:10049000D7FD042000F02CF810BD0000A4824242D9
:1004A000008042420004004010B5082000F026F809
:1004B000012807D14FF44871034800F0C1FD08201E
:1004C00000F016F810BD00000004004010B5102028
:1004D00000F014F8012807D140F2DE31034800F0A3
:1004E000AFFD102000F004F810BD00000004004033
:1004F0000149086070470000143C0140014600209B
:10050000034A12680A400AB1012000E00020704747
:10051000143C014001490860704700000C3C024057
:1005200070B504460A460026092502B909E0012AE9
:1005300001D1160205E0022A01D1160201E04FF4B2
:10054000407600F09FF80546092D28D1154800682F
:1005500020F4407013490860084600683043086082
:100560000846006820F0F80008600846006844F07B
:10057000020108430B4908600846006840F48030D7
:10058000086000F07FF805460648006820F0020089
:10059000044908600846006820F0F8000860284612
:1005A00070BD0000103C024009201349096801F4A5
:1005B0008031B1F5803F01D101201CE00E4909686E
:1005C00001F0100109B1062015E00B49096801F49A
:1005D000807109B102200EE00749096801F0EF01BE
:1005E00009B1072007E00449096801F0020109B1D7
:1005F000082000E0092070470C3C024003480068D6
:1006000040F000400149086070470000103C024083
:1006100030B502460C46092500F034F80546092D90
:1006200019D10E48006820F440700C490860084653
:10063000006840F4007008600846006840F001005F
:100640000860146000F01EF805460448006820F0B9
:10065000010002490860284630BD0000103C0240FD
:100660000548006800F0004028B1044802490C39F0
:100670000860034808607047103C0240230167454A
:10068000AB89EFCD08B509200090FFF78DFF0090F2
:1006900002E0FFF789FF00909DF800000128F8D0E4
:1006A0009DF8000008BDF0B50A4600210023002493
:1006B00000BF3DE0012505FA01F3156805EA0304D2
:1006C0009C4234D105684F000326BE40B543056007
:1006D00015794E00B5400668354305601579012D42
:1006E00002D01579022D16D185684F000326BE4031
:1006F000B543856055794E00B540866835438560C1
:10070000456801268E40B5434560456896798E4020
:10071000B6B235434560C5684F000326BE40B543B9
:10072000C560D5794E00B540C6683543C560491CE3
:100730001029BFD3F0BDF0B5002300244D07ED0E06
:1007400002FA05F3CE1000F1200555F826504E07A9
:10075000F70E0F26BE40B543CF1000F1200646F835
:100760002750CE1000F1200555F8265045EA030425
:10077000CE1000F1200545F82640F0BD02460020CD
:1007800013690B400BB1012000E00020704741834A
:10079000704701837047000010B54FF400710E4898
:1007A000FFF7F7FF4FF480710B48FFF7F2FF0520CA
:1007B00001F050FF4FF400710748FFF7E8FF0520F4
:1007C00001F048FF4FF480710348FFF7E0FF052078
:1007D00001F040FF10BD00000004024010B54FF4CE
:1007E00080710E48FFF7D3FF4FF400710B48FFF7FD
:1007F000CEFF052001F02EFF4FF480710748FFF770
:10080000C8FF052001F026FF4FF400710348FFF7F1
:10081000C0FF052001F01EFF10BD000000040240D3
:1008200010B54FF400711048FFF7B3FF00F08EFAD7
:10083000022001F00FFF4FF480710B48FFF7A9FF72
:10084000022001F007FF084810300068C0F3402480
:100850004FF480710448FFF79AFF00F081FA0220FC
:1008600001F0F8FE204610BD0004024070B50446B9
:10087000002521E004F0800028B14FF400711148F8
:10088000FFF787FF04E04FF400710E48FFF77FFF8A
:100890004FF480710B48FFF77CFF052001F0DAFE72
:1008A0004FF480710748FFF772FF052001F0D2FE78
:1008B0006006040E681CC5B2082DDBDBFFF7B0FF35
:1008C00070BD00000004024070B5002100230F221B
:1008D000C4781CB3174C246804F4E064C4F5E064E5
:1008E000C4F30721C1F10404E3B20A4144789C40F7
:1008F000E1B28478144021430C07210E0E4C057898
:100900006155047804F01F050124AC4005786D1191
:10091000AD0005F1E025C5F8004109E0047804F0D8
:100920001F050124AC40054D0678761145F8264098
:1009300070BD00000CED00E000E400E080E100E0AC
:1009400002490143024A1160704700000000FA05A5
:100950000CED00E010B50446FFF71EFF06480078D6
:10096000FFF784FF0020FFF781FF2046FFF77EFF9F
:10097000FFF734FF10BD00008400002010B50446CE
:10098000FFF70AFF06480078FFF770FF4020FFF7E7
:100990006DFF2046FFF76AFFFFF720FF10BD000044
:1009A0008400002010B5142000F038F8044604F04C
:1009B000030018B90321142000F07AF810BD7CB5AB
:1009C000044600210D2000F007F99320207020201C
:1009D000607001A823460222214600900C2000F0FE
:1009E00074F808B101207CBD2078882807D0002544
:1009F00003E0605D6055681CC5B2042DF9DB002082
:100A0000F1E770B505460C46284600F007F820EAE5
:100A100004063146284600F0DFF870BD70B5044684
:100A200080210A48FFF7B3FE7E2101EA440141F02C
:100A3000800000F09FF9002000F09CF9054680211D
:100A40000248FFF7A6FE284670BD0000000C0240D9
:100A50007CB505460C4607210D2000F0BDF8257039
:100A600001A823460122214600900C2000F02DF819
:100A700008B101207CBD9DF80400102801D002209F
:100A8000F8E70020F6E7000010B54FF400610748D2
:100A9000FFF77DFE0A2003F0DDFC4FF40061034800
:100AA000FFF777FE0A2003F0D5FC10BD00080240D6
:100AB00070B505460C462846FFF7B0FF40EA04062D
:100AC0003146284600F088F870BD2DE9FC5F0546E8
:100AD000894692469B460020019000900C2D03D140
:100AE0007720019030200090019840F08001022092
:100AF00000F072F880210420FFF783FF002101201D
:100B000000F06AF880210A20FFF7D2FF002406E0F7
:100B100019F80410092000F05FF8601CC4B25445B5
:100B2000F6DB2946012000F057F80C2D03D1802177
:100B30000D20FFF7BDFF4FF4FA6600BF0420FFF75A
:100B40006DFF0446701E86B236B104F0010018B97C
:100B5000009820400028F1D080210D20FFF751FFA0
:100B600016B90120BDE8FC9F0420FFF757FF00F0F5
:100B7000010008B10220F5E70420FFF74FFF00F065
:100B8000010030BB0A20FFF749FF04460C20FFF7A5
:100B900045FF00F00708B8F1000F06D0601E08EB13
:100BA000C000C1B20C98017003E0E006010E0C9881
:100BB000017004B90124102C00DD1024002706E088
:100BC0000920FFF72BFF0BF80700781CC7B2A742DC
:100BD000F6DB0020C6E7000070B504460D46802114
:100BE0000748FFF7D4FD7E2101EA440000F0C2F877
:100BF000284600F0BFF880210148FFF7CAFD70BD0C
:100C0000000C024029B1064A12680243044B1A60E4
:100C100004E0034A12688243014B1A6070470000E7
:100C20003038024029B1064A12680243044B1A6068
:100C300004E0034A12688243014B1A6070470000C7
:100C40004038024029B1064A12680243044B1A6038
:100C500004E0034A12688243014B1A6070470000A7
:100C600044380240F0B5002100220024022500266D
:100C70000223324F3F6807F00C0121B1042905D04F
:100C8000082937D105E02E4F076036E02D4F076069
:100C900033E02A4F3F1F3F68C7F38056274F3F1F5F
:100CA0003F6807F03F036EB1264FB7FBF3F7DFF85D
:100CB0008CC0ACF1040CDCF800C0CCF3881C07FB42
:100CC0000CF40CE01E4FB7FBF3F7DFF870C0ACF18B
:100CD000040CDCF800C0CCF3881C07FB0CF4174FA5
:100CE0003F1F3F68C7F301477F1C7D00B4FBF5F74A
:100CF000076002E0124F076000BF00BF0F4F3F6860
:100D000007F0F0010909104F7A5C0768D740476087
:100D10000A4F3F6807F4E051890A0B4F7A5C476835
:100D2000D7408760054F3F6807F46041490B064F85
:100D30007A5C4768D740C760F0BD000008380240C1
:100D40000024F40000127A005401002003480068D7
:100D500020F4402001490860704700000004024070
:100D60000348006840F48020014908607047000093
:100D70000004024070B50446002525E004F0800020
:100D800020B140211248FFF704FD03E04021104844
:100D9000FFF7FDFC03F058FC40210E48FFF7F9FC7B
:100DA00003F052FC6006040E4FF480710848FFF710
:100DB000E5FC08B144F0010440210648FFF7E7FCD8
:100DC00003F042FC681CC5B2082DD7DB204670BD7D
:100DD00000080240000C02400CB500200190009079
:100DE0003448006840F480303249086000BF314820
:100DF000006800F4003000900198401C01900098B9
:100E000018B90198B0F5A04FF1D12A48006800F454
:100E1000003010B10120009001E000200090009807
:100E2000012846D123484030006840F080502149D5
:100E3000403108602048006840F440401E49086086
:100E40001C48083000681B490831086008460068E3
:100E500040F4004008600846006840F4A050086074
:100E60001648091F0860081F006840F08070091FBD
:100E7000086000BF0F48006800F000700028F9D03B
:100E800040F205700E4908600A480830006820F0FA
:100E900003000849083108600846006840F0020075
:100EA000086000BF03480830006800F00C00082804
:100EB000F8D10CBD003802400070004008544007D3
:100EC000003C024010B500BF502080F31188BFF3F2
:100ED0004F8FBFF36F8F00BF06F02EFF18B14FF09A
:100EE00080500449086000BF002080F3118800BFD3
:100EF00010BD000004ED00E010B51548006840F496
:100F00007000134908601348006840F0010011495F
:100F1000086000200F49083108600E4800680E493B
:100F200008400C4908600D48091D0860081F00684A
:100F300020F48020091F0860002006490C31086059
:100F4000FFF74AFF4FF0006001498039086010BD8B
:100F500088ED00E000380240FFFFF6FE103000246C
:100F600010B50121074800F05AF8012809D10648B8
:100F70000068C0430549C1F8B8020121014800F0EA
:100F80003FF810BD00400140B8024242000042421A
:100F900010B50121880700F042F8012809D1054861
:100FA0000068C0430449C1F8A4020121880700F089
:100FB00027F810BDA48242420080424210B50121B0
:100FC0000B4800F02CF8012810D10A48006828B915
:100FD00009480068C0430949C1F8A4020021044837
:100FE00000F011F80121024800F00AF810BD0000DD
:100FF0000004004008024242A48242420080424271
:10100000CA430282704721B1028842F00102028085
:1010100004E002884FF6FE731A400280704730B534
:101020000246002000230024158A05EA0103958961
:1010300005EA010413B10CB1012000E0002030BD2D
:101040004163704770B500BF5021EFF3118081F309
:101050001188BFF34F8FBFF36F8F00BF044640F27C
:101060002551144800F09AF801281DD1114800F0CC
:101070004FF9C1B210480578681C0F4A10700F482C
:10108000415510460078401E0C49085C2A2803D0C0
:10109000104600783F2802D301200949087040F229
:1010A0002551044800F052F800BF84F3118800BFB6
:1010B00070BD0000001001408C000020CC01002019
:1010C0008D00002070B500BF5021EFF3118081F337
:1010D0001188BFF34F8FBFF36F8F00BF054640F2FB
:1010E0002551164800F05AF8012821D1134800F084
:1010F0000FF9C4B2124800783F2813D2104908787B
:10110000411C0F4A11700F490C542A2C07D00D2C8A
:1011100005D00A2C03D0104600783E2802D30120C7
:101120000949087040F22551044800F00FF800BF4B
:1011300000BF85F3118800BF70BD0000004800406B
:101140008E0000200C0200208F00002010B500222D
:10115000002340F66A14A14200D100BF0A12012404
:101160009440A3B2DC43048010BD21B1828942F4D3
:101170000052828104E082894DF6FF731A40828119
:10118000704702460020B1F5007F00D100BF1388F0
:101190000B400BB1012000E00020704770B5024603
:1011A000002400230025002040F66A16B14200D139
:1011B00000BFC1F3421501F01F03012606FA03F335
:1011C000012D02D19689334006E0022D02D1168A04
:1011D000334001E0968A33400C12012606FA04F4EB
:1011E0001688344013B10CB1012000E0002070BD1E
:1011F000F0B50346002400260025002040F66A17BB
:10120000B94200D100BF1846C1F3421401F01F06D5
:10121000012707FA06F5012C01D10C3004E0022C5D
:1012200001D1103000E014301AB107682F43076075
:1012300002E00768AF430760F0BD00002DE9FF47FB
:1012400005460E460024A14600BFA046B08900B165
:1012500000BF2C8A24F44054F08804432C82AC89CB
:1012600041F20C608443B088318908437189084396
:101270000443AC81AC8A24F44074B0890443AC824A
:101280006846FFF7EFFC2048854202D01F488542A0
:1012900002D1DDF80C9001E0DDF80890A88900F497
:1012A000004040B109EBC90000EB0910316849006A
:1012B000B0FBF1F707E009EBC90000EB091031685A
:1012C0008900B0FBF1F76420B7FBF0F004012009BE
:1012D000642101FB1078A88900F4004040B132205D
:1012E00000EBC800B0FBF1F000F00700044308E099
:1012F000322000EB08106421B0FBF1F000F00F0089
:1013000004432C81BDE8FF87001001400014014018
:1013100001468888C0F308007047C1F30802828044
:10132000704700000FB4054B10B503A9044A02989A
:1013300000F040F810BC5DF814FB0000992A00088A
:10134000D80000200FB41CB50A46521ECDE9000299
:1013500007A9054B6A46069800F02CF8009A002170
:1013600011701CBC5DF814FB171800080FB4084B73
:1013700010B504A902AA039800F01CF8044602A9BB
:10138000002000F053FA204610BC5DF814FB00006A
:101390002D18000802E008C8121F08C1002AFAD15F
:1013A00070477047002001E001C1121F002AFBD1E5
:1013B000704700002DE9FF4F8DB00F46054600260F
:1013C00006E025280BD0DDE90F1290476D1C761C36
:1013D00028780028F5D111B03046BDE8F08F002400
:1013E000A246A1460122EC4900E0044315F8013F62
:1013F000203B02FA03F00842F7D128782A2810D0BF
:101400006FF02F022878A0F13001092914D80AEBD7
:101410008A0102EB410144F0020400EB010A6D1C59
:10142000F0E701CF5FEA000A03D544F40054CAF1A3
:10143000000A44F002046D1C28782E2817D115F8F4
:10144000010F44F004042A280ED06FF02F022878F0
:10145000A0F1300109290AD809EB890102EB410109
:1014600000EB01096D1CF2E757F8049B6D1C28780E
:101470006C280FD006DC4C2817D068280DD06A28BD
:1014800014D104E0742810D07A280FD10DE044F470
:1014900000140AE044F4801401E044F44014697834
:1014A000814202D104F580146D1C6D1C2A786E2ACD
:1014B0001FD00CDC632A31D004DC002A8BD0582AE0
:1014C00011D1A3E0642A68D0692A0CD165E0732A9F
:1014D0002ED004DC6F2A73D0702A04D19BE0752AC9
:1014E0006FD0782A6ED01046DDE90F129047761C37
:1014F00050E1C4F30250022806D0032809D0042882
:1015000001CF09D0066045E101CFF117C0E90061C4
:1015100040E101CF06803DE106703BE117F8040B86
:101520008DF8000000208DF80100EB46012003E05B
:1015300057F804BB4FF0FF3061074FF0000102D4B1
:101540000DE008F10101884649450FDA8045F8DBD6
:101550001BF808100029F4D108E008F101018846C1
:101560008142FADB1BF808100029F6D1DDE90F23D0
:10157000AAEB08008146214600F036F9304400EB22
:10158000080604E0DDE90F121BF8010B9047B8F1E3
:101590000108F7D221464846F7E00A21C4F3025376
:1015A0004FF0000B0891022B04D001CFC117032B81
:1015B00009D00AE0FF1D27F00707F7E8020108E05D
:1015C00032E01FE020E000B2C117042B01D140B28D
:1015D000C117031E71F1000307DA4FF0000CD0EBC6
:1015E0000C006CEB01012D2302E0230504D52B2315
:1015F0008DF82430012303E0E30701D02023F7E72F
:10160000984658E00A2110E010210EE010204FF01B
:10161000000B08900CE010214FF0000B44F0040484
:101620004FF00809089103E008214FF0000B0891E2
:10163000C4F30253022B04D001CF0021032B06D0A8
:1016400006E0FF1D27F00707F7E8020103E080B27C
:10165000042B00D1C0B24FF0000823072BD5702A0D
:1016600007D0DDF820C08CF0100C5CEA0B0C05D024
:101670000EE040238DF82430012308E050EA0103F6
:1016800006D030238DF824308DF82520022398468B
:10169000DDF820C08CF0080C5CEA0B0C0BD150EA92
:1016A000010301D1630706D530238DF824304FF0B4
:1016B0000108A9F10109582A04D038A20B9208AAFE
:1016C0000A920BE03AA2F9E75B46089AFEF728FE79
:1016D0000B9B9B5C0A9A521E0A92137050EA0102FD
:1016E000F2D10A98ADEB000000F1200B600702D5A3
:1016F00024F4803401E04FF00109D94502DDA9EB63
:101700000B0000E0002000EB0B0141440890AAEB25
:10171000010AE00306D4DDE90F232146504600F01C
:1017200063F806444FF0000908E009A911F8090020
:10173000DDE90F12904709F10109761CC145F4DB80
:10174000E0030CD5DDE90F232146504600F04CF8AC
:10175000064404E0DDE90F1230209047761C08991A
:10176000481E08900029F5DC08E00A980A990078DC
:10177000491C0A91DDE90F129047761CBBF100016C
:10178000ABF1010BF1DC21465046DDE90F2300F0FF
:1017900019F806446D1C1BE609280100303132336C
:1017A000343536373839616263646566000000009D
:1017B0003031323334353637383941424344454687
:1017C000000000002DE9F041044600251E461746A2
:1017D000880404D405E039462020B0476D1C641EFF
:1017E000F9D52846BDE8F0812DE9F04104460025F1
:1017F0001E469046C80301D5302700E02027880404
:1018000004D505E041463846B0476D1C641EF9D545
:101810002846BDE8F0814A68002A06D00A68531CB1
:101820000B6010704868401E486070470A68531C7F
:101830000B601070704700001CB5044666A0FFF7EF
:1018400071FD002204210A2005F03FFF694908606C
:1018500000220121102005F038FF674908600022AE
:101860000121102005F031FF6449086000220821A1
:10187000052005F02AFF62490860002202210520A8
:1018800005F023FF5F49086000220121102005F0C8
:101890001CFF5D490860012005F006FF5B490860F8
:1018A000012005F001FF5A490860012005F0FCFE07
:1018B0005849086004F0FCFA5748032100234FF40C
:1018C0000072CDE9001055A1574806F0EFF95748CE
:1018D000032100234FF40072CDE9001054A15648B3
:1018E00006F0E4F9554804210023CA01CDE90010AF
:1018F00053A1554806F0DAF95448052100234FF466
:101900000072CDE9001052A1544806F0CFF95448B6
:10191000022100230A02CDE9001052A1544806F02A
:10192000C5F95448032100234FF40072CDE900109B
:1019300051A1544806F0BAF95348032100234FF44B
:101940008072CDE9001051A1534806F0AFF9534819
:10195000032100234FF40072CDE9001050A1544838
:1019600006F0A4F95348052100234FF40072CDE995
:10197000001051A1534806F099F904F0C3FA00236E
:101980005A1E19462148006805F0CCFEE0B101F06E
:1019900049FB4DA20021084601F0ECFB4EA20221BA
:1019A000002001F0E7FB4FA20421002001F0E2FB40
:1019B0004FA20621002001F0DDFB00231A46194644
:1019C0001248006805F0DCFF05F0B0F800F098F868
:1019D000002004F031FD1CBD6170705F7461736B99
:1019E0005F696E69742072756E6E696E67210D0A8B
:1019F00000000000280000202C0000203000002003
:101A000034000020380000203C000020400000206E
:101A100044000020480000200400002046696E6752
:101A200065725461736B00001549000808000020BE
:101A30005077645461736B006D6000080C000020E7
:101A40004B65795461736B009952000810000020B7
:101A50004B65794D656E755461736B00C149000823
:101A6000140000204F6C65645461736B000000002B
:101A7000615D000818000020526669645461736B50
:101A800000000000B56200081C000020556172745F
:101A9000436D645461736B003569000820000020B9
:101AA000556E6C6F636B457865635461736B0000B2
:101AB00049690008240000204D616E61676554612A
:101AC000736B0000B153000853797374656D205235
:101AD0006561647921000000312D556E6C6F636B78
:101AE00000000000322D4D616E616765000000004E
:101AF00050726573732031206F7220320000000035
:101B000000B587B018A207CA8DE8070000235A1E47
:101B100019461848006805F005FE012804D016A0F3
:101B2000FFF700FC07B000BD0C21684600F030FD57
:101B30000C22C82103A800F043FC0C2806DB9DF80A
:101B4000150018B916A0FFF7EDFB04E09DF815107D
:101B50001DA0FFF7E7FB00231A4619460548006859
:101B600005F00EFF00BFDDE7EF01FFFFFFFF010003
:101B7000030D0011440000205B46696E6765725DCD
:101B800020436C6561723A206661696C65642074FB
:101B90006F20676574206D757465780D0A0000000C
:101BA0005B46696E6765725D20416C6C2066696E8C
:101BB0006765727072696E747320636C65617265BB
:101BC00064210D0A000000005B46696E6765725D66
:101BD00020436C656172206661696C3A20636F64B2
:101BE000653D3078253032580D0A000070B588B058
:101BF000044625A30FCB8DE80F0000260025002307
:101C00005A1E19462448006805F08CFD012805D0AD
:101C100022A0FFF787FB002008B070BD200A8DF8D6
:101C20000A00E0B28DF80B009DF80A0014309DF810
:101C30000B100844451C280A8DF80E00E8B28DF8F8
:101C40000F001021684600F0A3FC0C224FF47A71BB
:101C500004A800F0B5FB0C2808DB9DF8190028B992
:101C6000214616A0FFF75EFB012604E09DF819103F
:101C70001BA0FFF757FB00231A46194606480068C9
:101C800005F07EFE3046C7E7EF01FFFFFFFF0100D2
:101C9000070C000000010000440000205B44656C5C
:101CA0006574655D204661696C656420746F2067AA
:101CB0006574206D75746578210D0A005B44656C50
:101CC0006574655D2046696E6765722049443D25EF
:101CD000642064656C65746564210D0A0000000071
:101CE0005B44656C6574655D204661696C212063A9
:101CF0006F64653D3078253032580D0A00000000D1
:101D00002DE9F0419AB00546202112A8FEF7CDFA40
:101D10009BA2D2E900109268CDE910020F919BA31B
:101D20000FCB0BAC0FC49DA191E80D00C96807ACA7
:101D30000DC40A919DA2D2E900109268CDE9050276
:101D400004919DA30FCB8DE80F004FF000080026F3
:101D5000002700235A1E19469B48006805F0E2FC44
:101D6000012806D099A0FFF7DDFA00201AB0BDE8DF
:101D7000F08101209D490870280A8DF80B00E8B217
:101D80008DF80C009DF80B000E309DF80C104718D4
:101D9000380A8DF80D00F8B28DF80E00294694A08F
:101DA000FFF7C0FA002631E0C82004F017FB0C2131
:101DB0000FA800F0EDFB0C224FF47A7112A800F08E
:101DC000FFFA04461CB998A0FFF7ACFACBE00C2C44
:101DD00003DB9DF8510000B919E00C2C10DB9DF8D5
:101DE000510002280CD13046711C8EB20A2190FBA2
:101DF000F1F201FB120010B997A0FFF793FA05E08A
:101E00009DF851109DA0FFF78DFAACE0CCE700BF24
:101E1000A4A0FFF787FA4FF47A7004F0DFFAABA0C2
:101E2000FFF780FA0D210BA800F0B2FB0C224FF453
:101E30007A7112A800F0C4FA04460A2C02DB9DF85D
:101E4000510028B19DF85110ABA0FFF76BFA8AE062
:101E5000B3A0FFF767FA002631E0C82004F0BEFA0D
:101E60000C210FA800F094FB0C224FF47A7112A8F9
:101E700000F0A6FA04461CB9B5A0FFF753FA72E0C9
:101E80000C2C03DB9DF8510000B919E00C2C10DB81
:101E90009DF8510002280CD13046711C8EB20A21E7
:101EA00090FBF1F201FB120010B9B2A0FFF73AFA71
:101EB00005E09DF85110B9A0FFF734FA53E0CCE7E4
:101EC00000BFC0A0FFF72EFA0D2107A800F060FBAD
:101ED0000C224FF47A7112A800F072FA04460A2C10
:101EE00002DB9DF8510028B19DF85110C1A0FFF709
:101EF00019FA38E0C9A0FFF715FA0C2104A800F080
:101F000047FB0C224FF4FA6112A800F059FA04467C
:101F10000A2C02DB9DF8510028B19DF85110CAA08F
:101F2000FFF700FA1FE0D2A0FFF7FCF90F21684687
:101F300000F02EFB0C224FF47A7112A800F040FA48
:101F400004460A2C02DB9DF8510028B19DF851107F
:101F5000D0A0FFF7E7F906E02946D7A0FFF7E2F99E
:101F60004FF0010800BF00202049087000231A46E6
:101F700019461548006805F003FD4046F6E60000E6
:101F8000EF01FFFFFFFF010003010005EF01FFFF6D
:101F9000FFFF01000402010008000000EF01FFFF45
:101FA000FFFF01000402020009000000EF01FFFF33
:101FB000FFFF010003050009EF01FFFFFFFF010024
:101FC0000606010000000000440000205B456E7220
:101FD0006F6C6C5D204661696C656420746F20676E
:101FE0006574206D75746578210D0A0086000020E7
:101FF0005B456E726F6C6C5D2049443D2564202DFD
:10200000205374657020312F343A20506C61636521
:102010002066696E676572206F6E2073656E736FE0
:10202000722E2E2E0D0A00005B456E726F6C6C5D79
:1020300020476574496D616765313A206E6F207283
:102040006573706F6E73652066726F6D206D6F645F
:10205000756C65210D0A00005B456E726F6C6C5DDE
:102060002057616974696E6720666F722066696EB9
:102070006765722E2E2E0D0A000000005B456E7201
:102080006F6C6C5D20476574496D616765312066D2
:1020900061696C3A20636F64653D30782530325851
:1020A0000D0A00005B456E726F6C6C5D20537465A9
:1020B000702031204F4B202D2052656D6F766520AA
:1020C00066696E6765722E2E2E0D0A005B456E7274
:1020D0006F6C6C5D205374657020322F343A20474A
:1020E000656E65726174696E672074656D706C6190
:1020F00074652E2E2E0D0A005B456E726F6C6C5D42
:102100002047656E4368617231206661696C3A20D0
:10211000636F64653D3078253032580D0A00000049
:102120005B456E726F6C6C5D20537465702032205D
:102130004F4B202D20506C6163652066696E67658A
:102140007220616761696E2E2E2E0D0A000000005C
:102150005B456E726F6C6C5D20476574496D61679D
:1021600065323A206E6F20726573706F6E736521F1
:102170000D0A00005B456E726F6C6C5D20576169E3
:1021800074696E6720666F722066696E676572207B
:10219000616761696E2E2E2E0D0A00005B456E721E
:1021A0006F6C6C5D20476574496D616765322066B0
:1021B00061696C3A20636F64653D30782530325830
:1021C0000D0A00005B456E726F6C6C5D2053746588
:1021D000702033204F4B202D2047656E657261744F
:1021E000696E672074656D706C61746520322E2E87
:1021F0002E0D0A005B456E726F6C6C5D2047656E3C
:102200004368617232206661696C3A20636F64656D
:102210003D3078253032580D0A0000005B456E7263
:102220006F6C6C5D205374657020342F343A204DF0
:10223000657267696E672074656D706C6174657333
:102240002E2E2E0D0A0000005B456E726F6C6C5DC9
:10225000205265674D6F64656C206661696C3A2039
:10226000636F64653D3078253032580D0A000000F8
:102270005B456E726F6C6C5D2053746F72696E6734
:102280002066696E6765727072696E742E2E2E0DEF
:102290000A0000005B456E726F6C6C5D2053746FBA
:1022A0007265206661696C3A20636F64653D3078C1
:1022B000253032580D0A00005B456E726F6C6C5D04
:1022C0002053554343455353212046696E67657239
:1022D0002049443D256420656E726F6C6C656421F5
:1022E0000D0A000000B587B000200390049005900F
:1022F000069018A207CA8DE8070000235A1E194647
:102300001748006805F00EFA0C21684600F040F905
:102310000C224FF47A7103A800F052F860B911A0B2
:10232000FFF700F800231A4619460D48006805F02B
:1023300027FB002007B000BD9DF8151012A0FEF786
:10234000F1FF00231A4619460548006805F018FBFE
:102350000120EFE7EF01FFFFFFFF01000326002A46
:10236000440000205B41533630385D2048616E6484
:102370007368616B653A206E6F20726573706F6E63
:1023800073650D0A000000005B41533630385D2054
:1023900048616E647368616B65204F4B2120636FE9
:1023A0006E6669726D5F636F64653D3078253032AB
:1023B000580D0A0010B5C82000F01CF910BD00002F
:1023C000F8B505460E4617460024002000900DE0A3
:1023D00020211948FEF7D5FE012803D11648FEF743
:1023E00097FF00E006E00098401C00900098B0F5D0
:1023F0007A7FEDD300BF0020009013E020210E482B
:10240000FEF7BFFE01280AD10B48FEF781FFC2B2DA
:102410002046611C8CB22A54BC4200DB09E00098C3
:10242000401C009040F2712070430099B1EB401FB6
:10243000E4D300BFE0B2F8BD0044004070B594B0F2
:1024400005463CA2D2E900109268CDE90A02099142
:102450003BA30FCB05AC0FC414223DA16846FDF78A
:102460000BFF00260023642219463E48006805F051
:1024700059F9012802D0002014B070BD01263A4855
:10248000007800B144E00C2109A800F081F80C228A
:102490004FF4FA710CA8FFF793FF04460A2C02DBF5
:1024A0009DF8390000B133E00D2105A800F070F867
:1024B0000C224FF4FA710CA8FFF782FF04460A2C95
:1024C00002DB9DF8390000B122E01121684600F0DE
:1024D0005FF810224FF4FA710CA8FFF771FF044661
:1024E0000A2C02DB9DF8390000B111E09DF83B0099
:1024F0009DF83A1040EA012028809DF83F009DF8A1
:102500003E3040EA0322298818A0FEF70BFF00BFE7
:10251000012E06D100231A4619461248006805F01C
:102520002FFA0C2C04DB9DF8390008B90120A3E731
:102530000020A1E7EF01FFFFFFFF010003010005FD
:10254000EF01FFFFFFFF010004020100080000008F
:10255000EF01FFFFFFFF0100080401000003E70097
:10256000F800000044000020860000205B46696EF1
:102570006765725D204D61746368212049443D2583
:10258000642073636F72653D25640D0A00000000CE
:1025900070B505460E4600240CE000BF80210A48B5
:1025A000FEF7EFFD0028F9D0295D0748FEF7B5FEDC
:1025B000601C84B2B442F0DB00BF40210248FEF749
:1025C000E0FD0028F9D070BD004400404FF0E0204D
:1025D000006920F004004FF0E02108616FF07F40B7
:1025E0004861002088610846006940F001000861E8
:1025F000704700002DE9F047074600264FF0E02025
:10260000D0F81490124800684FF47A71B0FBF1F0E2
:1026100000FB07F84FF0E020856904F03DF911E078
:102620004FF0E0208469AC420CD0AC4202D2281BAF
:10263000064403E0A9EB0400284406442546464529
:1026400000D300E0ECE700BF05F0CAFCBDE8F0876E
:10265000640100202DE9F047074600264FF0E020F6
:10266000D0F81490124800681249B0FBF1F000FB5A
:1026700007F84FF0E020856904F00EF911E04FF003
:10268000E0208469AC420CD0AC4202D2281B064444
:1026900003E0A9EB0400284406442546464500D340
:1026A00000E0ECE700BF05F09BFCBDE8F087000010
:1026B0006401002040420F0010B504460B4890F81A
:1026C0004900052801DB002010BD084890F849109A
:1026D000343040F82140343890F84900401C034918
:1026E00081F8490000F0A0F90120EDE77801002011
:1026F00010B50446114890F84800052801DB002079
:1027000010BD2046FDF7EEFD082801D90020F7E7AF
:102710000A4991F8481001EBC1020849091D5018F7
:102720002146FDF7F4FD054890F84800401C034998
:1027300081F8480000F078F90120E1E778010020F5
:1027400070B50546154890F84900A84201DC002004
:1027500070BD2C4608E011483430611C50F821103F
:1027600040F82410601CC4B20C4890F84900401E88
:10277000A042F0DC0022094890F84900401E0749B9
:10278000343141F82020054890F84900401E343982
:1027900081F8490000F048F90120D9E778010020CC
:1027A00070B50546194890F84800A84201DC0020A1
:1027B00070BD2C460CE0621C02EBC203134A121DD2
:1027C000991804EBC4039818FDF7A1FD601CC4B26E
:1027D0000E4890F84800401EA042ECDC0B4890F8F0
:1027E0004800401E00EBC0010848001D08440021BD
:1027F000016041600172054890F84800401E03499D
:1028000081F8480000F010F90120D1E7780100209C
:1028100000487047C20100200146094890F849006D
:10282000052801DD00207047054890F849008842DE
:1028300004DD0348343050F82100F4E70020F2E7CB
:1028400078010020054890F84900052801DD0020A6
:102850007047024890F84900FAE70000780100202C
:1028600001460A4890F84800052801DD002070471D
:10287000064890F84800884205DD01EBC102034894
:10288000001D1044F3E70020F1E70000780100206C
:10289000054890F84800052801DD002070470248EF
:1028A00090F84800FAE70000780100202DE9F04791
:1028B000584E37460024A1464FF00108564930686B
:1028C000884256D196F84900052803DC96F848005E
:1028D000052801DD4FF00008B8F1000F12D00025E7
:1028E00009E005EBC501301D405CFF2801D14FF028
:1028F0000008681CC5B296F84800A84202DDB8F18D
:10290000000FEED1B8F1000F15D0542231464348E4
:10291000FDF7B2FC414890F84A0020B13F4890F8DA
:102920004A00FF2874D13EA13C484A30FDF7EFFC35
:1029300000F07AF86CE054213848FDF7B6FC3648D0
:1029400036490860002081F8480081F8490034A128
:1029500032484A30FDF7DBFC7C68601C30B12CB19A
:102960002E48446301202D4981F8490000F05CF8AD
:102970004EE054212948FDF798FC27482749086074
:10298000002081F8480081F8490025A123484A30F9
:10299000FDF7BDFC3868401C002839D00024A14652
:1029A0003C68601C50B14CB11B48844206D01B48A7
:1029B00044630120194981F849008146B9F1000FAB
:1029C0000AD17C68601C38B134B1144844630120DA
:1029D000124981F849008146B9F1000F16D100254E
:1029E00011E057F82540601C58B154B10A488442A0
:1029F00007D00A4844630120084981F8490081460C
:102A000003E0681CC5B2102DEBDB00BF00F00CF832
:102A1000BDE8F08700000E080100FECA7801002022
:102A200031323334353600002DE9F041FDF718FE20
:102A3000F320FDF76FFD02215820FDF771FD094DD0
:102A4000094E1527002406E055F8241006EB8400F3
:102A5000FDF7DEFD641CBC42F6D3FDF7CFFDBDE8FB
:102A6000F08100007801002000000E0810B5044637
:102A7000074890F8490018B92046FFF71DFE03E00B
:102A800003484463FFF7D0FF0248046010BD000014
:102A9000780100208800002070B504460D4600BF74
:102AA00080210548FEF76DFB0128F9D1A1B202484B
:102AB000FEF733FC204670BD0010014010B5002029
:102AC000044908603220FFF795FD01200249C1F852
:102AD000A40210BDA48242420080424210B50020F0
:102AE00007490870074908700748006818B1064888
:102AF000006803F0B5FD05A0FEF714FC10BD000052
:102B00004C0000204D000020040000205B4B657944
:102B1000626F6172645D204D6F64652064656163FE
:102B200074697661746564210D0A000010B5012096
:102B3000064908700648006818B10548006803F0A7
:102B400039FE04A0FEF7EEFB10BD00004C00002093
:102B5000040000205B4B6579626F6172645D204DFB
:102B60006F646520616374697661746564210D0A20
:102B7000000000001CB501215720FEF743F801209A
:102B80008DF8040000208DF8060002208DF8050065
:102B90008020009069461F48FDF785FD4FF40040F6
:102BA000009069461C48FDF77EFD4FF420700090B0
:102BB00069461A48FDF777FD00208DF804000120D2
:102BC0008DF807004020009069461248FDF76BFD24
:102BD0004020009069461248FDF765FD4FF4807073
:102BE000009069460F48FDF75EFD10200090694691
:102BF0000C48FDF758FD80210648FDF7CAFD4FF44B
:102C000000410548FDF7C5FD4FF420710348FDF76D
:102C1000C0FD1CBD00040240001802400008024034
:102C200000100240000002407FB51C4B0FCB8DE826
:102C30000F00002600242DE0204601F0D3FC0520E3
:102C4000FFF7D8FC002522E0284601F0A5FCE8B9F2
:102C50001420FFF7CFFC284601F09EFCB0B91420E9
:102C6000FFF7C8FC284601F097FC78B9684600EBEE
:102C70008400465D00BF284601F08EFC0028FAD093
:102C80001E20FFF7B7FC304604B070BD6D1C042D4C
:102C9000DADB641C042CCFDB0020F5E7B0870008EA
:102CA0002548006840F03000234908602348006848
:102CB00020F47010214908600846006840F4A01014
:102CC0000860081D006820F4C060091D0860081D28
:102CD000006820F47010091D0860081D006820F4C9
:102CE0007010091D086015481430006840F4C06079
:102CF0001249143108601248006820F070501049E1
:102D000008600846006840F0A05008600846406827
:102D100020F4C04048600846806820F07050886009
:102D20000846C06820F07050C8600846406940F40A
:102D3000C040486170470000303802400014024033
:102D4000001002401CB54FF44070FDF7F9FDFFF78D
:102D50003DFCFFF7A5FFFFF70DFF00F07FF901F045
:102D600089FBFFF727FBFFF7A1FD4FF4E13001F0EE
:102D700079FC4FF4614001F0E3FC4FF4E13001F0E5
:102D80003FFD2DA0FEF7CEFA3348017833A0FEF7C1
:102D9000C9FA38A0FEF7C6FAFFF754FD06463146D9
:102DA0003BA0FEF7BFFA002409E0E0B2FFF734FDD4
:102DB0000646324621463BA0FEF7B4FA641CFFF7F4
:102DC00041FDA042F1DCFFF763FD064631463AA023
:102DD000FEF7A8FA002409E0E0B2FFF741FD06463D
:102DE000324621463AA0FEF79DFA641CFFF750FDDB
:102DF000A042F1DC3A4D3BA0FEF794FA002407E034
:102E000055F8242005EB84013CA0FEF78BFA641CE6
:102E10000A2CF5DB3FA0FEF785FA45480521002383
:102E20004FF40072CDE9001042A1464804F03EFF85
:102E300003F076FC00BFFEE7536D61727420446FAF
:102E40006F72204C6F636B2053797374656D2053E0
:102E500074617274210A00008500002052433532EB
:102E6000322056657273696F6E3A203078253032A1
:102E7000580D0A003D3D3D20466C61736820496E47
:102E80006974204465627567203D3D3D0D0A000070
:102E90004361726420636F756E743A2025640D0A75
:102EA000000000002020436172645B25645D3A20CD
:102EB000253038580D0A000050617373776F7264C3
:102EC00020636F756E743A2025640D0A00000000BF
:102ED00020205077645B25645D3A2025730D0A003D
:102EE00000000E0852617720466C61736820636FA2
:102EF0006E74656E743A0D0A0000000020205B308D
:102F000078253038585D3A203078253038580D0A09
:102F1000000000003D3D3D3D3D3D3D3D3D3D3D3DD5
:102F20003D3D3D3D3D3D3D3D3D3D3D3D0D0A0000AE
:102F3000000000206170705F7461736B5F696E697F
:102F4000740000003918000810B500200E49087000
:102F50000E4908700E48006818B10D48006803F06B
:102F60007FFB0C48006818B10A48006803F078FB42
:102F70000948006818B10848006803F071FB07A011
:102F8000FEF7D0F910BD00004F00002050000020D7
:102F90000400002008000020180000205B4D616E36
:102FA0006167655D204D6F64652064656163746968
:102FB0007661746564210D0A0000000010B50120DF
:102FC0000D4908700D48006818B10C48006803F0FE
:102FD000F1FB0B48006818B10948006803F0EAFBF0
:102FE0000848006818B10748006803F0E3FB06A032
:102FF000FEF798F910BD00004F00002004000020EB
:1030000008000020180000205B4D616E6167655D5F
:10301000204D6F6465206163746976617465642115
:103020000D0A000070B5002415E004F1B001C8B22B
:10303000FDF790FC0020FDF78DFC1020FDF78AFCC9
:10304000002504E00020FDF799FC681CC5B2802D26
:10305000F8DB601CC4B2082CE7DB70BD1CB5012195
:103060000220FDF7CFFD01208DF804008DF8060049
:103070008DF8070002208DF805004FF44070009095
:1030800069463548FDF70FFB4FF400713248FDF7F4
:1030900080FB4FF480713048FDF77BFB3220FFF757
:1030A000A9FA782000F05AF87A2000F057F8AE20FC
:1030B000FDF750FC0A20FFF79DFAD520FDF74AFCEA
:1030C0008020FDF747FCA820FDF744FC3F20FDF7DA
:1030D00041FCD320FDF73EFC0020FDF73BFC4020E7
:1030E000FDF738FC8D20FDF735FC1420FDF732FC90
:1030F0002020FDF72FFC0220FDF72CFCA120FDF77E
:1031000029FCC820FDF726FCDA20FDF723FC12205D
:10311000FDF720FC8120FDF71DFCCF20FDF71AFCF8
:10312000D920FDF717FCF120FDF714FCDB20FDF79B
:1031300011FC4020FDF70EFCA420FDF70BFCA6209F
:10314000FDF708FCAF20FDF705FC6420FFF752FAFD
:10315000FFF768FF1CBD00000004024010B50446E4
:10316000FDF71AFB2046FDF781FBFDF737FB012039
:1031700010BD00002DE9F04104468846174640E0A6
:103180003E78202E01DB7E2E00DD2026A6F12000D9
:10319000C6B208F1B001C8B2FDF7DCFB04F00F00C5
:1031A000FDF7D8FB102101EB2410FDF7D3FB002520
:1031B00007E0164901EB0611485DFDF7DFFB681CCF
:1031C000C5B2082DF5DB08F1B101C8B2FDF7C2FBAD
:1031D00004F00F00FDF7BEFB102101EB2410FDF7FA
:1031E000B9FB082507E0094901EB0611485DFDF729
:1031F000C5FB681CC5B2102DF5DB04F10800C4B294
:103200007F1C38780028BBD1BDE8F081C081000860
:1032100030B591B03048007800285BD0002404E03D
:103220002E48005D01A90855641C2D480078844291
:1032300001D23F2CF4D3002001A908554021274892
:10324000FDF733F80020264908702349087001A9CA
:1032500024A0FEF767F801AD002434E001A8005D6A
:103260002A2807D001A8005D0D2803D001A8005D21
:103270000A2827D1002001A908552878F8B11CA1F7
:103280002846FDF71DF878B11BA0FEF74BF800208B
:103290001D4908600420009000230A2269461B484B
:1032A000006804F06DFB0AE019A12846FDF708F854
:1032B00028B119A0FEF736F801201349086001A8CB
:1032C0002044451C641C402C03D201A8005D00284A
:1032D000C4D100BF11B030BD8F0000200C0200200F
:1032E0008E0000205B576946695D2025730D0A003A
:1032F000756E6C6F636B00005769466920556E6C84
:103300006F636B210D0A0000A48242422800002056
:103310006C6F636B0000000057694669204C6F6357
:103320006B210D0A0000000038B5AB48007800287A
:1033300074D0AAA1AB48FCF7C3FF18B1AAA0FDF74F
:10334000F1FF3FE1ACA1A748FCF7BAFF78B1ACA010
:10335000FDF7E8FF0020B149086004200090002339
:103360000A226946AE48006804F00AFB2AE1ADA1D2
:103370009C48FCF7A5FF30B1ACA0FDF7D3FF0120BE
:10338000A64908601EE1B0A19648FCF799FF18B164
:10339000B0A0FDF7C7FF15E1B6A19248FCF790FF7A
:1033A000B8B1904C641D002505E014F8012B2846A7
:1033B0006D1CB2490A54207820B120782A2801D007
:1033C0001F2DF2DB0020AD494855ADA0FDF7AAFF47
:1033D000F8E0B0A18348FCF773FFB8B1814C641DDD
:1033E000002505E014F8012B28466D1CAB490A5452
:1033F000207820B120782A2801D01F2DF2DB002070
:10340000A6494855A6A0FDF78DFFDBE0A9A17548A8
:10341000FCF756FF98B1734CE41C04E0DBE0207825
:1034200001F048FA641C207810B120782A28F6D1DF
:103430000D2001F03FFA0A2001F03CFAC2E09EA103
:103440006848FCF73DFFA0B19EA0FDF76BFFA4A06C
:1034500001F040FA4FF4FA6002F0C0FFA1A001F0C1
:1034600039FA4FF4FA6002F0B9FFA0A0FDF75AFF55
:10347000A8E0A3A15B48FCF723FF10B103F056FBC3
:10348000A0E0A1A15748FCF71BFF28B1A0A0FDF7C1
:1034900049FFFEF727FF95E0A5A15248FCF710FF72
:1034A00048B1A6A0FDF73EFFABA001F09DF9AFA08B
:1034B000FDF738FF86E0B4A14A48FCF701FFC8B128
:1034C000484C641D2146B2A0FDF72CFF03E014F820
:1034D000010B01F0EFF9207810B120782A28F6D1FD
:1034E0000D2001F0E7F90A2001F0E4F9B0A0FDF7A2
:1034F00019FF67E0B4A13B48FCF7E2FE80B1B54894
:10350000006818B9B4A0FDF70DFF5BE0B148006892
:10351000FFF7ACFAAF480168BAA0FDF703FF51E02E
:10352000BFA13048FCF7CCFE60B1C048006828B1AC
:10353000BE480168BEA0FDF7F5FE43E0C1A0FDF75F
:10354000F1FE3FE0C4A12748FCF7BAFE58B30125BD
:10355000244C00E0641C207828B120783028F9DB66
:1035600020783928F6DC2078302814DB20783928B8
:1035700011DC002507E02078303805EB850100EBF1
:10358000410085B2641C2078302802DB207839287D
:10359000F1DD05B901252946B1A0FDF7C3FE284696
:1035A000FEF7AEFB0EE0B8A10E48FCF789FE28B18D
:1035B000B9A0FDF7B7FEFEF7A3FA03E00949BEA0E4
:1035C000FDF7B0FE40210748FCF76FFE0020C04920
:1035D00008700149087038BD8D000020746573744F
:1035E00000000000CC0100207465737420636F6DCF
:1035F0006D616E64210A0000756E6C6F636B000074
:10360000426C7565746F6F746820556E6C6F636B78
:103610002053756363657373210A0000A4824242DC
:10362000280000206C6F636B00000000426C756521
:10363000746F6F7468204C6F636B205375636365A0
:103640007373210A0000000073796E635F66696E10
:103650006765720053796E63696E672066696E678D
:1036600065727072696E747320746F204150502EB1
:103670002E2E0A0073736964200000009000002061
:10368000576946692053534944207365743A20258D
:10369000730D0A007061737320000000B0000020F9
:1036A000576946692050617373207365743A202509
:1036B000730D0A0061742000776966695F74657331
:1036C000740000005769466920746573743A20736A
:1036D000656E64696E672041542E2E2E0D0A00001F
:1036E0002B2B2B0041540D0A00000000576946693E
:1036F000207465737420646F6E652E0D0A000000DF
:10370000776966690000000066696E67657200008F
:1037100054657374696E672066696E67657270724E
:10372000696E74206D6F64756C652E2E2E0A000014
:1037300075617274325F6563686F00005B5541525A
:1037400054325D2054657374696E67206563686FD9
:103750002E2E2E0D0A00000048656C6C6F206672DC
:103760006F6D205541525432210D0A005B55415274
:1037700054325D204563686F207465737420646FF4
:103780006E652E0D0A00000073656E642000000057
:103790005B576946695D2053656E64696E67207486
:1037A0006F20576946693A2025730D0A0000000012
:1037B0005B576946695D204D65737361676520736A
:1037C000656E74210D0A0000736176655F63617236
:1037D00064000000800000204E6F2063617264204E
:1037E0007363616E6E656420796574212053636133
:1037F0006E206120636172642066697273742E0D9D
:103800000A0000004361726420253038582073613B
:1038100076656420746F20466C617368210D0A0020
:1038200073686F775F636172640000008800002036
:10383000536176656420636172643A20253038589C
:103840000D0A00004E6F206361726420736176651B
:10385000642E0D0A00000000656E726F6C6C000033
:10386000537461727420656E726F6C6C696E672040
:1038700066696E6765727072696E742049443D2591
:10388000642E2E2E0A000000636C6561725F66690B
:103890006E67657200000000436C656172696E6757
:1038A00020616C6C2066696E6765727072696E74F7
:1038B000732E2E2E0A000000756E6B6E6F772063DC
:1038C0006F6D6D616E64203D2025730A000000005D
:1038D0008C0000202DE9F04105460E461C48076883
:1038E0001C480068001D01F000F850B91948006834
:1038F00090F82C1001208840174909688143164828
:103900000160681C38B936B112480168091D1348B6
:1039100001F042FD1AE07C190E4800684460BC4288
:1039200007D20C480168091D0D48006801F01AFD16
:103930000CE008480168091D0A48006801F012FD02
:1039400009480068844201D207480460BDE8F0815C
:1039500018010020040100201C0100200830012073
:103960000C010020080100203401002010B504469D
:1039700002F09EFA24480068401C2349086023484E
:10398000006840B9214804600846006801280DD14C
:1039900000F0ECF90AE01E48006838B91B480068DE
:1039A000C06AE16A884201D8184804601948006872
:1039B000401C1849086008460068206494F82C10E0
:1039C0000120884014490968084313490860E16AE6
:1039D00001EB8101114A02EB8100211D01F0DCFCA9
:1039E00002F090FA0A48006868B108480068C06AA6
:1039F000E16A884207D24FF0805009490860BFF35E
:103A00004F8FBFF36F8F10BD140100200401002001
:103A100020010020300100201C0100208C2E0120FC
:103A200004ED00E010B502F043FA10480068D0B988
:103A30000F4801F087FC0F4801F084FC0C480E4948
:103A400008600C480D49086000220C210A2003F090
:103A50003CFE064908600846006820B108A10348FA
:103A6000006802F0EBFB02F04DFA10BD48010020A7
:103A70001C30012030300120400100204401002092
:103A8000546D72510000000070B523E002F004FF95
:103A90001348006808B9012000E00020054604F042
:103AA0009FFABDB902F004FA0D48C068C468201D31
:103AB00000F01BFF0B480068401E0A4908600A48D6
:103AC0000068401E0849086002F01CFA204600F019
:103AD00060F800BF044800680028D7D170BD00001E
:103AE000F42F0120140100201001002070B50446BD
:103AF0000D46206C70B1216CE0680844E06061689C
:103B0000E068884201D32068E0602846226CE168C2
:103B1000FCF7B2FB70BD2DE9F04104460F46154697
:103B20004FF00008A66B206C40B9206860BB60684D
:103B300004F0A6F980460020606025E07DB9394692
:103B4000226CA068FCF798FB216CA0680844A06078
:103B5000D4E90110884217D32068A06014E03946E8
:103B6000226CE068FCF788FB216CE068401AE0609A
:103B70002168E068884203D2216C6068401AE060E6
:103B8000022D01D106B1761E701CA0634046BDE82F
:103B9000F08110B50446206B02F0D2F9204602F005
:103BA000CFF910BD0146084A126812680AB901220D
:103BB00000E000220A600A6822B9034A1268D2684B
:103BC000106800E0002070474001002030B54FF43D
:103BD0009633174800F007042CB1C01D20F00700F1
:103BE000134C041B1B1B0246124C22600024114D77
:103BF0006C60D018083820F007000F4C20600024BB
:103C00000D4D2D686C600C4D2D682C601146441ACA
:103C10004C60094C24680C60084D4C682C60084DC1
:103C20004C682C604FF00044064D2C6030BD000005
:103C30004C020020E0000020E8000020F0000020FE
:103C4000EC000020F400002000BFFFF71DFF064835
:103C500000680128F9D94FF0805004490860BFF38B
:103C60004F8FBFF36F8FF0E78C2E012004ED00E043
:103C700010B504464CB1002060602060E060002375
:103C80001A461946204603F07BFE10BD2DE9F0418F
:103C900006460D4617469846069C0DB9246000E07E
:103CA0002760E66325640121204603F01DFE84F8A9
:103CB0004C80BDE8F0812DE9F05F82460F469046CA
:103CC0009B460A9E0C9C4FEA8801A522206BFCF7BC
:103CD000E5FAA8F10100216B01EB800929F0070941
:103CE00009F0070008B9012000E0002050B900BF2A
:103CF000502080F31188BFF34F8FBFF36F8F00BF49
:103D000000BFFEE7002507E0795D04F1340041556E
:103D1000785D00B902E06D1C0A2DF5D300BF0021CB
:103D20003D2001550F2E00D30E26E662A66400202A
:103D3000E064201D01F013FB04F1180001F00FFBFB
:103D40002461C6F10F00A06164620020206584F840
:103D500054005A465146484600F066FB20600B98D6
:103D600008B10B980460BDE8F09F000010B5002476
:103D700007E004EB84010F4A02EB810001F0E2FA54
:103D8000641C0F2CF5D30C4801F0DCFA0B4801F051
:103D9000D9FA0B4801F0D6FA0A4801F0D3FA0A48DA
:103DA00001F0D0FA0448094908600448084908604D
:103DB00010BD00008C2E0120B82F0120CC2F012037
:103DC000E02F0120F42F01200830012008010020FD
:103DD0000C01002010B50146164800E00068036899
:103DE0008B42FBD30246436813448B4204D14368A1
:103DF0004C682344436001460A464B6813440468F8
:103E0000A34211D10C4C03682468A34208D04B682C
:103E10000468646823444B6003681B680B6005E01A
:103E2000054B1B680B6001E003680B60884200D003
:103E3000016010BDE0000020E80000202DE9F04105
:103E400004460D4616461F464FF000086560246183
:103E5000B5420CD8F01BA169884202D34FF001088B
:103E600011E0211D0948006801F07CFA0BE0BE4218
:103E700004D2BD4202D34FF0010804E0211D0448E2
:103E8000006801F06FFA4046BDE8F081440100206F
:103E90004001002070B5054602F00AF8A86B08B989
:103EA000012400E0002402F02DF8204670BD70B51A
:103EB000054601F0FDFFA86BE96B884201D10124A2
:103EC00000E0002402F01EF8204670BDF8B505465B
:103ED0000F4616480068C068C468201D00F005FD44
:103EE000E06901281DD1A06941192B463A462046B8
:103EF000FFF7A4FFA8B1002003462A460146009020
:103F0000204604F01BF9064656B900BF502080F346
:103F10001188BFF34F8FBFF36F8F00BF00BFFEE765
:103F200000BF2046616A8847F8BD000040010020BC
:103F300070B586B06AE00398002867DB059C60696D
:103F400008B9012000E0002010B9201D00F0CDFCD0
:103F500002A800F0BDF8054603980A2854D2DFE80D
:103F600000F009050731334F0608323400BF00BFA7
:103F700000BF00BF0498A269811803462A46204664
:103F8000FFF75CFFE8B12046616A8847E0690128D5
:103F900017D1002000900498A16942180023194607
:103FA000204604F0CBF8064656B900BF502080F3F7
:103FB0001188BFF34F8FBFF36F8F00BF00BFFEE7C5
:103FC00000BF22E000BF20E000BF0498A061A0690C
:103FD00008B1012000E0002050B900BF502080F35C
:103FE0001188BFF34F8FBFF36F8F00BF00BFFEE795
:103FF000A06941192B462A462046FFF71FFF04E01F
:10400000204601F09DFF00E000BF00BF00231A46DC
:1040100003A90448006803F085FB00288BD106B093
:1040200070BD000048010020F8B505460C4602F0BE
:1040300033FC684600F04CF80646009820BB44B9B3
:10404000B54206D803F0CCFF31462846FFF73EFFC5
:104050001CE03CB10E480068006808B9012000E08F
:1040600000200446A91B22460A48006802F0FCF81A
:1040700003F0B6FF50B94FF0805007490860BFF316
:104080004F8FBFF36F8F01E003F0AAFFF8BD000070
:10409000440100204801002004ED00E00A490968BD
:1040A000096809B9012100E0002121B14FF0FF3179
:1040B000064A116006E004490968C968C868034AED
:1040C00041681160704700000801002034010020A1
:1040D00070B5044603F02AFE05460748006885428D
:1040E00004D200F00BF80120206001E000202060E5
:1040F00001480560284670BD500100202DE9F843B5
:1041000032E024480068C068056822480068C0683A
:10411000C468201D00F0E9FB2046616A8847E06919
:10412000012821D1A0694619AE4207D966602461F1
:10413000211D1848006801F015F915E0002003461C
:104140002A4601460090204603F0F8FF074657B97B
:1041500000BF502080F31188BFF34F8FBFF36F8FE4
:1041600000BF00BFFEE700BF0A480068006808B94A
:10417000012000E000200028C3D00648D0F80080CD
:1041800005480068034908600348C0F80080BDE89E
:10419000F883000040010020440100200E48006820
:1041A000401C08B9012000E0002050B900BF502099
:1041B00080F31188BFF34F8FBFF36F8F00BF00BF35
:1041C000FEE700BF502080F31188BFF34F8FBFF38D
:1041D0006F8F00BF00BFFEE7F800002010B5024659
:1041E0000020114652B900BF502383F31188BFF35A
:1041F0004F8FBFF36F8F00BF00BFFEE70B4C4B69C3
:10420000A34201D1012300E0002373B1084C8B6A63
:10421000A34201D1012300E0002333B98B6A0BB91B
:10422000012300E0002303B1012010BD083001206C
:10423000E02F012008B500BF6846FFF7B3FC044635
:1042400020460099FFF7F0FEFFF772FEF4E770B525
:10425000044601F02DFE94F9455010E0606A08B95B
:10426000012000E0002038B904F1240003F06CFEC6
:1042700018B102F05BF900E003E0681E45B2002DC2
:10428000ECDC00BFFF2084F8450001F03BFE01F0AC
:104290000FFE94F9445010E0206908B9012000E0B5
:1042A000002048B904F1100003F04EFE08B102F0FE
:1042B0003DF9681E45B200E001E0002DECDC00BFD6
:1042C000FF2084F8440001F01DFE70BD2DE9F0418F
:1042D00004464FF0000802F0DFFA4648006808B9CB
:1042E000FFF774FC44480068204000286BD1D4B12B
:1042F000083404F00700B0B104F00700C0F1080072
:10430000044404F0070008B9012000E0002050B97F
:1043100000BF502080F31188BFF34F8FBFF36F8F22
:1043200000BF00BFFEE7002C4DD034480068844237
:1043300049D8334E3046056801E02E462D6868683E
:10434000A04202D228680028F7D12A480068854296
:1043500039D0306800F10808286830606868001BB0
:10436000102819D92F1907F0070008B9012000E01B
:10437000002050B900BF502080F31188BFF34F8F49
:10438000BFF36F8F00BF00BFFEE76868001B786057
:104390006C603846FFF71EFD184968680968081AFE
:1043A000164908600846006816490968884203D221
:1043B00012480068134908600F4968680968084393
:1043C00068600020286003F00BFE08F0070008B9C1
:1043D000012000E0002050B900BF502080F3118878
:1043E000BFF34F8FBFF36F8F00BF00BFFEE74046A4
:1043F000BDE8F081E8000020F4000020EC0000207F
:10440000E0000020F00000200648006830B10549B7
:10441000096801F14C00C96C491C01600148006841
:104420007047000004010020001F4FF080730360FC
:10443000001F21F001030360001F054B03601438C7
:104440000260001F6FF00203036020387047000015
:104450009D41000808B50021009102E00099491C27
:10446000009100EB4001C1EBC011009AB2EB811F3B
:10447000F4D308BD1CB501210C20FCF7C3FB0120BF
:104480008DF8040000208DF8060001208DF807004B
:1044900003208DF805004020009069462A48FCF76B
:1044A00002F9C020009069462848FCF7FCF84FF458
:1044B0000060009069462448FCF7F5F800208DF86C
:1044C000040001208DF8070003208DF805004FF44B
:1044D0008070009069461C48FCF7E5F880211B4875
:1044E000FCF757F940211848FCF753F940211748C9
:1044F000FCF74DF94FF400611348FCF74AF93220FC
:10450000FFF7A8FFFCF7C0FA8D212A20FCF764FB17
:104510003E212B20FCF760FB1E212D20FCF75CFBCD
:1045200000212C20FCF758FB40211520FCF754FB00
:104530003D211120FCF750FBFCF734FA3720FCF743
:104540006DFA034908701CBD00080240000C0240CF
:10455000850000203EB5044669462620FCF778FA1F
:1045600005460DB100203EBD01A8FCF728FA05461E
:104570000DB10020F7E79DF8040000069DF8051036
:1045800040EA01409DF8061040EA01209DF807101E
:10459000084320600120E6E710B5044624B9402115
:1045A0000D48FCF7EBF810BD012C04D140210B485D
:1045B000FCF7E4F8F7E7022C04D1E1010848FCF726
:1045C000DDF8F0E7032C04D110210548FCF7D6F8FC
:1045D000E9E70120E7E70000000402400010024084
:1045E0000000024010B5044680211448FCF7D1F8C1
:1045F0004FF400411248FCF7CCF84FF420711148F9
:10460000FCF7C7F824B980210C48FCF7C0F814E087
:10461000012C04D1E1030A48FCF7B9F80DE0022CA3
:1046200004D180210748FCF7B2F806E0032C04D13E
:104630004FF400710348FCF7AAF810BD00040240D3
:10464000001802400008024008B50020009004E075
:10465000BDF80000401C80B20090BDF80000322878
:10466000F6DB08BD10B588B0044601214120FCF7F7
:10467000C9FA01211020FCF7E5FA01208DF81C0091
:1046800000208DF81E004FF48070069000208DF8F9
:104690001F0002208DF81D0006A92648FCF703F82C
:1046A00002208DF81C0000208DF81E004FF4C06021
:1046B000069000208DF81F0002208DF81D0006A92D
:1046C0001D48FBF7F0FF072209211B48FCF733F8D0
:1046D00007220A211848FCF72EF802940020ADF8B2
:1046E0000C00ADF81000ADF80E000C20ADF8120073
:1046F0000020ADF8140002A91048FCF79FFD01222C
:1047000040F225510D48FCF773FD25208DF804007B
:1047100001208DF8050002208DF8060001208DF89B
:10472000070001A8FCF7D0F801210448FCF71DFDA3
:1047300008B010BD00180240000002400010014007
:1047400010B586B0044601210846FCF75BFA01214A
:104750004804FCF767FA02208DF8140000208DF859
:1047600016000C20049001208DF8170002208DF80F
:10477000150004A91248FBF796FF072202211048F2
:10478000FBF7D9FF072203210D48FBF7D4FF009464
:104790000020ADF80400ADF80800ADF806000C20CC
:1047A000ADF80A000020ADF80C0069460548FCF79A
:1047B00045FD01210348FCF7D8FC06B010BD000000
:1047C000000002400044004010B5044600BF8021B4
:1047D0000448FCF7D6FC0128F9D121460148FCF732
:1047E0009CFD10BD0044004010B5044603E014F8E1
:1047F000010BFFF7E9FF20780028F8D110BD000079
:1048000010B588B0044601210220FCF7FBF9012114
:104810008804FCF707FA02208DF81C0000208DF8B0
:104820001E004FF44060069000208DF81F0002200B
:104830008DF81D0006A91D48FBF735FF07220A2148
:104840001A48FBF778FF07220B211848FBF773FF84
:1048500002940020ADF80C00ADF81000ADF80E0089
:104860000C20ADF812000020ADF8140002A9104889
:10487000FCF7E4FC012240F225510D48FCF7B8FC9E
:1048800027208DF8040008208DF8050002208DF8FF
:10489000060001208DF8070001A8FCF715F801219A
:1048A0000348FCF762FC08B010BD000000040240A1
:1048B0000048004010B5044600BF80210448FCF7C2
:1048C00060FC0128F9D121460148FCF726FD10BD06
:1048D0000048004010B5044603E014F8010BFFF750
:1048E000E9FF20780028F8D110BD01460A69D1E916
:1048F00001309860D1E9010358605068884201D1C5
:1049000088685060002008611068401E10601068C0
:10491000704700001CB5002001900120009000BFEE
:104920001A48007810B91A48007818B1002001F030
:1049300041FFF5E71748007818B3174800780128B9
:104940001FD101A8FDF77AFDD8B1BDF8041013A05E
:10495000FCF7E8FC00230A2269461648006803F0C9
:104960000FF80020144908604FF4FA60FDF742FE8A
:1049700001201249C1F8A402002007490870054926
:1049800008704FF4FA7001F029FDC9E74C000020CF
:104990004F000020510000205200002046696E6741
:1049A000657220556E6C6F636B212049443A202557
:1049B000640D0A0028000020A48242420080424286
:1049C0008CB000BF002400260027142102A8FBF7AA
:1049D0006CFC002500BF00235A1E0BA9FC48006890
:1049E00002F0A0FE01287CD107B1F4E7F948007875
:1049F00000B1F0E7042C00DB0324012C03D1F648BE
:104A0000007800B90024FEF759F89DF82C002A28F8
:104A10002BD10024FEF762F8FEF796FA00BF0023C0
:104A20005A1E1946ED48006802F07CFEE0B1FEF720
:104A3000F9FAEBA200210846FEF79CFBECA202214A
:104A40000020FEF797FBEDA204210020FEF792FB69
:104A5000EDA206210020FEF78DFB00231A46194621
:104A6000DE48006802F08CFFB5E7072C75D2DFE85E
:104A700014F0070059017500C702AF03B003B1037A
:104A80009DF82C00312830D100BF01240120D249EB
:104A900008700020E04908700023421E1946CF48E4
:104AA000006802F03FFE002857D0FEF7BBFADBA2F9
:104AB00000210846FEF75EFBDCA202210020FEF783
:104AC00059FBDDA204210020FEF754FBDDA20621E4
:104AD0000020FEF74FFB00231A461946BF48006826
:104AE00000E080E302F04CFF37E09DF82C00322814
:104AF00033D100BF02240120D649087000251421BB
:104B000002A8FBF7D2FB00BF00231A460AA9D2482D
:104B1000006802F007FE0128F6D000235A1E19464D
:104B2000AE48006802F0FEFDB8B1FEF77BFACBA2FA
:104B300000210846FEF71EFBAFA202210020FEF76F
:104B400019FBCBA204210020FEF714FB00231A4618
:104B50001946A248006802F013FF43E39DF82C00B9
:104B60002A282FD10020BB490870002400251421D9
:104B700002A8FBF79AFB00235A1E194697480068C3
:104B800002F0D0FD00281CD0FEF74CFA94A20021C0
:104B90000846FEF7EFFA96A202210020FEF7EAFA95
:104BA00096A204210020FEF7E5FA97A20621002034
:104BB000FEF7E0FA00231A4619468848006802F01A
:104BC000DFFEAEE09DF82C00232879D1002002A959
:104BD0004855FDF71DFE8046414602A8FBF789FBBC
:104BE00060BB00209B4908700324FEF7E7F900230F
:104BF0005A1E19467948006802F094FD0028E0D05A
:104C0000FEF710FA9EA200210846FEF7B3FA87A22B
:104C100002210020FEF7AEFA87A204210020FEF751
:104C2000A9FA88A206210020FEF7A4FA00231A465A
:104C300019466A48006802F0A3FE72E000235A1E7B
:104C400019466648006802F06DFD68B1FEF7EAF9A2
:104C50008FA200210846FEF78DFA00231A46194656
:104C60005E48006802F08CFE4FF47A7001F0B6FBEB
:104C70000025142102A8FBF718FB00235A1E194631
:104C80005648006802F04EFD00284AD0FEF7CAF9E7
:104C900072A200210846FEF76DFA57A202210020F9
:104CA000FEF768FA72A204210020FEF763FA0023DF
:104CB0001A4619464948006802F062FE31E0FFE7F3
:104CC0009DF82C0030282CDB9DF82C00392828DC9E
:104CD000102D26DA9DF82C202846691CCDB202A999
:104CE0000A5400235A1E19463C48006802F01AFD77
:104CF000B8B1FEF797F959A200210846FEF73AFA33
:104D000002AA02210020FEF735FA59A20421002050
:104D1000FEF730FA00231A4619463048006802F0C0
:104D20002FFE5FE25E48007800B15BE29DF82C0048
:104D3000312826D1012038490870274908700023FE
:104D4000821E19462548006802F0ECFC002817D0A6
:104D5000FEF768F953A200210846FEF70BFA55A2A8
:104D600002210020FEF706FA56A206210020FEF7D7
:104D700001FA00231A4619461848006802F000FE9E
:104D80003DE19DF82C00322820D151A0FCF7CAFA51
:104D900002202149087001200F490870FDF7C6FE66
:104DA00000BF00231A4601A92B48006802F0BAFC94
:104DB0000128F6D000235A1E19460848006802F060
:104DC000B1FC10B1FEF72EF99AE0B0E0B8E00000B7
:104DD0003000002050000020510000204000002042
:104DE00053797374656D2052656164792100000008
:104DF000312D556E6C6F636B00000000322D4D61DC
:104E00006E61676500000000507265737320312089
:104E10006F7220320000000052000020556E6C6F4F
:104E2000636B204D6F64653A00000000312E4669C7
:104E30006E67657200000000322E50617373776FE9
:104E400072640000332E52464944202A2D42616389
:104E50006B000000530000202C000020456E74659C
:104E6000722041646D696E205077643A0000000042
:104E7000232D4F4B202A2D43616E63656C0000008B
:104E80004D616E616765204D6F64653A00000000FA
:104E900057726F6E672050617373776F7264210071
:104EA0004C00002046696E67657220556E6C6F631A
:104EB0006B000000506C6163652066696E67657207
:104EC0002E2E2E002A20746F2063616E63656C00A5
:104ED0005B764B65794D656E755461736B5D2053E0
:104EE000656C65637465642070617373776F726459
:104EF00020756E6C6F636B206D6F64650D0A00002A
:104F0000B9A200210846FEF735F9BBA20221002014
:104F1000FEF730F9AFF2A80206210020FEF72AF9C9
:104F200000231A461946B848006802F029FDB74820
:104F30000068002863D0B548006801F091FB5EE08E
:104F40009DF82C00332825D10320B1490870002397
:104F5000021F1946AC48006802F0E4FB00284ED05E
:104F6000FEF760F8ABA200210846FEF703F9ACA2F9
:104F700002210020FEF7FEF8AFF2B8020621002061
:104F8000FEF7F8F800231A4619469F48006802F019
:104F9000F7FC34E09DF82C002A2830D10020A449E9
:104FA00008709B4908700024FDF798FD00235A1EE5
:104FB00019469548006802F0B5FB00B3FEF732F8D9
:104FC000AFF2E41200210846FEF7D4F8AFF2E01287
:104FD00002210020FEF7CEF8AFF2E01204210020FB
:104FE000FEF7C8F8AFF2E01206210020FEF7C2F883
:104FF00000231A4619468448006802F0C1FCF1E01B
:105000009DF82C0031283DD1042400BF012089499E
:10501000087040200B9000235A1E0BA98648006898
:1050200002F0AEFC31200B9000235A1E0BA98248DF
:10503000006802F0A5FC00235A1E19467248006859
:1050400002F070FB00281CD0FDF7ECFF7BA20021D2
:105050000846FEF78FF87DA202210020FEF78AF8AD
:105060007CA204210020FEF785F87DA20621002005
:10507000FEF780F800231A4619466348006802F0DC
:105080007FFCA4E09DF82C0032284CD1052400BF01
:10509000FDF7FEFB064601206649087040200B9094
:1050A00000235A1E0BA96448006802F069FC3220F4
:1050B0000B9000235A1E0BA95F48006802F060FCA9
:1050C00000235A1E19465048006802F02BFB0028A6
:1050D0007DD0FDF7A7FF65A200210846FEF74AF83C
:1050E000002E09DD0020FDF7BBFB80464246022171
:1050F0000020FEF73FF804E05FA202210020FEF747
:1051000039F854A204210020FEF734F854A20621F5
:105110000020FEF72FF800231A4619463A48006887
:1051200002F02EFC53E09DF82C0033284FD10624CA
:1051300000BFFDF787FB064601203E49087040206E
:105140000B9000235A1E0BA93B48006802F018FC84
:1051500033200B9000235A1E0BA93748006802F039
:105160000FFC00235A1E19462748006802F0DAFA9D
:1051700068B3FDF757FF42A200210846FDF7FAFF8A
:10518000002E0EDD0020FDF747FB8046424640A181
:1051900007A8FCF7EBF807AA02210020FDF7EAFFB9
:1051A00004E035A202210020FDF7E4FF29A204213A
:1051B0000020FDF7DFFF2AA206210020FDF7DAFF1D
:1051C00000231A4619461048006802F0D9FB09E08E
:1051D00000BF00BF00235A1E0BA91748006802F049
:1051E000CFFB00BF00BF04E450617373776F72643C
:1051F00020556E6C6F636B00496E70757420706122
:105200007373776F72643A0040000020080000203A
:10521000520000205246494420556E6C6F636B006B
:105220005363616E20636172642E2E2E00000000B5
:1052300051000020500000203C00002046696E67AD
:105240006572204D616E6167653A000053656C3A86
:1052500020300000312D44656C20322D4164640003
:10526000332D557020342D446F776E0050776420B5
:105270004D616E6167653A00456D7074790000009C
:1052800052464944204D616E6167653A0000000056
:10529000253038580000000008B500BFFDF7C4FCF9
:1052A00000909DF80000002839D01F48007890B188
:1052B0001E48007838B100230A2269461C4800685D
:1052C00002F05EFB2BE000230A22694619480068C1
:1052D00002F056FB23E01848007838B100230A2278
:1052E00069461448006802F04BFB18E01348007848
:1052F00038B100230A2269461148006802F040FBD9
:105300000DE000230A2269460D48006802F038FBD0
:1053100000230A2269460748006802F031FB642036
:1053200001F05CF8BAE700004F00002050000020B8
:105330003C00002030000020530000204C000020E2
:105340002C00002000F1080141604FF0FF31816026
:1053500000F10801C1600161002101607047002176
:105360000161704710B502460B685C1C0CB91069EE
:1053700007E002F1080000E04068446824689C42AD
:10538000FAD944684C604C68A160886041600A6149
:105390001468641C146010BD42684A6093688B6096
:1053A000936859609160086103685B1C03607047F3
:1053B00094B000240026042514210EA8FAF775FFE6
:1053C0000027A14600200D9000BF00235A1E13A9FC
:1053D000FA48006802F0A6F9012875D19DF84C0042
:1053E000402819D10023642213A9F448006802F070
:1053F00099F901280FD19DF84C00312804D03228AA
:1054000004D0332806D103E0042503E0052501E09C
:10541000062500BF00BFD8E7FDF750FB9DF84C0004
:105420002A287DD1B9F1000F7BD04FF00009002769
:1054300014210EA8FAF739FF00235A1E1946E04836
:10544000006802F06FF900286CD0FDF7EBFD042D29
:1054500014D1DCA200210846FDF78CFEDDA202215A
:105460000020FDF787FEDDA204210020FDF782FE6B
:10547000DDA206210020FDF77DFE50E0052D24D1A0
:10548000FDF706FA0646DAA200210846FDF772FE8D
:10549000002E09DD0020FDF7E3F982465246022185
:1054A0000020FDF767FE04E0D4A202210020FDF7F2
:1054B00061FECAA204210020FDF75CFECAA20621FB
:1054C0000020FDF757FE2AE0D2E3062D27D1FDF795
:1054D000B9F90646CBA200210846FDF74BFE002E87
:1054E0000EDD0020FDF798F982465246C9A101A8B9
:1054F000FBF73CFF01AA02210020FDF73BFE04E080
:10550000BEA202210020FDF735FEB4A20421002036
:10551000FDF730FEB4A206210020FDF72BFE02E0CD
:105520003AE008E037E000231A461946A44800682C
:1055300002F026FA2FE04FF00009002714210EA8F0
:10554000FAF7B3FE00240020B44908700023421E7D
:1055500019469B48006802F0E5F8E0B1FDF762FDEE
:10556000AFA200210846FDF705FEB1A202210020EE
:10557000FDF700FEB1A204210020FDF7FBFDB2A261
:1055800006210020FDF7F6FD00231A4619468C4837
:10559000006802F0F5F918E7B9F1000F7ED0052D8B
:1055A0007DD19DF84C0023285BD100200EA9C85561
:1055B000042F34DB0EA8FDF79BF8C8B100235A1E58
:1055C00019467F48006802F0ADF868B1FDF72AFD82
:1055D000A1A202210020FDF7CDFD00231A461946A5
:1055E0007748006802F0CCF99DA001F049FF2CE05B
:1055F00000235A1E19467248006802F093F820B33F
:10560000FDF710FD9CA202210020FDF7B3FD002351
:105610001A4619466A48006802F0B2F915E00023FC
:105620005A1E19466648006802F07CF868B1FDF71A
:10563000F9FC93A202210020FDF79CFD00231A46ED
:1056400019465F48006802F09BF94FF47A7000F049
:10565000C5FE4FF00009002714210EA8FAF725FE19
:1056600084E29DF84C003028FADB9DF84C00392884
:10567000F6DC102FF4DA9DF84C203846791CCFB2B6
:105680000EA90A5400235A1E19464D48006802F01C
:1056900049F80028E4D0FDF7C5FC01E059E116E027
:1056A0007AA200210846FDF765FD0EAA022100201E
:1056B000FDF760FD78A204210020FDF75BFD0023CB
:1056C0001A4619463E48006802F05AF94EE2062D85
:1056D00073D100200D90002341F2883219467248A0
:1056E000006802F01FF8012860D10DA8FEF732FF14
:1056F000F0B30D98FCF7E0FF18B300235A1E1946CB
:105700002F48006802F00EF8B8B1FDF78BFC67A2D5
:1057100000210846FDF72EFD3EA10AA80D9AFBF7D1
:1057200025FE0AAA02210020FDF724FD00231A46C7
:1057300019462348006802F023F95FA001F0A0FE9B
:105740002DE000235A1E19461D48006801F0EAFFAB
:1057500028B3FDF767FC48A202210020FDF70AFDEF
:1057600000231A4619461648006802F009F916E0A7
:10577000FFE700235A1E19461148006801F0D2FFC6
:1057800068B1FDF74FFC51A202210020FDF7F2FCA9
:1057900000231A4619460A48006802F0F1F800236F
:1057A0001A4619464048006802F0EAF84FF47A7049
:1057B00000F014FE4FF00009D8E18DE03C0000201D
:1057C0004000002046696E676572204D616E61671A
:1057D000653A000053656C3A20300000312D446575
:1057E0006C20322D416464002A2D4261636B0000FD
:1057F000507764204D616E6167653A00456D707445
:105800007900000052464944204D616E6167653A57
:105810000000000025303858000000005000002033
:105820004D616E616765204D6F64653A0000000050
:10583000312E46696E67657200000000322E50619D
:105840007373776F72640000332E52464944202AE6
:105850002D4261636B000000536176656421000096
:1058600050415353574F52443A4144443A5355439D
:10587000434553530000000046756C6C2100000046
:10588000546F6F2053686F7274210000496E7075F9
:1058900074205057443A00005072657373202320DF
:1058A000746F207361766500480000204361726464
:1058B0002053617665642100524649443A4144448C
:1058C0003A53554343455353000000004E6F204365
:1058D0006172642100000000042D39D12046FCF7DC
:1058E0000FFAC8B100235A1E1946E548006801F0B6
:1058F00019FF68B1FDF796FBE2A202210020FDF737
:1059000039FC00231A461946DD48006802F038F8D1
:10591000DFA001F0B5FD15E000235A1E1946D84856
:10592000006801F0FFFE68B1FDF77CFBDDA20221FB
:105930000020FDF71FFC00231A461946D0480068D6
:1059400002F01EF84FF47A7000F048FD4FF00009A5
:105950000CE1042D04D0052D04D0062D0AD105E05C
:105960000A2607E0FCF794FF064603E0FCF76AFF0F
:10597000064600BF00BF9DF84C00312861D1002EC3
:10598000E6DD00235A1E1946BD48006801F0CAFE34
:1059900068B1FDF747FBC7A200210846FDF7EAFB07
:1059A00000231A461946B648006801F0E9FF0023B3
:1059B00041F2883209A9C348006801F0B3FE01280A
:1059C000C6D19DF82400312836D1042D04D0052DF0
:1059D00009D0062D15D10DE02046FCF707F9BAA035
:1059E00001F04EFD0DE02046FCF7DAFEBCA001F010
:1059F00047FD06E02046FCF7A3FEBFA001F040FDF6
:105A000000BF00BF701EA04200DC002400235A1E0D
:105A100019469B48006801F085FE68B1FDF702FB5E
:105A2000BAA202210020FDF7A5FB00231A46194661
:105A30009348006801F0A4FF4FF4FA7000F0CEFC28
:105A400094E09DF84C0032283AD14FF00109002330
:105A50005A1E19468A48006801F064FE00282ED0BC
:105A6000FDF7E0FA042D04D0052D08D0062D1ED137
:105A700017E0A9A200210846FDF77CFB17E0AFF272
:105A8000F41200210846FDF775FB89A202210020CF
:105A9000FDF770FBAFF2002204210020FDF76AFB46
:105AA00005E0A1A200210846FDF764FB00BF00BF8E
:105AB00000231A4619467248006801F061FF55E05C
:105AC0009DF84C00332804D1002C4FDD601EC4B279
:105AD0004CE09DF84C00342810D1042D04D1092C41
